{
  "src/contracts/NFTMarketplace.sol": {
    "NFTMarketplace": {
      "abi": [
        {
          "inputs": [
            {
              "internalType": "address",
              "name": "_nftCollection",
              "type": "address"
            }
          ],
          "stateMutability": "nonpayable",
          "type": "constructor"
        },
        {
          "anonymous": false,
          "inputs": [
            {
              "indexed": false,
              "internalType": "address",
              "name": "user",
              "type": "address"
            },
            {
              "indexed": false,
              "internalType": "uint256",
              "name": "amount",
              "type": "uint256"
            }
          ],
          "name": "ClaimFunds",
          "type": "event"
        },
        {
          "anonymous": false,
          "inputs": [
            {
              "indexed": false,
              "internalType": "uint256",
              "name": "offerId",
              "type": "uint256"
            },
            {
              "indexed": false,
              "internalType": "uint256",
              "name": "id",
              "type": "uint256"
            },
            {
              "indexed": false,
              "internalType": "address",
              "name": "user",
              "type": "address"
            },
            {
              "indexed": false,
              "internalType": "uint256",
              "name": "price",
              "type": "uint256"
            },
            {
              "indexed": false,
              "internalType": "bool",
              "name": "fulfilled",
              "type": "bool"
            },
            {
              "indexed": false,
              "internalType": "bool",
              "name": "cancelled",
              "type": "bool"
            }
          ],
          "name": "Offer",
          "type": "event"
        },
        {
          "anonymous": false,
          "inputs": [
            {
              "indexed": false,
              "internalType": "uint256",
              "name": "offerId",
              "type": "uint256"
            },
            {
              "indexed": false,
              "internalType": "uint256",
              "name": "id",
              "type": "uint256"
            },
            {
              "indexed": false,
              "internalType": "address",
              "name": "owner",
              "type": "address"
            }
          ],
          "name": "OfferCancelled",
          "type": "event"
        },
        {
          "anonymous": false,
          "inputs": [
            {
              "indexed": false,
              "internalType": "uint256",
              "name": "offerId",
              "type": "uint256"
            },
            {
              "indexed": false,
              "internalType": "uint256",
              "name": "id",
              "type": "uint256"
            },
            {
              "indexed": false,
              "internalType": "address",
              "name": "newOwner",
              "type": "address"
            }
          ],
          "name": "OfferFilled",
          "type": "event"
        },
        {
          "stateMutability": "nonpayable",
          "type": "fallback"
        },
        {
          "inputs": [
            {
              "internalType": "uint256",
              "name": "_offerId",
              "type": "uint256"
            }
          ],
          "name": "cancelOffer",
          "outputs": [],
          "stateMutability": "nonpayable",
          "type": "function"
        },
        {
          "inputs": [],
          "name": "claimFunds",
          "outputs": [],
          "stateMutability": "nonpayable",
          "type": "function"
        },
        {
          "inputs": [
            {
              "internalType": "uint256",
              "name": "_offerId",
              "type": "uint256"
            }
          ],
          "name": "fillOffer",
          "outputs": [],
          "stateMutability": "payable",
          "type": "function"
        },
        {
          "inputs": [
            {
              "internalType": "uint256",
              "name": "_id",
              "type": "uint256"
            },
            {
              "internalType": "uint256",
              "name": "_price",
              "type": "uint256"
            }
          ],
          "name": "makeOffer",
          "outputs": [],
          "stateMutability": "nonpayable",
          "type": "function"
        },
        {
          "inputs": [],
          "name": "offerCount",
          "outputs": [
            {
              "internalType": "uint256",
              "name": "",
              "type": "uint256"
            }
          ],
          "stateMutability": "view",
          "type": "function"
        },
        {
          "inputs": [
            {
              "internalType": "uint256",
              "name": "",
              "type": "uint256"
            }
          ],
          "name": "offers",
          "outputs": [
            {
              "internalType": "uint256",
              "name": "offerId",
              "type": "uint256"
            },
            {
              "internalType": "uint256",
              "name": "id",
              "type": "uint256"
            },
            {
              "internalType": "address",
              "name": "user",
              "type": "address"
            },
            {
              "internalType": "uint256",
              "name": "price",
              "type": "uint256"
            },
            {
              "internalType": "bool",
              "name": "fulfilled",
              "type": "bool"
            },
            {
              "internalType": "bool",
              "name": "cancelled",
              "type": "bool"
            }
          ],
          "stateMutability": "view",
          "type": "function"
        },
        {
          "inputs": [
            {
              "internalType": "address",
              "name": "",
              "type": "address"
            }
          ],
          "name": "userFunds",
          "outputs": [
            {
              "internalType": "uint256",
              "name": "",
              "type": "uint256"
            }
          ],
          "stateMutability": "view",
          "type": "function"
        }
      ],
      "evm": {
        "bytecode": {
          "linkReferences": {},
          "object": "608060405234801561001057600080fd5b50604051610b6a380380610b6a83398101604081905261002f91610054565b600380546001600160a01b0319166001600160a01b0392909216919091179055610082565b600060208284031215610065578081fd5b81516001600160a01b038116811461007b578182fd5b9392505050565b610ad9806100916000396000f3fe6080604052600436106100705760003560e01c806385dba8611161004e57806385dba861146100ef5780638a72ea6a14610102578063ac30777314610134578063ef706adf1461014957610070565b806305b7cdd3146100825780631115c24d146100a45780638387c6e1146100cf575b34801561007c57600080fd5b50600080fd5b34801561008e57600080fd5b506100a261009d366004610741565b610169565b005b3480156100b057600080fd5b506100b96102cc565b6040516100c691906109fd565b60405180910390f35b3480156100db57600080fd5b506100b96100ea3660046106fb565b6102d2565b6100a26100fd366004610729565b6102e4565b34801561010e57600080fd5b5061012261011d366004610729565b61049d565b6040516100c696959493929190610a25565b34801561014057600080fd5b506100a26104e1565b34801561015557600080fd5b506100a2610164366004610729565b6105a0565b6003546040516323b872dd60e01b81526001600160a01b03909116906323b872dd9061019d90339030908790600401610762565b600060405180830381600087803b1580156101b757600080fd5b505af11580156101cb573d6000803e3d6000fd5b50506000805492509050806101df83610a72565b90915550506040805160c08101825260008054808352602080840187815233858701818152606087018981526080880187815260a0890188815296885260019586905289882098518955935194880194909455516002870180546001600160a01b0319166001600160a01b03909216919091179055915160038601555160049094018054925160ff199093169415159490941761ff0019166101009215159290920291909117909255805492517f93e711896d4ef527d199d7e101922e20f918cbb248a0fb0977c52fda24aa1f1d936102c093909287928791908190610a25565b60405180910390a15050565b60005481565b60026020526000908152604090205481565b60008181526001602052604090208054821461031b5760405162461bcd60e51b815260040161031290610984565b60405180910390fd5b60028101546001600160a01b03163314156103485760405162461bcd60e51b81526004016103129061079f565b600481015460ff161561036d5760405162461bcd60e51b8152600401610312906108b2565b6004810154610100900460ff16156103975760405162461bcd60e51b8152600401610312906107e4565b806003015434146103ba5760405162461bcd60e51b8152600401610312906108f4565b60035460018201546040516323b872dd60e01b81526001600160a01b03909216916323b872dd916103f19130913391600401610762565b600060405180830381600087803b15801561040b57600080fd5b505af115801561041f573d6000803e3d6000fd5b50505060048201805460ff19166001179055506002808201546001600160a01b03166000908152602091909152604081208054349290610460908490610a5a565b909155505060018101546040517fd9157c065213ada613694e84b1e27fe2efd62d85c6b82bd6c842a4999491e72a916102c0918591903390610a06565b60016020819052600091825260409091208054918101546002820154600383015460049093015491926001600160a01b039091169160ff8082169161010090041686565b3360009081526002602052604090205461050d5760405162461bcd60e51b81526004016103129061086e565b3360008181526002602052604080822054905181156108fc0292818181858888f19350505050158015610544573d6000803e3d6000fd5b5033600081815260026020526040908190205490517f4f0554190111f93f8c2ccef2cc41473f187d7f29ff5a5c308ca41f9dfe4e989a92610586929091610786565b60405180910390a133600090815260026020526040812055565b6000818152600160205260409020805482146105ce5760405162461bcd60e51b815260040161031290610984565b60028101546001600160a01b031633146105fa5760405162461bcd60e51b8152600401610312906109b2565b600481015460ff161561061f5760405162461bcd60e51b815260040161031290610829565b6004810154610100900460ff16156106495760405162461bcd60e51b815260040161031290610942565b60035460018201546040516323b872dd60e01b81526001600160a01b03909216916323b872dd916106809130913391600401610762565b600060405180830381600087803b15801561069a57600080fd5b505af11580156106ae573d6000803e3d6000fd5b50505060048201805461ff0019166101001790555060018101546040517f5b166b4d0498ff8c4719999cb6154c5d197e6f020f9fbfcf9d347f84576cfab7916102c0918591903390610a06565b60006020828403121561070c578081fd5b81356001600160a01b0381168114610722578182fd5b9392505050565b60006020828403121561073a578081fd5b5035919050565b60008060408385031215610753578081fd5b50508035926020909101359150565b6001600160a01b039384168152919092166020820152604081019190915260600190565b6001600160a01b03929092168252602082015260400190565b60208082526025908201527f546865206f776e6572206f6620746865206f666665722063616e6e6f742066696040820152641b1b081a5d60da1b606082015260800190565b60208082526025908201527f412063616e63656c6c6564206f666665722063616e6e6f742062652066756c666040820152641a5b1b195960da1b606082015260800190565b60208082526025908201527f412066756c66696c6c6564206f666665722063616e6e6f742062652063616e63604082015264195b1b195960da1b606082015260800190565b60208082526024908201527f54686973207573657220686173206e6f2066756e647320746f20626520636c616040820152631a5b595960e21b606082015260800190565b60208082526022908201527f416e206f666665722063616e6e6f742062652066756c66696c6c656420747769604082015261636560f01b606082015260800190565b6020808252602e908201527f5468652045544820616d6f756e742073686f756c64206d61746368207769746860408201526d20746865204e465420507269636560901b606082015260800190565b60208082526022908201527f416e206f666665722063616e6e6f742062652063616e63656c6c656420747769604082015261636560f01b606082015260800190565b602080825260149082015273151a19481bd999995c881b5d5cdd08195e1a5cdd60621b604082015260600190565b6020808252602b908201527f546865206f666665722063616e206f6e6c792062652063616e63656c6564206260408201526a3c903a34329037bbb732b960a91b606082015260800190565b90815260200190565b92835260208301919091526001600160a01b0316604082015260600190565b95865260208601949094526001600160a01b03929092166040850152606084015215156080830152151560a082015260c00190565b60008219821115610a6d57610a6d610a8d565b500190565b6000600019821415610a8657610a86610a8d565b5060010190565b634e487b7160e01b600052601160045260246000fdfea2646970667358221220435c1939935965971488d56a280ff2e0072a9b543efc3923286566bc990cd6b964736f6c63430008000033",
          "opcodes": "PUSH1 0x80 PUSH1 0x40 MSTORE CALLVALUE DUP1 ISZERO PUSH2 0x10 JUMPI PUSH1 0x0 DUP1 REVERT JUMPDEST POP PUSH1 0x40 MLOAD PUSH2 0xB6A CODESIZE SUB DUP1 PUSH2 0xB6A DUP4 CODECOPY DUP2 ADD PUSH1 0x40 DUP2 SWAP1 MSTORE PUSH2 0x2F SWAP2 PUSH2 0x54 JUMP JUMPDEST PUSH1 0x3 DUP1 SLOAD PUSH1 0x1 PUSH1 0x1 PUSH1 0xA0 SHL SUB NOT AND PUSH1 0x1 PUSH1 0x1 PUSH1 0xA0 SHL SUB SWAP3 SWAP1 SWAP3 AND SWAP2 SWAP1 SWAP2 OR SWAP1 SSTORE PUSH2 0x82 JUMP JUMPDEST PUSH1 0x0 PUSH1 0x20 DUP3 DUP5 SUB SLT ISZERO PUSH2 0x65 JUMPI DUP1 DUP2 REVERT JUMPDEST DUP2 MLOAD PUSH1 0x1 PUSH1 0x1 PUSH1 0xA0 SHL SUB DUP2 AND DUP2 EQ PUSH2 0x7B JUMPI DUP2 DUP3 REVERT JUMPDEST SWAP4 SWAP3 POP POP POP JUMP JUMPDEST PUSH2 0xAD9 DUP1 PUSH2 0x91 PUSH1 0x0 CODECOPY PUSH1 0x0 RETURN INVALID PUSH1 0x80 PUSH1 0x40 MSTORE PUSH1 0x4 CALLDATASIZE LT PUSH2 0x70 JUMPI PUSH1 0x0 CALLDATALOAD PUSH1 0xE0 SHR DUP1 PUSH4 0x85DBA861 GT PUSH2 0x4E JUMPI DUP1 PUSH4 0x85DBA861 EQ PUSH2 0xEF JUMPI DUP1 PUSH4 0x8A72EA6A EQ PUSH2 0x102 JUMPI DUP1 PUSH4 0xAC307773 EQ PUSH2 0x134 JUMPI DUP1 PUSH4 0xEF706ADF EQ PUSH2 0x149 JUMPI PUSH2 0x70 JUMP JUMPDEST DUP1 PUSH4 0x5B7CDD3 EQ PUSH2 0x82 JUMPI DUP1 PUSH4 0x1115C24D EQ PUSH2 0xA4 JUMPI DUP1 PUSH4 0x8387C6E1 EQ PUSH2 0xCF JUMPI JUMPDEST CALLVALUE DUP1 ISZERO PUSH2 0x7C JUMPI PUSH1 0x0 DUP1 REVERT JUMPDEST POP PUSH1 0x0 DUP1 REVERT JUMPDEST CALLVALUE DUP1 ISZERO PUSH2 0x8E JUMPI PUSH1 0x0 DUP1 REVERT JUMPDEST POP PUSH2 0xA2 PUSH2 0x9D CALLDATASIZE PUSH1 0x4 PUSH2 0x741 JUMP JUMPDEST PUSH2 0x169 JUMP JUMPDEST STOP JUMPDEST CALLVALUE DUP1 ISZERO PUSH2 0xB0 JUMPI PUSH1 0x0 DUP1 REVERT JUMPDEST POP PUSH2 0xB9 PUSH2 0x2CC JUMP JUMPDEST PUSH1 0x40 MLOAD PUSH2 0xC6 SWAP2 SWAP1 PUSH2 0x9FD JUMP JUMPDEST PUSH1 0x40 MLOAD DUP1 SWAP2 SUB SWAP1 RETURN JUMPDEST CALLVALUE DUP1 ISZERO PUSH2 0xDB JUMPI PUSH1 0x0 DUP1 REVERT JUMPDEST POP PUSH2 0xB9 PUSH2 0xEA CALLDATASIZE PUSH1 0x4 PUSH2 0x6FB JUMP JUMPDEST PUSH2 0x2D2 JUMP JUMPDEST PUSH2 0xA2 PUSH2 0xFD CALLDATASIZE PUSH1 0x4 PUSH2 0x729 JUMP JUMPDEST PUSH2 0x2E4 JUMP JUMPDEST CALLVALUE DUP1 ISZERO PUSH2 0x10E JUMPI PUSH1 0x0 DUP1 REVERT JUMPDEST POP PUSH2 0x122 PUSH2 0x11D CALLDATASIZE PUSH1 0x4 PUSH2 0x729 JUMP JUMPDEST PUSH2 0x49D JUMP JUMPDEST PUSH1 0x40 MLOAD PUSH2 0xC6 SWAP7 SWAP6 SWAP5 SWAP4 SWAP3 SWAP2 SWAP1 PUSH2 0xA25 JUMP JUMPDEST CALLVALUE DUP1 ISZERO PUSH2 0x140 JUMPI PUSH1 0x0 DUP1 REVERT JUMPDEST POP PUSH2 0xA2 PUSH2 0x4E1 JUMP JUMPDEST CALLVALUE DUP1 ISZERO PUSH2 0x155 JUMPI PUSH1 0x0 DUP1 REVERT JUMPDEST POP PUSH2 0xA2 PUSH2 0x164 CALLDATASIZE PUSH1 0x4 PUSH2 0x729 JUMP JUMPDEST PUSH2 0x5A0 JUMP JUMPDEST PUSH1 0x3 SLOAD PUSH1 0x40 MLOAD PUSH4 0x23B872DD PUSH1 0xE0 SHL DUP2 MSTORE PUSH1 0x1 PUSH1 0x1 PUSH1 0xA0 SHL SUB SWAP1 SWAP2 AND SWAP1 PUSH4 0x23B872DD SWAP1 PUSH2 0x19D SWAP1 CALLER SWAP1 ADDRESS SWAP1 DUP8 SWAP1 PUSH1 0x4 ADD PUSH2 0x762 JUMP JUMPDEST PUSH1 0x0 PUSH1 0x40 MLOAD DUP1 DUP4 SUB DUP2 PUSH1 0x0 DUP8 DUP1 EXTCODESIZE ISZERO DUP1 ISZERO PUSH2 0x1B7 JUMPI PUSH1 0x0 DUP1 REVERT JUMPDEST POP GAS CALL ISZERO DUP1 ISZERO PUSH2 0x1CB JUMPI RETURNDATASIZE PUSH1 0x0 DUP1 RETURNDATACOPY RETURNDATASIZE PUSH1 0x0 REVERT JUMPDEST POP POP PUSH1 0x0 DUP1 SLOAD SWAP3 POP SWAP1 POP DUP1 PUSH2 0x1DF DUP4 PUSH2 0xA72 JUMP JUMPDEST SWAP1 SWAP2 SSTORE POP POP PUSH1 0x40 DUP1 MLOAD PUSH1 0xC0 DUP2 ADD DUP3 MSTORE PUSH1 0x0 DUP1 SLOAD DUP1 DUP4 MSTORE PUSH1 0x20 DUP1 DUP5 ADD DUP8 DUP2 MSTORE CALLER DUP6 DUP8 ADD DUP2 DUP2 MSTORE PUSH1 0x60 DUP8 ADD DUP10 DUP2 MSTORE PUSH1 0x80 DUP9 ADD DUP8 DUP2 MSTORE PUSH1 0xA0 DUP10 ADD DUP9 DUP2 MSTORE SWAP7 DUP9 MSTORE PUSH1 0x1 SWAP6 DUP7 SWAP1 MSTORE DUP10 DUP9 KECCAK256 SWAP9 MLOAD DUP10 SSTORE SWAP4 MLOAD SWAP5 DUP9 ADD SWAP5 SWAP1 SWAP5 SSTORE MLOAD PUSH1 0x2 DUP8 ADD DUP1 SLOAD PUSH1 0x1 PUSH1 0x1 PUSH1 0xA0 SHL SUB NOT AND PUSH1 0x1 PUSH1 0x1 PUSH1 0xA0 SHL SUB SWAP1 SWAP3 AND SWAP2 SWAP1 SWAP2 OR SWAP1 SSTORE SWAP2 MLOAD PUSH1 0x3 DUP7 ADD SSTORE MLOAD PUSH1 0x4 SWAP1 SWAP5 ADD DUP1 SLOAD SWAP3 MLOAD PUSH1 0xFF NOT SWAP1 SWAP4 AND SWAP5 ISZERO ISZERO SWAP5 SWAP1 SWAP5 OR PUSH2 0xFF00 NOT AND PUSH2 0x100 SWAP3 ISZERO ISZERO SWAP3 SWAP1 SWAP3 MUL SWAP2 SWAP1 SWAP2 OR SWAP1 SWAP3 SSTORE DUP1 SLOAD SWAP3 MLOAD PUSH32 0x93E711896D4EF527D199D7E101922E20F918CBB248A0FB0977C52FDA24AA1F1D SWAP4 PUSH2 0x2C0 SWAP4 SWAP1 SWAP3 DUP8 SWAP3 DUP8 SWAP2 SWAP1 DUP2 SWAP1 PUSH2 0xA25 JUMP JUMPDEST PUSH1 0x40 MLOAD DUP1 SWAP2 SUB SWAP1 LOG1 POP POP JUMP JUMPDEST PUSH1 0x0 SLOAD DUP2 JUMP JUMPDEST PUSH1 0x2 PUSH1 0x20 MSTORE PUSH1 0x0 SWAP1 DUP2 MSTORE PUSH1 0x40 SWAP1 KECCAK256 SLOAD DUP2 JUMP JUMPDEST PUSH1 0x0 DUP2 DUP2 MSTORE PUSH1 0x1 PUSH1 0x20 MSTORE PUSH1 0x40 SWAP1 KECCAK256 DUP1 SLOAD DUP3 EQ PUSH2 0x31B JUMPI PUSH1 0x40 MLOAD PUSH3 0x461BCD PUSH1 0xE5 SHL DUP2 MSTORE PUSH1 0x4 ADD PUSH2 0x312 SWAP1 PUSH2 0x984 JUMP JUMPDEST PUSH1 0x40 MLOAD DUP1 SWAP2 SUB SWAP1 REVERT JUMPDEST PUSH1 0x2 DUP2 ADD SLOAD PUSH1 0x1 PUSH1 0x1 PUSH1 0xA0 SHL SUB AND CALLER EQ ISZERO PUSH2 0x348 JUMPI PUSH1 0x40 MLOAD PUSH3 0x461BCD PUSH1 0xE5 SHL DUP2 MSTORE PUSH1 0x4 ADD PUSH2 0x312 SWAP1 PUSH2 0x79F JUMP JUMPDEST PUSH1 0x4 DUP2 ADD SLOAD PUSH1 0xFF AND ISZERO PUSH2 0x36D JUMPI PUSH1 0x40 MLOAD PUSH3 0x461BCD PUSH1 0xE5 SHL DUP2 MSTORE PUSH1 0x4 ADD PUSH2 0x312 SWAP1 PUSH2 0x8B2 JUMP JUMPDEST PUSH1 0x4 DUP2 ADD SLOAD PUSH2 0x100 SWAP1 DIV PUSH1 0xFF AND ISZERO PUSH2 0x397 JUMPI PUSH1 0x40 MLOAD PUSH3 0x461BCD PUSH1 0xE5 SHL DUP2 MSTORE PUSH1 0x4 ADD PUSH2 0x312 SWAP1 PUSH2 0x7E4 JUMP JUMPDEST DUP1 PUSH1 0x3 ADD SLOAD CALLVALUE EQ PUSH2 0x3BA JUMPI PUSH1 0x40 MLOAD PUSH3 0x461BCD PUSH1 0xE5 SHL DUP2 MSTORE PUSH1 0x4 ADD PUSH2 0x312 SWAP1 PUSH2 0x8F4 JUMP JUMPDEST PUSH1 0x3 SLOAD PUSH1 0x1 DUP3 ADD SLOAD PUSH1 0x40 MLOAD PUSH4 0x23B872DD PUSH1 0xE0 SHL DUP2 MSTORE PUSH1 0x1 PUSH1 0x1 PUSH1 0xA0 SHL SUB SWAP1 SWAP3 AND SWAP2 PUSH4 0x23B872DD SWAP2 PUSH2 0x3F1 SWAP2 ADDRESS SWAP2 CALLER SWAP2 PUSH1 0x4 ADD PUSH2 0x762 JUMP JUMPDEST PUSH1 0x0 PUSH1 0x40 MLOAD DUP1 DUP4 SUB DUP2 PUSH1 0x0 DUP8 DUP1 EXTCODESIZE ISZERO DUP1 ISZERO PUSH2 0x40B JUMPI PUSH1 0x0 DUP1 REVERT JUMPDEST POP GAS CALL ISZERO DUP1 ISZERO PUSH2 0x41F JUMPI RETURNDATASIZE PUSH1 0x0 DUP1 RETURNDATACOPY RETURNDATASIZE PUSH1 0x0 REVERT JUMPDEST POP POP POP PUSH1 0x4 DUP3 ADD DUP1 SLOAD PUSH1 0xFF NOT AND PUSH1 0x1 OR SWAP1 SSTORE POP PUSH1 0x2 DUP1 DUP3 ADD SLOAD PUSH1 0x1 PUSH1 0x1 PUSH1 0xA0 SHL SUB AND PUSH1 0x0 SWAP1 DUP2 MSTORE PUSH1 0x20 SWAP2 SWAP1 SWAP2 MSTORE PUSH1 0x40 DUP2 KECCAK256 DUP1 SLOAD CALLVALUE SWAP3 SWAP1 PUSH2 0x460 SWAP1 DUP5 SWAP1 PUSH2 0xA5A JUMP JUMPDEST SWAP1 SWAP2 SSTORE POP POP PUSH1 0x1 DUP2 ADD SLOAD PUSH1 0x40 MLOAD PUSH32 0xD9157C065213ADA613694E84B1E27FE2EFD62D85C6B82BD6C842A4999491E72A SWAP2 PUSH2 0x2C0 SWAP2 DUP6 SWAP2 SWAP1 CALLER SWAP1 PUSH2 0xA06 JUMP JUMPDEST PUSH1 0x1 PUSH1 0x20 DUP2 SWAP1 MSTORE PUSH1 0x0 SWAP2 DUP3 MSTORE PUSH1 0x40 SWAP1 SWAP2 KECCAK256 DUP1 SLOAD SWAP2 DUP2 ADD SLOAD PUSH1 0x2 DUP3 ADD SLOAD PUSH1 0x3 DUP4 ADD SLOAD PUSH1 0x4 SWAP1 SWAP4 ADD SLOAD SWAP2 SWAP3 PUSH1 0x1 PUSH1 0x1 PUSH1 0xA0 SHL SUB SWAP1 SWAP2 AND SWAP2 PUSH1 0xFF DUP1 DUP3 AND SWAP2 PUSH2 0x100 SWAP1 DIV AND DUP7 JUMP JUMPDEST CALLER PUSH1 0x0 SWAP1 DUP2 MSTORE PUSH1 0x2 PUSH1 0x20 MSTORE PUSH1 0x40 SWAP1 KECCAK256 SLOAD PUSH2 0x50D JUMPI PUSH1 0x40 MLOAD PUSH3 0x461BCD PUSH1 0xE5 SHL DUP2 MSTORE PUSH1 0x4 ADD PUSH2 0x312 SWAP1 PUSH2 0x86E JUMP JUMPDEST CALLER PUSH1 0x0 DUP2 DUP2 MSTORE PUSH1 0x2 PUSH1 0x20 MSTORE PUSH1 0x40 DUP1 DUP3 KECCAK256 SLOAD SWAP1 MLOAD DUP2 ISZERO PUSH2 0x8FC MUL SWAP3 DUP2 DUP2 DUP2 DUP6 DUP9 DUP9 CALL SWAP4 POP POP POP POP ISZERO DUP1 ISZERO PUSH2 0x544 JUMPI RETURNDATASIZE PUSH1 0x0 DUP1 RETURNDATACOPY RETURNDATASIZE PUSH1 0x0 REVERT JUMPDEST POP CALLER PUSH1 0x0 DUP2 DUP2 MSTORE PUSH1 0x2 PUSH1 0x20 MSTORE PUSH1 0x40 SWAP1 DUP2 SWAP1 KECCAK256 SLOAD SWAP1 MLOAD PUSH32 0x4F0554190111F93F8C2CCEF2CC41473F187D7F29FF5A5C308CA41F9DFE4E989A SWAP3 PUSH2 0x586 SWAP3 SWAP1 SWAP2 PUSH2 0x786 JUMP JUMPDEST PUSH1 0x40 MLOAD DUP1 SWAP2 SUB SWAP1 LOG1 CALLER PUSH1 0x0 SWAP1 DUP2 MSTORE PUSH1 0x2 PUSH1 0x20 MSTORE PUSH1 0x40 DUP2 KECCAK256 SSTORE JUMP JUMPDEST PUSH1 0x0 DUP2 DUP2 MSTORE PUSH1 0x1 PUSH1 0x20 MSTORE PUSH1 0x40 SWAP1 KECCAK256 DUP1 SLOAD DUP3 EQ PUSH2 0x5CE JUMPI PUSH1 0x40 MLOAD PUSH3 0x461BCD PUSH1 0xE5 SHL DUP2 MSTORE PUSH1 0x4 ADD PUSH2 0x312 SWAP1 PUSH2 0x984 JUMP JUMPDEST PUSH1 0x2 DUP2 ADD SLOAD PUSH1 0x1 PUSH1 0x1 PUSH1 0xA0 SHL SUB AND CALLER EQ PUSH2 0x5FA JUMPI PUSH1 0x40 MLOAD PUSH3 0x461BCD PUSH1 0xE5 SHL DUP2 MSTORE PUSH1 0x4 ADD PUSH2 0x312 SWAP1 PUSH2 0x9B2 JUMP JUMPDEST PUSH1 0x4 DUP2 ADD SLOAD PUSH1 0xFF AND ISZERO PUSH2 0x61F JUMPI PUSH1 0x40 MLOAD PUSH3 0x461BCD PUSH1 0xE5 SHL DUP2 MSTORE PUSH1 0x4 ADD PUSH2 0x312 SWAP1 PUSH2 0x829 JUMP JUMPDEST PUSH1 0x4 DUP2 ADD SLOAD PUSH2 0x100 SWAP1 DIV PUSH1 0xFF AND ISZERO PUSH2 0x649 JUMPI PUSH1 0x40 MLOAD PUSH3 0x461BCD PUSH1 0xE5 SHL DUP2 MSTORE PUSH1 0x4 ADD PUSH2 0x312 SWAP1 PUSH2 0x942 JUMP JUMPDEST PUSH1 0x3 SLOAD PUSH1 0x1 DUP3 ADD SLOAD PUSH1 0x40 MLOAD PUSH4 0x23B872DD PUSH1 0xE0 SHL DUP2 MSTORE PUSH1 0x1 PUSH1 0x1 PUSH1 0xA0 SHL SUB SWAP1 SWAP3 AND SWAP2 PUSH4 0x23B872DD SWAP2 PUSH2 0x680 SWAP2 ADDRESS SWAP2 CALLER SWAP2 PUSH1 0x4 ADD PUSH2 0x762 JUMP JUMPDEST PUSH1 0x0 PUSH1 0x40 MLOAD DUP1 DUP4 SUB DUP2 PUSH1 0x0 DUP8 DUP1 EXTCODESIZE ISZERO DUP1 ISZERO PUSH2 0x69A JUMPI PUSH1 0x0 DUP1 REVERT JUMPDEST POP GAS CALL ISZERO DUP1 ISZERO PUSH2 0x6AE JUMPI RETURNDATASIZE PUSH1 0x0 DUP1 RETURNDATACOPY RETURNDATASIZE PUSH1 0x0 REVERT JUMPDEST POP POP POP PUSH1 0x4 DUP3 ADD DUP1 SLOAD PUSH2 0xFF00 NOT AND PUSH2 0x100 OR SWAP1 SSTORE POP PUSH1 0x1 DUP2 ADD SLOAD PUSH1 0x40 MLOAD PUSH32 0x5B166B4D0498FF8C4719999CB6154C5D197E6F020F9FBFCF9D347F84576CFAB7 SWAP2 PUSH2 0x2C0 SWAP2 DUP6 SWAP2 SWAP1 CALLER SWAP1 PUSH2 0xA06 JUMP JUMPDEST PUSH1 0x0 PUSH1 0x20 DUP3 DUP5 SUB SLT ISZERO PUSH2 0x70C JUMPI DUP1 DUP2 REVERT JUMPDEST DUP2 CALLDATALOAD PUSH1 0x1 PUSH1 0x1 PUSH1 0xA0 SHL SUB DUP2 AND DUP2 EQ PUSH2 0x722 JUMPI DUP2 DUP3 REVERT JUMPDEST SWAP4 SWAP3 POP POP POP JUMP JUMPDEST PUSH1 0x0 PUSH1 0x20 DUP3 DUP5 SUB SLT ISZERO PUSH2 0x73A JUMPI DUP1 DUP2 REVERT JUMPDEST POP CALLDATALOAD SWAP2 SWAP1 POP JUMP JUMPDEST PUSH1 0x0 DUP1 PUSH1 0x40 DUP4 DUP6 SUB SLT ISZERO PUSH2 0x753 JUMPI DUP1 DUP2 REVERT JUMPDEST POP POP DUP1 CALLDATALOAD SWAP3 PUSH1 0x20 SWAP1 SWAP2 ADD CALLDATALOAD SWAP2 POP JUMP JUMPDEST PUSH1 0x1 PUSH1 0x1 PUSH1 0xA0 SHL SUB SWAP4 DUP5 AND DUP2 MSTORE SWAP2 SWAP1 SWAP3 AND PUSH1 0x20 DUP3 ADD MSTORE PUSH1 0x40 DUP2 ADD SWAP2 SWAP1 SWAP2 MSTORE PUSH1 0x60 ADD SWAP1 JUMP JUMPDEST PUSH1 0x1 PUSH1 0x1 PUSH1 0xA0 SHL SUB SWAP3 SWAP1 SWAP3 AND DUP3 MSTORE PUSH1 0x20 DUP3 ADD MSTORE PUSH1 0x40 ADD SWAP1 JUMP JUMPDEST PUSH1 0x20 DUP1 DUP3 MSTORE PUSH1 0x25 SWAP1 DUP3 ADD MSTORE PUSH32 0x546865206F776E6572206F6620746865206F666665722063616E6E6F74206669 PUSH1 0x40 DUP3 ADD MSTORE PUSH5 0x1B1B081A5D PUSH1 0xDA SHL PUSH1 0x60 DUP3 ADD MSTORE PUSH1 0x80 ADD SWAP1 JUMP JUMPDEST PUSH1 0x20 DUP1 DUP3 MSTORE PUSH1 0x25 SWAP1 DUP3 ADD MSTORE PUSH32 0x412063616E63656C6C6564206F666665722063616E6E6F742062652066756C66 PUSH1 0x40 DUP3 ADD MSTORE PUSH5 0x1A5B1B1959 PUSH1 0xDA SHL PUSH1 0x60 DUP3 ADD MSTORE PUSH1 0x80 ADD SWAP1 JUMP JUMPDEST PUSH1 0x20 DUP1 DUP3 MSTORE PUSH1 0x25 SWAP1 DUP3 ADD MSTORE PUSH32 0x412066756C66696C6C6564206F666665722063616E6E6F742062652063616E63 PUSH1 0x40 DUP3 ADD MSTORE PUSH5 0x195B1B1959 PUSH1 0xDA SHL PUSH1 0x60 DUP3 ADD MSTORE PUSH1 0x80 ADD SWAP1 JUMP JUMPDEST PUSH1 0x20 DUP1 DUP3 MSTORE PUSH1 0x24 SWAP1 DUP3 ADD MSTORE PUSH32 0x54686973207573657220686173206E6F2066756E647320746F20626520636C61 PUSH1 0x40 DUP3 ADD MSTORE PUSH4 0x1A5B5959 PUSH1 0xE2 SHL PUSH1 0x60 DUP3 ADD MSTORE PUSH1 0x80 ADD SWAP1 JUMP JUMPDEST PUSH1 0x20 DUP1 DUP3 MSTORE PUSH1 0x22 SWAP1 DUP3 ADD MSTORE PUSH32 0x416E206F666665722063616E6E6F742062652066756C66696C6C656420747769 PUSH1 0x40 DUP3 ADD MSTORE PUSH2 0x6365 PUSH1 0xF0 SHL PUSH1 0x60 DUP3 ADD MSTORE PUSH1 0x80 ADD SWAP1 JUMP JUMPDEST PUSH1 0x20 DUP1 DUP3 MSTORE PUSH1 0x2E SWAP1 DUP3 ADD MSTORE PUSH32 0x5468652045544820616D6F756E742073686F756C64206D617463682077697468 PUSH1 0x40 DUP3 ADD MSTORE PUSH14 0x20746865204E4654205072696365 PUSH1 0x90 SHL PUSH1 0x60 DUP3 ADD MSTORE PUSH1 0x80 ADD SWAP1 JUMP JUMPDEST PUSH1 0x20 DUP1 DUP3 MSTORE PUSH1 0x22 SWAP1 DUP3 ADD MSTORE PUSH32 0x416E206F666665722063616E6E6F742062652063616E63656C6C656420747769 PUSH1 0x40 DUP3 ADD MSTORE PUSH2 0x6365 PUSH1 0xF0 SHL PUSH1 0x60 DUP3 ADD MSTORE PUSH1 0x80 ADD SWAP1 JUMP JUMPDEST PUSH1 0x20 DUP1 DUP3 MSTORE PUSH1 0x14 SWAP1 DUP3 ADD MSTORE PUSH20 0x151A19481BD999995C881B5D5CDD08195E1A5CDD PUSH1 0x62 SHL PUSH1 0x40 DUP3 ADD MSTORE PUSH1 0x60 ADD SWAP1 JUMP JUMPDEST PUSH1 0x20 DUP1 DUP3 MSTORE PUSH1 0x2B SWAP1 DUP3 ADD MSTORE PUSH32 0x546865206F666665722063616E206F6E6C792062652063616E63656C65642062 PUSH1 0x40 DUP3 ADD MSTORE PUSH11 0x3C903A34329037BBB732B9 PUSH1 0xA9 SHL PUSH1 0x60 DUP3 ADD MSTORE PUSH1 0x80 ADD SWAP1 JUMP JUMPDEST SWAP1 DUP2 MSTORE PUSH1 0x20 ADD SWAP1 JUMP JUMPDEST SWAP3 DUP4 MSTORE PUSH1 0x20 DUP4 ADD SWAP2 SWAP1 SWAP2 MSTORE PUSH1 0x1 PUSH1 0x1 PUSH1 0xA0 SHL SUB AND PUSH1 0x40 DUP3 ADD MSTORE PUSH1 0x60 ADD SWAP1 JUMP JUMPDEST SWAP6 DUP7 MSTORE PUSH1 0x20 DUP7 ADD SWAP5 SWAP1 SWAP5 MSTORE PUSH1 0x1 PUSH1 0x1 PUSH1 0xA0 SHL SUB SWAP3 SWAP1 SWAP3 AND PUSH1 0x40 DUP6 ADD MSTORE PUSH1 0x60 DUP5 ADD MSTORE ISZERO ISZERO PUSH1 0x80 DUP4 ADD MSTORE ISZERO ISZERO PUSH1 0xA0 DUP3 ADD MSTORE PUSH1 0xC0 ADD SWAP1 JUMP JUMPDEST PUSH1 0x0 DUP3 NOT DUP3 GT ISZERO PUSH2 0xA6D JUMPI PUSH2 0xA6D PUSH2 0xA8D JUMP JUMPDEST POP ADD SWAP1 JUMP JUMPDEST PUSH1 0x0 PUSH1 0x0 NOT DUP3 EQ ISZERO PUSH2 0xA86 JUMPI PUSH2 0xA86 PUSH2 0xA8D JUMP JUMPDEST POP PUSH1 0x1 ADD SWAP1 JUMP JUMPDEST PUSH4 0x4E487B71 PUSH1 0xE0 SHL PUSH1 0x0 MSTORE PUSH1 0x11 PUSH1 0x4 MSTORE PUSH1 0x24 PUSH1 0x0 REVERT INVALID LOG2 PUSH5 0x6970667358 0x22 SLT KECCAK256 NUMBER 0x5C NOT CODECOPY SWAP4 MSIZE PUSH6 0x971488D56A28 0xF CALLCODE 0xE0 SMOD 0x2A SWAP12 SLOAD RETURNDATACOPY 0xFC CODECOPY 0x23 0x28 PUSH6 0x66BC990CD6B9 PUSH5 0x736F6C6343 STOP ADDMOD STOP STOP CALLER "
        },
        "methodIdentifiers": {
          "cancelOffer(uint256)": "ef706adf",
          "claimFunds()": "ac307773",
          "fillOffer(uint256)": "85dba861",
          "makeOffer(uint256,uint256)": "05b7cdd3",
          "offerCount()": "1115c24d",
          "offers(uint256)": "8a72ea6a",
          "userFunds(address)": "8387c6e1"
        }
      }
    }
  }
}