{
  "src/contracts/NFTMarketplace.sol": {
    "NFTMarketplace": {
      "abi": [
        {
          "inputs": [
            {
              "internalType": "address",
              "name": "_nftCollection",
              "type": "address"
            }
          ],
          "stateMutability": "nonpayable",
          "type": "constructor"
        },
        {
          "anonymous": false,
          "inputs": [
            {
              "indexed": false,
              "internalType": "address",
              "name": "user",
              "type": "address"
            },
            {
              "indexed": false,
              "internalType": "uint256",
              "name": "amount",
              "type": "uint256"
            }
          ],
          "name": "ClaimFunds",
          "type": "event"
        },
        {
          "anonymous": false,
          "inputs": [
            {
              "indexed": false,
              "internalType": "uint256",
              "name": "offerId",
              "type": "uint256"
            },
            {
              "indexed": false,
              "internalType": "uint256",
              "name": "id",
              "type": "uint256"
            },
            {
              "indexed": false,
              "internalType": "address",
              "name": "user",
              "type": "address"
            },
            {
              "indexed": false,
              "internalType": "uint256",
              "name": "price",
              "type": "uint256"
            },
            {
              "indexed": false,
              "internalType": "bool",
              "name": "fulfilled",
              "type": "bool"
            },
            {
              "indexed": false,
              "internalType": "bool",
              "name": "cancelled",
              "type": "bool"
            }
          ],
          "name": "Offer",
          "type": "event"
        },
        {
          "anonymous": false,
          "inputs": [
            {
              "indexed": false,
              "internalType": "uint256",
              "name": "offerId",
              "type": "uint256"
            },
            {
              "indexed": false,
              "internalType": "uint256",
              "name": "id",
              "type": "uint256"
            },
            {
              "indexed": false,
              "internalType": "address",
              "name": "owner",
              "type": "address"
            }
          ],
          "name": "OfferCancelled",
          "type": "event"
        },
        {
          "anonymous": false,
          "inputs": [
            {
              "indexed": false,
              "internalType": "uint256",
              "name": "offerId",
              "type": "uint256"
            },
            {
              "indexed": false,
              "internalType": "uint256",
              "name": "id",
              "type": "uint256"
            },
            {
              "indexed": false,
              "internalType": "address",
              "name": "newOwner",
              "type": "address"
            }
          ],
          "name": "OfferFilled",
          "type": "event"
        },
        {
          "stateMutability": "nonpayable",
          "type": "fallback"
        },
        {
          "inputs": [],
          "name": "_tokenContractAddress",
          "outputs": [
            {
              "internalType": "address",
              "name": "",
              "type": "address"
            }
          ],
          "stateMutability": "view",
          "type": "function"
        },
        {
          "inputs": [
            {
              "internalType": "uint256",
              "name": "_offerId",
              "type": "uint256"
            }
          ],
          "name": "cancelOffer",
          "outputs": [],
          "stateMutability": "nonpayable",
          "type": "function"
        },
        {
          "inputs": [],
          "name": "claimFunds",
          "outputs": [],
          "stateMutability": "nonpayable",
          "type": "function"
        },
        {
          "inputs": [],
          "name": "claimRoyaltyFunds",
          "outputs": [],
          "stateMutability": "nonpayable",
          "type": "function"
        },
        {
          "inputs": [],
          "name": "claimServiceFunds",
          "outputs": [],
          "stateMutability": "nonpayable",
          "type": "function"
        },
        {
          "inputs": [
            {
              "internalType": "uint256",
              "name": "_offerId",
              "type": "uint256"
            }
          ],
          "name": "fillOffer",
          "outputs": [],
          "stateMutability": "payable",
          "type": "function"
        },
        {
          "inputs": [
            {
              "internalType": "uint256",
              "name": "_id",
              "type": "uint256"
            },
            {
              "internalType": "uint256",
              "name": "_price",
              "type": "uint256"
            }
          ],
          "name": "makeOffer",
          "outputs": [],
          "stateMutability": "nonpayable",
          "type": "function"
        },
        {
          "inputs": [],
          "name": "offerCount",
          "outputs": [
            {
              "internalType": "uint256",
              "name": "",
              "type": "uint256"
            }
          ],
          "stateMutability": "view",
          "type": "function"
        },
        {
          "inputs": [
            {
              "internalType": "uint256",
              "name": "",
              "type": "uint256"
            }
          ],
          "name": "offers",
          "outputs": [
            {
              "internalType": "uint256",
              "name": "offerId",
              "type": "uint256"
            },
            {
              "internalType": "uint256",
              "name": "id",
              "type": "uint256"
            },
            {
              "internalType": "address",
              "name": "user",
              "type": "address"
            },
            {
              "internalType": "uint256",
              "name": "price",
              "type": "uint256"
            },
            {
              "internalType": "bool",
              "name": "fulfilled",
              "type": "bool"
            },
            {
              "internalType": "bool",
              "name": "cancelled",
              "type": "bool"
            }
          ],
          "stateMutability": "view",
          "type": "function"
        },
        {
          "inputs": [],
          "name": "payments",
          "outputs": [
            {
              "internalType": "address payable",
              "name": "",
              "type": "address"
            }
          ],
          "stateMutability": "view",
          "type": "function"
        },
        {
          "inputs": [
            {
              "internalType": "address",
              "name": "",
              "type": "address"
            }
          ],
          "name": "royaltyFunds",
          "outputs": [
            {
              "internalType": "uint256",
              "name": "",
              "type": "uint256"
            }
          ],
          "stateMutability": "view",
          "type": "function"
        },
        {
          "inputs": [
            {
              "internalType": "address",
              "name": "",
              "type": "address"
            }
          ],
          "name": "serviceFunds",
          "outputs": [
            {
              "internalType": "uint256",
              "name": "",
              "type": "uint256"
            }
          ],
          "stateMutability": "view",
          "type": "function"
        },
        {
          "inputs": [
            {
              "internalType": "address",
              "name": "",
              "type": "address"
            }
          ],
          "name": "userFunds",
          "outputs": [
            {
              "internalType": "uint256",
              "name": "",
              "type": "uint256"
            }
          ],
          "stateMutability": "view",
          "type": "function"
        }
      ],
      "evm": {
        "bytecode": {
          "linkReferences": {},
          "object": "6080604052600080546001600160a01b031916905534801561002057600080fd5b5060405161122d38038061122d83398101604081905261003f9161006e565b600080546001600160a01b039092166001600160a01b031992831681179091556007805490921617905561009c565b60006020828403121561007f578081fd5b81516001600160a01b0381168114610095578182fd5b9392505050565b611182806100ab6000396000f3fe6080604052600436106100c25760003560e01c806385dba8611161007f578063a6d23e1011610059578063a6d23e10146101fd578063ac30777314610212578063c490b92414610227578063ef706adf1461023c576100c2565b806385dba86114610198578063898c4c13146101ab5780638a72ea6a146101cb576100c2565b806305b7cdd3146100d45780631115c24d146100f657806332b06f8e146101215780635a27ddbd146101415780635cf0346f146101565780638387c6e114610178575b3480156100ce57600080fd5b50600080fd5b3480156100e057600080fd5b506100f46100ef366004610cd5565b61025c565b005b34801561010257600080fd5b5061010b6103c3565b6040516101189190611038565b60405180910390f35b34801561012d57600080fd5b5061010b61013c366004610c66565b6103c9565b34801561014d57600080fd5b506100f46103db565b34801561016257600080fd5b5061016b61046b565b6040516101189190610cf6565b34801561018457600080fd5b5061010b610193366004610c66565b61047a565b6100f46101a6366004610ca5565b61048c565b3480156101b757600080fd5b5061010b6101c6366004610c66565b610926565b3480156101d757600080fd5b506101eb6101e6366004610ca5565b610938565b60405161011896959493929190611060565b34801561020957600080fd5b5061016b61097e565b34801561021e57600080fd5b506100f461098d565b34801561023357600080fd5b506100f4610a4c565b34801561024857600080fd5b506100f4610257366004610ca5565b610b0b565b6007546040516323b872dd60e01b81526001600160a01b03909116906323b872dd9061029090339030908790600401610d0a565b600060405180830381600087803b1580156102aa57600080fd5b505af11580156102be573d6000803e3d6000fd5b5050600280549250905060006102d383611103565b90915550506040805160c081018252600280548083526020808401878152338587018181526060870189815260006080890181815260a08a018281529782526003968790528a822099518a55945160018a0155915188880180546001600160a01b0319166001600160a01b039092169190911790555193870193909355905160049095018054935160ff199094169515159590951761ff0019166101009315159390930292909217909355905492517f93e711896d4ef527d199d7e101922e20f918cbb248a0fb0977c52fda24aa1f1d936103b79390928792909187918190611060565b60405180910390a15050565b60025481565b60066020526000908152604090205481565b336000908152600660205260409020546104105760405162461bcd60e51b815260040161040790610f32565b60405180910390fd5b33600081815260066020526040908190205490517f4f0554190111f93f8c2ccef2cc41473f187d7f29ff5a5c308ca41f9dfe4e989a92610451929091610d2e565b60405180910390a133600090815260066020526040812055565b6000546001600160a01b031681565b60046020526000908152604090205481565b6000818152600360205260409020805482146104ba5760405162461bcd60e51b815260040161040790610fbf565b60028101546001600160a01b03163314156104e75760405162461bcd60e51b815260040161040790610d47565b600481015460ff161561050c5760405162461bcd60e51b815260040161040790610e5a565b6004810154610100900460ff16156105365760405162461bcd60e51b815260040161040790610d8c565b806003015434146105595760405162461bcd60e51b815260040161040790610e9c565b60075460018201546040516323b872dd60e01b81526001600160a01b03909216916323b872dd916105909130913391600401610d0a565b600060405180830381600087803b1580156105aa57600080fd5b505af11580156105be573d6000803e3d6000fd5b5050506004808301805460ff1916600190811790915583015460075460405162c840e960e61b81529193506000926001600160a01b03909116916332103a409161060a91869101611038565b60206040518083038186803b15801561062257600080fd5b505afa158015610636573d6000803e3d6000fd5b505050506040513d601f19601f8201168201806040525081019061065a9190610c89565b600754604051637a9d561560e11b81529192506000916001600160a01b039091169063f53aac2a90610690908690600401611038565b60206040518083038186803b1580156106a857600080fd5b505afa1580156106bc573d6000803e3d6000fd5b505050506040513d601f19601f820116820180604052508101906106e09190610c89565b60075460405163ef8a8cb160e01b81529192506000916001600160a01b039091169063ef8a8cb190610716908790600401611038565b60206040518083038186803b15801561072e57600080fd5b505afa158015610742573d6000803e3d6000fd5b505050506040513d601f19601f820116820180604052508101906107669190610cbd565b60075460405163028ba63960e21b81529192506000916001600160a01b0390911690630a2e98e49061079c908890600401611038565b60206040518083038186803b1580156107b457600080fd5b505afa1580156107c8573d6000803e3d6000fd5b505050506040513d601f19601f820116820180604052508101906107ec9190610cbd565b905034600068056bc75e2d6310000061080585846110cd565b61080f91906110ad565b9050600068056bc75e2d6310000061082785856110cd565b61083191906110ad565b9050600061083f8284611095565b61084990856110ec565b60028b01546001600160a01b031660009081526004602052604081208054929350839290919061087a908490611095565b90915550506001600160a01b038816600090815260056020526040812080548592906108a7908490611095565b90915550506001600160a01b038716600090815260066020526040812080548492906108d4908490611095565b909155505060018a01546040517fd9157c065213ada613694e84b1e27fe2efd62d85c6b82bd6c842a4999491e72a91610911918e91903390611041565b60405180910390a15050505050505050505050565b60056020526000908152604090205481565b600360208190526000918252604090912080546001820154600283015493830154600490930154919390926001600160a01b039091169160ff8082169161010090041686565b6001546001600160a01b031681565b336000908152600460205260409020546109b95760405162461bcd60e51b815260040161040790610e16565b3360008181526004602052604080822054905181156108fc0292818181858888f193505050501580156109f0573d6000803e3d6000fd5b5033600081815260046020526040908190205490517f4f0554190111f93f8c2ccef2cc41473f187d7f29ff5a5c308ca41f9dfe4e989a92610a32929091610d2e565b60405180910390a133600090815260046020526040812055565b33600090815260056020526040902054610a785760405162461bcd60e51b815260040161040790610eea565b3360008181526005602052604080822054905181156108fc0292818181858888f19350505050158015610aaf573d6000803e3d6000fd5b5033600081815260056020526040908190205490517f4f0554190111f93f8c2ccef2cc41473f187d7f29ff5a5c308ca41f9dfe4e989a92610af1929091610d2e565b60405180910390a133600090815260056020526040812055565b600081815260036020526040902080548214610b395760405162461bcd60e51b815260040161040790610fbf565b60028101546001600160a01b03163314610b655760405162461bcd60e51b815260040161040790610fed565b600481015460ff1615610b8a5760405162461bcd60e51b815260040161040790610dd1565b6004810154610100900460ff1615610bb45760405162461bcd60e51b815260040161040790610f7d565b60075460018201546040516323b872dd60e01b81526001600160a01b03909216916323b872dd91610beb9130913391600401610d0a565b600060405180830381600087803b158015610c0557600080fd5b505af1158015610c19573d6000803e3d6000fd5b50505060048201805461ff0019166101001790555060018101546040517f5b166b4d0498ff8c4719999cb6154c5d197e6f020f9fbfcf9d347f84576cfab7916103b7918591903390611041565b600060208284031215610c77578081fd5b8135610c8281611134565b9392505050565b600060208284031215610c9a578081fd5b8151610c8281611134565b600060208284031215610cb6578081fd5b5035919050565b600060208284031215610cce578081fd5b5051919050565b60008060408385031215610ce7578081fd5b50508035926020909101359150565b6001600160a01b0391909116815260200190565b6001600160a01b039384168152919092166020820152604081019190915260600190565b6001600160a01b03929092168252602082015260400190565b60208082526025908201527f546865206f776e6572206f6620746865206f666665722063616e6e6f742066696040820152641b1b081a5d60da1b606082015260800190565b60208082526025908201527f412063616e63656c6c6564206f666665722063616e6e6f742062652066756c666040820152641a5b1b195960da1b606082015260800190565b60208082526025908201527f412066756c66696c6c6564206f666665722063616e6e6f742062652063616e63604082015264195b1b195960da1b606082015260800190565b60208082526024908201527f54686973207573657220686173206e6f2066756e647320746f20626520636c616040820152631a5b595960e21b606082015260800190565b60208082526022908201527f416e206f666665722063616e6e6f742062652066756c66696c6c656420747769604082015261636560f01b606082015260800190565b6020808252602e908201527f5468652045544820616d6f756e742073686f756c64206d61746368207769746860408201526d20746865204e465420507269636560901b606082015260800190565b60208082526028908201527f54686973207573657220686173206e6f20726f79616c7469657320746f2062656040820152670818db185a5b595960c21b606082015260800190565b6020808252602b908201527f54686973207573657220686173206e6f2073657276696365206665657320746f60408201526a0818994818db185a5b595960aa1b606082015260800190565b60208082526022908201527f416e206f666665722063616e6e6f742062652063616e63656c6c656420747769604082015261636560f01b606082015260800190565b602080825260149082015273151a19481bd999995c881b5d5cdd08195e1a5cdd60621b604082015260600190565b6020808252602b908201527f546865206f666665722063616e206f6e6c792062652063616e63656c6564206260408201526a3c903a34329037bbb732b960a91b606082015260800190565b90815260200190565b92835260208301919091526001600160a01b0316604082015260600190565b95865260208601949094526001600160a01b03929092166040850152606084015215156080830152151560a082015260c00190565b600082198211156110a8576110a861111e565b500190565b6000826110c857634e487b7160e01b81526012600452602481fd5b500490565b60008160001904831182151516156110e7576110e761111e565b500290565b6000828210156110fe576110fe61111e565b500390565b60006000198214156111175761111761111e565b5060010190565b634e487b7160e01b600052601160045260246000fd5b6001600160a01b038116811461114957600080fd5b5056fea26469706673582212206ec045d43684f24372861518f577dab56acdb51ceb56496faaf2cc70361d5b7864736f6c63430008000033",
          "opcodes": "PUSH1 0x80 PUSH1 0x40 MSTORE PUSH1 0x0 DUP1 SLOAD PUSH1 0x1 PUSH1 0x1 PUSH1 0xA0 SHL SUB NOT AND SWAP1 SSTORE CALLVALUE DUP1 ISZERO PUSH2 0x20 JUMPI PUSH1 0x0 DUP1 REVERT JUMPDEST POP PUSH1 0x40 MLOAD PUSH2 0x122D CODESIZE SUB DUP1 PUSH2 0x122D DUP4 CODECOPY DUP2 ADD PUSH1 0x40 DUP2 SWAP1 MSTORE PUSH2 0x3F SWAP2 PUSH2 0x6E JUMP JUMPDEST PUSH1 0x0 DUP1 SLOAD PUSH1 0x1 PUSH1 0x1 PUSH1 0xA0 SHL SUB SWAP1 SWAP3 AND PUSH1 0x1 PUSH1 0x1 PUSH1 0xA0 SHL SUB NOT SWAP3 DUP4 AND DUP2 OR SWAP1 SWAP2 SSTORE PUSH1 0x7 DUP1 SLOAD SWAP1 SWAP3 AND OR SWAP1 SSTORE PUSH2 0x9C JUMP JUMPDEST PUSH1 0x0 PUSH1 0x20 DUP3 DUP5 SUB SLT ISZERO PUSH2 0x7F JUMPI DUP1 DUP2 REVERT JUMPDEST DUP2 MLOAD PUSH1 0x1 PUSH1 0x1 PUSH1 0xA0 SHL SUB DUP2 AND DUP2 EQ PUSH2 0x95 JUMPI DUP2 DUP3 REVERT JUMPDEST SWAP4 SWAP3 POP POP POP JUMP JUMPDEST PUSH2 0x1182 DUP1 PUSH2 0xAB PUSH1 0x0 CODECOPY PUSH1 0x0 RETURN INVALID PUSH1 0x80 PUSH1 0x40 MSTORE PUSH1 0x4 CALLDATASIZE LT PUSH2 0xC2 JUMPI PUSH1 0x0 CALLDATALOAD PUSH1 0xE0 SHR DUP1 PUSH4 0x85DBA861 GT PUSH2 0x7F JUMPI DUP1 PUSH4 0xA6D23E10 GT PUSH2 0x59 JUMPI DUP1 PUSH4 0xA6D23E10 EQ PUSH2 0x1FD JUMPI DUP1 PUSH4 0xAC307773 EQ PUSH2 0x212 JUMPI DUP1 PUSH4 0xC490B924 EQ PUSH2 0x227 JUMPI DUP1 PUSH4 0xEF706ADF EQ PUSH2 0x23C JUMPI PUSH2 0xC2 JUMP JUMPDEST DUP1 PUSH4 0x85DBA861 EQ PUSH2 0x198 JUMPI DUP1 PUSH4 0x898C4C13 EQ PUSH2 0x1AB JUMPI DUP1 PUSH4 0x8A72EA6A EQ PUSH2 0x1CB JUMPI PUSH2 0xC2 JUMP JUMPDEST DUP1 PUSH4 0x5B7CDD3 EQ PUSH2 0xD4 JUMPI DUP1 PUSH4 0x1115C24D EQ PUSH2 0xF6 JUMPI DUP1 PUSH4 0x32B06F8E EQ PUSH2 0x121 JUMPI DUP1 PUSH4 0x5A27DDBD EQ PUSH2 0x141 JUMPI DUP1 PUSH4 0x5CF0346F EQ PUSH2 0x156 JUMPI DUP1 PUSH4 0x8387C6E1 EQ PUSH2 0x178 JUMPI JUMPDEST CALLVALUE DUP1 ISZERO PUSH2 0xCE JUMPI PUSH1 0x0 DUP1 REVERT JUMPDEST POP PUSH1 0x0 DUP1 REVERT JUMPDEST CALLVALUE DUP1 ISZERO PUSH2 0xE0 JUMPI PUSH1 0x0 DUP1 REVERT JUMPDEST POP PUSH2 0xF4 PUSH2 0xEF CALLDATASIZE PUSH1 0x4 PUSH2 0xCD5 JUMP JUMPDEST PUSH2 0x25C JUMP JUMPDEST STOP JUMPDEST CALLVALUE DUP1 ISZERO PUSH2 0x102 JUMPI PUSH1 0x0 DUP1 REVERT JUMPDEST POP PUSH2 0x10B PUSH2 0x3C3 JUMP JUMPDEST PUSH1 0x40 MLOAD PUSH2 0x118 SWAP2 SWAP1 PUSH2 0x1038 JUMP JUMPDEST PUSH1 0x40 MLOAD DUP1 SWAP2 SUB SWAP1 RETURN JUMPDEST CALLVALUE DUP1 ISZERO PUSH2 0x12D JUMPI PUSH1 0x0 DUP1 REVERT JUMPDEST POP PUSH2 0x10B PUSH2 0x13C CALLDATASIZE PUSH1 0x4 PUSH2 0xC66 JUMP JUMPDEST PUSH2 0x3C9 JUMP JUMPDEST CALLVALUE DUP1 ISZERO PUSH2 0x14D JUMPI PUSH1 0x0 DUP1 REVERT JUMPDEST POP PUSH2 0xF4 PUSH2 0x3DB JUMP JUMPDEST CALLVALUE DUP1 ISZERO PUSH2 0x162 JUMPI PUSH1 0x0 DUP1 REVERT JUMPDEST POP PUSH2 0x16B PUSH2 0x46B JUMP JUMPDEST PUSH1 0x40 MLOAD PUSH2 0x118 SWAP2 SWAP1 PUSH2 0xCF6 JUMP JUMPDEST CALLVALUE DUP1 ISZERO PUSH2 0x184 JUMPI PUSH1 0x0 DUP1 REVERT JUMPDEST POP PUSH2 0x10B PUSH2 0x193 CALLDATASIZE PUSH1 0x4 PUSH2 0xC66 JUMP JUMPDEST PUSH2 0x47A JUMP JUMPDEST PUSH2 0xF4 PUSH2 0x1A6 CALLDATASIZE PUSH1 0x4 PUSH2 0xCA5 JUMP JUMPDEST PUSH2 0x48C JUMP JUMPDEST CALLVALUE DUP1 ISZERO PUSH2 0x1B7 JUMPI PUSH1 0x0 DUP1 REVERT JUMPDEST POP PUSH2 0x10B PUSH2 0x1C6 CALLDATASIZE PUSH1 0x4 PUSH2 0xC66 JUMP JUMPDEST PUSH2 0x926 JUMP JUMPDEST CALLVALUE DUP1 ISZERO PUSH2 0x1D7 JUMPI PUSH1 0x0 DUP1 REVERT JUMPDEST POP PUSH2 0x1EB PUSH2 0x1E6 CALLDATASIZE PUSH1 0x4 PUSH2 0xCA5 JUMP JUMPDEST PUSH2 0x938 JUMP JUMPDEST PUSH1 0x40 MLOAD PUSH2 0x118 SWAP7 SWAP6 SWAP5 SWAP4 SWAP3 SWAP2 SWAP1 PUSH2 0x1060 JUMP JUMPDEST CALLVALUE DUP1 ISZERO PUSH2 0x209 JUMPI PUSH1 0x0 DUP1 REVERT JUMPDEST POP PUSH2 0x16B PUSH2 0x97E JUMP JUMPDEST CALLVALUE DUP1 ISZERO PUSH2 0x21E JUMPI PUSH1 0x0 DUP1 REVERT JUMPDEST POP PUSH2 0xF4 PUSH2 0x98D JUMP JUMPDEST CALLVALUE DUP1 ISZERO PUSH2 0x233 JUMPI PUSH1 0x0 DUP1 REVERT JUMPDEST POP PUSH2 0xF4 PUSH2 0xA4C JUMP JUMPDEST CALLVALUE DUP1 ISZERO PUSH2 0x248 JUMPI PUSH1 0x0 DUP1 REVERT JUMPDEST POP PUSH2 0xF4 PUSH2 0x257 CALLDATASIZE PUSH1 0x4 PUSH2 0xCA5 JUMP JUMPDEST PUSH2 0xB0B JUMP JUMPDEST PUSH1 0x7 SLOAD PUSH1 0x40 MLOAD PUSH4 0x23B872DD PUSH1 0xE0 SHL DUP2 MSTORE PUSH1 0x1 PUSH1 0x1 PUSH1 0xA0 SHL SUB SWAP1 SWAP2 AND SWAP1 PUSH4 0x23B872DD SWAP1 PUSH2 0x290 SWAP1 CALLER SWAP1 ADDRESS SWAP1 DUP8 SWAP1 PUSH1 0x4 ADD PUSH2 0xD0A JUMP JUMPDEST PUSH1 0x0 PUSH1 0x40 MLOAD DUP1 DUP4 SUB DUP2 PUSH1 0x0 DUP8 DUP1 EXTCODESIZE ISZERO DUP1 ISZERO PUSH2 0x2AA JUMPI PUSH1 0x0 DUP1 REVERT JUMPDEST POP GAS CALL ISZERO DUP1 ISZERO PUSH2 0x2BE JUMPI RETURNDATASIZE PUSH1 0x0 DUP1 RETURNDATACOPY RETURNDATASIZE PUSH1 0x0 REVERT JUMPDEST POP POP PUSH1 0x2 DUP1 SLOAD SWAP3 POP SWAP1 POP PUSH1 0x0 PUSH2 0x2D3 DUP4 PUSH2 0x1103 JUMP JUMPDEST SWAP1 SWAP2 SSTORE POP POP PUSH1 0x40 DUP1 MLOAD PUSH1 0xC0 DUP2 ADD DUP3 MSTORE PUSH1 0x2 DUP1 SLOAD DUP1 DUP4 MSTORE PUSH1 0x20 DUP1 DUP5 ADD DUP8 DUP2 MSTORE CALLER DUP6 DUP8 ADD DUP2 DUP2 MSTORE PUSH1 0x60 DUP8 ADD DUP10 DUP2 MSTORE PUSH1 0x0 PUSH1 0x80 DUP10 ADD DUP2 DUP2 MSTORE PUSH1 0xA0 DUP11 ADD DUP3 DUP2 MSTORE SWAP8 DUP3 MSTORE PUSH1 0x3 SWAP7 DUP8 SWAP1 MSTORE DUP11 DUP3 KECCAK256 SWAP10 MLOAD DUP11 SSTORE SWAP5 MLOAD PUSH1 0x1 DUP11 ADD SSTORE SWAP2 MLOAD DUP9 DUP9 ADD DUP1 SLOAD PUSH1 0x1 PUSH1 0x1 PUSH1 0xA0 SHL SUB NOT AND PUSH1 0x1 PUSH1 0x1 PUSH1 0xA0 SHL SUB SWAP1 SWAP3 AND SWAP2 SWAP1 SWAP2 OR SWAP1 SSTORE MLOAD SWAP4 DUP8 ADD SWAP4 SWAP1 SWAP4 SSTORE SWAP1 MLOAD PUSH1 0x4 SWAP1 SWAP6 ADD DUP1 SLOAD SWAP4 MLOAD PUSH1 0xFF NOT SWAP1 SWAP5 AND SWAP6 ISZERO ISZERO SWAP6 SWAP1 SWAP6 OR PUSH2 0xFF00 NOT AND PUSH2 0x100 SWAP4 ISZERO ISZERO SWAP4 SWAP1 SWAP4 MUL SWAP3 SWAP1 SWAP3 OR SWAP1 SWAP4 SSTORE SWAP1 SLOAD SWAP3 MLOAD PUSH32 0x93E711896D4EF527D199D7E101922E20F918CBB248A0FB0977C52FDA24AA1F1D SWAP4 PUSH2 0x3B7 SWAP4 SWAP1 SWAP3 DUP8 SWAP3 SWAP1 SWAP2 DUP8 SWAP2 DUP2 SWAP1 PUSH2 0x1060 JUMP JUMPDEST PUSH1 0x40 MLOAD DUP1 SWAP2 SUB SWAP1 LOG1 POP POP JUMP JUMPDEST PUSH1 0x2 SLOAD DUP2 JUMP JUMPDEST PUSH1 0x6 PUSH1 0x20 MSTORE PUSH1 0x0 SWAP1 DUP2 MSTORE PUSH1 0x40 SWAP1 KECCAK256 SLOAD DUP2 JUMP JUMPDEST CALLER PUSH1 0x0 SWAP1 DUP2 MSTORE PUSH1 0x6 PUSH1 0x20 MSTORE PUSH1 0x40 SWAP1 KECCAK256 SLOAD PUSH2 0x410 JUMPI PUSH1 0x40 MLOAD PUSH3 0x461BCD PUSH1 0xE5 SHL DUP2 MSTORE PUSH1 0x4 ADD PUSH2 0x407 SWAP1 PUSH2 0xF32 JUMP JUMPDEST PUSH1 0x40 MLOAD DUP1 SWAP2 SUB SWAP1 REVERT JUMPDEST CALLER PUSH1 0x0 DUP2 DUP2 MSTORE PUSH1 0x6 PUSH1 0x20 MSTORE PUSH1 0x40 SWAP1 DUP2 SWAP1 KECCAK256 SLOAD SWAP1 MLOAD PUSH32 0x4F0554190111F93F8C2CCEF2CC41473F187D7F29FF5A5C308CA41F9DFE4E989A SWAP3 PUSH2 0x451 SWAP3 SWAP1 SWAP2 PUSH2 0xD2E JUMP JUMPDEST PUSH1 0x40 MLOAD DUP1 SWAP2 SUB SWAP1 LOG1 CALLER PUSH1 0x0 SWAP1 DUP2 MSTORE PUSH1 0x6 PUSH1 0x20 MSTORE PUSH1 0x40 DUP2 KECCAK256 SSTORE JUMP JUMPDEST PUSH1 0x0 SLOAD PUSH1 0x1 PUSH1 0x1 PUSH1 0xA0 SHL SUB AND DUP2 JUMP JUMPDEST PUSH1 0x4 PUSH1 0x20 MSTORE PUSH1 0x0 SWAP1 DUP2 MSTORE PUSH1 0x40 SWAP1 KECCAK256 SLOAD DUP2 JUMP JUMPDEST PUSH1 0x0 DUP2 DUP2 MSTORE PUSH1 0x3 PUSH1 0x20 MSTORE PUSH1 0x40 SWAP1 KECCAK256 DUP1 SLOAD DUP3 EQ PUSH2 0x4BA JUMPI PUSH1 0x40 MLOAD PUSH3 0x461BCD PUSH1 0xE5 SHL DUP2 MSTORE PUSH1 0x4 ADD PUSH2 0x407 SWAP1 PUSH2 0xFBF JUMP JUMPDEST PUSH1 0x2 DUP2 ADD SLOAD PUSH1 0x1 PUSH1 0x1 PUSH1 0xA0 SHL SUB AND CALLER EQ ISZERO PUSH2 0x4E7 JUMPI PUSH1 0x40 MLOAD PUSH3 0x461BCD PUSH1 0xE5 SHL DUP2 MSTORE PUSH1 0x4 ADD PUSH2 0x407 SWAP1 PUSH2 0xD47 JUMP JUMPDEST PUSH1 0x4 DUP2 ADD SLOAD PUSH1 0xFF AND ISZERO PUSH2 0x50C JUMPI PUSH1 0x40 MLOAD PUSH3 0x461BCD PUSH1 0xE5 SHL DUP2 MSTORE PUSH1 0x4 ADD PUSH2 0x407 SWAP1 PUSH2 0xE5A JUMP JUMPDEST PUSH1 0x4 DUP2 ADD SLOAD PUSH2 0x100 SWAP1 DIV PUSH1 0xFF AND ISZERO PUSH2 0x536 JUMPI PUSH1 0x40 MLOAD PUSH3 0x461BCD PUSH1 0xE5 SHL DUP2 MSTORE PUSH1 0x4 ADD PUSH2 0x407 SWAP1 PUSH2 0xD8C JUMP JUMPDEST DUP1 PUSH1 0x3 ADD SLOAD CALLVALUE EQ PUSH2 0x559 JUMPI PUSH1 0x40 MLOAD PUSH3 0x461BCD PUSH1 0xE5 SHL DUP2 MSTORE PUSH1 0x4 ADD PUSH2 0x407 SWAP1 PUSH2 0xE9C JUMP JUMPDEST PUSH1 0x7 SLOAD PUSH1 0x1 DUP3 ADD SLOAD PUSH1 0x40 MLOAD PUSH4 0x23B872DD PUSH1 0xE0 SHL DUP2 MSTORE PUSH1 0x1 PUSH1 0x1 PUSH1 0xA0 SHL SUB SWAP1 SWAP3 AND SWAP2 PUSH4 0x23B872DD SWAP2 PUSH2 0x590 SWAP2 ADDRESS SWAP2 CALLER SWAP2 PUSH1 0x4 ADD PUSH2 0xD0A JUMP JUMPDEST PUSH1 0x0 PUSH1 0x40 MLOAD DUP1 DUP4 SUB DUP2 PUSH1 0x0 DUP8 DUP1 EXTCODESIZE ISZERO DUP1 ISZERO PUSH2 0x5AA JUMPI PUSH1 0x0 DUP1 REVERT JUMPDEST POP GAS CALL ISZERO DUP1 ISZERO PUSH2 0x5BE JUMPI RETURNDATASIZE PUSH1 0x0 DUP1 RETURNDATACOPY RETURNDATASIZE PUSH1 0x0 REVERT JUMPDEST POP POP POP PUSH1 0x4 DUP1 DUP4 ADD DUP1 SLOAD PUSH1 0xFF NOT AND PUSH1 0x1 SWAP1 DUP2 OR SWAP1 SWAP2 SSTORE DUP4 ADD SLOAD PUSH1 0x7 SLOAD PUSH1 0x40 MLOAD PUSH3 0xC840E9 PUSH1 0xE6 SHL DUP2 MSTORE SWAP2 SWAP4 POP PUSH1 0x0 SWAP3 PUSH1 0x1 PUSH1 0x1 PUSH1 0xA0 SHL SUB SWAP1 SWAP2 AND SWAP2 PUSH4 0x32103A40 SWAP2 PUSH2 0x60A SWAP2 DUP7 SWAP2 ADD PUSH2 0x1038 JUMP JUMPDEST PUSH1 0x20 PUSH1 0x40 MLOAD DUP1 DUP4 SUB DUP2 DUP7 DUP1 EXTCODESIZE ISZERO DUP1 ISZERO PUSH2 0x622 JUMPI PUSH1 0x0 DUP1 REVERT JUMPDEST POP GAS STATICCALL ISZERO DUP1 ISZERO PUSH2 0x636 JUMPI RETURNDATASIZE PUSH1 0x0 DUP1 RETURNDATACOPY RETURNDATASIZE PUSH1 0x0 REVERT JUMPDEST POP POP POP POP PUSH1 0x40 MLOAD RETURNDATASIZE PUSH1 0x1F NOT PUSH1 0x1F DUP3 ADD AND DUP3 ADD DUP1 PUSH1 0x40 MSTORE POP DUP2 ADD SWAP1 PUSH2 0x65A SWAP2 SWAP1 PUSH2 0xC89 JUMP JUMPDEST PUSH1 0x7 SLOAD PUSH1 0x40 MLOAD PUSH4 0x7A9D5615 PUSH1 0xE1 SHL DUP2 MSTORE SWAP2 SWAP3 POP PUSH1 0x0 SWAP2 PUSH1 0x1 PUSH1 0x1 PUSH1 0xA0 SHL SUB SWAP1 SWAP2 AND SWAP1 PUSH4 0xF53AAC2A SWAP1 PUSH2 0x690 SWAP1 DUP7 SWAP1 PUSH1 0x4 ADD PUSH2 0x1038 JUMP JUMPDEST PUSH1 0x20 PUSH1 0x40 MLOAD DUP1 DUP4 SUB DUP2 DUP7 DUP1 EXTCODESIZE ISZERO DUP1 ISZERO PUSH2 0x6A8 JUMPI PUSH1 0x0 DUP1 REVERT JUMPDEST POP GAS STATICCALL ISZERO DUP1 ISZERO PUSH2 0x6BC JUMPI RETURNDATASIZE PUSH1 0x0 DUP1 RETURNDATACOPY RETURNDATASIZE PUSH1 0x0 REVERT JUMPDEST POP POP POP POP PUSH1 0x40 MLOAD RETURNDATASIZE PUSH1 0x1F NOT PUSH1 0x1F DUP3 ADD AND DUP3 ADD DUP1 PUSH1 0x40 MSTORE POP DUP2 ADD SWAP1 PUSH2 0x6E0 SWAP2 SWAP1 PUSH2 0xC89 JUMP JUMPDEST PUSH1 0x7 SLOAD PUSH1 0x40 MLOAD PUSH4 0xEF8A8CB1 PUSH1 0xE0 SHL DUP2 MSTORE SWAP2 SWAP3 POP PUSH1 0x0 SWAP2 PUSH1 0x1 PUSH1 0x1 PUSH1 0xA0 SHL SUB SWAP1 SWAP2 AND SWAP1 PUSH4 0xEF8A8CB1 SWAP1 PUSH2 0x716 SWAP1 DUP8 SWAP1 PUSH1 0x4 ADD PUSH2 0x1038 JUMP JUMPDEST PUSH1 0x20 PUSH1 0x40 MLOAD DUP1 DUP4 SUB DUP2 DUP7 DUP1 EXTCODESIZE ISZERO DUP1 ISZERO PUSH2 0x72E JUMPI PUSH1 0x0 DUP1 REVERT JUMPDEST POP GAS STATICCALL ISZERO DUP1 ISZERO PUSH2 0x742 JUMPI RETURNDATASIZE PUSH1 0x0 DUP1 RETURNDATACOPY RETURNDATASIZE PUSH1 0x0 REVERT JUMPDEST POP POP POP POP PUSH1 0x40 MLOAD RETURNDATASIZE PUSH1 0x1F NOT PUSH1 0x1F DUP3 ADD AND DUP3 ADD DUP1 PUSH1 0x40 MSTORE POP DUP2 ADD SWAP1 PUSH2 0x766 SWAP2 SWAP1 PUSH2 0xCBD JUMP JUMPDEST PUSH1 0x7 SLOAD PUSH1 0x40 MLOAD PUSH4 0x28BA639 PUSH1 0xE2 SHL DUP2 MSTORE SWAP2 SWAP3 POP PUSH1 0x0 SWAP2 PUSH1 0x1 PUSH1 0x1 PUSH1 0xA0 SHL SUB SWAP1 SWAP2 AND SWAP1 PUSH4 0xA2E98E4 SWAP1 PUSH2 0x79C SWAP1 DUP9 SWAP1 PUSH1 0x4 ADD PUSH2 0x1038 JUMP JUMPDEST PUSH1 0x20 PUSH1 0x40 MLOAD DUP1 DUP4 SUB DUP2 DUP7 DUP1 EXTCODESIZE ISZERO DUP1 ISZERO PUSH2 0x7B4 JUMPI PUSH1 0x0 DUP1 REVERT JUMPDEST POP GAS STATICCALL ISZERO DUP1 ISZERO PUSH2 0x7C8 JUMPI RETURNDATASIZE PUSH1 0x0 DUP1 RETURNDATACOPY RETURNDATASIZE PUSH1 0x0 REVERT JUMPDEST POP POP POP POP PUSH1 0x40 MLOAD RETURNDATASIZE PUSH1 0x1F NOT PUSH1 0x1F DUP3 ADD AND DUP3 ADD DUP1 PUSH1 0x40 MSTORE POP DUP2 ADD SWAP1 PUSH2 0x7EC SWAP2 SWAP1 PUSH2 0xCBD JUMP JUMPDEST SWAP1 POP CALLVALUE PUSH1 0x0 PUSH9 0x56BC75E2D63100000 PUSH2 0x805 DUP6 DUP5 PUSH2 0x10CD JUMP JUMPDEST PUSH2 0x80F SWAP2 SWAP1 PUSH2 0x10AD JUMP JUMPDEST SWAP1 POP PUSH1 0x0 PUSH9 0x56BC75E2D63100000 PUSH2 0x827 DUP6 DUP6 PUSH2 0x10CD JUMP JUMPDEST PUSH2 0x831 SWAP2 SWAP1 PUSH2 0x10AD JUMP JUMPDEST SWAP1 POP PUSH1 0x0 PUSH2 0x83F DUP3 DUP5 PUSH2 0x1095 JUMP JUMPDEST PUSH2 0x849 SWAP1 DUP6 PUSH2 0x10EC JUMP JUMPDEST PUSH1 0x2 DUP12 ADD SLOAD PUSH1 0x1 PUSH1 0x1 PUSH1 0xA0 SHL SUB AND PUSH1 0x0 SWAP1 DUP2 MSTORE PUSH1 0x4 PUSH1 0x20 MSTORE PUSH1 0x40 DUP2 KECCAK256 DUP1 SLOAD SWAP3 SWAP4 POP DUP4 SWAP3 SWAP1 SWAP2 SWAP1 PUSH2 0x87A SWAP1 DUP5 SWAP1 PUSH2 0x1095 JUMP JUMPDEST SWAP1 SWAP2 SSTORE POP POP PUSH1 0x1 PUSH1 0x1 PUSH1 0xA0 SHL SUB DUP9 AND PUSH1 0x0 SWAP1 DUP2 MSTORE PUSH1 0x5 PUSH1 0x20 MSTORE PUSH1 0x40 DUP2 KECCAK256 DUP1 SLOAD DUP6 SWAP3 SWAP1 PUSH2 0x8A7 SWAP1 DUP5 SWAP1 PUSH2 0x1095 JUMP JUMPDEST SWAP1 SWAP2 SSTORE POP POP PUSH1 0x1 PUSH1 0x1 PUSH1 0xA0 SHL SUB DUP8 AND PUSH1 0x0 SWAP1 DUP2 MSTORE PUSH1 0x6 PUSH1 0x20 MSTORE PUSH1 0x40 DUP2 KECCAK256 DUP1 SLOAD DUP5 SWAP3 SWAP1 PUSH2 0x8D4 SWAP1 DUP5 SWAP1 PUSH2 0x1095 JUMP JUMPDEST SWAP1 SWAP2 SSTORE POP POP PUSH1 0x1 DUP11 ADD SLOAD PUSH1 0x40 MLOAD PUSH32 0xD9157C065213ADA613694E84B1E27FE2EFD62D85C6B82BD6C842A4999491E72A SWAP2 PUSH2 0x911 SWAP2 DUP15 SWAP2 SWAP1 CALLER SWAP1 PUSH2 0x1041 JUMP JUMPDEST PUSH1 0x40 MLOAD DUP1 SWAP2 SUB SWAP1 LOG1 POP POP POP POP POP POP POP POP POP POP POP JUMP JUMPDEST PUSH1 0x5 PUSH1 0x20 MSTORE PUSH1 0x0 SWAP1 DUP2 MSTORE PUSH1 0x40 SWAP1 KECCAK256 SLOAD DUP2 JUMP JUMPDEST PUSH1 0x3 PUSH1 0x20 DUP2 SWAP1 MSTORE PUSH1 0x0 SWAP2 DUP3 MSTORE PUSH1 0x40 SWAP1 SWAP2 KECCAK256 DUP1 SLOAD PUSH1 0x1 DUP3 ADD SLOAD PUSH1 0x2 DUP4 ADD SLOAD SWAP4 DUP4 ADD SLOAD PUSH1 0x4 SWAP1 SWAP4 ADD SLOAD SWAP2 SWAP4 SWAP1 SWAP3 PUSH1 0x1 PUSH1 0x1 PUSH1 0xA0 SHL SUB SWAP1 SWAP2 AND SWAP2 PUSH1 0xFF DUP1 DUP3 AND SWAP2 PUSH2 0x100 SWAP1 DIV AND DUP7 JUMP JUMPDEST PUSH1 0x1 SLOAD PUSH1 0x1 PUSH1 0x1 PUSH1 0xA0 SHL SUB AND DUP2 JUMP JUMPDEST CALLER PUSH1 0x0 SWAP1 DUP2 MSTORE PUSH1 0x4 PUSH1 0x20 MSTORE PUSH1 0x40 SWAP1 KECCAK256 SLOAD PUSH2 0x9B9 JUMPI PUSH1 0x40 MLOAD PUSH3 0x461BCD PUSH1 0xE5 SHL DUP2 MSTORE PUSH1 0x4 ADD PUSH2 0x407 SWAP1 PUSH2 0xE16 JUMP JUMPDEST CALLER PUSH1 0x0 DUP2 DUP2 MSTORE PUSH1 0x4 PUSH1 0x20 MSTORE PUSH1 0x40 DUP1 DUP3 KECCAK256 SLOAD SWAP1 MLOAD DUP2 ISZERO PUSH2 0x8FC MUL SWAP3 DUP2 DUP2 DUP2 DUP6 DUP9 DUP9 CALL SWAP4 POP POP POP POP ISZERO DUP1 ISZERO PUSH2 0x9F0 JUMPI RETURNDATASIZE PUSH1 0x0 DUP1 RETURNDATACOPY RETURNDATASIZE PUSH1 0x0 REVERT JUMPDEST POP CALLER PUSH1 0x0 DUP2 DUP2 MSTORE PUSH1 0x4 PUSH1 0x20 MSTORE PUSH1 0x40 SWAP1 DUP2 SWAP1 KECCAK256 SLOAD SWAP1 MLOAD PUSH32 0x4F0554190111F93F8C2CCEF2CC41473F187D7F29FF5A5C308CA41F9DFE4E989A SWAP3 PUSH2 0xA32 SWAP3 SWAP1 SWAP2 PUSH2 0xD2E JUMP JUMPDEST PUSH1 0x40 MLOAD DUP1 SWAP2 SUB SWAP1 LOG1 CALLER PUSH1 0x0 SWAP1 DUP2 MSTORE PUSH1 0x4 PUSH1 0x20 MSTORE PUSH1 0x40 DUP2 KECCAK256 SSTORE JUMP JUMPDEST CALLER PUSH1 0x0 SWAP1 DUP2 MSTORE PUSH1 0x5 PUSH1 0x20 MSTORE PUSH1 0x40 SWAP1 KECCAK256 SLOAD PUSH2 0xA78 JUMPI PUSH1 0x40 MLOAD PUSH3 0x461BCD PUSH1 0xE5 SHL DUP2 MSTORE PUSH1 0x4 ADD PUSH2 0x407 SWAP1 PUSH2 0xEEA JUMP JUMPDEST CALLER PUSH1 0x0 DUP2 DUP2 MSTORE PUSH1 0x5 PUSH1 0x20 MSTORE PUSH1 0x40 DUP1 DUP3 KECCAK256 SLOAD SWAP1 MLOAD DUP2 ISZERO PUSH2 0x8FC MUL SWAP3 DUP2 DUP2 DUP2 DUP6 DUP9 DUP9 CALL SWAP4 POP POP POP POP ISZERO DUP1 ISZERO PUSH2 0xAAF JUMPI RETURNDATASIZE PUSH1 0x0 DUP1 RETURNDATACOPY RETURNDATASIZE PUSH1 0x0 REVERT JUMPDEST POP CALLER PUSH1 0x0 DUP2 DUP2 MSTORE PUSH1 0x5 PUSH1 0x20 MSTORE PUSH1 0x40 SWAP1 DUP2 SWAP1 KECCAK256 SLOAD SWAP1 MLOAD PUSH32 0x4F0554190111F93F8C2CCEF2CC41473F187D7F29FF5A5C308CA41F9DFE4E989A SWAP3 PUSH2 0xAF1 SWAP3 SWAP1 SWAP2 PUSH2 0xD2E JUMP JUMPDEST PUSH1 0x40 MLOAD DUP1 SWAP2 SUB SWAP1 LOG1 CALLER PUSH1 0x0 SWAP1 DUP2 MSTORE PUSH1 0x5 PUSH1 0x20 MSTORE PUSH1 0x40 DUP2 KECCAK256 SSTORE JUMP JUMPDEST PUSH1 0x0 DUP2 DUP2 MSTORE PUSH1 0x3 PUSH1 0x20 MSTORE PUSH1 0x40 SWAP1 KECCAK256 DUP1 SLOAD DUP3 EQ PUSH2 0xB39 JUMPI PUSH1 0x40 MLOAD PUSH3 0x461BCD PUSH1 0xE5 SHL DUP2 MSTORE PUSH1 0x4 ADD PUSH2 0x407 SWAP1 PUSH2 0xFBF JUMP JUMPDEST PUSH1 0x2 DUP2 ADD SLOAD PUSH1 0x1 PUSH1 0x1 PUSH1 0xA0 SHL SUB AND CALLER EQ PUSH2 0xB65 JUMPI PUSH1 0x40 MLOAD PUSH3 0x461BCD PUSH1 0xE5 SHL DUP2 MSTORE PUSH1 0x4 ADD PUSH2 0x407 SWAP1 PUSH2 0xFED JUMP JUMPDEST PUSH1 0x4 DUP2 ADD SLOAD PUSH1 0xFF AND ISZERO PUSH2 0xB8A JUMPI PUSH1 0x40 MLOAD PUSH3 0x461BCD PUSH1 0xE5 SHL DUP2 MSTORE PUSH1 0x4 ADD PUSH2 0x407 SWAP1 PUSH2 0xDD1 JUMP JUMPDEST PUSH1 0x4 DUP2 ADD SLOAD PUSH2 0x100 SWAP1 DIV PUSH1 0xFF AND ISZERO PUSH2 0xBB4 JUMPI PUSH1 0x40 MLOAD PUSH3 0x461BCD PUSH1 0xE5 SHL DUP2 MSTORE PUSH1 0x4 ADD PUSH2 0x407 SWAP1 PUSH2 0xF7D JUMP JUMPDEST PUSH1 0x7 SLOAD PUSH1 0x1 DUP3 ADD SLOAD PUSH1 0x40 MLOAD PUSH4 0x23B872DD PUSH1 0xE0 SHL DUP2 MSTORE PUSH1 0x1 PUSH1 0x1 PUSH1 0xA0 SHL SUB SWAP1 SWAP3 AND SWAP2 PUSH4 0x23B872DD SWAP2 PUSH2 0xBEB SWAP2 ADDRESS SWAP2 CALLER SWAP2 PUSH1 0x4 ADD PUSH2 0xD0A JUMP JUMPDEST PUSH1 0x0 PUSH1 0x40 MLOAD DUP1 DUP4 SUB DUP2 PUSH1 0x0 DUP8 DUP1 EXTCODESIZE ISZERO DUP1 ISZERO PUSH2 0xC05 JUMPI PUSH1 0x0 DUP1 REVERT JUMPDEST POP GAS CALL ISZERO DUP1 ISZERO PUSH2 0xC19 JUMPI RETURNDATASIZE PUSH1 0x0 DUP1 RETURNDATACOPY RETURNDATASIZE PUSH1 0x0 REVERT JUMPDEST POP POP POP PUSH1 0x4 DUP3 ADD DUP1 SLOAD PUSH2 0xFF00 NOT AND PUSH2 0x100 OR SWAP1 SSTORE POP PUSH1 0x1 DUP2 ADD SLOAD PUSH1 0x40 MLOAD PUSH32 0x5B166B4D0498FF8C4719999CB6154C5D197E6F020F9FBFCF9D347F84576CFAB7 SWAP2 PUSH2 0x3B7 SWAP2 DUP6 SWAP2 SWAP1 CALLER SWAP1 PUSH2 0x1041 JUMP JUMPDEST PUSH1 0x0 PUSH1 0x20 DUP3 DUP5 SUB SLT ISZERO PUSH2 0xC77 JUMPI DUP1 DUP2 REVERT JUMPDEST DUP2 CALLDATALOAD PUSH2 0xC82 DUP2 PUSH2 0x1134 JUMP JUMPDEST SWAP4 SWAP3 POP POP POP JUMP JUMPDEST PUSH1 0x0 PUSH1 0x20 DUP3 DUP5 SUB SLT ISZERO PUSH2 0xC9A JUMPI DUP1 DUP2 REVERT JUMPDEST DUP2 MLOAD PUSH2 0xC82 DUP2 PUSH2 0x1134 JUMP JUMPDEST PUSH1 0x0 PUSH1 0x20 DUP3 DUP5 SUB SLT ISZERO PUSH2 0xCB6 JUMPI DUP1 DUP2 REVERT JUMPDEST POP CALLDATALOAD SWAP2 SWAP1 POP JUMP JUMPDEST PUSH1 0x0 PUSH1 0x20 DUP3 DUP5 SUB SLT ISZERO PUSH2 0xCCE JUMPI DUP1 DUP2 REVERT JUMPDEST POP MLOAD SWAP2 SWAP1 POP JUMP JUMPDEST PUSH1 0x0 DUP1 PUSH1 0x40 DUP4 DUP6 SUB SLT ISZERO PUSH2 0xCE7 JUMPI DUP1 DUP2 REVERT JUMPDEST POP POP DUP1 CALLDATALOAD SWAP3 PUSH1 0x20 SWAP1 SWAP2 ADD CALLDATALOAD SWAP2 POP JUMP JUMPDEST PUSH1 0x1 PUSH1 0x1 PUSH1 0xA0 SHL SUB SWAP2 SWAP1 SWAP2 AND DUP2 MSTORE PUSH1 0x20 ADD SWAP1 JUMP JUMPDEST PUSH1 0x1 PUSH1 0x1 PUSH1 0xA0 SHL SUB SWAP4 DUP5 AND DUP2 MSTORE SWAP2 SWAP1 SWAP3 AND PUSH1 0x20 DUP3 ADD MSTORE PUSH1 0x40 DUP2 ADD SWAP2 SWAP1 SWAP2 MSTORE PUSH1 0x60 ADD SWAP1 JUMP JUMPDEST PUSH1 0x1 PUSH1 0x1 PUSH1 0xA0 SHL SUB SWAP3 SWAP1 SWAP3 AND DUP3 MSTORE PUSH1 0x20 DUP3 ADD MSTORE PUSH1 0x40 ADD SWAP1 JUMP JUMPDEST PUSH1 0x20 DUP1 DUP3 MSTORE PUSH1 0x25 SWAP1 DUP3 ADD MSTORE PUSH32 0x546865206F776E6572206F6620746865206F666665722063616E6E6F74206669 PUSH1 0x40 DUP3 ADD MSTORE PUSH5 0x1B1B081A5D PUSH1 0xDA SHL PUSH1 0x60 DUP3 ADD MSTORE PUSH1 0x80 ADD SWAP1 JUMP JUMPDEST PUSH1 0x20 DUP1 DUP3 MSTORE PUSH1 0x25 SWAP1 DUP3 ADD MSTORE PUSH32 0x412063616E63656C6C6564206F666665722063616E6E6F742062652066756C66 PUSH1 0x40 DUP3 ADD MSTORE PUSH5 0x1A5B1B1959 PUSH1 0xDA SHL PUSH1 0x60 DUP3 ADD MSTORE PUSH1 0x80 ADD SWAP1 JUMP JUMPDEST PUSH1 0x20 DUP1 DUP3 MSTORE PUSH1 0x25 SWAP1 DUP3 ADD MSTORE PUSH32 0x412066756C66696C6C6564206F666665722063616E6E6F742062652063616E63 PUSH1 0x40 DUP3 ADD MSTORE PUSH5 0x195B1B1959 PUSH1 0xDA SHL PUSH1 0x60 DUP3 ADD MSTORE PUSH1 0x80 ADD SWAP1 JUMP JUMPDEST PUSH1 0x20 DUP1 DUP3 MSTORE PUSH1 0x24 SWAP1 DUP3 ADD MSTORE PUSH32 0x54686973207573657220686173206E6F2066756E647320746F20626520636C61 PUSH1 0x40 DUP3 ADD MSTORE PUSH4 0x1A5B5959 PUSH1 0xE2 SHL PUSH1 0x60 DUP3 ADD MSTORE PUSH1 0x80 ADD SWAP1 JUMP JUMPDEST PUSH1 0x20 DUP1 DUP3 MSTORE PUSH1 0x22 SWAP1 DUP3 ADD MSTORE PUSH32 0x416E206F666665722063616E6E6F742062652066756C66696C6C656420747769 PUSH1 0x40 DUP3 ADD MSTORE PUSH2 0x6365 PUSH1 0xF0 SHL PUSH1 0x60 DUP3 ADD MSTORE PUSH1 0x80 ADD SWAP1 JUMP JUMPDEST PUSH1 0x20 DUP1 DUP3 MSTORE PUSH1 0x2E SWAP1 DUP3 ADD MSTORE PUSH32 0x5468652045544820616D6F756E742073686F756C64206D617463682077697468 PUSH1 0x40 DUP3 ADD MSTORE PUSH14 0x20746865204E4654205072696365 PUSH1 0x90 SHL PUSH1 0x60 DUP3 ADD MSTORE PUSH1 0x80 ADD SWAP1 JUMP JUMPDEST PUSH1 0x20 DUP1 DUP3 MSTORE PUSH1 0x28 SWAP1 DUP3 ADD MSTORE PUSH32 0x54686973207573657220686173206E6F20726F79616C7469657320746F206265 PUSH1 0x40 DUP3 ADD MSTORE PUSH8 0x818DB185A5B5959 PUSH1 0xC2 SHL PUSH1 0x60 DUP3 ADD MSTORE PUSH1 0x80 ADD SWAP1 JUMP JUMPDEST PUSH1 0x20 DUP1 DUP3 MSTORE PUSH1 0x2B SWAP1 DUP3 ADD MSTORE PUSH32 0x54686973207573657220686173206E6F2073657276696365206665657320746F PUSH1 0x40 DUP3 ADD MSTORE PUSH11 0x818994818DB185A5B5959 PUSH1 0xAA SHL PUSH1 0x60 DUP3 ADD MSTORE PUSH1 0x80 ADD SWAP1 JUMP JUMPDEST PUSH1 0x20 DUP1 DUP3 MSTORE PUSH1 0x22 SWAP1 DUP3 ADD MSTORE PUSH32 0x416E206F666665722063616E6E6F742062652063616E63656C6C656420747769 PUSH1 0x40 DUP3 ADD MSTORE PUSH2 0x6365 PUSH1 0xF0 SHL PUSH1 0x60 DUP3 ADD MSTORE PUSH1 0x80 ADD SWAP1 JUMP JUMPDEST PUSH1 0x20 DUP1 DUP3 MSTORE PUSH1 0x14 SWAP1 DUP3 ADD MSTORE PUSH20 0x151A19481BD999995C881B5D5CDD08195E1A5CDD PUSH1 0x62 SHL PUSH1 0x40 DUP3 ADD MSTORE PUSH1 0x60 ADD SWAP1 JUMP JUMPDEST PUSH1 0x20 DUP1 DUP3 MSTORE PUSH1 0x2B SWAP1 DUP3 ADD MSTORE PUSH32 0x546865206F666665722063616E206F6E6C792062652063616E63656C65642062 PUSH1 0x40 DUP3 ADD MSTORE PUSH11 0x3C903A34329037BBB732B9 PUSH1 0xA9 SHL PUSH1 0x60 DUP3 ADD MSTORE PUSH1 0x80 ADD SWAP1 JUMP JUMPDEST SWAP1 DUP2 MSTORE PUSH1 0x20 ADD SWAP1 JUMP JUMPDEST SWAP3 DUP4 MSTORE PUSH1 0x20 DUP4 ADD SWAP2 SWAP1 SWAP2 MSTORE PUSH1 0x1 PUSH1 0x1 PUSH1 0xA0 SHL SUB AND PUSH1 0x40 DUP3 ADD MSTORE PUSH1 0x60 ADD SWAP1 JUMP JUMPDEST SWAP6 DUP7 MSTORE PUSH1 0x20 DUP7 ADD SWAP5 SWAP1 SWAP5 MSTORE PUSH1 0x1 PUSH1 0x1 PUSH1 0xA0 SHL SUB SWAP3 SWAP1 SWAP3 AND PUSH1 0x40 DUP6 ADD MSTORE PUSH1 0x60 DUP5 ADD MSTORE ISZERO ISZERO PUSH1 0x80 DUP4 ADD MSTORE ISZERO ISZERO PUSH1 0xA0 DUP3 ADD MSTORE PUSH1 0xC0 ADD SWAP1 JUMP JUMPDEST PUSH1 0x0 DUP3 NOT DUP3 GT ISZERO PUSH2 0x10A8 JUMPI PUSH2 0x10A8 PUSH2 0x111E JUMP JUMPDEST POP ADD SWAP1 JUMP JUMPDEST PUSH1 0x0 DUP3 PUSH2 0x10C8 JUMPI PUSH4 0x4E487B71 PUSH1 0xE0 SHL DUP2 MSTORE PUSH1 0x12 PUSH1 0x4 MSTORE PUSH1 0x24 DUP2 REVERT JUMPDEST POP DIV SWAP1 JUMP JUMPDEST PUSH1 0x0 DUP2 PUSH1 0x0 NOT DIV DUP4 GT DUP3 ISZERO ISZERO AND ISZERO PUSH2 0x10E7 JUMPI PUSH2 0x10E7 PUSH2 0x111E JUMP JUMPDEST POP MUL SWAP1 JUMP JUMPDEST PUSH1 0x0 DUP3 DUP3 LT ISZERO PUSH2 0x10FE JUMPI PUSH2 0x10FE PUSH2 0x111E JUMP JUMPDEST POP SUB SWAP1 JUMP JUMPDEST PUSH1 0x0 PUSH1 0x0 NOT DUP3 EQ ISZERO PUSH2 0x1117 JUMPI PUSH2 0x1117 PUSH2 0x111E JUMP JUMPDEST POP PUSH1 0x1 ADD SWAP1 JUMP JUMPDEST PUSH4 0x4E487B71 PUSH1 0xE0 SHL PUSH1 0x0 MSTORE PUSH1 0x11 PUSH1 0x4 MSTORE PUSH1 0x24 PUSH1 0x0 REVERT JUMPDEST PUSH1 0x1 PUSH1 0x1 PUSH1 0xA0 SHL SUB DUP2 AND DUP2 EQ PUSH2 0x1149 JUMPI PUSH1 0x0 DUP1 REVERT JUMPDEST POP JUMP INVALID LOG2 PUSH5 0x6970667358 0x22 SLT KECCAK256 PUSH15 0xC045D43684F24372861518F577DAB5 PUSH11 0xCDB51CEB56496FAAF2CC70 CALLDATASIZE SAR JUMPDEST PUSH25 0x64736F6C634300080000330000000000000000000000000000 "
        },
        "methodIdentifiers": {
          "_tokenContractAddress()": "5cf0346f",
          "cancelOffer(uint256)": "ef706adf",
          "claimFunds()": "ac307773",
          "claimRoyaltyFunds()": "c490b924",
          "claimServiceFunds()": "5a27ddbd",
          "fillOffer(uint256)": "85dba861",
          "makeOffer(uint256,uint256)": "05b7cdd3",
          "offerCount()": "1115c24d",
          "offers(uint256)": "8a72ea6a",
          "payments()": "a6d23e10",
          "royaltyFunds(address)": "898c4c13",
          "serviceFunds(address)": "32b06f8e",
          "userFunds(address)": "8387c6e1"
        }
      }
    }
  }
}