{
  "_format": "hh-sol-artifact-1",
  "contractName": "NFTPayment",
  "sourceName": "src/contracts/NFTPayment.sol",
  "abi": [
    {
      "inputs": [
        {
          "internalType": "address[]",
          "name": "_payees",
          "type": "address[]"
        },
        {
          "internalType": "uint256[]",
          "name": "_shares",
          "type": "uint256[]"
        }
      ],
      "stateMutability": "payable",
      "type": "constructor"
    },
    {
      "anonymous": false,
      "inputs": [
        {
          "indexed": false,
          "internalType": "address",
          "name": "account",
          "type": "address"
        },
        {
          "indexed": false,
          "internalType": "uint256",
          "name": "shares",
          "type": "uint256"
        }
      ],
      "name": "PayeeAdded",
      "type": "event"
    },
    {
      "anonymous": false,
      "inputs": [
        {
          "indexed": false,
          "internalType": "address",
          "name": "from",
          "type": "address"
        },
        {
          "indexed": false,
          "internalType": "uint256",
          "name": "amount",
          "type": "uint256"
        }
      ],
      "name": "PaymentReceived",
      "type": "event"
    },
    {
      "anonymous": false,
      "inputs": [
        {
          "indexed": false,
          "internalType": "address",
          "name": "to",
          "type": "address"
        },
        {
          "indexed": false,
          "internalType": "uint256",
          "name": "amount",
          "type": "uint256"
        }
      ],
      "name": "PaymentReleased",
      "type": "event"
    },
    {
      "inputs": [
        {
          "internalType": "uint256",
          "name": "index",
          "type": "uint256"
        }
      ],
      "name": "payee",
      "outputs": [
        {
          "internalType": "address",
          "name": "",
          "type": "address"
        }
      ],
      "stateMutability": "view",
      "type": "function"
    },
    {
      "inputs": [
        {
          "internalType": "address payable",
          "name": "account",
          "type": "address"
        }
      ],
      "name": "release",
      "outputs": [],
      "stateMutability": "nonpayable",
      "type": "function"
    },
    {
      "inputs": [
        {
          "internalType": "address",
          "name": "account",
          "type": "address"
        }
      ],
      "name": "released",
      "outputs": [
        {
          "internalType": "uint256",
          "name": "",
          "type": "uint256"
        }
      ],
      "stateMutability": "view",
      "type": "function"
    },
    {
      "inputs": [
        {
          "internalType": "address",
          "name": "account",
          "type": "address"
        }
      ],
      "name": "shares",
      "outputs": [
        {
          "internalType": "uint256",
          "name": "",
          "type": "uint256"
        }
      ],
      "stateMutability": "view",
      "type": "function"
    },
    {
      "inputs": [],
      "name": "totalReleased",
      "outputs": [
        {
          "internalType": "uint256",
          "name": "",
          "type": "uint256"
        }
      ],
      "stateMutability": "view",
      "type": "function"
    },
    {
      "inputs": [],
      "name": "totalShares",
      "outputs": [
        {
          "internalType": "uint256",
          "name": "",
          "type": "uint256"
        }
      ],
      "stateMutability": "view",
      "type": "function"
    },
    {
      "stateMutability": "payable",
      "type": "receive"
    }
  ],
  "bytecode": "0x608060405260405162000c0e38038062000c0e8339810160408190526200002691620002ac565b81818051825114620000555760405162461bcd60e51b81526004016200004c90620003eb565b60405180910390fd5b6000825111620000795760405162461bcd60e51b81526004016200004c9062000488565b60005b8251811015620000fd57620000e8838281518110620000ab57634e487b7160e01b600052603260045260246000fd5b6020026020010151838381518110620000d457634e487b7160e01b600052603260045260246000fd5b60200260200101516200010860201b60201c565b80620000f48162000563565b9150506200007c565b5050505050620005ad565b6001600160a01b038216620001315760405162461bcd60e51b81526004016200004c906200039f565b60008111620001545760405162461bcd60e51b81526004016200004c90620004bf565b6001600160a01b038216600090815260026020526040902054156200018d5760405162461bcd60e51b81526004016200004c906200043d565b60048054600181019091557f8a35acfbc15ff81a39ae7d344fd709f28e8600b4aa8c65c6b64bfe7fe36bd19b0180546001600160a01b0319166001600160a01b038416908117909155600090815260026020526040812082905554620001f590829062000548565b6000556040517f40c340f65e17194d14ddddb073d3c9f888e3cb52b5aae0c6c7706b4fbc905fac906200022c908490849062000386565b60405180910390a15050565b600082601f83011262000249578081fd5b81516020620002626200025c8362000522565b620004f6565b82815281810190858301838502870184018810156200027f578586fd5b855b858110156200029f5781518452928401929084019060010162000281565b5090979650505050505050565b60008060408385031215620002bf578182fd5b82516001600160401b0380821115620002d6578384fd5b818501915085601f830112620002ea578384fd5b81516020620002fd6200025c8362000522565b82815281810190858301838502870184018b10156200031a578889fd5b8896505b84871015620003535780516001600160a01b03811681146200033e57898afd5b8352600196909601959183019183016200031e565b50918801519196509093505050808211156200036d578283fd5b506200037c8582860162000238565b9150509250929050565b6001600160a01b03929092168252602082015260400190565b6020808252602c908201527f5061796d656e7453706c69747465723a206163636f756e74206973207468652060408201526b7a65726f206164647265737360a01b606082015260800190565b60208082526032908201527f5061796d656e7453706c69747465723a2070617965657320616e6420736861726040820152710cae640d8cadccee8d040dad2e6dac2e8c6d60731b606082015260800190565b6020808252602b908201527f5061796d656e7453706c69747465723a206163636f756e7420616c726561647960408201526a206861732073686172657360a81b606082015260800190565b6020808252601a908201527f5061796d656e7453706c69747465723a206e6f20706179656573000000000000604082015260600190565b6020808252601d908201527f5061796d656e7453706c69747465723a20736861726573206172652030000000604082015260600190565b6040518181016001600160401b03811182821017156200051a576200051a62000597565b604052919050565b60006001600160401b038211156200053e576200053e62000597565b5060209081020190565b600082198211156200055e576200055e62000581565b500190565b60006000198214156200057a576200057a62000581565b5060010190565b634e487b7160e01b600052601160045260246000fd5b634e487b7160e01b600052604160045260246000fd5b61065180620005bd6000396000f3fe6080604052600436106100595760003560e01c806319165587146100a55780633a98ef39146100c75780638b83209b146100f25780639852595c1461011f578063ce7c2ac21461013f578063e33b7de31461015f576100a0565b366100a0577f6ef95f06320e7a25a04a175ca677b7052bdd97131872c2192525a629f51be770610087610174565b34604051610096929190610438565b60405180910390a1005b600080fd5b3480156100b157600080fd5b506100c56100c03660046103e6565b610178565b005b3480156100d357600080fd5b506100dc6102c5565b6040516100e99190610576565b60405180910390f35b3480156100fe57600080fd5b5061011261010d366004610409565b6102cb565b6040516100e99190610424565b34801561012b57600080fd5b506100dc61013a3660046103e6565b610309565b34801561014b57600080fd5b506100dc61015a3660046103e6565b610324565b34801561016b57600080fd5b506100dc61033f565b3390565b6001600160a01b0381166000908152600260205260409020546101b65760405162461bcd60e51b81526004016101ad90610451565b60405180910390fd5b6000600154476101c6919061057f565b6001600160a01b038316600090815260036020908152604080832054835460029093529083205493945091926101fc90856105b7565b6102069190610597565b61021091906105d6565b90508061022f5760405162461bcd60e51b81526004016101ad9061052b565b6001600160a01b03831660009081526003602052604090205461025390829061057f565b6001600160a01b03841660009081526003602052604090205560015461027a90829061057f565b6001556102878382610345565b7fdf20fd1e76bc69d672e4814fafb2c449bba3a5369d8359adf9e05e6fde87b05683826040516102b8929190610438565b60405180910390a1505050565b60005490565b6000600482815481106102ee57634e487b7160e01b600052603260045260246000fd5b6000918252602090912001546001600160a01b031692915050565b6001600160a01b031660009081526003602052604090205490565b6001600160a01b031660009081526002602052604090205490565b60015490565b804710156103655760405162461bcd60e51b81526004016101ad906104f4565b6000826001600160a01b03168260405161037e90610421565b60006040518083038185875af1925050503d80600081146103bb576040519150601f19603f3d011682016040523d82523d6000602084013e6103c0565b606091505b50509050806103e15760405162461bcd60e51b81526004016101ad90610497565b505050565b6000602082840312156103f7578081fd5b813561040281610603565b9392505050565b60006020828403121561041a578081fd5b5035919050565b90565b6001600160a01b0391909116815260200190565b6001600160a01b03929092168252602082015260400190565b60208082526026908201527f5061796d656e7453706c69747465723a206163636f756e7420686173206e6f2060408201526573686172657360d01b606082015260800190565b6020808252603a908201527f416464726573733a20756e61626c6520746f2073656e642076616c75652c207260408201527f6563697069656e74206d61792068617665207265766572746564000000000000606082015260800190565b6020808252601d908201527f416464726573733a20696e73756666696369656e742062616c616e6365000000604082015260600190565b6020808252602b908201527f5061796d656e7453706c69747465723a206163636f756e74206973206e6f742060408201526a191d59481c185e5b595b9d60aa1b606082015260800190565b90815260200190565b60008219821115610592576105926105ed565b500190565b6000826105b257634e487b7160e01b81526012600452602481fd5b500490565b60008160001904831182151516156105d1576105d16105ed565b500290565b6000828210156105e8576105e86105ed565b500390565b634e487b7160e01b600052601160045260246000fd5b6001600160a01b038116811461061857600080fd5b5056fea2646970667358221220a0a0de6ad7373c98d2c4feea29c68449674d7ec41e68ce483b0eb63c5657cb6964736f6c63430008000033",
  "linkReferences": {},
  "deployedLinkReferences": {}
}