{
  "contractName": "NFTCollection",
  "abi": [
    {
      "inputs": [],
      "stateMutability": "nonpayable",
      "type": "constructor"
    },
    {
      "anonymous": false,
      "inputs": [
        {
          "indexed": true,
          "internalType": "address",
          "name": "owner",
          "type": "address"
        },
        {
          "indexed": true,
          "internalType": "address",
          "name": "approved",
          "type": "address"
        },
        {
          "indexed": true,
          "internalType": "uint256",
          "name": "tokenId",
          "type": "uint256"
        }
      ],
      "name": "Approval",
      "type": "event"
    },
    {
      "anonymous": false,
      "inputs": [
        {
          "indexed": true,
          "internalType": "address",
          "name": "owner",
          "type": "address"
        },
        {
          "indexed": true,
          "internalType": "address",
          "name": "operator",
          "type": "address"
        },
        {
          "indexed": false,
          "internalType": "bool",
          "name": "approved",
          "type": "bool"
        }
      ],
      "name": "ApprovalForAll",
      "type": "event"
    },
    {
      "anonymous": false,
      "inputs": [
        {
          "indexed": true,
          "internalType": "address",
          "name": "previousOwner",
          "type": "address"
        },
        {
          "indexed": true,
          "internalType": "address",
          "name": "newOwner",
          "type": "address"
        }
      ],
      "name": "OwnershipTransferred",
      "type": "event"
    },
    {
      "anonymous": false,
      "inputs": [
        {
          "indexed": true,
          "internalType": "address",
          "name": "from",
          "type": "address"
        },
        {
          "indexed": true,
          "internalType": "address",
          "name": "to",
          "type": "address"
        },
        {
          "indexed": true,
          "internalType": "uint256",
          "name": "tokenId",
          "type": "uint256"
        }
      ],
      "name": "Transfer",
      "type": "event"
    },
    {
      "inputs": [
        {
          "internalType": "address",
          "name": "to",
          "type": "address"
        },
        {
          "internalType": "uint256",
          "name": "tokenId",
          "type": "uint256"
        }
      ],
      "name": "approve",
      "outputs": [],
      "stateMutability": "nonpayable",
      "type": "function"
    },
    {
      "inputs": [
        {
          "internalType": "address",
          "name": "owner",
          "type": "address"
        }
      ],
      "name": "balanceOf",
      "outputs": [
        {
          "internalType": "uint256",
          "name": "",
          "type": "uint256"
        }
      ],
      "stateMutability": "view",
      "type": "function"
    },
    {
      "inputs": [],
      "name": "decimals",
      "outputs": [
        {
          "internalType": "uint8",
          "name": "",
          "type": "uint8"
        }
      ],
      "stateMutability": "view",
      "type": "function"
    },
    {
      "inputs": [
        {
          "internalType": "uint256",
          "name": "tokenId",
          "type": "uint256"
        }
      ],
      "name": "getApproved",
      "outputs": [
        {
          "internalType": "address",
          "name": "",
          "type": "address"
        }
      ],
      "stateMutability": "view",
      "type": "function"
    },
    {
      "inputs": [
        {
          "internalType": "address",
          "name": "owner",
          "type": "address"
        },
        {
          "internalType": "address",
          "name": "operator",
          "type": "address"
        }
      ],
      "name": "isApprovedForAll",
      "outputs": [
        {
          "internalType": "bool",
          "name": "",
          "type": "bool"
        }
      ],
      "stateMutability": "view",
      "type": "function"
    },
    {
      "inputs": [],
      "name": "name",
      "outputs": [
        {
          "internalType": "string",
          "name": "",
          "type": "string"
        }
      ],
      "stateMutability": "view",
      "type": "function"
    },
    {
      "inputs": [],
      "name": "owner",
      "outputs": [
        {
          "internalType": "address",
          "name": "",
          "type": "address"
        }
      ],
      "stateMutability": "view",
      "type": "function"
    },
    {
      "inputs": [
        {
          "internalType": "uint256",
          "name": "tokenId",
          "type": "uint256"
        }
      ],
      "name": "ownerOf",
      "outputs": [
        {
          "internalType": "address",
          "name": "",
          "type": "address"
        }
      ],
      "stateMutability": "view",
      "type": "function"
    },
    {
      "inputs": [],
      "name": "renounceOwnership",
      "outputs": [],
      "stateMutability": "nonpayable",
      "type": "function"
    },
    {
      "inputs": [
        {
          "internalType": "address",
          "name": "from",
          "type": "address"
        },
        {
          "internalType": "address",
          "name": "to",
          "type": "address"
        },
        {
          "internalType": "uint256",
          "name": "tokenId",
          "type": "uint256"
        }
      ],
      "name": "safeTransferFrom",
      "outputs": [],
      "stateMutability": "nonpayable",
      "type": "function"
    },
    {
      "inputs": [
        {
          "internalType": "address",
          "name": "from",
          "type": "address"
        },
        {
          "internalType": "address",
          "name": "to",
          "type": "address"
        },
        {
          "internalType": "uint256",
          "name": "tokenId",
          "type": "uint256"
        },
        {
          "internalType": "bytes",
          "name": "_data",
          "type": "bytes"
        }
      ],
      "name": "safeTransferFrom",
      "outputs": [],
      "stateMutability": "nonpayable",
      "type": "function"
    },
    {
      "inputs": [
        {
          "internalType": "address",
          "name": "operator",
          "type": "address"
        },
        {
          "internalType": "bool",
          "name": "approved",
          "type": "bool"
        }
      ],
      "name": "setApprovalForAll",
      "outputs": [],
      "stateMutability": "nonpayable",
      "type": "function"
    },
    {
      "inputs": [],
      "name": "symbol",
      "outputs": [
        {
          "internalType": "string",
          "name": "",
          "type": "string"
        }
      ],
      "stateMutability": "view",
      "type": "function"
    },
    {
      "inputs": [
        {
          "internalType": "uint256",
          "name": "index",
          "type": "uint256"
        }
      ],
      "name": "tokenByIndex",
      "outputs": [
        {
          "internalType": "uint256",
          "name": "",
          "type": "uint256"
        }
      ],
      "stateMutability": "view",
      "type": "function"
    },
    {
      "inputs": [
        {
          "internalType": "address",
          "name": "owner",
          "type": "address"
        },
        {
          "internalType": "uint256",
          "name": "index",
          "type": "uint256"
        }
      ],
      "name": "tokenOfOwnerByIndex",
      "outputs": [
        {
          "internalType": "uint256",
          "name": "",
          "type": "uint256"
        }
      ],
      "stateMutability": "view",
      "type": "function"
    },
    {
      "inputs": [
        {
          "internalType": "uint256",
          "name": "",
          "type": "uint256"
        }
      ],
      "name": "tokenURIs",
      "outputs": [
        {
          "internalType": "string",
          "name": "",
          "type": "string"
        }
      ],
      "stateMutability": "view",
      "type": "function"
    },
    {
      "inputs": [],
      "name": "totalSupply",
      "outputs": [
        {
          "internalType": "uint256",
          "name": "",
          "type": "uint256"
        }
      ],
      "stateMutability": "view",
      "type": "function"
    },
    {
      "inputs": [
        {
          "internalType": "address",
          "name": "from",
          "type": "address"
        },
        {
          "internalType": "address",
          "name": "to",
          "type": "address"
        },
        {
          "internalType": "uint256",
          "name": "tokenId",
          "type": "uint256"
        }
      ],
      "name": "transferFrom",
      "outputs": [],
      "stateMutability": "nonpayable",
      "type": "function"
    },
    {
      "inputs": [
        {
          "internalType": "address",
          "name": "newOwner",
          "type": "address"
        }
      ],
      "name": "transferOwnership",
      "outputs": [],
      "stateMutability": "nonpayable",
      "type": "function"
    },
    {
      "inputs": [
        {
          "internalType": "bytes4",
          "name": "interfaceId",
          "type": "bytes4"
        }
      ],
      "name": "supportsInterface",
      "outputs": [
        {
          "internalType": "bool",
          "name": "",
          "type": "bool"
        }
      ],
      "stateMutability": "view",
      "type": "function"
    },
    {
      "inputs": [
        {
          "internalType": "uint256",
          "name": "tokenId",
          "type": "uint256"
        }
      ],
      "name": "tokenURI",
      "outputs": [
        {
          "internalType": "string",
          "name": "",
          "type": "string"
        }
      ],
      "stateMutability": "view",
      "type": "function"
    },
    {
      "inputs": [
        {
          "internalType": "string",
          "name": "_tokenURI",
          "type": "string"
        },
        {
          "internalType": "uint256",
          "name": "_fee",
          "type": "uint256"
        },
        {
          "internalType": "address",
          "name": "_marketplace",
          "type": "address"
        },
        {
          "internalType": "uint256",
          "name": "_marketplaceFee",
          "type": "uint256"
        }
      ],
      "name": "safeMint",
      "outputs": [],
      "stateMutability": "nonpayable",
      "type": "function"
    },
    {
      "inputs": [
        {
          "internalType": "uint256",
          "name": "tokenId",
          "type": "uint256"
        }
      ],
      "name": "getCopyrightOwner",
      "outputs": [
        {
          "internalType": "address",
          "name": "",
          "type": "address"
        }
      ],
      "stateMutability": "view",
      "type": "function"
    },
    {
      "inputs": [
        {
          "internalType": "uint256",
          "name": "tokenId",
          "type": "uint256"
        }
      ],
      "name": "getCopyrightOwnerFee",
      "outputs": [
        {
          "internalType": "uint256",
          "name": "",
          "type": "uint256"
        }
      ],
      "stateMutability": "view",
      "type": "function"
    },
    {
      "inputs": [
        {
          "internalType": "uint256",
          "name": "tokenId",
          "type": "uint256"
        }
      ],
      "name": "getMarketplace",
      "outputs": [
        {
          "internalType": "address",
          "name": "",
          "type": "address"
        }
      ],
      "stateMutability": "view",
      "type": "function"
    },
    {
      "inputs": [
        {
          "internalType": "uint256",
          "name": "tokenId",
          "type": "uint256"
        }
      ],
      "name": "getMarketplaceFee",
      "outputs": [
        {
          "internalType": "uint256",
          "name": "",
          "type": "uint256"
        }
      ],
      "stateMutability": "view",
      "type": "function"
    }
  ],
  "bytecode": "0x60806040526012600c60006101000a81548160ff021916908360ff1602179055503480156200002d57600080fd5b506040518060400160405280600e81526020017f6d544320436f6c6c656374696f6e0000000000000000000000000000000000008152506040518060400160405280600381526020017f6d54430000000000000000000000000000000000000000000000000000000000815250620000ba620000ae620000f460201b60201c565b620000fc60201b60201c565b8160019080519060200190620000d2929190620001c0565b508060029080519060200190620000eb929190620001c0565b505050620002d4565b600033905090565b60008060009054906101000a900473ffffffffffffffffffffffffffffffffffffffff169050816000806101000a81548173ffffffffffffffffffffffffffffffffffffffff021916908373ffffffffffffffffffffffffffffffffffffffff1602179055508173ffffffffffffffffffffffffffffffffffffffff168173ffffffffffffffffffffffffffffffffffffffff167f8be0079c531659141344cd1fd0a4f28419497f9722a3daafe3b4186f6b6457e060405160405180910390a35050565b828054620001ce906200029f565b90600052602060002090601f016020900481019282620001f257600085556200023e565b82601f106200020d57805160ff19168380011785556200023e565b828001600101855582156200023e579182015b828111156200023d57825182559160200191906001019062000220565b5b5090506200024d919062000251565b5090565b5b808211156200026c57600081600090555060010162000252565b5090565b7f4e487b7100000000000000000000000000000000000000000000000000000000600052602260045260246000fd5b60006002820490506001821680620002b857607f821691505b602082108103620002ce57620002cd62000270565b5b50919050565b6137cd80620002e46000396000f3fe608060405234801561001057600080fd5b506004361061018e5760003560e01c80636c8b703f116100de578063a22cb46511610097578063e985e9c511610071578063e985e9c5146104bb578063ef8a8cb1146104eb578063f2fde38b1461051b578063f53aac2a146105375761018e565b8063a22cb46514610453578063b88d4fde1461046f578063c87b56dd1461048b5761018e565b80636c8b703f1461039157806370a08231146103c1578063715018a6146103f1578063796890e1146103fb5780638da5cb5b1461041757806395d89b41146104355761018e565b806323b872dd1161014b57806332103a401161012557806332103a40146102e557806342842e0e146103155780634f6ccce7146103315780636352211e146103615761018e565b806323b872dd1461027b5780632f745c5914610297578063313ce567146102c75761018e565b806301ffc9a71461019357806306fdde03146101c3578063081812fc146101e1578063095ea7b3146102115780630a2e98e41461022d57806318160ddd1461025d575b600080fd5b6101ad60048036038101906101a89190612420565b610567565b6040516101ba9190612468565b60405180910390f35b6101cb610579565b6040516101d8919061251c565b60405180910390f35b6101fb60048036038101906101f69190612574565b61060b565b60405161020891906125e2565b60405180910390f35b61022b60048036038101906102269190612629565b610690565b005b61024760048036038101906102429190612574565b6107a7565b6040516102549190612678565b60405180910390f35b6102656107c4565b6040516102729190612678565b60405180910390f35b61029560048036038101906102909190612693565b6107d1565b005b6102b160048036038101906102ac9190612629565b610831565b6040516102be9190612678565b60405180910390f35b6102cf6108d6565b6040516102dc9190612702565b60405180910390f35b6102ff60048036038101906102fa9190612574565b6108e9565b60405161030c91906125e2565b60405180910390f35b61032f600480360381019061032a9190612693565b610926565b005b61034b60048036038101906103469190612574565b610946565b6040516103589190612678565b60405180910390f35b61037b60048036038101906103769190612574565b6109b7565b60405161038891906125e2565b60405180910390f35b6103ab60048036038101906103a69190612574565b610a68565b6040516103b8919061251c565b60405180910390f35b6103db60048036038101906103d6919061271d565b610b14565b6040516103e89190612678565b60405180910390f35b6103f9610bcb565b005b6104156004803603810190610410919061287f565b610c53565b005b61041f610e49565b60405161042c91906125e2565b60405180910390f35b61043d610e72565b60405161044a919061251c565b60405180910390f35b61046d6004803603810190610468919061292e565b610f04565b005b61048960048036038101906104849190612a0f565b611084565b005b6104a560048036038101906104a09190612574565b6110e6565b6040516104b2919061251c565b60405180910390f35b6104d560048036038101906104d09190612a92565b6111d3565b6040516104e29190612468565b60405180910390f35b61050560048036038101906105009190612574565b611267565b6040516105129190612678565b60405180910390f35b6105356004803603810190610530919061271d565b611284565b005b610551600480360381019061054c9190612574565b61137b565b60405161055e91906125e2565b60405180910390f35b6000610572826113b8565b9050919050565b60606001805461058890612b01565b80601f01602080910402602001604051908101604052809291908181526020018280546105b490612b01565b80156106015780601f106105d657610100808354040283529160200191610601565b820191906000526020600020905b8154815290600101906020018083116105e457829003601f168201915b5050505050905090565b600061061682611432565b610655576040517f08c379a000000000000000000000000000000000000000000000000000000000815260040161064c90612ba4565b60405180910390fd5b6005600083815260200190815260200160002060009054906101000a900473ffffffffffffffffffffffffffffffffffffffff169050919050565b600061069b826109b7565b90508073ffffffffffffffffffffffffffffffffffffffff168373ffffffffffffffffffffffffffffffffffffffff160361070b576040517f08c379a000000000000000000000000000000000000000000000000000000000815260040161070290612c36565b60405180910390fd5b8073ffffffffffffffffffffffffffffffffffffffff1661072a61149e565b73ffffffffffffffffffffffffffffffffffffffff16148061075957506107588161075361149e565b6111d3565b5b610798576040517f08c379a000000000000000000000000000000000000000000000000000000000815260040161078f90612cc8565b60405180910390fd5b6107a283836114a6565b505050565b600060126000838152602001908152602001600020549050919050565b6000600980549050905090565b6107e26107dc61149e565b8261155f565b610821576040517f08c379a000000000000000000000000000000000000000000000000000000000815260040161081890612d5a565b60405180910390fd5b61082c83838361163d565b505050565b600061083c83610b14565b821061087d576040517f08c379a000000000000000000000000000000000000000000000000000000000815260040161087490612dec565b60405180910390fd5b600760008473ffffffffffffffffffffffffffffffffffffffff1673ffffffffffffffffffffffffffffffffffffffff168152602001908152602001600020600083815260200190815260200160002054905092915050565b600c60009054906101000a900460ff1681565b6000600f600083815260200190815260200160002060009054906101000a900473ffffffffffffffffffffffffffffffffffffffff169050919050565b61094183838360405180602001604052806000815250611084565b505050565b60006109506107c4565b8210610991576040517f08c379a000000000000000000000000000000000000000000000000000000000815260040161098890612e7e565b60405180910390fd5b600982815481106109a5576109a4612e9e565b5b90600052602060002001549050919050565b6000806003600084815260200190815260200160002060009054906101000a900473ffffffffffffffffffffffffffffffffffffffff169050600073ffffffffffffffffffffffffffffffffffffffff168173ffffffffffffffffffffffffffffffffffffffff1603610a5f576040517f08c379a0000000000000000000000000000000000000000000000000000000008152600401610a5690612f3f565b60405180910390fd5b80915050919050565b600b8181548110610a7857600080fd5b906000526020600020016000915090508054610a9390612b01565b80601f0160208091040260200160405190810160405280929190818152602001828054610abf90612b01565b8015610b0c5780601f10610ae157610100808354040283529160200191610b0c565b820191906000526020600020905b815481529060010190602001808311610aef57829003601f168201915b505050505081565b60008073ffffffffffffffffffffffffffffffffffffffff168273ffffffffffffffffffffffffffffffffffffffff1603610b84576040517f08c379a0000000000000000000000000000000000000000000000000000000008152600401610b7b90612fd1565b60405180910390fd5b600460008373ffffffffffffffffffffffffffffffffffffffff1673ffffffffffffffffffffffffffffffffffffffff168152602001908152602001600020549050919050565b610bd361149e565b73ffffffffffffffffffffffffffffffffffffffff16610bf1610e49565b73ffffffffffffffffffffffffffffffffffffffff1614610c47576040517f08c379a0000000000000000000000000000000000000000000000000000000008152600401610c3e9061303d565b60405180910390fd5b610c516000611898565b565b600d84604051610c639190613099565b908152602001604051809103902060009054906101000a900460ff1615610cbf576040517f08c379a0000000000000000000000000000000000000000000000000000000008152600401610cb6906130fc565b60405180910390fd5b600b84908060018154018082558091505060019003906000526020600020016000909190919091509080519060200190610cfa929190612311565b506000600b80549050905033600f600083815260200190815260200160002060006101000a81548173ffffffffffffffffffffffffffffffffffffffff021916908373ffffffffffffffffffffffffffffffffffffffff160217905550826010600083815260200190815260200160002060006101000a81548173ffffffffffffffffffffffffffffffffffffffff021916908373ffffffffffffffffffffffffffffffffffffffff16021790555083601160008381526020019081526020016000208190555081601260008381526020019081526020016000208190555084600e60008381526020019081526020016000209080519060200190610e00929190612311565b50610e0b338261195c565b6001600d86604051610e1d9190613099565b908152602001604051809103902060006101000a81548160ff0219169083151502179055505050505050565b60008060009054906101000a900473ffffffffffffffffffffffffffffffffffffffff16905090565b606060028054610e8190612b01565b80601f0160208091040260200160405190810160405280929190818152602001828054610ead90612b01565b8015610efa5780601f10610ecf57610100808354040283529160200191610efa565b820191906000526020600020905b815481529060010190602001808311610edd57829003601f168201915b5050505050905090565b610f0c61149e565b73ffffffffffffffffffffffffffffffffffffffff168273ffffffffffffffffffffffffffffffffffffffff1603610f79576040517f08c379a0000000000000000000000000000000000000000000000000000000008152600401610f7090613168565b60405180910390fd5b8060066000610f8661149e565b73ffffffffffffffffffffffffffffffffffffffff1673ffffffffffffffffffffffffffffffffffffffff16815260200190815260200160002060008473ffffffffffffffffffffffffffffffffffffffff1673ffffffffffffffffffffffffffffffffffffffff16815260200190815260200160002060006101000a81548160ff0219169083151502179055508173ffffffffffffffffffffffffffffffffffffffff1661103361149e565b73ffffffffffffffffffffffffffffffffffffffff167f17307eab39ab6107e8899845ad3d59bd9653f200f220920489ca2b5937696c31836040516110789190612468565b60405180910390a35050565b61109561108f61149e565b8361155f565b6110d4576040517f08c379a00000000000000000000000000000000000000000000000000000000081526004016110cb90612d5a565b60405180910390fd5b6110e08484848461197a565b50505050565b60606110f182611432565b611130576040517f08c379a0000000000000000000000000000000000000000000000000000000008152600401611127906131fa565b60405180910390fd5b600e6000838152602001908152602001600020805461114e90612b01565b80601f016020809104026020016040519081016040528092919081815260200182805461117a90612b01565b80156111c75780601f1061119c576101008083540402835291602001916111c7565b820191906000526020600020905b8154815290600101906020018083116111aa57829003601f168201915b50505050509050919050565b6000600660008473ffffffffffffffffffffffffffffffffffffffff1673ffffffffffffffffffffffffffffffffffffffff16815260200190815260200160002060008373ffffffffffffffffffffffffffffffffffffffff1673ffffffffffffffffffffffffffffffffffffffff16815260200190815260200160002060009054906101000a900460ff16905092915050565b600060116000838152602001908152602001600020549050919050565b61128c61149e565b73ffffffffffffffffffffffffffffffffffffffff166112aa610e49565b73ffffffffffffffffffffffffffffffffffffffff1614611300576040517f08c379a00000000000000000000000000000000000000000000000000000000081526004016112f79061303d565b60405180910390fd5b600073ffffffffffffffffffffffffffffffffffffffff168173ffffffffffffffffffffffffffffffffffffffff160361136f576040517f08c379a00000000000000000000000000000000000000000000000000000000081526004016113669061328c565b60405180910390fd5b61137881611898565b50565b60006010600083815260200190815260200160002060009054906101000a900473ffffffffffffffffffffffffffffffffffffffff169050919050565b60007f780e9d63000000000000000000000000000000000000000000000000000000007bffffffffffffffffffffffffffffffffffffffffffffffffffffffff1916827bffffffffffffffffffffffffffffffffffffffffffffffffffffffff1916148061142b575061142a826119d6565b5b9050919050565b60008073ffffffffffffffffffffffffffffffffffffffff166003600084815260200190815260200160002060009054906101000a900473ffffffffffffffffffffffffffffffffffffffff1673ffffffffffffffffffffffffffffffffffffffff1614159050919050565b600033905090565b816005600083815260200190815260200160002060006101000a81548173ffffffffffffffffffffffffffffffffffffffff021916908373ffffffffffffffffffffffffffffffffffffffff160217905550808273ffffffffffffffffffffffffffffffffffffffff16611519836109b7565b73ffffffffffffffffffffffffffffffffffffffff167f8c5be1e5ebec7d5bd14f71427d1e84f3dd0314c0f7b2291e5b200ac8c7c3b92560405160405180910390a45050565b600061156a82611432565b6115a9576040517f08c379a00000000000000000000000000000000000000000000000000000000081526004016115a09061331e565b60405180910390fd5b60006115b4836109b7565b90508073ffffffffffffffffffffffffffffffffffffffff168473ffffffffffffffffffffffffffffffffffffffff16148061162357508373ffffffffffffffffffffffffffffffffffffffff1661160b8461060b565b73ffffffffffffffffffffffffffffffffffffffff16145b80611634575061163381856111d3565b5b91505092915050565b8273ffffffffffffffffffffffffffffffffffffffff1661165d826109b7565b73ffffffffffffffffffffffffffffffffffffffff16146116b3576040517f08c379a00000000000000000000000000000000000000000000000000000000081526004016116aa906133b0565b60405180910390fd5b600073ffffffffffffffffffffffffffffffffffffffff168273ffffffffffffffffffffffffffffffffffffffff1603611722576040517f08c379a000000000000000000000000000000000000000000000000000000000815260040161171990613442565b60405180910390fd5b61172d838383611ab8565b6117386000826114a6565b6001600460008573ffffffffffffffffffffffffffffffffffffffff1673ffffffffffffffffffffffffffffffffffffffff16815260200190815260200160002060008282546117889190613491565b925050819055506001600460008473ffffffffffffffffffffffffffffffffffffffff1673ffffffffffffffffffffffffffffffffffffffff16815260200190815260200160002060008282546117df91906134c5565b92505081905550816003600083815260200190815260200160002060006101000a81548173ffffffffffffffffffffffffffffffffffffffff021916908373ffffffffffffffffffffffffffffffffffffffff160217905550808273ffffffffffffffffffffffffffffffffffffffff168473ffffffffffffffffffffffffffffffffffffffff167fddf252ad1be2c89b69c2b068fc378daa952ba7f163c4a11628f55a4df523b3ef60405160405180910390a4505050565b60008060009054906101000a900473ffffffffffffffffffffffffffffffffffffffff169050816000806101000a81548173ffffffffffffffffffffffffffffffffffffffff021916908373ffffffffffffffffffffffffffffffffffffffff1602179055508173ffffffffffffffffffffffffffffffffffffffff168173ffffffffffffffffffffffffffffffffffffffff167f8be0079c531659141344cd1fd0a4f28419497f9722a3daafe3b4186f6b6457e060405160405180910390a35050565b611976828260405180602001604052806000815250611ac8565b5050565b61198584848461163d565b61199184848484611b23565b6119d0576040517f08c379a00000000000000000000000000000000000000000000000000000000081526004016119c79061358d565b60405180910390fd5b50505050565b60007f80ac58cd000000000000000000000000000000000000000000000000000000007bffffffffffffffffffffffffffffffffffffffffffffffffffffffff1916827bffffffffffffffffffffffffffffffffffffffffffffffffffffffff19161480611aa157507f5b5e139f000000000000000000000000000000000000000000000000000000007bffffffffffffffffffffffffffffffffffffffffffffffffffffffff1916827bffffffffffffffffffffffffffffffffffffffffffffffffffffffff1916145b80611ab15750611ab082611caa565b5b9050919050565b611ac3838383611d14565b505050565b611ad28383611e26565b611adf6000848484611b23565b611b1e576040517f08c379a0000000000000000000000000000000000000000000000000000000008152600401611b159061358d565b60405180910390fd5b505050565b6000611b448473ffffffffffffffffffffffffffffffffffffffff16611ff3565b15611c9d578373ffffffffffffffffffffffffffffffffffffffff1663150b7a02611b6d61149e565b8786866040518563ffffffff1660e01b8152600401611b8f9493929190613602565b6020604051808303816000875af1925050508015611bcb57506040513d601f19601f82011682018060405250810190611bc89190613663565b60015b611c4d573d8060008114611bfb576040519150601f19603f3d011682016040523d82523d6000602084013e611c00565b606091505b506000815103611c45576040517f08c379a0000000000000000000000000000000000000000000000000000000008152600401611c3c9061358d565b60405180910390fd5b805181602001fd5b63150b7a0260e01b7bffffffffffffffffffffffffffffffffffffffffffffffffffffffff1916817bffffffffffffffffffffffffffffffffffffffffffffffffffffffff191614915050611ca2565b600190505b949350505050565b60007f01ffc9a7000000000000000000000000000000000000000000000000000000007bffffffffffffffffffffffffffffffffffffffffffffffffffffffff1916827bffffffffffffffffffffffffffffffffffffffffffffffffffffffff1916149050919050565b611d1f838383612006565b600073ffffffffffffffffffffffffffffffffffffffff168373ffffffffffffffffffffffffffffffffffffffff1603611d6157611d5c8161200b565b611da0565b8173ffffffffffffffffffffffffffffffffffffffff168373ffffffffffffffffffffffffffffffffffffffff1614611d9f57611d9e8382612054565b5b5b600073ffffffffffffffffffffffffffffffffffffffff168273ffffffffffffffffffffffffffffffffffffffff1603611de257611ddd816121c1565b611e21565b8273ffffffffffffffffffffffffffffffffffffffff168273ffffffffffffffffffffffffffffffffffffffff1614611e2057611e1f8282612292565b5b5b505050565b600073ffffffffffffffffffffffffffffffffffffffff168273ffffffffffffffffffffffffffffffffffffffff1603611e95576040517f08c379a0000000000000000000000000000000000000000000000000000000008152600401611e8c906136dc565b60405180910390fd5b611e9e81611432565b15611ede576040517f08c379a0000000000000000000000000000000000000000000000000000000008152600401611ed590613748565b60405180910390fd5b611eea60008383611ab8565b6001600460008473ffffffffffffffffffffffffffffffffffffffff1673ffffffffffffffffffffffffffffffffffffffff1681526020019081526020016000206000828254611f3a91906134c5565b92505081905550816003600083815260200190815260200160002060006101000a81548173ffffffffffffffffffffffffffffffffffffffff021916908373ffffffffffffffffffffffffffffffffffffffff160217905550808273ffffffffffffffffffffffffffffffffffffffff16600073ffffffffffffffffffffffffffffffffffffffff167fddf252ad1be2c89b69c2b068fc378daa952ba7f163c4a11628f55a4df523b3ef60405160405180910390a45050565b600080823b905060008111915050919050565b505050565b600980549050600a600083815260200190815260200160002081905550600981908060018154018082558091505060019003906000526020600020016000909190919091505550565b6000600161206184610b14565b61206b9190613491565b9050600060086000848152602001908152602001600020549050818114612150576000600760008673ffffffffffffffffffffffffffffffffffffffff1673ffffffffffffffffffffffffffffffffffffffff168152602001908152602001600020600084815260200190815260200160002054905080600760008773ffffffffffffffffffffffffffffffffffffffff1673ffffffffffffffffffffffffffffffffffffffff168152602001908152602001600020600084815260200190815260200160002081905550816008600083815260200190815260200160002081905550505b6008600084815260200190815260200160002060009055600760008573ffffffffffffffffffffffffffffffffffffffff1673ffffffffffffffffffffffffffffffffffffffff16815260200190815260200160002060008381526020019081526020016000206000905550505050565b600060016009805490506121d59190613491565b90506000600a600084815260200190815260200160002054905060006009838154811061220557612204612e9e565b5b90600052602060002001549050806009838154811061222757612226612e9e565b5b906000526020600020018190555081600a600083815260200190815260200160002081905550600a600085815260200190815260200160002060009055600980548061227657612275613768565b5b6001900381819060005260206000200160009055905550505050565b600061229d83610b14565b905081600760008573ffffffffffffffffffffffffffffffffffffffff1673ffffffffffffffffffffffffffffffffffffffff168152602001908152602001600020600083815260200190815260200160002081905550806008600084815260200190815260200160002081905550505050565b82805461231d90612b01565b90600052602060002090601f01602090048101928261233f5760008555612386565b82601f1061235857805160ff1916838001178555612386565b82800160010185558215612386579182015b8281111561238557825182559160200191906001019061236a565b5b5090506123939190612397565b5090565b5b808211156123b0576000816000905550600101612398565b5090565b6000604051905090565b600080fd5b600080fd5b60007fffffffff0000000000000000000000000000000000000000000000000000000082169050919050565b6123fd816123c8565b811461240857600080fd5b50565b60008135905061241a816123f4565b92915050565b600060208284031215612436576124356123be565b5b60006124448482850161240b565b91505092915050565b60008115159050919050565b6124628161244d565b82525050565b600060208201905061247d6000830184612459565b92915050565b600081519050919050565b600082825260208201905092915050565b60005b838110156124bd5780820151818401526020810190506124a2565b838111156124cc576000848401525b50505050565b6000601f19601f8301169050919050565b60006124ee82612483565b6124f8818561248e565b935061250881856020860161249f565b612511816124d2565b840191505092915050565b6000602082019050818103600083015261253681846124e3565b905092915050565b6000819050919050565b6125518161253e565b811461255c57600080fd5b50565b60008135905061256e81612548565b92915050565b60006020828403121561258a576125896123be565b5b60006125988482850161255f565b91505092915050565b600073ffffffffffffffffffffffffffffffffffffffff82169050919050565b60006125cc826125a1565b9050919050565b6125dc816125c1565b82525050565b60006020820190506125f760008301846125d3565b92915050565b612606816125c1565b811461261157600080fd5b50565b600081359050612623816125fd565b92915050565b600080604083850312156126405761263f6123be565b5b600061264e85828601612614565b925050602061265f8582860161255f565b9150509250929050565b6126728161253e565b82525050565b600060208201905061268d6000830184612669565b92915050565b6000806000606084860312156126ac576126ab6123be565b5b60006126ba86828701612614565b93505060206126cb86828701612614565b92505060406126dc8682870161255f565b9150509250925092565b600060ff82169050919050565b6126fc816126e6565b82525050565b600060208201905061271760008301846126f3565b92915050565b600060208284031215612733576127326123be565b5b600061274184828501612614565b91505092915050565b600080fd5b600080fd5b7f4e487b7100000000000000000000000000000000000000000000000000000000600052604160045260246000fd5b61278c826124d2565b810181811067ffffffffffffffff821117156127ab576127aa612754565b5b80604052505050565b60006127be6123b4565b90506127ca8282612783565b919050565b600067ffffffffffffffff8211156127ea576127e9612754565b5b6127f3826124d2565b9050602081019050919050565b82818337600083830152505050565b600061282261281d846127cf565b6127b4565b90508281526020810184848401111561283e5761283d61274f565b5b612849848285612800565b509392505050565b600082601f8301126128665761286561274a565b5b813561287684826020860161280f565b91505092915050565b60008060008060808587031215612899576128986123be565b5b600085013567ffffffffffffffff8111156128b7576128b66123c3565b5b6128c387828801612851565b94505060206128d48782880161255f565b93505060406128e587828801612614565b92505060606128f68782880161255f565b91505092959194509250565b61290b8161244d565b811461291657600080fd5b50565b60008135905061292881612902565b92915050565b60008060408385031215612945576129446123be565b5b600061295385828601612614565b925050602061296485828601612919565b9150509250929050565b600067ffffffffffffffff82111561298957612988612754565b5b612992826124d2565b9050602081019050919050565b60006129b26129ad8461296e565b6127b4565b9050828152602081018484840111156129ce576129cd61274f565b5b6129d9848285612800565b509392505050565b600082601f8301126129f6576129f561274a565b5b8135612a0684826020860161299f565b91505092915050565b60008060008060808587031215612a2957612a286123be565b5b6000612a3787828801612614565b9450506020612a4887828801612614565b9350506040612a598782880161255f565b925050606085013567ffffffffffffffff811115612a7a57612a796123c3565b5b612a86878288016129e1565b91505092959194509250565b60008060408385031215612aa957612aa86123be565b5b6000612ab785828601612614565b9250506020612ac885828601612614565b9150509250929050565b7f4e487b7100000000000000000000000000000000000000000000000000000000600052602260045260246000fd5b60006002820490506001821680612b1957607f821691505b602082108103612b2c57612b2b612ad2565b5b50919050565b7f4552433732313a20617070726f76656420717565727920666f72206e6f6e657860008201527f697374656e7420746f6b656e0000000000000000000000000000000000000000602082015250565b6000612b8e602c8361248e565b9150612b9982612b32565b604082019050919050565b60006020820190508181036000830152612bbd81612b81565b9050919050565b7f4552433732313a20617070726f76616c20746f2063757272656e74206f776e6560008201527f7200000000000000000000000000000000000000000000000000000000000000602082015250565b6000612c2060218361248e565b9150612c2b82612bc4565b604082019050919050565b60006020820190508181036000830152612c4f81612c13565b9050919050565b7f4552433732313a20617070726f76652063616c6c6572206973206e6f74206f7760008201527f6e6572206e6f7220617070726f76656420666f7220616c6c0000000000000000602082015250565b6000612cb260388361248e565b9150612cbd82612c56565b604082019050919050565b60006020820190508181036000830152612ce181612ca5565b9050919050565b7f4552433732313a207472616e736665722063616c6c6572206973206e6f74206f60008201527f776e6572206e6f7220617070726f766564000000000000000000000000000000602082015250565b6000612d4460318361248e565b9150612d4f82612ce8565b604082019050919050565b60006020820190508181036000830152612d7381612d37565b9050919050565b7f455243373231456e756d657261626c653a206f776e657220696e646578206f7560008201527f74206f6620626f756e6473000000000000000000000000000000000000000000602082015250565b6000612dd6602b8361248e565b9150612de182612d7a565b604082019050919050565b60006020820190508181036000830152612e0581612dc9565b9050919050565b7f455243373231456e756d657261626c653a20676c6f62616c20696e646578206f60008201527f7574206f6620626f756e64730000000000000000000000000000000000000000602082015250565b6000612e68602c8361248e565b9150612e7382612e0c565b604082019050919050565b60006020820190508181036000830152612e9781612e5b565b9050919050565b7f4e487b7100000000000000000000000000000000000000000000000000000000600052603260045260246000fd5b7f4552433732313a206f776e657220717565727920666f72206e6f6e657869737460008201527f656e7420746f6b656e0000000000000000000000000000000000000000000000602082015250565b6000612f2960298361248e565b9150612f3482612ecd565b604082019050919050565b60006020820190508181036000830152612f5881612f1c565b9050919050565b7f4552433732313a2062616c616e636520717565727920666f7220746865207a6560008201527f726f206164647265737300000000000000000000000000000000000000000000602082015250565b6000612fbb602a8361248e565b9150612fc682612f5f565b604082019050919050565b60006020820190508181036000830152612fea81612fae565b9050919050565b7f4f776e61626c653a2063616c6c6572206973206e6f7420746865206f776e6572600082015250565b600061302760208361248e565b915061303282612ff1565b602082019050919050565b600060208201905081810360008301526130568161301a565b9050919050565b600081905092915050565b600061307382612483565b61307d818561305d565b935061308d81856020860161249f565b80840191505092915050565b60006130a58284613068565b915081905092915050565b7f54686520746f6b656e205552492073686f756c6420626520756e697175650000600082015250565b60006130e6601e8361248e565b91506130f1826130b0565b602082019050919050565b60006020820190508181036000830152613115816130d9565b9050919050565b7f4552433732313a20617070726f766520746f2063616c6c657200000000000000600082015250565b600061315260198361248e565b915061315d8261311c565b602082019050919050565b6000602082019050818103600083015261318181613145565b9050919050565b7f4552433732314d657461646174613a2055524920717565727920666f72206e6f60008201527f6e6578697374656e7420746f6b656e0000000000000000000000000000000000602082015250565b60006131e4602f8361248e565b91506131ef82613188565b604082019050919050565b60006020820190508181036000830152613213816131d7565b9050919050565b7f4f776e61626c653a206e6577206f776e657220697320746865207a65726f206160008201527f6464726573730000000000000000000000000000000000000000000000000000602082015250565b600061327660268361248e565b91506132818261321a565b604082019050919050565b600060208201905081810360008301526132a581613269565b9050919050565b7f4552433732313a206f70657261746f7220717565727920666f72206e6f6e657860008201527f697374656e7420746f6b656e0000000000000000000000000000000000000000602082015250565b6000613308602c8361248e565b9150613313826132ac565b604082019050919050565b60006020820190508181036000830152613337816132fb565b9050919050565b7f4552433732313a207472616e73666572206f6620746f6b656e2074686174206960008201527f73206e6f74206f776e0000000000000000000000000000000000000000000000602082015250565b600061339a60298361248e565b91506133a58261333e565b604082019050919050565b600060208201905081810360008301526133c98161338d565b9050919050565b7f4552433732313a207472616e7366657220746f20746865207a65726f2061646460008201527f7265737300000000000000000000000000000000000000000000000000000000602082015250565b600061342c60248361248e565b9150613437826133d0565b604082019050919050565b6000602082019050818103600083015261345b8161341f565b9050919050565b7f4e487b7100000000000000000000000000000000000000000000000000000000600052601160045260246000fd5b600061349c8261253e565b91506134a78361253e565b9250828210156134ba576134b9613462565b5b828203905092915050565b60006134d08261253e565b91506134db8361253e565b9250827fffffffffffffffffffffffffffffffffffffffffffffffffffffffffffffffff038211156135105761350f613462565b5b828201905092915050565b7f4552433732313a207472616e7366657220746f206e6f6e20455243373231526560008201527f63656976657220696d706c656d656e7465720000000000000000000000000000602082015250565b600061357760328361248e565b91506135828261351b565b604082019050919050565b600060208201905081810360008301526135a68161356a565b9050919050565b600081519050919050565b600082825260208201905092915050565b60006135d4826135ad565b6135de81856135b8565b93506135ee81856020860161249f565b6135f7816124d2565b840191505092915050565b600060808201905061361760008301876125d3565b61362460208301866125d3565b6136316040830185612669565b818103606083015261364381846135c9565b905095945050505050565b60008151905061365d816123f4565b92915050565b600060208284031215613679576136786123be565b5b60006136878482850161364e565b91505092915050565b7f4552433732313a206d696e7420746f20746865207a65726f2061646472657373600082015250565b60006136c660208361248e565b91506136d182613690565b602082019050919050565b600060208201905081810360008301526136f5816136b9565b9050919050565b7f4552433732313a20746f6b656e20616c7265616479206d696e74656400000000600082015250565b6000613732601c8361248e565b915061373d826136fc565b602082019050919050565b6000602082019050818103600083015261376181613725565b9050919050565b7f4e487b7100000000000000000000000000000000000000000000000000000000600052603160045260246000fdfea2646970667358221220d967e5814d177c978bac27aa89e469e69159d7588c2a487b64943824ed17ba6464736f6c634300080d0033",
  "immutableReferences": {},
  "source": "// SPDX-License-Identifier: MIT\r\npragma solidity ^0.8.0;\r\n\r\nimport \"@openzeppelin/contracts/token/ERC721/ERC721.sol\";\r\nimport \"@openzeppelin/contracts/token/ERC721/extensions/ERC721Enumerable.sol\";\r\nimport \"@openzeppelin/contracts/access/Ownable.sol\";\r\n\r\n\r\ncontract NFTCollection is Ownable, ERC721, ERC721Enumerable {\r\n\r\n  string[] public tokenURIs;\r\n  uint8 public decimals = 18;\r\n\r\n  mapping(string => bool) _tokenURIExists;\r\n  mapping(uint => string) _tokenIdToTokenURI;\r\n  mapping(uint => address) _copyrightOwners;\r\n  mapping(uint => address) _marketplaces;\r\n  mapping(uint => uint256) _copyrightOwnerFees;\r\n  mapping(uint => uint256) _marketplaceFees;\r\n\r\n  constructor() \r\n    ERC721(\"mTC Collection\", \"mTC\")\r\n  {\r\n\r\n  }\r\n\r\n  function _beforeTokenTransfer(address from, address to, uint256 tokenId) internal override(ERC721, ERC721Enumerable) {\r\n      super._beforeTokenTransfer(from, to, tokenId);\r\n  }\r\n\r\n  function supportsInterface(bytes4 interfaceId) public view override(ERC721, ERC721Enumerable) returns (bool) {\r\n\r\n      return  super.supportsInterface(interfaceId);\r\n  }\r\n\r\n  function tokenURI(uint256 tokenId) public override view returns (string memory) {\r\n      require(_exists(tokenId), 'ERC721Metadata: URI query for nonexistent token');\r\n      return _tokenIdToTokenURI[tokenId];\r\n  }\r\n\r\n  function safeMint(string memory _tokenURI, uint256 _fee, address _marketplace, uint256 _marketplaceFee) public {\r\n      require(!_tokenURIExists[_tokenURI], 'The token URI should be unique');\r\n      tokenURIs.push(_tokenURI);    \r\n      uint _id = tokenURIs.length;\r\n      _copyrightOwners[_id] = msg.sender;\r\n      _marketplaces[_id] = _marketplace;\r\n      _copyrightOwnerFees[_id] = _fee;\r\n      _marketplaceFees[_id] = _marketplaceFee;\r\n      _tokenIdToTokenURI[_id] = _tokenURI;\r\n      _safeMint(msg.sender, _id);\r\n      _tokenURIExists[_tokenURI] = true;\r\n  }\r\n\r\n  function _burn(uint tokenId) internal override(ERC721) {\r\n      super._burn(tokenId);\r\n  }\r\n\r\n  function getCopyrightOwner(uint tokenId) view external returns(address) {\r\n      return _copyrightOwners[tokenId];\r\n  }\r\n\r\n  function getCopyrightOwnerFee(uint tokenId) view external returns(uint256) {\r\n      return _copyrightOwnerFees[tokenId];\r\n  }\r\n\r\n\r\n  function getMarketplace(uint tokenId) view external returns(address) {\r\n      return _marketplaces[tokenId];\r\n  }    \r\n  \r\n\r\n  function getMarketplaceFee(uint tokenId) view external returns(uint256) {\r\n      return _marketplaceFees[tokenId];\r\n  }\r\n\r\n\r\n\r\n}",
  "sourcePath": "C:\\dev\\nft-marketplace\\src\\contracts\\NFTCollection.sol",
  "compiler": {
    "name": "solc",
    "version": "0.8.13+commit.abaa5c0e.Emscripten.clang"
  },
  "schemaVersion": "3.4.3",
  "updatedAt": "2022-04-08T03:45:40.460Z",
  "devdoc": {
    "kind": "dev",
    "methods": {
      "approve(address,uint256)": {
        "details": "See {IERC721-approve}."
      },
      "balanceOf(address)": {
        "details": "See {IERC721-balanceOf}."
      },
      "getApproved(uint256)": {
        "details": "See {IERC721-getApproved}."
      },
      "isApprovedForAll(address,address)": {
        "details": "See {IERC721-isApprovedForAll}."
      },
      "name()": {
        "details": "See {IERC721Metadata-name}."
      },
      "owner()": {
        "details": "Returns the address of the current owner."
      },
      "ownerOf(uint256)": {
        "details": "See {IERC721-ownerOf}."
      },
      "renounceOwnership()": {
        "details": "Leaves the contract without owner. It will not be possible to call `onlyOwner` functions anymore. Can only be called by the current owner. NOTE: Renouncing ownership will leave the contract without an owner, thereby removing any functionality that is only available to the owner."
      },
      "safeTransferFrom(address,address,uint256)": {
        "details": "See {IERC721-safeTransferFrom}."
      },
      "safeTransferFrom(address,address,uint256,bytes)": {
        "details": "See {IERC721-safeTransferFrom}."
      },
      "setApprovalForAll(address,bool)": {
        "details": "See {IERC721-setApprovalForAll}."
      },
      "symbol()": {
        "details": "See {IERC721Metadata-symbol}."
      },
      "tokenByIndex(uint256)": {
        "details": "See {IERC721Enumerable-tokenByIndex}."
      },
      "tokenOfOwnerByIndex(address,uint256)": {
        "details": "See {IERC721Enumerable-tokenOfOwnerByIndex}."
      },
      "tokenURI(uint256)": {
        "details": "See {IERC721Metadata-tokenURI}."
      },
      "totalSupply()": {
        "details": "See {IERC721Enumerable-totalSupply}."
      },
      "transferFrom(address,address,uint256)": {
        "details": "See {IERC721-transferFrom}."
      },
      "transferOwnership(address)": {
        "details": "Transfers ownership of the contract to a new account (`newOwner`). Can only be called by the current owner."
      }
    },
    "version": 1
  },
  "userdoc": {
    "kind": "user",
    "methods": {},
    "version": 1
  }
}