{
  "contractName": "NFTCollection",
  "abi": [
    {
      "inputs": [
        {
          "internalType": "address",
          "name": "initialRoyaltiesReceiver",
          "type": "address"
        }
      ],
      "stateMutability": "nonpayable",
      "type": "constructor"
    },
    {
      "anonymous": false,
      "inputs": [
        {
          "indexed": true,
          "internalType": "address",
          "name": "owner",
          "type": "address"
        },
        {
          "indexed": true,
          "internalType": "address",
          "name": "approved",
          "type": "address"
        },
        {
          "indexed": true,
          "internalType": "uint256",
          "name": "tokenId",
          "type": "uint256"
        }
      ],
      "name": "Approval",
      "type": "event"
    },
    {
      "anonymous": false,
      "inputs": [
        {
          "indexed": true,
          "internalType": "address",
          "name": "owner",
          "type": "address"
        },
        {
          "indexed": true,
          "internalType": "address",
          "name": "operator",
          "type": "address"
        },
        {
          "indexed": false,
          "internalType": "bool",
          "name": "approved",
          "type": "bool"
        }
      ],
      "name": "ApprovalForAll",
      "type": "event"
    },
    {
      "anonymous": false,
      "inputs": [
        {
          "indexed": true,
          "internalType": "address",
          "name": "previousOwner",
          "type": "address"
        },
        {
          "indexed": true,
          "internalType": "address",
          "name": "newOwner",
          "type": "address"
        }
      ],
      "name": "OwnershipTransferred",
      "type": "event"
    },
    {
      "anonymous": false,
      "inputs": [
        {
          "indexed": true,
          "internalType": "address",
          "name": "from",
          "type": "address"
        },
        {
          "indexed": true,
          "internalType": "address",
          "name": "to",
          "type": "address"
        },
        {
          "indexed": true,
          "internalType": "uint256",
          "name": "tokenId",
          "type": "uint256"
        }
      ],
      "name": "Transfer",
      "type": "event"
    },
    {
      "inputs": [
        {
          "internalType": "address",
          "name": "to",
          "type": "address"
        },
        {
          "internalType": "uint256",
          "name": "tokenId",
          "type": "uint256"
        }
      ],
      "name": "approve",
      "outputs": [],
      "stateMutability": "nonpayable",
      "type": "function"
    },
    {
      "inputs": [
        {
          "internalType": "address",
          "name": "owner",
          "type": "address"
        }
      ],
      "name": "balanceOf",
      "outputs": [
        {
          "internalType": "uint256",
          "name": "",
          "type": "uint256"
        }
      ],
      "stateMutability": "view",
      "type": "function"
    },
    {
      "inputs": [],
      "name": "decimals",
      "outputs": [
        {
          "internalType": "uint8",
          "name": "",
          "type": "uint8"
        }
      ],
      "stateMutability": "view",
      "type": "function"
    },
    {
      "inputs": [
        {
          "internalType": "uint256",
          "name": "tokenId",
          "type": "uint256"
        }
      ],
      "name": "getApproved",
      "outputs": [
        {
          "internalType": "address",
          "name": "",
          "type": "address"
        }
      ],
      "stateMutability": "view",
      "type": "function"
    },
    {
      "inputs": [
        {
          "internalType": "address",
          "name": "owner",
          "type": "address"
        },
        {
          "internalType": "address",
          "name": "operator",
          "type": "address"
        }
      ],
      "name": "isApprovedForAll",
      "outputs": [
        {
          "internalType": "bool",
          "name": "",
          "type": "bool"
        }
      ],
      "stateMutability": "view",
      "type": "function"
    },
    {
      "inputs": [],
      "name": "name",
      "outputs": [
        {
          "internalType": "string",
          "name": "",
          "type": "string"
        }
      ],
      "stateMutability": "view",
      "type": "function"
    },
    {
      "inputs": [],
      "name": "owner",
      "outputs": [
        {
          "internalType": "address",
          "name": "",
          "type": "address"
        }
      ],
      "stateMutability": "view",
      "type": "function"
    },
    {
      "inputs": [
        {
          "internalType": "uint256",
          "name": "tokenId",
          "type": "uint256"
        }
      ],
      "name": "ownerOf",
      "outputs": [
        {
          "internalType": "address",
          "name": "",
          "type": "address"
        }
      ],
      "stateMutability": "view",
      "type": "function"
    },
    {
      "inputs": [],
      "name": "renounceOwnership",
      "outputs": [],
      "stateMutability": "nonpayable",
      "type": "function"
    },
    {
      "inputs": [],
      "name": "royaltiesPercentage",
      "outputs": [
        {
          "internalType": "uint256",
          "name": "",
          "type": "uint256"
        }
      ],
      "stateMutability": "view",
      "type": "function"
    },
    {
      "inputs": [
        {
          "internalType": "address",
          "name": "from",
          "type": "address"
        },
        {
          "internalType": "address",
          "name": "to",
          "type": "address"
        },
        {
          "internalType": "uint256",
          "name": "tokenId",
          "type": "uint256"
        }
      ],
      "name": "safeTransferFrom",
      "outputs": [],
      "stateMutability": "nonpayable",
      "type": "function"
    },
    {
      "inputs": [
        {
          "internalType": "address",
          "name": "from",
          "type": "address"
        },
        {
          "internalType": "address",
          "name": "to",
          "type": "address"
        },
        {
          "internalType": "uint256",
          "name": "tokenId",
          "type": "uint256"
        },
        {
          "internalType": "bytes",
          "name": "_data",
          "type": "bytes"
        }
      ],
      "name": "safeTransferFrom",
      "outputs": [],
      "stateMutability": "nonpayable",
      "type": "function"
    },
    {
      "inputs": [
        {
          "internalType": "address",
          "name": "operator",
          "type": "address"
        },
        {
          "internalType": "bool",
          "name": "approved",
          "type": "bool"
        }
      ],
      "name": "setApprovalForAll",
      "outputs": [],
      "stateMutability": "nonpayable",
      "type": "function"
    },
    {
      "inputs": [],
      "name": "symbol",
      "outputs": [
        {
          "internalType": "string",
          "name": "",
          "type": "string"
        }
      ],
      "stateMutability": "view",
      "type": "function"
    },
    {
      "inputs": [
        {
          "internalType": "uint256",
          "name": "index",
          "type": "uint256"
        }
      ],
      "name": "tokenByIndex",
      "outputs": [
        {
          "internalType": "uint256",
          "name": "",
          "type": "uint256"
        }
      ],
      "stateMutability": "view",
      "type": "function"
    },
    {
      "inputs": [
        {
          "internalType": "address",
          "name": "owner",
          "type": "address"
        },
        {
          "internalType": "uint256",
          "name": "index",
          "type": "uint256"
        }
      ],
      "name": "tokenOfOwnerByIndex",
      "outputs": [
        {
          "internalType": "uint256",
          "name": "",
          "type": "uint256"
        }
      ],
      "stateMutability": "view",
      "type": "function"
    },
    {
      "inputs": [
        {
          "internalType": "uint256",
          "name": "",
          "type": "uint256"
        }
      ],
      "name": "tokenURIs",
      "outputs": [
        {
          "internalType": "string",
          "name": "",
          "type": "string"
        }
      ],
      "stateMutability": "view",
      "type": "function"
    },
    {
      "inputs": [],
      "name": "totalSupply",
      "outputs": [
        {
          "internalType": "uint256",
          "name": "",
          "type": "uint256"
        }
      ],
      "stateMutability": "view",
      "type": "function"
    },
    {
      "inputs": [
        {
          "internalType": "address",
          "name": "from",
          "type": "address"
        },
        {
          "internalType": "address",
          "name": "to",
          "type": "address"
        },
        {
          "internalType": "uint256",
          "name": "tokenId",
          "type": "uint256"
        }
      ],
      "name": "transferFrom",
      "outputs": [],
      "stateMutability": "nonpayable",
      "type": "function"
    },
    {
      "inputs": [
        {
          "internalType": "address",
          "name": "newOwner",
          "type": "address"
        }
      ],
      "name": "transferOwnership",
      "outputs": [],
      "stateMutability": "nonpayable",
      "type": "function"
    },
    {
      "inputs": [
        {
          "internalType": "bytes4",
          "name": "interfaceId",
          "type": "bytes4"
        }
      ],
      "name": "supportsInterface",
      "outputs": [
        {
          "internalType": "bool",
          "name": "",
          "type": "bool"
        }
      ],
      "stateMutability": "view",
      "type": "function"
    },
    {
      "inputs": [
        {
          "internalType": "uint256",
          "name": "tokenId",
          "type": "uint256"
        }
      ],
      "name": "tokenURI",
      "outputs": [
        {
          "internalType": "string",
          "name": "",
          "type": "string"
        }
      ],
      "stateMutability": "view",
      "type": "function"
    },
    {
      "inputs": [
        {
          "internalType": "string",
          "name": "_tokenURI",
          "type": "string"
        }
      ],
      "name": "safeMint",
      "outputs": [],
      "stateMutability": "nonpayable",
      "type": "function"
    },
    {
      "inputs": [],
      "name": "royaltiesReceiver",
      "outputs": [
        {
          "internalType": "address",
          "name": "",
          "type": "address"
        }
      ],
      "stateMutability": "nonpayable",
      "type": "function"
    },
    {
      "inputs": [
        {
          "internalType": "address",
          "name": "newRoyaltiesReceiver",
          "type": "address"
        }
      ],
      "name": "setRoyaltiesReceiver",
      "outputs": [],
      "stateMutability": "nonpayable",
      "type": "function"
    },
    {
      "inputs": [
        {
          "internalType": "uint256",
          "name": "_salePrice",
          "type": "uint256"
        }
      ],
      "name": "royaltyInfo",
      "outputs": [
        {
          "internalType": "address",
          "name": "receiver",
          "type": "address"
        },
        {
          "internalType": "uint256",
          "name": "royaltyAmount",
          "type": "uint256"
        }
      ],
      "stateMutability": "view",
      "type": "function"
    }
  ],
  "bytecode": "0x60806040526012600c60006101000a81548160ff021916908360ff1602179055503480156200002d57600080fd5b5060405162003ca738038062003ca7833981810160405281019062000053919062000341565b6040518060400160405280600e81526020017f6d544320436f6c6c656374696f6e0000000000000000000000000000000000008152506040518060400160405280600381526020017f6d54430000000000000000000000000000000000000000000000000000000000815250620000df620000d36200015b60201b60201c565b6200016360201b60201c565b8160019080519060200190620000f792919062000227565b5080600290805190602001906200011092919062000227565b50505080600f60006101000a81548173ffffffffffffffffffffffffffffffffffffffff021916908373ffffffffffffffffffffffffffffffffffffffff16021790555050620003d8565b600033905090565b60008060009054906101000a900473ffffffffffffffffffffffffffffffffffffffff169050816000806101000a81548173ffffffffffffffffffffffffffffffffffffffff021916908373ffffffffffffffffffffffffffffffffffffffff1602179055508173ffffffffffffffffffffffffffffffffffffffff168173ffffffffffffffffffffffffffffffffffffffff167f8be0079c531659141344cd1fd0a4f28419497f9722a3daafe3b4186f6b6457e060405160405180910390a35050565b8280546200023590620003a2565b90600052602060002090601f016020900481019282620002595760008555620002a5565b82601f106200027457805160ff1916838001178555620002a5565b82800160010185558215620002a5579182015b82811115620002a457825182559160200191906001019062000287565b5b509050620002b49190620002b8565b5090565b5b80821115620002d3576000816000905550600101620002b9565b5090565b600080fd5b600073ffffffffffffffffffffffffffffffffffffffff82169050919050565b60006200030982620002dc565b9050919050565b6200031b81620002fc565b81146200032757600080fd5b50565b6000815190506200033b8162000310565b92915050565b6000602082840312156200035a5762000359620002d7565b5b60006200036a848285016200032a565b91505092915050565b7f4e487b7100000000000000000000000000000000000000000000000000000000600052602260045260246000fd5b60006002820490506001821680620003bb57607f821691505b60208210811415620003d257620003d162000373565b5b50919050565b6138bf80620003e86000396000f3fe608060405234801561001057600080fd5b506004361061018e5760003560e01c806370a08231116100de578063b514371511610097578063cafa8dfe11610071578063cafa8dfe14610495578063cef6d368146104b3578063e985e9c5146104e4578063f2fde38b146105145761018e565b8063b51437151461042d578063b88d4fde14610449578063c87b56dd146104655761018e565b806370a082311461037d578063715018a6146103ad5780638da5cb5b146103b757806395d89b41146103d5578063a22cb465146103f3578063a3a51bd51461040f5761018e565b80632f745c591161014b5780634f6ccce7116101255780634f6ccce7146102d15780636352211e14610301578063695850fb146103315780636c8b703f1461034d5761018e565b80632f745c5914610267578063313ce5671461029757806342842e0e146102b55761018e565b806301ffc9a71461019357806306fdde03146101c3578063081812fc146101e1578063095ea7b31461021157806318160ddd1461022d57806323b872dd1461024b575b600080fd5b6101ad60048036038101906101a89190612468565b610530565b6040516101ba91906124b0565b60405180910390f35b6101cb6105aa565b6040516101d89190612564565b60405180910390f35b6101fb60048036038101906101f691906125bc565b61063c565b604051610208919061262a565b60405180910390f35b61022b60048036038101906102269190612671565b6106c1565b005b6102356107d9565b60405161024291906126c0565b60405180910390f35b610265600480360381019061026091906126db565b6107e6565b005b610281600480360381019061027c9190612671565b610846565b60405161028e91906126c0565b60405180910390f35b61029f6108eb565b6040516102ac919061274a565b60405180910390f35b6102cf60048036038101906102ca91906126db565b6108fe565b005b6102eb60048036038101906102e691906125bc565b61091e565b6040516102f891906126c0565b60405180910390f35b61031b600480360381019061031691906125bc565b61098f565b604051610328919061262a565b60405180910390f35b61034b6004803603810190610346919061289a565b610a41565b005b610367600480360381019061036291906125bc565b610b60565b6040516103749190612564565b60405180910390f35b610397600480360381019061039291906128e3565b610c0c565b6040516103a491906126c0565b60405180910390f35b6103b5610cc4565b005b6103bf610d4c565b6040516103cc919061262a565b60405180910390f35b6103dd610d75565b6040516103ea9190612564565b60405180910390f35b61040d6004803603810190610408919061293c565b610e07565b005b610417610f88565b604051610424919061262a565b60405180910390f35b610447600480360381019061044291906128e3565b610fb2565b005b610463600480360381019061045e9190612a1d565b6110cd565b005b61047f600480360381019061047a91906125bc565b61112f565b60405161048c9190612564565b60405180910390f35b61049d61121c565b6040516104aa91906126c0565b60405180910390f35b6104cd60048036038101906104c891906125bc565b611221565b6040516104db929190612aa0565b60405180910390f35b6104fe60048036038101906104f99190612ac9565b61126f565b60405161050b91906124b0565b60405180910390f35b61052e600480360381019061052991906128e3565b611303565b005b60007f2a55205a000000000000000000000000000000000000000000000000000000007bffffffffffffffffffffffffffffffffffffffffffffffffffffffff1916827bffffffffffffffffffffffffffffffffffffffffffffffffffffffff191614806105a357506105a2826113fb565b5b9050919050565b6060600180546105b990612b38565b80601f01602080910402602001604051908101604052809291908181526020018280546105e590612b38565b80156106325780601f1061060757610100808354040283529160200191610632565b820191906000526020600020905b81548152906001019060200180831161061557829003601f168201915b5050505050905090565b600061064782611475565b610686576040517f08c379a000000000000000000000000000000000000000000000000000000000815260040161067d90612bdc565b60405180910390fd5b6005600083815260200190815260200160002060009054906101000a900473ffffffffffffffffffffffffffffffffffffffff169050919050565b60006106cc8261098f565b90508073ffffffffffffffffffffffffffffffffffffffff168373ffffffffffffffffffffffffffffffffffffffff16141561073d576040517f08c379a000000000000000000000000000000000000000000000000000000000815260040161073490612c6e565b60405180910390fd5b8073ffffffffffffffffffffffffffffffffffffffff1661075c6114e1565b73ffffffffffffffffffffffffffffffffffffffff16148061078b575061078a816107856114e1565b61126f565b5b6107ca576040517f08c379a00000000000000000000000000000000000000000000000000000000081526004016107c190612d00565b60405180910390fd5b6107d483836114e9565b505050565b6000600980549050905090565b6107f76107f16114e1565b826115a2565b610836576040517f08c379a000000000000000000000000000000000000000000000000000000000815260040161082d90612d92565b60405180910390fd5b610841838383611680565b505050565b600061085183610c0c565b8210610892576040517f08c379a000000000000000000000000000000000000000000000000000000000815260040161088990612e24565b60405180910390fd5b600760008473ffffffffffffffffffffffffffffffffffffffff1673ffffffffffffffffffffffffffffffffffffffff168152602001908152602001600020600083815260200190815260200160002054905092915050565b600c60009054906101000a900460ff1681565b610919838383604051806020016040528060008152506110cd565b505050565b60006109286107d9565b8210610969576040517f08c379a000000000000000000000000000000000000000000000000000000000815260040161096090612eb6565b60405180910390fd5b6009828154811061097d5761097c612ed6565b5b90600052602060002001549050919050565b6000806003600084815260200190815260200160002060009054906101000a900473ffffffffffffffffffffffffffffffffffffffff169050600073ffffffffffffffffffffffffffffffffffffffff168173ffffffffffffffffffffffffffffffffffffffff161415610a38576040517f08c379a0000000000000000000000000000000000000000000000000000000008152600401610a2f90612f77565b60405180910390fd5b80915050919050565b600d81604051610a519190612fd3565b908152602001604051809103902060009054906101000a900460ff1615610aad576040517f08c379a0000000000000000000000000000000000000000000000000000000008152600401610aa490613036565b60405180910390fd5b600b81908060018154018082558091505060019003906000526020600020016000909190919091509080519060200190610ae8929190612359565b506000600b80549050905081600e60008381526020019081526020016000209080519060200190610b1a929190612359565b50610b2533826118dc565b6001600d83604051610b379190612fd3565b908152602001604051809103902060006101000a81548160ff0219169083151502179055505050565b600b8181548110610b7057600080fd5b906000526020600020016000915090508054610b8b90612b38565b80601f0160208091040260200160405190810160405280929190818152602001828054610bb790612b38565b8015610c045780601f10610bd957610100808354040283529160200191610c04565b820191906000526020600020905b815481529060010190602001808311610be757829003601f168201915b505050505081565b60008073ffffffffffffffffffffffffffffffffffffffff168273ffffffffffffffffffffffffffffffffffffffff161415610c7d576040517f08c379a0000000000000000000000000000000000000000000000000000000008152600401610c74906130c8565b60405180910390fd5b600460008373ffffffffffffffffffffffffffffffffffffffff1673ffffffffffffffffffffffffffffffffffffffff168152602001908152602001600020549050919050565b610ccc6114e1565b73ffffffffffffffffffffffffffffffffffffffff16610cea610d4c565b73ffffffffffffffffffffffffffffffffffffffff1614610d40576040517f08c379a0000000000000000000000000000000000000000000000000000000008152600401610d3790613134565b60405180910390fd5b610d4a60006118fa565b565b60008060009054906101000a900473ffffffffffffffffffffffffffffffffffffffff16905090565b606060028054610d8490612b38565b80601f0160208091040260200160405190810160405280929190818152602001828054610db090612b38565b8015610dfd5780601f10610dd257610100808354040283529160200191610dfd565b820191906000526020600020905b815481529060010190602001808311610de057829003601f168201915b5050505050905090565b610e0f6114e1565b73ffffffffffffffffffffffffffffffffffffffff168273ffffffffffffffffffffffffffffffffffffffff161415610e7d576040517f08c379a0000000000000000000000000000000000000000000000000000000008152600401610e74906131a0565b60405180910390fd5b8060066000610e8a6114e1565b73ffffffffffffffffffffffffffffffffffffffff1673ffffffffffffffffffffffffffffffffffffffff16815260200190815260200160002060008473ffffffffffffffffffffffffffffffffffffffff1673ffffffffffffffffffffffffffffffffffffffff16815260200190815260200160002060006101000a81548160ff0219169083151502179055508173ffffffffffffffffffffffffffffffffffffffff16610f376114e1565b73ffffffffffffffffffffffffffffffffffffffff167f17307eab39ab6107e8899845ad3d59bd9653f200f220920489ca2b5937696c3183604051610f7c91906124b0565b60405180910390a35050565b6000600f60009054906101000a900473ffffffffffffffffffffffffffffffffffffffff16905090565b610fba6114e1565b73ffffffffffffffffffffffffffffffffffffffff16610fd8610d4c565b73ffffffffffffffffffffffffffffffffffffffff161461102e576040517f08c379a000000000000000000000000000000000000000000000000000000000815260040161102590613134565b60405180910390fd5b600f60009054906101000a900473ffffffffffffffffffffffffffffffffffffffff1673ffffffffffffffffffffffffffffffffffffffff168173ffffffffffffffffffffffffffffffffffffffff16141561108957600080fd5b80600f60006101000a81548173ffffffffffffffffffffffffffffffffffffffff021916908373ffffffffffffffffffffffffffffffffffffffff16021790555050565b6110de6110d86114e1565b836115a2565b61111d576040517f08c379a000000000000000000000000000000000000000000000000000000000815260040161111490612d92565b60405180910390fd5b611129848484846119be565b50505050565b606061113a82611475565b611179576040517f08c379a000000000000000000000000000000000000000000000000000000000815260040161117090613232565b60405180910390fd5b600e6000838152602001908152602001600020805461119790612b38565b80601f01602080910402602001604051908101604052809291908181526020018280546111c390612b38565b80156112105780601f106111e557610100808354040283529160200191611210565b820191906000526020600020905b8154815290600101906020018083116111f357829003601f168201915b50505050509050919050565b600781565b600080600060646007856112359190613281565b61123f919061330a565b9050600f60009054906101000a900473ffffffffffffffffffffffffffffffffffffffff16819250925050915091565b6000600660008473ffffffffffffffffffffffffffffffffffffffff1673ffffffffffffffffffffffffffffffffffffffff16815260200190815260200160002060008373ffffffffffffffffffffffffffffffffffffffff1673ffffffffffffffffffffffffffffffffffffffff16815260200190815260200160002060009054906101000a900460ff16905092915050565b61130b6114e1565b73ffffffffffffffffffffffffffffffffffffffff16611329610d4c565b73ffffffffffffffffffffffffffffffffffffffff161461137f576040517f08c379a000000000000000000000000000000000000000000000000000000000815260040161137690613134565b60405180910390fd5b600073ffffffffffffffffffffffffffffffffffffffff168173ffffffffffffffffffffffffffffffffffffffff1614156113ef576040517f08c379a00000000000000000000000000000000000000000000000000000000081526004016113e6906133ad565b60405180910390fd5b6113f8816118fa565b50565b60007f780e9d63000000000000000000000000000000000000000000000000000000007bffffffffffffffffffffffffffffffffffffffffffffffffffffffff1916827bffffffffffffffffffffffffffffffffffffffffffffffffffffffff1916148061146e575061146d82611a1a565b5b9050919050565b60008073ffffffffffffffffffffffffffffffffffffffff166003600084815260200190815260200160002060009054906101000a900473ffffffffffffffffffffffffffffffffffffffff1673ffffffffffffffffffffffffffffffffffffffff1614159050919050565b600033905090565b816005600083815260200190815260200160002060006101000a81548173ffffffffffffffffffffffffffffffffffffffff021916908373ffffffffffffffffffffffffffffffffffffffff160217905550808273ffffffffffffffffffffffffffffffffffffffff1661155c8361098f565b73ffffffffffffffffffffffffffffffffffffffff167f8c5be1e5ebec7d5bd14f71427d1e84f3dd0314c0f7b2291e5b200ac8c7c3b92560405160405180910390a45050565b60006115ad82611475565b6115ec576040517f08c379a00000000000000000000000000000000000000000000000000000000081526004016115e39061343f565b60405180910390fd5b60006115f78361098f565b90508073ffffffffffffffffffffffffffffffffffffffff168473ffffffffffffffffffffffffffffffffffffffff16148061166657508373ffffffffffffffffffffffffffffffffffffffff1661164e8461063c565b73ffffffffffffffffffffffffffffffffffffffff16145b806116775750611676818561126f565b5b91505092915050565b8273ffffffffffffffffffffffffffffffffffffffff166116a08261098f565b73ffffffffffffffffffffffffffffffffffffffff16146116f6576040517f08c379a00000000000000000000000000000000000000000000000000000000081526004016116ed906134d1565b60405180910390fd5b600073ffffffffffffffffffffffffffffffffffffffff168273ffffffffffffffffffffffffffffffffffffffff161415611766576040517f08c379a000000000000000000000000000000000000000000000000000000000815260040161175d90613563565b60405180910390fd5b611771838383611afc565b61177c6000826114e9565b6001600460008573ffffffffffffffffffffffffffffffffffffffff1673ffffffffffffffffffffffffffffffffffffffff16815260200190815260200160002060008282546117cc9190613583565b925050819055506001600460008473ffffffffffffffffffffffffffffffffffffffff1673ffffffffffffffffffffffffffffffffffffffff168152602001908152602001600020600082825461182391906135b7565b92505081905550816003600083815260200190815260200160002060006101000a81548173ffffffffffffffffffffffffffffffffffffffff021916908373ffffffffffffffffffffffffffffffffffffffff160217905550808273ffffffffffffffffffffffffffffffffffffffff168473ffffffffffffffffffffffffffffffffffffffff167fddf252ad1be2c89b69c2b068fc378daa952ba7f163c4a11628f55a4df523b3ef60405160405180910390a4505050565b6118f6828260405180602001604052806000815250611b0c565b5050565b60008060009054906101000a900473ffffffffffffffffffffffffffffffffffffffff169050816000806101000a81548173ffffffffffffffffffffffffffffffffffffffff021916908373ffffffffffffffffffffffffffffffffffffffff1602179055508173ffffffffffffffffffffffffffffffffffffffff168173ffffffffffffffffffffffffffffffffffffffff167f8be0079c531659141344cd1fd0a4f28419497f9722a3daafe3b4186f6b6457e060405160405180910390a35050565b6119c9848484611680565b6119d584848484611b67565b611a14576040517f08c379a0000000000000000000000000000000000000000000000000000000008152600401611a0b9061367f565b60405180910390fd5b50505050565b60007f80ac58cd000000000000000000000000000000000000000000000000000000007bffffffffffffffffffffffffffffffffffffffffffffffffffffffff1916827bffffffffffffffffffffffffffffffffffffffffffffffffffffffff19161480611ae557507f5b5e139f000000000000000000000000000000000000000000000000000000007bffffffffffffffffffffffffffffffffffffffffffffffffffffffff1916827bffffffffffffffffffffffffffffffffffffffffffffffffffffffff1916145b80611af55750611af482611cef565b5b9050919050565b611b07838383611d59565b505050565b611b168383611e6d565b611b236000848484611b67565b611b62576040517f08c379a0000000000000000000000000000000000000000000000000000000008152600401611b599061367f565b60405180910390fd5b505050565b6000611b888473ffffffffffffffffffffffffffffffffffffffff1661203b565b15611ce2578373ffffffffffffffffffffffffffffffffffffffff1663150b7a02611bb16114e1565b8786866040518563ffffffff1660e01b8152600401611bd394939291906136f4565b6020604051808303816000875af1925050508015611c0f57506040513d601f19601f82011682018060405250810190611c0c9190613755565b60015b611c92573d8060008114611c3f576040519150601f19603f3d011682016040523d82523d6000602084013e611c44565b606091505b50600081511415611c8a576040517f08c379a0000000000000000000000000000000000000000000000000000000008152600401611c819061367f565b60405180910390fd5b805181602001fd5b63150b7a0260e01b7bffffffffffffffffffffffffffffffffffffffffffffffffffffffff1916817bffffffffffffffffffffffffffffffffffffffffffffffffffffffff191614915050611ce7565b600190505b949350505050565b60007f01ffc9a7000000000000000000000000000000000000000000000000000000007bffffffffffffffffffffffffffffffffffffffffffffffffffffffff1916827bffffffffffffffffffffffffffffffffffffffffffffffffffffffff1916149050919050565b611d6483838361204e565b600073ffffffffffffffffffffffffffffffffffffffff168373ffffffffffffffffffffffffffffffffffffffff161415611da757611da281612053565b611de6565b8173ffffffffffffffffffffffffffffffffffffffff168373ffffffffffffffffffffffffffffffffffffffff1614611de557611de4838261209c565b5b5b600073ffffffffffffffffffffffffffffffffffffffff168273ffffffffffffffffffffffffffffffffffffffff161415611e2957611e2481612209565b611e68565b8273ffffffffffffffffffffffffffffffffffffffff168273ffffffffffffffffffffffffffffffffffffffff1614611e6757611e6682826122da565b5b5b505050565b600073ffffffffffffffffffffffffffffffffffffffff168273ffffffffffffffffffffffffffffffffffffffff161415611edd576040517f08c379a0000000000000000000000000000000000000000000000000000000008152600401611ed4906137ce565b60405180910390fd5b611ee681611475565b15611f26576040517f08c379a0000000000000000000000000000000000000000000000000000000008152600401611f1d9061383a565b60405180910390fd5b611f3260008383611afc565b6001600460008473ffffffffffffffffffffffffffffffffffffffff1673ffffffffffffffffffffffffffffffffffffffff1681526020019081526020016000206000828254611f8291906135b7565b92505081905550816003600083815260200190815260200160002060006101000a81548173ffffffffffffffffffffffffffffffffffffffff021916908373ffffffffffffffffffffffffffffffffffffffff160217905550808273ffffffffffffffffffffffffffffffffffffffff16600073ffffffffffffffffffffffffffffffffffffffff167fddf252ad1be2c89b69c2b068fc378daa952ba7f163c4a11628f55a4df523b3ef60405160405180910390a45050565b600080823b905060008111915050919050565b505050565b600980549050600a600083815260200190815260200160002081905550600981908060018154018082558091505060019003906000526020600020016000909190919091505550565b600060016120a984610c0c565b6120b39190613583565b9050600060086000848152602001908152602001600020549050818114612198576000600760008673ffffffffffffffffffffffffffffffffffffffff1673ffffffffffffffffffffffffffffffffffffffff168152602001908152602001600020600084815260200190815260200160002054905080600760008773ffffffffffffffffffffffffffffffffffffffff1673ffffffffffffffffffffffffffffffffffffffff168152602001908152602001600020600084815260200190815260200160002081905550816008600083815260200190815260200160002081905550505b6008600084815260200190815260200160002060009055600760008573ffffffffffffffffffffffffffffffffffffffff1673ffffffffffffffffffffffffffffffffffffffff16815260200190815260200160002060008381526020019081526020016000206000905550505050565b6000600160098054905061221d9190613583565b90506000600a600084815260200190815260200160002054905060006009838154811061224d5761224c612ed6565b5b90600052602060002001549050806009838154811061226f5761226e612ed6565b5b906000526020600020018190555081600a600083815260200190815260200160002081905550600a60008581526020019081526020016000206000905560098054806122be576122bd61385a565b5b6001900381819060005260206000200160009055905550505050565b60006122e583610c0c565b905081600760008573ffffffffffffffffffffffffffffffffffffffff1673ffffffffffffffffffffffffffffffffffffffff168152602001908152602001600020600083815260200190815260200160002081905550806008600084815260200190815260200160002081905550505050565b82805461236590612b38565b90600052602060002090601f01602090048101928261238757600085556123ce565b82601f106123a057805160ff19168380011785556123ce565b828001600101855582156123ce579182015b828111156123cd5782518255916020019190600101906123b2565b5b5090506123db91906123df565b5090565b5b808211156123f85760008160009055506001016123e0565b5090565b6000604051905090565b600080fd5b600080fd5b60007fffffffff0000000000000000000000000000000000000000000000000000000082169050919050565b61244581612410565b811461245057600080fd5b50565b6000813590506124628161243c565b92915050565b60006020828403121561247e5761247d612406565b5b600061248c84828501612453565b91505092915050565b60008115159050919050565b6124aa81612495565b82525050565b60006020820190506124c560008301846124a1565b92915050565b600081519050919050565b600082825260208201905092915050565b60005b838110156125055780820151818401526020810190506124ea565b83811115612514576000848401525b50505050565b6000601f19601f8301169050919050565b6000612536826124cb565b61254081856124d6565b93506125508185602086016124e7565b6125598161251a565b840191505092915050565b6000602082019050818103600083015261257e818461252b565b905092915050565b6000819050919050565b61259981612586565b81146125a457600080fd5b50565b6000813590506125b681612590565b92915050565b6000602082840312156125d2576125d1612406565b5b60006125e0848285016125a7565b91505092915050565b600073ffffffffffffffffffffffffffffffffffffffff82169050919050565b6000612614826125e9565b9050919050565b61262481612609565b82525050565b600060208201905061263f600083018461261b565b92915050565b61264e81612609565b811461265957600080fd5b50565b60008135905061266b81612645565b92915050565b6000806040838503121561268857612687612406565b5b60006126968582860161265c565b92505060206126a7858286016125a7565b9150509250929050565b6126ba81612586565b82525050565b60006020820190506126d560008301846126b1565b92915050565b6000806000606084860312156126f4576126f3612406565b5b60006127028682870161265c565b93505060206127138682870161265c565b9250506040612724868287016125a7565b9150509250925092565b600060ff82169050919050565b6127448161272e565b82525050565b600060208201905061275f600083018461273b565b92915050565b600080fd5b600080fd5b7f4e487b7100000000000000000000000000000000000000000000000000000000600052604160045260246000fd5b6127a78261251a565b810181811067ffffffffffffffff821117156127c6576127c561276f565b5b80604052505050565b60006127d96123fc565b90506127e5828261279e565b919050565b600067ffffffffffffffff8211156128055761280461276f565b5b61280e8261251a565b9050602081019050919050565b82818337600083830152505050565b600061283d612838846127ea565b6127cf565b9050828152602081018484840111156128595761285861276a565b5b61286484828561281b565b509392505050565b600082601f83011261288157612880612765565b5b813561289184826020860161282a565b91505092915050565b6000602082840312156128b0576128af612406565b5b600082013567ffffffffffffffff8111156128ce576128cd61240b565b5b6128da8482850161286c565b91505092915050565b6000602082840312156128f9576128f8612406565b5b60006129078482850161265c565b91505092915050565b61291981612495565b811461292457600080fd5b50565b60008135905061293681612910565b92915050565b6000806040838503121561295357612952612406565b5b60006129618582860161265c565b925050602061297285828601612927565b9150509250929050565b600067ffffffffffffffff8211156129975761299661276f565b5b6129a08261251a565b9050602081019050919050565b60006129c06129bb8461297c565b6127cf565b9050828152602081018484840111156129dc576129db61276a565b5b6129e784828561281b565b509392505050565b600082601f830112612a0457612a03612765565b5b8135612a148482602086016129ad565b91505092915050565b60008060008060808587031215612a3757612a36612406565b5b6000612a458782880161265c565b9450506020612a568782880161265c565b9350506040612a67878288016125a7565b925050606085013567ffffffffffffffff811115612a8857612a8761240b565b5b612a94878288016129ef565b91505092959194509250565b6000604082019050612ab5600083018561261b565b612ac260208301846126b1565b9392505050565b60008060408385031215612ae057612adf612406565b5b6000612aee8582860161265c565b9250506020612aff8582860161265c565b9150509250929050565b7f4e487b7100000000000000000000000000000000000000000000000000000000600052602260045260246000fd5b60006002820490506001821680612b5057607f821691505b60208210811415612b6457612b63612b09565b5b50919050565b7f4552433732313a20617070726f76656420717565727920666f72206e6f6e657860008201527f697374656e7420746f6b656e0000000000000000000000000000000000000000602082015250565b6000612bc6602c836124d6565b9150612bd182612b6a565b604082019050919050565b60006020820190508181036000830152612bf581612bb9565b9050919050565b7f4552433732313a20617070726f76616c20746f2063757272656e74206f776e6560008201527f7200000000000000000000000000000000000000000000000000000000000000602082015250565b6000612c586021836124d6565b9150612c6382612bfc565b604082019050919050565b60006020820190508181036000830152612c8781612c4b565b9050919050565b7f4552433732313a20617070726f76652063616c6c6572206973206e6f74206f7760008201527f6e6572206e6f7220617070726f76656420666f7220616c6c0000000000000000602082015250565b6000612cea6038836124d6565b9150612cf582612c8e565b604082019050919050565b60006020820190508181036000830152612d1981612cdd565b9050919050565b7f4552433732313a207472616e736665722063616c6c6572206973206e6f74206f60008201527f776e6572206e6f7220617070726f766564000000000000000000000000000000602082015250565b6000612d7c6031836124d6565b9150612d8782612d20565b604082019050919050565b60006020820190508181036000830152612dab81612d6f565b9050919050565b7f455243373231456e756d657261626c653a206f776e657220696e646578206f7560008201527f74206f6620626f756e6473000000000000000000000000000000000000000000602082015250565b6000612e0e602b836124d6565b9150612e1982612db2565b604082019050919050565b60006020820190508181036000830152612e3d81612e01565b9050919050565b7f455243373231456e756d657261626c653a20676c6f62616c20696e646578206f60008201527f7574206f6620626f756e64730000000000000000000000000000000000000000602082015250565b6000612ea0602c836124d6565b9150612eab82612e44565b604082019050919050565b60006020820190508181036000830152612ecf81612e93565b9050919050565b7f4e487b7100000000000000000000000000000000000000000000000000000000600052603260045260246000fd5b7f4552433732313a206f776e657220717565727920666f72206e6f6e657869737460008201527f656e7420746f6b656e0000000000000000000000000000000000000000000000602082015250565b6000612f616029836124d6565b9150612f6c82612f05565b604082019050919050565b60006020820190508181036000830152612f9081612f54565b9050919050565b600081905092915050565b6000612fad826124cb565b612fb78185612f97565b9350612fc78185602086016124e7565b80840191505092915050565b6000612fdf8284612fa2565b915081905092915050565b7f54686520746f6b656e205552492073686f756c6420626520756e697175650000600082015250565b6000613020601e836124d6565b915061302b82612fea565b602082019050919050565b6000602082019050818103600083015261304f81613013565b9050919050565b7f4552433732313a2062616c616e636520717565727920666f7220746865207a6560008201527f726f206164647265737300000000000000000000000000000000000000000000602082015250565b60006130b2602a836124d6565b91506130bd82613056565b604082019050919050565b600060208201905081810360008301526130e1816130a5565b9050919050565b7f4f776e61626c653a2063616c6c6572206973206e6f7420746865206f776e6572600082015250565b600061311e6020836124d6565b9150613129826130e8565b602082019050919050565b6000602082019050818103600083015261314d81613111565b9050919050565b7f4552433732313a20617070726f766520746f2063616c6c657200000000000000600082015250565b600061318a6019836124d6565b915061319582613154565b602082019050919050565b600060208201905081810360008301526131b98161317d565b9050919050565b7f4552433732314d657461646174613a2055524920717565727920666f72206e6f60008201527f6e6578697374656e7420746f6b656e0000000000000000000000000000000000602082015250565b600061321c602f836124d6565b9150613227826131c0565b604082019050919050565b6000602082019050818103600083015261324b8161320f565b9050919050565b7f4e487b7100000000000000000000000000000000000000000000000000000000600052601160045260246000fd5b600061328c82612586565b915061329783612586565b9250817fffffffffffffffffffffffffffffffffffffffffffffffffffffffffffffffff04831182151516156132d0576132cf613252565b5b828202905092915050565b7f4e487b7100000000000000000000000000000000000000000000000000000000600052601260045260246000fd5b600061331582612586565b915061332083612586565b9250826133305761332f6132db565b5b828204905092915050565b7f4f776e61626c653a206e6577206f776e657220697320746865207a65726f206160008201527f6464726573730000000000000000000000000000000000000000000000000000602082015250565b60006133976026836124d6565b91506133a28261333b565b604082019050919050565b600060208201905081810360008301526133c68161338a565b9050919050565b7f4552433732313a206f70657261746f7220717565727920666f72206e6f6e657860008201527f697374656e7420746f6b656e0000000000000000000000000000000000000000602082015250565b6000613429602c836124d6565b9150613434826133cd565b604082019050919050565b600060208201905081810360008301526134588161341c565b9050919050565b7f4552433732313a207472616e73666572206f6620746f6b656e2074686174206960008201527f73206e6f74206f776e0000000000000000000000000000000000000000000000602082015250565b60006134bb6029836124d6565b91506134c68261345f565b604082019050919050565b600060208201905081810360008301526134ea816134ae565b9050919050565b7f4552433732313a207472616e7366657220746f20746865207a65726f2061646460008201527f7265737300000000000000000000000000000000000000000000000000000000602082015250565b600061354d6024836124d6565b9150613558826134f1565b604082019050919050565b6000602082019050818103600083015261357c81613540565b9050919050565b600061358e82612586565b915061359983612586565b9250828210156135ac576135ab613252565b5b828203905092915050565b60006135c282612586565b91506135cd83612586565b9250827fffffffffffffffffffffffffffffffffffffffffffffffffffffffffffffffff0382111561360257613601613252565b5b828201905092915050565b7f4552433732313a207472616e7366657220746f206e6f6e20455243373231526560008201527f63656976657220696d706c656d656e7465720000000000000000000000000000602082015250565b60006136696032836124d6565b91506136748261360d565b604082019050919050565b600060208201905081810360008301526136988161365c565b9050919050565b600081519050919050565b600082825260208201905092915050565b60006136c68261369f565b6136d081856136aa565b93506136e08185602086016124e7565b6136e98161251a565b840191505092915050565b6000608082019050613709600083018761261b565b613716602083018661261b565b61372360408301856126b1565b818103606083015261373581846136bb565b905095945050505050565b60008151905061374f8161243c565b92915050565b60006020828403121561376b5761376a612406565b5b600061377984828501613740565b91505092915050565b7f4552433732313a206d696e7420746f20746865207a65726f2061646472657373600082015250565b60006137b86020836124d6565b91506137c382613782565b602082019050919050565b600060208201905081810360008301526137e7816137ab565b9050919050565b7f4552433732313a20746f6b656e20616c7265616479206d696e74656400000000600082015250565b6000613824601c836124d6565b915061382f826137ee565b602082019050919050565b6000602082019050818103600083015261385381613817565b9050919050565b7f4e487b7100000000000000000000000000000000000000000000000000000000600052603160045260246000fdfea26469706673582212207220caf2434410b6aa3edc4468acde247e1317973dfd4de6bfe77b54d075967364736f6c634300080c0033",
  "immutableReferences": {},
  "source": "// SPDX-License-Identifier: MIT\r\npragma solidity ^0.8.0;\r\n\r\nimport \"@openzeppelin/contracts/token/ERC721/ERC721.sol\";\r\nimport \"@openzeppelin/contracts/token/ERC721/extensions/ERC721Enumerable.sol\";\r\nimport \"@openzeppelin/contracts/access/Ownable.sol\";\r\nimport \"./interfaces/IERC2981.sol\";\r\n\r\ncontract NFTCollection is Ownable, ERC721, ERC721Enumerable{\r\n  string[] public tokenURIs;\r\n  uint8 public decimals = 18;\r\n  mapping(string => bool) _tokenURIExists;\r\n  mapping(uint => string) _tokenIdToTokenURI;\r\n  // Address of the royalties recipient\r\n  address private _royaltiesReceiver;\r\n  // Percentage of each sale to pay as royalties (5% to Owner; 2% to platform provider)\r\n  uint256 public constant royaltiesPercentage = 7; \r\n\r\n  constructor(address initialRoyaltiesReceiver) \r\n    ERC721(\"mTC Collection\", \"mTC\") \r\n  {\r\n     _royaltiesReceiver = initialRoyaltiesReceiver;\r\n  }\r\n\r\n  function _beforeTokenTransfer(address from, address to, uint256 tokenId) internal override(ERC721, ERC721Enumerable) {\r\n    super._beforeTokenTransfer(from, to, tokenId);\r\n  }\r\n\r\n  function supportsInterface(bytes4 interfaceId) public view override(ERC721, ERC721Enumerable) returns (bool) {\r\n      return interfaceId == type(IERC2981).interfaceId ||\r\n      super.supportsInterface(interfaceId);\r\n  }\r\n\r\n  function tokenURI(uint256 tokenId) public override view returns (string memory) {\r\n    require(_exists(tokenId), 'ERC721Metadata: URI query for nonexistent token');\r\n    return _tokenIdToTokenURI[tokenId];\r\n  }\r\n\r\n  function safeMint(string memory _tokenURI) public {\r\n    require(!_tokenURIExists[_tokenURI], 'The token URI should be unique');\r\n    tokenURIs.push(_tokenURI);    \r\n    uint _id = tokenURIs.length;\r\n    _tokenIdToTokenURI[_id] = _tokenURI;\r\n    _safeMint(msg.sender, _id);\r\n    _tokenURIExists[_tokenURI] = true;\r\n  }\r\n\r\n  function _burn(uint256 tokenId) internal override(ERC721) {\r\n      super._burn(tokenId);\r\n  }\r\n\r\n  /// @notice Getter function for _royaltiesReceiver\r\n  /// @return the address of the royalties recipient\r\n  function royaltiesReceiver() external returns(address) {\r\n      return _royaltiesReceiver;\r\n  }\r\n\r\n  /// @notice Changes the royalties' recipient address (in case rights are\r\n  ///         transferred for instance)\r\n  /// @param newRoyaltiesReceiver - address of the new royalties recipient\r\n  function setRoyaltiesReceiver(address newRoyaltiesReceiver)\r\n  external onlyOwner {\r\n      require(newRoyaltiesReceiver != _royaltiesReceiver); // dev: Same address\r\n      _royaltiesReceiver = newRoyaltiesReceiver;\r\n  }\r\n\r\n  function royaltyInfo(uint256 _salePrice) external view returns (address receiver, uint256 royaltyAmount) {\r\n        uint256 _royalties = (_salePrice * royaltiesPercentage) / 100;\r\n\r\n        return (_royaltiesReceiver, _royalties);\r\n  }\r\n\r\n\r\n\r\n}",
  "sourcePath": "C:\\dev\\nft-marketplace\\src\\contracts\\NFTCollection.sol",
  "compiler": {
    "name": "solc",
    "version": "0.8.12+commit.f00d7308.Emscripten.clang"
  },
  "schemaVersion": "3.4.3",
  "updatedAt": "2022-03-14T06:53:27.573Z",
  "devdoc": {
    "kind": "dev",
    "methods": {
      "approve(address,uint256)": {
        "details": "See {IERC721-approve}."
      },
      "balanceOf(address)": {
        "details": "See {IERC721-balanceOf}."
      },
      "getApproved(uint256)": {
        "details": "See {IERC721-getApproved}."
      },
      "isApprovedForAll(address,address)": {
        "details": "See {IERC721-isApprovedForAll}."
      },
      "name()": {
        "details": "See {IERC721Metadata-name}."
      },
      "owner()": {
        "details": "Returns the address of the current owner."
      },
      "ownerOf(uint256)": {
        "details": "See {IERC721-ownerOf}."
      },
      "renounceOwnership()": {
        "details": "Leaves the contract without owner. It will not be possible to call `onlyOwner` functions anymore. Can only be called by the current owner. NOTE: Renouncing ownership will leave the contract without an owner, thereby removing any functionality that is only available to the owner."
      },
      "royaltiesReceiver()": {
        "returns": {
          "_0": "the address of the royalties recipient"
        }
      },
      "safeTransferFrom(address,address,uint256)": {
        "details": "See {IERC721-safeTransferFrom}."
      },
      "safeTransferFrom(address,address,uint256,bytes)": {
        "details": "See {IERC721-safeTransferFrom}."
      },
      "setApprovalForAll(address,bool)": {
        "details": "See {IERC721-setApprovalForAll}."
      },
      "setRoyaltiesReceiver(address)": {
        "params": {
          "newRoyaltiesReceiver": "- address of the new royalties recipient"
        }
      },
      "symbol()": {
        "details": "See {IERC721Metadata-symbol}."
      },
      "tokenByIndex(uint256)": {
        "details": "See {IERC721Enumerable-tokenByIndex}."
      },
      "tokenOfOwnerByIndex(address,uint256)": {
        "details": "See {IERC721Enumerable-tokenOfOwnerByIndex}."
      },
      "tokenURI(uint256)": {
        "details": "See {IERC721Metadata-tokenURI}."
      },
      "totalSupply()": {
        "details": "See {IERC721Enumerable-totalSupply}."
      },
      "transferFrom(address,address,uint256)": {
        "details": "See {IERC721-transferFrom}."
      },
      "transferOwnership(address)": {
        "details": "Transfers ownership of the contract to a new account (`newOwner`). Can only be called by the current owner."
      }
    },
    "version": 1
  },
  "userdoc": {
    "kind": "user",
    "methods": {
      "royaltiesReceiver()": {
        "notice": "Getter function for _royaltiesReceiver"
      },
      "setRoyaltiesReceiver(address)": {
        "notice": "Changes the royalties' recipient address (in case rights are         transferred for instance)"
      }
    },
    "version": 1
  }
}