{
  "contractName": "NFTMarketplace",
  "abi": [
    {
      "inputs": [
        {
          "internalType": "address",
          "name": "_nftCollection",
          "type": "address"
        }
      ],
      "stateMutability": "nonpayable",
      "type": "constructor"
    },
    {
      "anonymous": false,
      "inputs": [
        {
          "indexed": false,
          "internalType": "address",
          "name": "user",
          "type": "address"
        },
        {
          "indexed": false,
          "internalType": "uint256",
          "name": "amount",
          "type": "uint256"
        }
      ],
      "name": "ClaimFunds",
      "type": "event"
    },
    {
      "anonymous": false,
      "inputs": [
        {
          "indexed": false,
          "internalType": "uint256",
          "name": "offerId",
          "type": "uint256"
        },
        {
          "indexed": false,
          "internalType": "uint256",
          "name": "id",
          "type": "uint256"
        },
        {
          "indexed": false,
          "internalType": "address",
          "name": "user",
          "type": "address"
        },
        {
          "indexed": false,
          "internalType": "uint256",
          "name": "price",
          "type": "uint256"
        },
        {
          "indexed": false,
          "internalType": "bool",
          "name": "fulfilled",
          "type": "bool"
        },
        {
          "indexed": false,
          "internalType": "bool",
          "name": "cancelled",
          "type": "bool"
        }
      ],
      "name": "Offer",
      "type": "event"
    },
    {
      "anonymous": false,
      "inputs": [
        {
          "indexed": false,
          "internalType": "uint256",
          "name": "offerId",
          "type": "uint256"
        },
        {
          "indexed": false,
          "internalType": "uint256",
          "name": "id",
          "type": "uint256"
        },
        {
          "indexed": false,
          "internalType": "address",
          "name": "owner",
          "type": "address"
        }
      ],
      "name": "OfferCancelled",
      "type": "event"
    },
    {
      "anonymous": false,
      "inputs": [
        {
          "indexed": false,
          "internalType": "uint256",
          "name": "offerId",
          "type": "uint256"
        },
        {
          "indexed": false,
          "internalType": "uint256",
          "name": "id",
          "type": "uint256"
        },
        {
          "indexed": false,
          "internalType": "address",
          "name": "newOwner",
          "type": "address"
        }
      ],
      "name": "OfferFilled",
      "type": "event"
    },
    {
      "stateMutability": "nonpayable",
      "type": "fallback"
    },
    {
      "inputs": [],
      "name": "_tokenContractAddress",
      "outputs": [
        {
          "internalType": "address",
          "name": "",
          "type": "address"
        }
      ],
      "stateMutability": "view",
      "type": "function"
    },
    {
      "inputs": [],
      "name": "offerCount",
      "outputs": [
        {
          "internalType": "uint256",
          "name": "",
          "type": "uint256"
        }
      ],
      "stateMutability": "view",
      "type": "function"
    },
    {
      "inputs": [
        {
          "internalType": "uint256",
          "name": "",
          "type": "uint256"
        }
      ],
      "name": "offers",
      "outputs": [
        {
          "internalType": "uint256",
          "name": "offerId",
          "type": "uint256"
        },
        {
          "internalType": "uint256",
          "name": "id",
          "type": "uint256"
        },
        {
          "internalType": "address",
          "name": "user",
          "type": "address"
        },
        {
          "internalType": "uint256",
          "name": "price",
          "type": "uint256"
        },
        {
          "internalType": "bool",
          "name": "fulfilled",
          "type": "bool"
        },
        {
          "internalType": "bool",
          "name": "cancelled",
          "type": "bool"
        }
      ],
      "stateMutability": "view",
      "type": "function"
    },
    {
      "inputs": [],
      "name": "payments",
      "outputs": [
        {
          "internalType": "address payable",
          "name": "",
          "type": "address"
        }
      ],
      "stateMutability": "view",
      "type": "function"
    },
    {
      "inputs": [
        {
          "internalType": "address",
          "name": "",
          "type": "address"
        }
      ],
      "name": "royaltyFunds",
      "outputs": [
        {
          "internalType": "uint256",
          "name": "",
          "type": "uint256"
        }
      ],
      "stateMutability": "view",
      "type": "function"
    },
    {
      "inputs": [
        {
          "internalType": "address",
          "name": "",
          "type": "address"
        }
      ],
      "name": "serviceFunds",
      "outputs": [
        {
          "internalType": "uint256",
          "name": "",
          "type": "uint256"
        }
      ],
      "stateMutability": "view",
      "type": "function"
    },
    {
      "inputs": [
        {
          "internalType": "address",
          "name": "",
          "type": "address"
        }
      ],
      "name": "userFunds",
      "outputs": [
        {
          "internalType": "uint256",
          "name": "",
          "type": "uint256"
        }
      ],
      "stateMutability": "view",
      "type": "function"
    },
    {
      "inputs": [
        {
          "internalType": "uint256",
          "name": "_id",
          "type": "uint256"
        },
        {
          "internalType": "uint256",
          "name": "_price",
          "type": "uint256"
        }
      ],
      "name": "makeOffer",
      "outputs": [],
      "stateMutability": "nonpayable",
      "type": "function"
    },
    {
      "inputs": [
        {
          "internalType": "uint256",
          "name": "_offerId",
          "type": "uint256"
        }
      ],
      "name": "fillOffer",
      "outputs": [],
      "stateMutability": "payable",
      "type": "function"
    },
    {
      "inputs": [
        {
          "internalType": "uint256",
          "name": "_offerId",
          "type": "uint256"
        }
      ],
      "name": "cancelOffer",
      "outputs": [],
      "stateMutability": "nonpayable",
      "type": "function"
    },
    {
      "inputs": [],
      "name": "claimFunds",
      "outputs": [],
      "stateMutability": "nonpayable",
      "type": "function"
    },
    {
      "inputs": [],
      "name": "claimRoyaltyFunds",
      "outputs": [],
      "stateMutability": "nonpayable",
      "type": "function"
    },
    {
      "inputs": [],
      "name": "claimServiceFunds",
      "outputs": [],
      "stateMutability": "nonpayable",
      "type": "function"
    }
  ],
  "bytecode": "0x608060405260008060006101000a81548173ffffffffffffffffffffffffffffffffffffffff021916908373ffffffffffffffffffffffffffffffffffffffff1602179055503480156200005257600080fd5b50604051620021863803806200218683398181016040528101906200007891906200016a565b806000806101000a81548173ffffffffffffffffffffffffffffffffffffffff021916908373ffffffffffffffffffffffffffffffffffffffff16021790555080600760006101000a81548173ffffffffffffffffffffffffffffffffffffffff021916908373ffffffffffffffffffffffffffffffffffffffff160217905550506200019c565b600080fd5b600073ffffffffffffffffffffffffffffffffffffffff82169050919050565b6000620001328262000105565b9050919050565b620001448162000125565b81146200015057600080fd5b50565b600081519050620001648162000139565b92915050565b60006020828403121562000183576200018262000100565b5b6000620001938482850162000153565b91505092915050565b611fda80620001ac6000396000f3fe6080604052600436106100c65760003560e01c806385dba8611161007f578063a6d23e1011610059578063a6d23e1014610284578063ac307773146102af578063c490b924146102c6578063ef706adf146102dd576100c7565b806385dba861146101e9578063898c4c13146102055780638a72ea6a14610242576100c7565b806305b7cdd3146100d95780631115c24d1461010257806332b06f8e1461012d5780635a27ddbd1461016a5780635cf0346f146101815780638387c6e1146101ac576100c7565b5b3480156100d357600080fd5b50600080fd5b3480156100e557600080fd5b5061010060048036038101906100fb9190611499565b610306565b005b34801561010e57600080fd5b506101176104ff565b60405161012491906114e8565b60405180910390f35b34801561013957600080fd5b50610154600480360381019061014f9190611561565b610505565b60405161016191906114e8565b60405180910390f35b34801561017657600080fd5b5061017f61051d565b005b34801561018d57600080fd5b5061019661065e565b6040516101a3919061159d565b60405180910390f35b3480156101b857600080fd5b506101d360048036038101906101ce9190611561565b610682565b6040516101e091906114e8565b60405180910390f35b61020360048036038101906101fe91906115b8565b61069a565b005b34801561021157600080fd5b5061022c60048036038101906102279190611561565b610d88565b60405161023991906114e8565b60405180910390f35b34801561024e57600080fd5b50610269600480360381019061026491906115b8565b610da0565b60405161027b96959493929190611600565b60405180910390f35b34801561029057600080fd5b50610299610e16565b6040516102a69190611682565b60405180910390f35b3480156102bb57600080fd5b506102c4610e3c565b005b3480156102d257600080fd5b506102db611003565b005b3480156102e957600080fd5b5061030460048036038101906102ff91906115b8565b6111ca565b005b600760009054906101000a900473ffffffffffffffffffffffffffffffffffffffff1673ffffffffffffffffffffffffffffffffffffffff166323b872dd3330856040518463ffffffff1660e01b81526004016103659392919061169d565b600060405180830381600087803b15801561037f57600080fd5b505af1158015610393573d6000803e3d6000fd5b50505050600260008154809291906103aa90611703565b91905055506040518060c0016040528060025481526020018381526020013373ffffffffffffffffffffffffffffffffffffffff16815260200182815260200160001515815260200160001515815250600360006002548152602001908152602001600020600082015181600001556020820151816001015560408201518160020160006101000a81548173ffffffffffffffffffffffffffffffffffffffff021916908373ffffffffffffffffffffffffffffffffffffffff1602179055506060820151816003015560808201518160040160006101000a81548160ff02191690831515021790555060a08201518160040160016101000a81548160ff0219169083151502179055509050507f93e711896d4ef527d199d7e101922e20f918cbb248a0fb0977c52fda24aa1f1d6002548333846000806040516104f396959493929190611600565b60405180910390a15050565b60025481565b60066020528060005260406000206000915090505481565b6000600660003373ffffffffffffffffffffffffffffffffffffffff1673ffffffffffffffffffffffffffffffffffffffff168152602001908152602001600020541161059f576040517f08c379a0000000000000000000000000000000000000000000000000000000008152600401610596906117ce565b60405180910390fd5b7f4f0554190111f93f8c2ccef2cc41473f187d7f29ff5a5c308ca41f9dfe4e989a33600660003373ffffffffffffffffffffffffffffffffffffffff1673ffffffffffffffffffffffffffffffffffffffff1681526020019081526020016000205460405161060f9291906117ee565b60405180910390a16000600660003373ffffffffffffffffffffffffffffffffffffffff1673ffffffffffffffffffffffffffffffffffffffff16815260200190815260200160002081905550565b60008054906101000a900473ffffffffffffffffffffffffffffffffffffffff1681565b60046020528060005260406000206000915090505481565b6000600360008381526020019081526020016000209050818160000154146106f7576040517f08c379a00000000000000000000000000000000000000000000000000000000081526004016106ee90611863565b60405180910390fd5b3373ffffffffffffffffffffffffffffffffffffffff168160020160009054906101000a900473ffffffffffffffffffffffffffffffffffffffff1673ffffffffffffffffffffffffffffffffffffffff1603610789576040517f08c379a0000000000000000000000000000000000000000000000000000000008152600401610780906118f5565b60405180910390fd5b8060040160009054906101000a900460ff16156107db576040517f08c379a00000000000000000000000000000000000000000000000000000000081526004016107d290611987565b60405180910390fd5b8060040160019054906101000a900460ff161561082d576040517f08c379a000000000000000000000000000000000000000000000000000000000815260040161082490611a19565b60405180910390fd5b80600301543414610873576040517f08c379a000000000000000000000000000000000000000000000000000000000815260040161086a90611aab565b60405180910390fd5b600760009054906101000a900473ffffffffffffffffffffffffffffffffffffffff1673ffffffffffffffffffffffffffffffffffffffff166323b872dd303384600101546040518463ffffffff1660e01b81526004016108d69392919061169d565b600060405180830381600087803b1580156108f057600080fd5b505af1158015610904573d6000803e3d6000fd5b5050505060018160040160006101000a81548160ff0219169083151502179055506000816001015490506000600760009054906101000a900473ffffffffffffffffffffffffffffffffffffffff1673ffffffffffffffffffffffffffffffffffffffff166332103a40836040518263ffffffff1660e01b815260040161098b91906114e8565b602060405180830381865afa1580156109a8573d6000803e3d6000fd5b505050506040513d601f19601f820116820180604052508101906109cc9190611ae0565b90506000600760009054906101000a900473ffffffffffffffffffffffffffffffffffffffff1673ffffffffffffffffffffffffffffffffffffffff1663f53aac2a846040518263ffffffff1660e01b8152600401610a2b91906114e8565b602060405180830381865afa158015610a48573d6000803e3d6000fd5b505050506040513d601f19601f82011682018060405250810190610a6c9190611ae0565b90506000600760009054906101000a900473ffffffffffffffffffffffffffffffffffffffff1673ffffffffffffffffffffffffffffffffffffffff1663ef8a8cb1856040518263ffffffff1660e01b8152600401610acb91906114e8565b602060405180830381865afa158015610ae8573d6000803e3d6000fd5b505050506040513d601f19601f82011682018060405250810190610b0c9190611b22565b90506000600760009054906101000a900473ffffffffffffffffffffffffffffffffffffffff1673ffffffffffffffffffffffffffffffffffffffff16630a2e98e4866040518263ffffffff1660e01b8152600401610b6b91906114e8565b602060405180830381865afa158015610b88573d6000803e3d6000fd5b505050506040513d601f19601f82011682018060405250810190610bac9190611b22565b90506000349050600068056bc75e2d631000008483610bcb9190611b4f565b610bd59190611bd8565b9050600068056bc75e2d631000008484610bef9190611b4f565b610bf99190611bd8565b905060008183610c099190611c09565b84610c149190611c5f565b905080600460008c60020160009054906101000a900473ffffffffffffffffffffffffffffffffffffffff1673ffffffffffffffffffffffffffffffffffffffff1673ffffffffffffffffffffffffffffffffffffffff1681526020019081526020016000206000828254610c899190611c09565b9250508190555082600560008a73ffffffffffffffffffffffffffffffffffffffff1673ffffffffffffffffffffffffffffffffffffffff1681526020019081526020016000206000828254610cdf9190611c09565b9250508190555081600660008973ffffffffffffffffffffffffffffffffffffffff1673ffffffffffffffffffffffffffffffffffffffff1681526020019081526020016000206000828254610d359190611c09565b925050819055507fd9157c065213ada613694e84b1e27fe2efd62d85c6b82bd6c842a4999491e72a8b8b6001015433604051610d7393929190611c93565b60405180910390a15050505050505050505050565b60056020528060005260406000206000915090505481565b60036020528060005260406000206000915090508060000154908060010154908060020160009054906101000a900473ffffffffffffffffffffffffffffffffffffffff16908060030154908060040160009054906101000a900460ff16908060040160019054906101000a900460ff16905086565b600160009054906101000a900473ffffffffffffffffffffffffffffffffffffffff1681565b6000600460003373ffffffffffffffffffffffffffffffffffffffff1673ffffffffffffffffffffffffffffffffffffffff1681526020019081526020016000205411610ebe576040517f08c379a0000000000000000000000000000000000000000000000000000000008152600401610eb590611d3c565b60405180910390fd5b3373ffffffffffffffffffffffffffffffffffffffff166108fc600460003373ffffffffffffffffffffffffffffffffffffffff1673ffffffffffffffffffffffffffffffffffffffff168152602001908152602001600020549081150290604051600060405180830381858888f19350505050158015610f43573d6000803e3d6000fd5b507f4f0554190111f93f8c2ccef2cc41473f187d7f29ff5a5c308ca41f9dfe4e989a33600460003373ffffffffffffffffffffffffffffffffffffffff1673ffffffffffffffffffffffffffffffffffffffff16815260200190815260200160002054604051610fb49291906117ee565b60405180910390a16000600460003373ffffffffffffffffffffffffffffffffffffffff1673ffffffffffffffffffffffffffffffffffffffff16815260200190815260200160002081905550565b6000600560003373ffffffffffffffffffffffffffffffffffffffff1673ffffffffffffffffffffffffffffffffffffffff1681526020019081526020016000205411611085576040517f08c379a000000000000000000000000000000000000000000000000000000000815260040161107c90611dce565b60405180910390fd5b3373ffffffffffffffffffffffffffffffffffffffff166108fc600560003373ffffffffffffffffffffffffffffffffffffffff1673ffffffffffffffffffffffffffffffffffffffff168152602001908152602001600020549081150290604051600060405180830381858888f1935050505015801561110a573d6000803e3d6000fd5b507f4f0554190111f93f8c2ccef2cc41473f187d7f29ff5a5c308ca41f9dfe4e989a33600560003373ffffffffffffffffffffffffffffffffffffffff1673ffffffffffffffffffffffffffffffffffffffff1681526020019081526020016000205460405161117b9291906117ee565b60405180910390a16000600560003373ffffffffffffffffffffffffffffffffffffffff1673ffffffffffffffffffffffffffffffffffffffff16815260200190815260200160002081905550565b600060036000838152602001908152602001600020905081816000015414611227576040517f08c379a000000000000000000000000000000000000000000000000000000000815260040161121e90611863565b60405180910390fd5b3373ffffffffffffffffffffffffffffffffffffffff168160020160009054906101000a900473ffffffffffffffffffffffffffffffffffffffff1673ffffffffffffffffffffffffffffffffffffffff16146112b9576040517f08c379a00000000000000000000000000000000000000000000000000000000081526004016112b090611e60565b60405180910390fd5b600015158160040160009054906101000a900460ff16151514611311576040517f08c379a000000000000000000000000000000000000000000000000000000000815260040161130890611ef2565b60405180910390fd5b600015158160040160019054906101000a900460ff16151514611369576040517f08c379a000000000000000000000000000000000000000000000000000000000815260040161136090611f84565b60405180910390fd5b600760009054906101000a900473ffffffffffffffffffffffffffffffffffffffff1673ffffffffffffffffffffffffffffffffffffffff166323b872dd303384600101546040518463ffffffff1660e01b81526004016113cc9392919061169d565b600060405180830381600087803b1580156113e657600080fd5b505af11580156113fa573d6000803e3d6000fd5b5050505060018160040160016101000a81548160ff0219169083151502179055507f5b166b4d0498ff8c4719999cb6154c5d197e6f020f9fbfcf9d347f84576cfab78282600101543360405161145293929190611c93565b60405180910390a15050565b600080fd5b6000819050919050565b61147681611463565b811461148157600080fd5b50565b6000813590506114938161146d565b92915050565b600080604083850312156114b0576114af61145e565b5b60006114be85828601611484565b92505060206114cf85828601611484565b9150509250929050565b6114e281611463565b82525050565b60006020820190506114fd60008301846114d9565b92915050565b600073ffffffffffffffffffffffffffffffffffffffff82169050919050565b600061152e82611503565b9050919050565b61153e81611523565b811461154957600080fd5b50565b60008135905061155b81611535565b92915050565b6000602082840312156115775761157661145e565b5b60006115858482850161154c565b91505092915050565b61159781611523565b82525050565b60006020820190506115b2600083018461158e565b92915050565b6000602082840312156115ce576115cd61145e565b5b60006115dc84828501611484565b91505092915050565b60008115159050919050565b6115fa816115e5565b82525050565b600060c08201905061161560008301896114d9565b61162260208301886114d9565b61162f604083018761158e565b61163c60608301866114d9565b61164960808301856115f1565b61165660a08301846115f1565b979650505050505050565b600061166c82611503565b9050919050565b61167c81611661565b82525050565b60006020820190506116976000830184611673565b92915050565b60006060820190506116b2600083018661158e565b6116bf602083018561158e565b6116cc60408301846114d9565b949350505050565b7f4e487b7100000000000000000000000000000000000000000000000000000000600052601160045260246000fd5b600061170e82611463565b91507fffffffffffffffffffffffffffffffffffffffffffffffffffffffffffffffff82036117405761173f6116d4565b5b600182019050919050565b600082825260208201905092915050565b7f54686973207573657220686173206e6f2073657276696365206665657320746f60008201527f20626520636c61696d6564000000000000000000000000000000000000000000602082015250565b60006117b8602b8361174b565b91506117c38261175c565b604082019050919050565b600060208201905081810360008301526117e7816117ab565b9050919050565b6000604082019050611803600083018561158e565b61181060208301846114d9565b9392505050565b7f546865206f66666572206d757374206578697374000000000000000000000000600082015250565b600061184d60148361174b565b915061185882611817565b602082019050919050565b6000602082019050818103600083015261187c81611840565b9050919050565b7f546865206f776e6572206f6620746865206f666665722063616e6e6f7420666960008201527f6c6c206974000000000000000000000000000000000000000000000000000000602082015250565b60006118df60258361174b565b91506118ea82611883565b604082019050919050565b6000602082019050818103600083015261190e816118d2565b9050919050565b7f416e206f666665722063616e6e6f742062652066756c66696c6c65642074776960008201527f6365000000000000000000000000000000000000000000000000000000000000602082015250565b600061197160228361174b565b915061197c82611915565b604082019050919050565b600060208201905081810360008301526119a081611964565b9050919050565b7f412063616e63656c6c6564206f666665722063616e6e6f742062652066756c6660008201527f696c6c6564000000000000000000000000000000000000000000000000000000602082015250565b6000611a0360258361174b565b9150611a0e826119a7565b604082019050919050565b60006020820190508181036000830152611a32816119f6565b9050919050565b7f5468652045544820616d6f756e742073686f756c64206d61746368207769746860008201527f20746865204e4654205072696365000000000000000000000000000000000000602082015250565b6000611a95602e8361174b565b9150611aa082611a39565b604082019050919050565b60006020820190508181036000830152611ac481611a88565b9050919050565b600081519050611ada81611535565b92915050565b600060208284031215611af657611af561145e565b5b6000611b0484828501611acb565b91505092915050565b600081519050611b1c8161146d565b92915050565b600060208284031215611b3857611b3761145e565b5b6000611b4684828501611b0d565b91505092915050565b6000611b5a82611463565b9150611b6583611463565b9250817fffffffffffffffffffffffffffffffffffffffffffffffffffffffffffffffff0483118215151615611b9e57611b9d6116d4565b5b828202905092915050565b7f4e487b7100000000000000000000000000000000000000000000000000000000600052601260045260246000fd5b6000611be382611463565b9150611bee83611463565b925082611bfe57611bfd611ba9565b5b828204905092915050565b6000611c1482611463565b9150611c1f83611463565b9250827fffffffffffffffffffffffffffffffffffffffffffffffffffffffffffffffff03821115611c5457611c536116d4565b5b828201905092915050565b6000611c6a82611463565b9150611c7583611463565b925082821015611c8857611c876116d4565b5b828203905092915050565b6000606082019050611ca860008301866114d9565b611cb560208301856114d9565b611cc2604083018461158e565b949350505050565b7f54686973207573657220686173206e6f2066756e647320746f20626520636c6160008201527f696d656400000000000000000000000000000000000000000000000000000000602082015250565b6000611d2660248361174b565b9150611d3182611cca565b604082019050919050565b60006020820190508181036000830152611d5581611d19565b9050919050565b7f54686973207573657220686173206e6f20726f79616c7469657320746f20626560008201527f20636c61696d6564000000000000000000000000000000000000000000000000602082015250565b6000611db860288361174b565b9150611dc382611d5c565b604082019050919050565b60006020820190508181036000830152611de781611dab565b9050919050565b7f546865206f666665722063616e206f6e6c792062652063616e63656c6564206260008201527f7920746865206f776e6572000000000000000000000000000000000000000000602082015250565b6000611e4a602b8361174b565b9150611e5582611dee565b604082019050919050565b60006020820190508181036000830152611e7981611e3d565b9050919050565b7f412066756c66696c6c6564206f666665722063616e6e6f742062652063616e6360008201527f656c6c6564000000000000000000000000000000000000000000000000000000602082015250565b6000611edc60258361174b565b9150611ee782611e80565b604082019050919050565b60006020820190508181036000830152611f0b81611ecf565b9050919050565b7f416e206f666665722063616e6e6f742062652063616e63656c6c65642074776960008201527f6365000000000000000000000000000000000000000000000000000000000000602082015250565b6000611f6e60228361174b565b9150611f7982611f12565b604082019050919050565b60006020820190508181036000830152611f9d81611f61565b905091905056fea26469706673582212205a82ec2a8e7ee63864efe1643804dd11a2b30b6ac1f902ae3171cb5338f29c7464736f6c634300080d0033",
  "immutableReferences": {},
  "source": "// SPDX-License-Identifier: MIT\r\npragma solidity ^0.8.0;\r\n\r\nimport \"./NFTCollection.sol\";\r\n\r\n\r\ncontract NFTMarketplace {\r\n  \r\n  bytes4 private constant _INTERFACE_ID_ERC2981 = 0x2a55205a;\r\n  address public _tokenContractAddress = address(0);\r\n  address payable public payments;\r\n  uint public offerCount;\r\n  mapping (uint => _Offer) public offers;\r\n  mapping (address => uint) public userFunds;\r\n  mapping (address => uint) public royaltyFunds;\r\n  mapping (address => uint) public serviceFunds;\r\n  \r\n  NFTCollection nftCollection;\r\n  \r\n  struct _Offer {\r\n    uint offerId;\r\n    uint id;\r\n    address user;\r\n    uint256 price;\r\n    bool fulfilled;\r\n    bool cancelled;\r\n  }\r\n\r\n  event Offer(\r\n    uint offerId,\r\n    uint id,\r\n    address user,\r\n    uint256 price,\r\n    bool fulfilled,\r\n    bool cancelled\r\n  );\r\n\r\n  event OfferFilled(uint offerId, uint id, address newOwner);\r\n  event OfferCancelled(uint offerId, uint id, address owner);\r\n  event ClaimFunds(address user, uint256 amount);\r\n\r\n  constructor(address _nftCollection) {\r\n        _tokenContractAddress = _nftCollection;\r\n        nftCollection = NFTCollection(_nftCollection);\r\n  }\r\n  \r\n  function makeOffer(uint _id, uint256 _price) public {\r\n    nftCollection.transferFrom(msg.sender, address(this), _id);\r\n    offerCount ++;\r\n    offers[offerCount] = _Offer(offerCount, _id, msg.sender, _price, false, false);\r\n    emit Offer(offerCount, _id, msg.sender, _price, false, false);\r\n  }\r\n\r\n  function fillOffer(uint _offerId) public payable {\r\n    _Offer storage _offer = offers[_offerId];\r\n    require(_offer.offerId == _offerId, 'The offer must exist');\r\n    require(_offer.user != msg.sender, 'The owner of the offer cannot fill it');\r\n    require(!_offer.fulfilled, 'An offer cannot be fulfilled twice');\r\n    require(!_offer.cancelled, 'A cancelled offer cannot be fulfilled');\r\n    require(msg.value == _offer.price, 'The ETH amount should match with the NFT Price');\r\n    nftCollection.transferFrom(address(this), msg.sender, _offer.id);\r\n    _offer.fulfilled = true;\r\n\r\n    uint tokenId =_offer.id;\r\n    address copyrightOwner = nftCollection.getCopyrightOwner(tokenId);\r\n    address marketplaceAccount = nftCollection.getMarketplace(tokenId);  \r\n    uint256 copyrightOwnerFee = nftCollection.getCopyrightOwnerFee(tokenId);\r\n    uint256 marketplaceFee = nftCollection.getMarketplaceFee(tokenId);  \r\n    \r\n    uint256 saleValue = msg.value;\r\n    uint256 royaltyFeeAmount = (saleValue * (copyrightOwnerFee)) / (100 * 10**18);\r\n    uint256 serviceFeeAmount = (saleValue * (marketplaceFee)) / (100 * 10**18);\r\n    uint256 netSaleValue = saleValue - (royaltyFeeAmount + serviceFeeAmount);\r\n  \r\n    userFunds[_offer.user] += netSaleValue;\r\n    royaltyFunds[copyrightOwner] += royaltyFeeAmount;\r\n    serviceFunds[marketplaceAccount] += serviceFeeAmount;\r\n\r\n    emit OfferFilled(_offerId, _offer.id, msg.sender);\r\n  }\r\n\r\n  function cancelOffer(uint _offerId) public {\r\n    _Offer storage _offer = offers[_offerId];\r\n    require(_offer.offerId == _offerId, 'The offer must exist');\r\n    require(_offer.user == msg.sender, 'The offer can only be canceled by the owner');\r\n    require(_offer.fulfilled == false, 'A fulfilled offer cannot be cancelled');\r\n    require(_offer.cancelled == false, 'An offer cannot be cancelled twice');\r\n    nftCollection.transferFrom(address(this), msg.sender, _offer.id);\r\n    _offer.cancelled = true;\r\n    emit OfferCancelled(_offerId, _offer.id, msg.sender);\r\n  }\r\n\r\n\r\n  function claimFunds() public {\r\n    require(userFunds[msg.sender] > 0, 'This user has no funds to be claimed');\r\n    payable(msg.sender).transfer(userFunds[msg.sender]);\r\n    emit ClaimFunds(msg.sender, userFunds[msg.sender]);\r\n    userFunds[msg.sender] = 0;    \r\n  } \r\n\r\n  function claimRoyaltyFunds() public {\r\n    require(royaltyFunds[msg.sender] > 0, 'This user has no royalties to be claimed');\r\n    payable(msg.sender).transfer(royaltyFunds[msg.sender]);\r\n    emit ClaimFunds(msg.sender, royaltyFunds[msg.sender]);\r\n    royaltyFunds[msg.sender] = 0;    \r\n  } \r\n\r\n  function claimServiceFunds() public {\r\n    require(serviceFunds[msg.sender] > 0, 'This user has no service fees to be claimed');\r\n    emit ClaimFunds(msg.sender, serviceFunds[msg.sender]);\r\n    serviceFunds[msg.sender] = 0;    \r\n  } \r\n\r\n  // Fallback: reverts if Ether is sent to this smart-contract by mistake\r\n  fallback () external {\r\n    revert();\r\n  }\r\n\r\n\r\n\r\n\r\n}",
  "sourcePath": "C:\\dev\\nft-marketplace\\src\\contracts\\NFTMarketplace.sol",
  "compiler": {
    "name": "solc",
    "version": "0.8.13+commit.abaa5c0e.Emscripten.clang"
  },
  "schemaVersion": "3.4.3",
  "updatedAt": "2022-04-08T03:45:40.487Z",
  "devdoc": {
    "kind": "dev",
    "methods": {},
    "version": 1
  },
  "userdoc": {
    "kind": "user",
    "methods": {},
    "version": 1
  }
}