{
  "contractName": "NFTMarketplace",
  "abi": [
    {
      "inputs": [
        {
          "internalType": "address payable",
          "name": "_nftCollection",
          "type": "address"
        }
      ],
      "stateMutability": "nonpayable",
      "type": "constructor"
    },
    {
      "anonymous": false,
      "inputs": [
        {
          "indexed": false,
          "internalType": "address",
          "name": "user",
          "type": "address"
        },
        {
          "indexed": false,
          "internalType": "uint256",
          "name": "amount",
          "type": "uint256"
        }
      ],
      "name": "ClaimFunds",
      "type": "event"
    },
    {
      "anonymous": false,
      "inputs": [
        {
          "indexed": false,
          "internalType": "uint256",
          "name": "offerId",
          "type": "uint256"
        },
        {
          "indexed": false,
          "internalType": "uint256",
          "name": "id",
          "type": "uint256"
        },
        {
          "indexed": false,
          "internalType": "address",
          "name": "user",
          "type": "address"
        },
        {
          "indexed": false,
          "internalType": "uint256",
          "name": "price",
          "type": "uint256"
        },
        {
          "indexed": false,
          "internalType": "bool",
          "name": "fulfilled",
          "type": "bool"
        },
        {
          "indexed": false,
          "internalType": "bool",
          "name": "cancelled",
          "type": "bool"
        }
      ],
      "name": "Offer",
      "type": "event"
    },
    {
      "anonymous": false,
      "inputs": [
        {
          "indexed": false,
          "internalType": "uint256",
          "name": "offerId",
          "type": "uint256"
        },
        {
          "indexed": false,
          "internalType": "uint256",
          "name": "id",
          "type": "uint256"
        },
        {
          "indexed": false,
          "internalType": "address",
          "name": "owner",
          "type": "address"
        }
      ],
      "name": "OfferCancelled",
      "type": "event"
    },
    {
      "anonymous": false,
      "inputs": [
        {
          "indexed": false,
          "internalType": "uint256",
          "name": "offerId",
          "type": "uint256"
        },
        {
          "indexed": false,
          "internalType": "uint256",
          "name": "id",
          "type": "uint256"
        },
        {
          "indexed": false,
          "internalType": "address",
          "name": "newOwner",
          "type": "address"
        }
      ],
      "name": "OfferFilled",
      "type": "event"
    },
    {
      "anonymous": false,
      "inputs": [
        {
          "indexed": false,
          "internalType": "uint256",
          "name": "offerId",
          "type": "uint256"
        },
        {
          "indexed": false,
          "internalType": "uint256",
          "name": "amount",
          "type": "uint256"
        }
      ],
      "name": "RoyaltiesPaid",
      "type": "event"
    },
    {
      "stateMutability": "nonpayable",
      "type": "fallback"
    },
    {
      "inputs": [],
      "name": "_tokenContractAddress",
      "outputs": [
        {
          "internalType": "address",
          "name": "",
          "type": "address"
        }
      ],
      "stateMutability": "view",
      "type": "function"
    },
    {
      "inputs": [],
      "name": "offerCount",
      "outputs": [
        {
          "internalType": "uint256",
          "name": "",
          "type": "uint256"
        }
      ],
      "stateMutability": "view",
      "type": "function"
    },
    {
      "inputs": [
        {
          "internalType": "uint256",
          "name": "",
          "type": "uint256"
        }
      ],
      "name": "offers",
      "outputs": [
        {
          "internalType": "uint256",
          "name": "offerId",
          "type": "uint256"
        },
        {
          "internalType": "uint256",
          "name": "id",
          "type": "uint256"
        },
        {
          "internalType": "address",
          "name": "user",
          "type": "address"
        },
        {
          "internalType": "uint256",
          "name": "price",
          "type": "uint256"
        },
        {
          "internalType": "bool",
          "name": "fulfilled",
          "type": "bool"
        },
        {
          "internalType": "bool",
          "name": "cancelled",
          "type": "bool"
        }
      ],
      "stateMutability": "view",
      "type": "function"
    },
    {
      "inputs": [
        {
          "internalType": "address",
          "name": "",
          "type": "address"
        }
      ],
      "name": "userFunds",
      "outputs": [
        {
          "internalType": "uint256",
          "name": "",
          "type": "uint256"
        }
      ],
      "stateMutability": "view",
      "type": "function"
    },
    {
      "inputs": [
        {
          "internalType": "uint256",
          "name": "_id",
          "type": "uint256"
        },
        {
          "internalType": "uint256",
          "name": "_price",
          "type": "uint256"
        }
      ],
      "name": "makeOffer",
      "outputs": [],
      "stateMutability": "nonpayable",
      "type": "function"
    },
    {
      "inputs": [
        {
          "internalType": "uint256",
          "name": "_offerId",
          "type": "uint256"
        }
      ],
      "name": "fillOffer",
      "outputs": [],
      "stateMutability": "payable",
      "type": "function"
    },
    {
      "inputs": [
        {
          "internalType": "uint256",
          "name": "_offerId",
          "type": "uint256"
        }
      ],
      "name": "cancelOffer",
      "outputs": [],
      "stateMutability": "nonpayable",
      "type": "function"
    },
    {
      "inputs": [],
      "name": "claimFunds",
      "outputs": [],
      "stateMutability": "nonpayable",
      "type": "function"
    }
  ],
  "bytecode": "0x608060405260008060006101000a81548173ffffffffffffffffffffffffffffffffffffffff021916908373ffffffffffffffffffffffffffffffffffffffff1602179055503480156200005257600080fd5b5060405162001a3438038062001a3483398181016040528101906200007891906200016a565b806000806101000a81548173ffffffffffffffffffffffffffffffffffffffff021916908373ffffffffffffffffffffffffffffffffffffffff16021790555080600460006101000a81548173ffffffffffffffffffffffffffffffffffffffff021916908373ffffffffffffffffffffffffffffffffffffffff160217905550506200019c565b600080fd5b600073ffffffffffffffffffffffffffffffffffffffff82169050919050565b6000620001328262000105565b9050919050565b620001448162000125565b81146200015057600080fd5b50565b600081519050620001648162000139565b92915050565b60006020828403121562000183576200018262000100565b5b6000620001938482850162000153565b91505092915050565b61188880620001ac6000396000f3fe60806040526004361061007f5760003560e01c806385dba8611161004e57806385dba8611461014e5780638a72ea6a1461016a578063ac307773146101ac578063ef706adf146101c357610080565b806305b7cdd3146100925780631115c24d146100bb5780635cf0346f146100e65780638387c6e11461011157610080565b5b34801561008c57600080fd5b50600080fd5b34801561009e57600080fd5b506100b960048036038101906100b49190610e85565b6101ec565b005b3480156100c757600080fd5b506100d06103e5565b6040516100dd9190610ed4565b60405180910390f35b3480156100f257600080fd5b506100fb6103eb565b6040516101089190610f30565b60405180910390f35b34801561011d57600080fd5b5061013860048036038101906101339190610f77565b61040f565b6040516101459190610ed4565b60405180910390f35b61016860048036038101906101639190610fa4565b610427565b005b34801561017657600080fd5b50610191600480360381019061018c9190610fa4565b6107b7565b6040516101a396959493929190610fec565b60405180910390f35b3480156101b857600080fd5b506101c161082d565b005b3480156101cf57600080fd5b506101ea60048036038101906101e59190610fa4565b6109f4565b005b600460009054906101000a900473ffffffffffffffffffffffffffffffffffffffff1673ffffffffffffffffffffffffffffffffffffffff166323b872dd3330856040518463ffffffff1660e01b815260040161024b9392919061104d565b600060405180830381600087803b15801561026557600080fd5b505af1158015610279573d6000803e3d6000fd5b5050505060016000815480929190610290906110b3565b91905055506040518060c0016040528060015481526020018381526020013373ffffffffffffffffffffffffffffffffffffffff16815260200182815260200160001515815260200160001515815250600260006001548152602001908152602001600020600082015181600001556020820151816001015560408201518160020160006101000a81548173ffffffffffffffffffffffffffffffffffffffff021916908373ffffffffffffffffffffffffffffffffffffffff1602179055506060820151816003015560808201518160040160006101000a81548160ff02191690831515021790555060a08201518160040160016101000a81548160ff0219169083151502179055509050507f93e711896d4ef527d199d7e101922e20f918cbb248a0fb0977c52fda24aa1f1d6001548333846000806040516103d996959493929190610fec565b60405180910390a15050565b60015481565b60008054906101000a900473ffffffffffffffffffffffffffffffffffffffff1681565b60036020528060005260406000206000915090505481565b600060026000838152602001908152602001600020905081816000015414610484576040517f08c379a000000000000000000000000000000000000000000000000000000000815260040161047b90611159565b60405180910390fd5b3373ffffffffffffffffffffffffffffffffffffffff168160020160009054906101000a900473ffffffffffffffffffffffffffffffffffffffff1673ffffffffffffffffffffffffffffffffffffffff161415610517576040517f08c379a000000000000000000000000000000000000000000000000000000000815260040161050e906111eb565b60405180910390fd5b8060040160009054906101000a900460ff1615610569576040517f08c379a00000000000000000000000000000000000000000000000000000000081526004016105609061127d565b60405180910390fd5b8060040160019054906101000a900460ff16156105bb576040517f08c379a00000000000000000000000000000000000000000000000000000000081526004016105b29061130f565b60405180910390fd5b80600301543414610601576040517f08c379a00000000000000000000000000000000000000000000000000000000081526004016105f8906113a1565b60405180910390fd5b600460009054906101000a900473ffffffffffffffffffffffffffffffffffffffff1673ffffffffffffffffffffffffffffffffffffffff166323b872dd303384600101546040518463ffffffff1660e01b81526004016106649392919061104d565b600060405180830381600087803b15801561067e57600080fd5b505af1158015610692573d6000803e3d6000fd5b5050505060018160040160006101000a81548160ff021916908315150217905550600034905060008190506106e660008054906101000a900473ffffffffffffffffffffffffffffffffffffffff16610c88565b156106f8576106f58434610d17565b90505b80600360008560020160009054906101000a900473ffffffffffffffffffffffffffffffffffffffff1673ffffffffffffffffffffffffffffffffffffffff1673ffffffffffffffffffffffffffffffffffffffff168152602001908152602001600020600082825461076b91906113c1565b925050819055507fd9157c065213ada613694e84b1e27fe2efd62d85c6b82bd6c842a4999491e72a848460010154336040516107a993929190611417565b60405180910390a150505050565b60026020528060005260406000206000915090508060000154908060010154908060020160009054906101000a900473ffffffffffffffffffffffffffffffffffffffff16908060030154908060040160009054906101000a900460ff16908060040160019054906101000a900460ff16905086565b6000600360003373ffffffffffffffffffffffffffffffffffffffff1673ffffffffffffffffffffffffffffffffffffffff16815260200190815260200160002054116108af576040517f08c379a00000000000000000000000000000000000000000000000000000000081526004016108a6906114c0565b60405180910390fd5b3373ffffffffffffffffffffffffffffffffffffffff166108fc600360003373ffffffffffffffffffffffffffffffffffffffff1673ffffffffffffffffffffffffffffffffffffffff168152602001908152602001600020549081150290604051600060405180830381858888f19350505050158015610934573d6000803e3d6000fd5b507f4f0554190111f93f8c2ccef2cc41473f187d7f29ff5a5c308ca41f9dfe4e989a33600360003373ffffffffffffffffffffffffffffffffffffffff1673ffffffffffffffffffffffffffffffffffffffff168152602001908152602001600020546040516109a59291906114e0565b60405180910390a16000600360003373ffffffffffffffffffffffffffffffffffffffff1673ffffffffffffffffffffffffffffffffffffffff16815260200190815260200160002081905550565b600060026000838152602001908152602001600020905081816000015414610a51576040517f08c379a0000000000000000000000000000000000000000000000000000000008152600401610a4890611159565b60405180910390fd5b3373ffffffffffffffffffffffffffffffffffffffff168160020160009054906101000a900473ffffffffffffffffffffffffffffffffffffffff1673ffffffffffffffffffffffffffffffffffffffff1614610ae3576040517f08c379a0000000000000000000000000000000000000000000000000000000008152600401610ada9061157b565b60405180910390fd5b600015158160040160009054906101000a900460ff16151514610b3b576040517f08c379a0000000000000000000000000000000000000000000000000000000008152600401610b329061160d565b60405180910390fd5b600015158160040160019054906101000a900460ff16151514610b93576040517f08c379a0000000000000000000000000000000000000000000000000000000008152600401610b8a9061169f565b60405180910390fd5b600460009054906101000a900473ffffffffffffffffffffffffffffffffffffffff1673ffffffffffffffffffffffffffffffffffffffff166323b872dd303384600101546040518463ffffffff1660e01b8152600401610bf69392919061104d565b600060405180830381600087803b158015610c1057600080fd5b505af1158015610c24573d6000803e3d6000fd5b5050505060018160040160016101000a81548160ff0219169083151502179055507f5b166b4d0498ff8c4719999cb6154c5d197e6f020f9fbfcf9d347f84576cfab782826001015433604051610c7c93929190611417565b60405180910390a15050565b6000808273ffffffffffffffffffffffffffffffffffffffff166301ffc9a7632a55205a60e01b6040518263ffffffff1660e01b8152600401610ccb91906116fa565b602060405180830381865afa158015610ce8573d6000803e3d6000fd5b505050506040513d601f19601f82011682018060405250810190610d0c9190611741565b905080915050919050565b6000806000600460009054906101000a900473ffffffffffffffffffffffffffffffffffffffff1673ffffffffffffffffffffffffffffffffffffffff1663cef6d368856040518263ffffffff1660e01b8152600401610d779190610ed4565b6040805180830381865afa158015610d93573d6000803e3d6000fd5b505050506040513d601f19601f82011682018060405250810190610db79190611798565b9150915060008185610dc991906117d8565b90506000821115610e3e578273ffffffffffffffffffffffffffffffffffffffff1682604051610df89061183d565b60006040518083038185875af1925050503d8060008114610e35576040519150601f19603f3d011682016040523d82523d6000602084013e610e3a565b606091505b5050505b80935050505092915050565b600080fd5b6000819050919050565b610e6281610e4f565b8114610e6d57600080fd5b50565b600081359050610e7f81610e59565b92915050565b60008060408385031215610e9c57610e9b610e4a565b5b6000610eaa85828601610e70565b9250506020610ebb85828601610e70565b9150509250929050565b610ece81610e4f565b82525050565b6000602082019050610ee96000830184610ec5565b92915050565b600073ffffffffffffffffffffffffffffffffffffffff82169050919050565b6000610f1a82610eef565b9050919050565b610f2a81610f0f565b82525050565b6000602082019050610f456000830184610f21565b92915050565b610f5481610f0f565b8114610f5f57600080fd5b50565b600081359050610f7181610f4b565b92915050565b600060208284031215610f8d57610f8c610e4a565b5b6000610f9b84828501610f62565b91505092915050565b600060208284031215610fba57610fb9610e4a565b5b6000610fc884828501610e70565b91505092915050565b60008115159050919050565b610fe681610fd1565b82525050565b600060c0820190506110016000830189610ec5565b61100e6020830188610ec5565b61101b6040830187610f21565b6110286060830186610ec5565b6110356080830185610fdd565b61104260a0830184610fdd565b979650505050505050565b60006060820190506110626000830186610f21565b61106f6020830185610f21565b61107c6040830184610ec5565b949350505050565b7f4e487b7100000000000000000000000000000000000000000000000000000000600052601160045260246000fd5b60006110be82610e4f565b91507fffffffffffffffffffffffffffffffffffffffffffffffffffffffffffffffff8214156110f1576110f0611084565b5b600182019050919050565b600082825260208201905092915050565b7f546865206f66666572206d757374206578697374000000000000000000000000600082015250565b60006111436014836110fc565b915061114e8261110d565b602082019050919050565b6000602082019050818103600083015261117281611136565b9050919050565b7f546865206f776e6572206f6620746865206f666665722063616e6e6f7420666960008201527f6c6c206974000000000000000000000000000000000000000000000000000000602082015250565b60006111d56025836110fc565b91506111e082611179565b604082019050919050565b60006020820190508181036000830152611204816111c8565b9050919050565b7f416e206f666665722063616e6e6f742062652066756c66696c6c65642074776960008201527f6365000000000000000000000000000000000000000000000000000000000000602082015250565b60006112676022836110fc565b91506112728261120b565b604082019050919050565b600060208201905081810360008301526112968161125a565b9050919050565b7f412063616e63656c6c6564206f666665722063616e6e6f742062652066756c6660008201527f696c6c6564000000000000000000000000000000000000000000000000000000602082015250565b60006112f96025836110fc565b91506113048261129d565b604082019050919050565b60006020820190508181036000830152611328816112ec565b9050919050565b7f5468652045544820616d6f756e742073686f756c64206d61746368207769746860008201527f20746865204e4654205072696365000000000000000000000000000000000000602082015250565b600061138b602e836110fc565b91506113968261132f565b604082019050919050565b600060208201905081810360008301526113ba8161137e565b9050919050565b60006113cc82610e4f565b91506113d783610e4f565b9250827fffffffffffffffffffffffffffffffffffffffffffffffffffffffffffffffff0382111561140c5761140b611084565b5b828201905092915050565b600060608201905061142c6000830186610ec5565b6114396020830185610ec5565b6114466040830184610f21565b949350505050565b7f54686973207573657220686173206e6f2066756e647320746f20626520636c6160008201527f696d656400000000000000000000000000000000000000000000000000000000602082015250565b60006114aa6024836110fc565b91506114b58261144e565b604082019050919050565b600060208201905081810360008301526114d98161149d565b9050919050565b60006040820190506114f56000830185610f21565b6115026020830184610ec5565b9392505050565b7f546865206f666665722063616e206f6e6c792062652063616e63656c6564206260008201527f7920746865206f776e6572000000000000000000000000000000000000000000602082015250565b6000611565602b836110fc565b915061157082611509565b604082019050919050565b6000602082019050818103600083015261159481611558565b9050919050565b7f412066756c66696c6c6564206f666665722063616e6e6f742062652063616e6360008201527f656c6c6564000000000000000000000000000000000000000000000000000000602082015250565b60006115f76025836110fc565b91506116028261159b565b604082019050919050565b60006020820190508181036000830152611626816115ea565b9050919050565b7f416e206f666665722063616e6e6f742062652063616e63656c6c65642074776960008201527f6365000000000000000000000000000000000000000000000000000000000000602082015250565b60006116896022836110fc565b91506116948261162d565b604082019050919050565b600060208201905081810360008301526116b88161167c565b9050919050565b60007fffffffff0000000000000000000000000000000000000000000000000000000082169050919050565b6116f4816116bf565b82525050565b600060208201905061170f60008301846116eb565b92915050565b61171e81610fd1565b811461172957600080fd5b50565b60008151905061173b81611715565b92915050565b60006020828403121561175757611756610e4a565b5b60006117658482850161172c565b91505092915050565b60008151905061177d81610f4b565b92915050565b60008151905061179281610e59565b92915050565b600080604083850312156117af576117ae610e4a565b5b60006117bd8582860161176e565b92505060206117ce85828601611783565b9150509250929050565b60006117e382610e4f565b91506117ee83610e4f565b92508282101561180157611800611084565b5b828203905092915050565b600081905092915050565b50565b600061182760008361180c565b915061183282611817565b600082019050919050565b60006118488261181a565b915081905091905056fea2646970667358221220e630da02adc3a7fdea9ec2b05a7228f7e9d49841c17b665870a40bcf3241b87c64736f6c634300080c0033",
  "immutableReferences": {},
  "source": "// SPDX-License-Identifier: MIT\r\npragma solidity ^0.8.0;\r\n\r\nimport \"./NFTCollection.sol\";\r\n\r\ncontract NFTMarketplace {\r\n  \r\n  bytes4 private constant _INTERFACE_ID_ERC2981 = 0x2a55205a;\r\n  address public _tokenContractAddress = address(0);\r\n  uint public offerCount;\r\n  mapping (uint => _Offer) public offers;\r\n  mapping (address => uint) public userFunds;\r\n  NFTCollection nftCollection;\r\n  \r\n  struct _Offer {\r\n    uint offerId;\r\n    uint id;\r\n    address user;\r\n    uint256 price;\r\n    bool fulfilled;\r\n    bool cancelled;\r\n  }\r\n\r\n  event Offer(\r\n    uint offerId,\r\n    uint id,\r\n    address user,\r\n    uint256 price,\r\n    bool fulfilled,\r\n    bool cancelled\r\n  );\r\n\r\n\r\n\r\n  event OfferFilled(uint offerId, uint id, address newOwner);\r\n  event OfferCancelled(uint offerId, uint id, address owner);\r\n  event ClaimFunds(address user, uint256 amount);\r\n  event RoyaltiesPaid(uint offerId, uint256 amount);\r\n\r\n  constructor(address payable  _nftCollection) {\r\n        _tokenContractAddress = _nftCollection;\r\n        nftCollection = NFTCollection(_nftCollection);\r\n  }\r\n  \r\n  function makeOffer(uint _id, uint256 _price) public {\r\n    nftCollection.transferFrom(msg.sender, address(this), _id);\r\n    offerCount ++;\r\n    offers[offerCount] = _Offer(offerCount, _id, msg.sender, _price, false, false);\r\n    emit Offer(offerCount, _id, msg.sender, _price, false, false);\r\n  }\r\n\r\n  function fillOffer(uint _offerId) public payable {\r\n    _Offer storage _offer = offers[_offerId];\r\n    require(_offer.offerId == _offerId, 'The offer must exist');\r\n    require(_offer.user != msg.sender, 'The owner of the offer cannot fill it');\r\n    require(!_offer.fulfilled, 'An offer cannot be fulfilled twice');\r\n    require(!_offer.cancelled, 'A cancelled offer cannot be fulfilled');\r\n    require(msg.value == _offer.price, 'The ETH amount should match with the NFT Price');\r\n    nftCollection.transferFrom(address(this), msg.sender, _offer.id);\r\n    _offer.fulfilled = true;\r\n\r\n    uint256 saleValue = msg.value;\r\n    uint256 netSaleValue = saleValue;\r\n           \r\n    // Pay royalties if applicable\r\n    if (_checkRoyalties(_tokenContractAddress)) {\r\n        netSaleValue = _deduceRoyalties(_offerId, msg.value);\r\n    }\r\n\r\n    userFunds[_offer.user] += netSaleValue;\r\n    emit OfferFilled(_offerId, _offer.id, msg.sender);\r\n  }\r\n\r\n  function cancelOffer(uint _offerId) public {\r\n    _Offer storage _offer = offers[_offerId];\r\n    require(_offer.offerId == _offerId, 'The offer must exist');\r\n    require(_offer.user == msg.sender, 'The offer can only be canceled by the owner');\r\n    require(_offer.fulfilled == false, 'A fulfilled offer cannot be cancelled');\r\n    require(_offer.cancelled == false, 'An offer cannot be cancelled twice');\r\n    nftCollection.transferFrom(address(this), msg.sender, _offer.id);\r\n    _offer.cancelled = true;\r\n    emit OfferCancelled(_offerId, _offer.id, msg.sender);\r\n  }\r\n\r\n  function claimFunds() public {\r\n    require(userFunds[msg.sender] > 0, 'This user has no funds to be claimed');\r\n    payable(msg.sender).transfer(userFunds[msg.sender]);\r\n    emit ClaimFunds(msg.sender, userFunds[msg.sender]);\r\n    userFunds[msg.sender] = 0;    \r\n  }\r\n\r\n  // Fallback: reverts if Ether is sent to this smart-contract by mistake\r\n  fallback () external {\r\n    revert();\r\n  }\r\n\r\n    /// @notice Checks if NFT contract implements the ERC-2981 interface\r\n    /// @param _contract - the address of the NFT contract to query\r\n    /// @return true if ERC-2981 interface is supported, false otherwise\r\n    function _checkRoyalties(address _contract) internal returns (bool) {\r\n        (bool success) = IERC2981(_contract).\r\n        supportsInterface(_INTERFACE_ID_ERC2981);\r\n        return success;\r\n    }\r\n\r\n    function _deduceRoyalties(uint256 offerId, uint256 grossSaleValue)\r\n    internal returns (uint256 netSaleAmount) {\r\n        // Get amount of royalties to pays and recipient\r\n        (address royaltiesReceiver, uint256 royaltiesAmount) = nftCollection.royaltyInfo(grossSaleValue);\r\n        // Deduce royalties from sale value\r\n        uint256 netSaleValue = grossSaleValue - royaltiesAmount;\r\n        // Transfer royalties to rightholder if not zero\r\n        if (royaltiesAmount > 0) {\r\n            royaltiesReceiver.call{value: royaltiesAmount}('');\r\n        }\r\n        // Broadcast royalties payment\r\n        // emit RoyaltiesPaid(offerId, royaltiesAmount);\r\n        return netSaleValue;\r\n    } \r\n}",
  "sourcePath": "C:\\dev\\nft-marketplace\\src\\contracts\\NFTMarketplace.sol",
  "compiler": {
    "name": "solc",
    "version": "0.8.12+commit.f00d7308.Emscripten.clang"
  },
  "schemaVersion": "3.4.3",
  "updatedAt": "2022-03-14T06:53:27.585Z",
  "devdoc": {
    "kind": "dev",
    "methods": {},
    "version": 1
  },
  "userdoc": {
    "kind": "user",
    "methods": {},
    "version": 1
  }
}