{
  "contractName": "RoyaltiesPayment",
  "abi": [
    {
      "inputs": [
        {
          "internalType": "address[]",
          "name": "_payees",
          "type": "address[]"
        }
      ],
      "stateMutability": "nonpayable",
      "type": "constructor"
    },
    {
      "anonymous": false,
      "inputs": [
        {
          "indexed": true,
          "internalType": "address",
          "name": "previousOwner",
          "type": "address"
        },
        {
          "indexed": true,
          "internalType": "address",
          "name": "newOwner",
          "type": "address"
        }
      ],
      "name": "OwnershipTransferred",
      "type": "event"
    },
    {
      "inputs": [
        {
          "internalType": "address",
          "name": "",
          "type": "address"
        }
      ],
      "name": "balances",
      "outputs": [
        {
          "internalType": "uint256",
          "name": "userIndex",
          "type": "uint256"
        },
        {
          "internalType": "uint256",
          "name": "balance",
          "type": "uint256"
        }
      ],
      "stateMutability": "view",
      "type": "function"
    },
    {
      "inputs": [],
      "name": "owner",
      "outputs": [
        {
          "internalType": "address",
          "name": "",
          "type": "address"
        }
      ],
      "stateMutability": "view",
      "type": "function"
    },
    {
      "inputs": [
        {
          "internalType": "uint256",
          "name": "",
          "type": "uint256"
        }
      ],
      "name": "payees",
      "outputs": [
        {
          "internalType": "address",
          "name": "",
          "type": "address"
        }
      ],
      "stateMutability": "view",
      "type": "function"
    },
    {
      "inputs": [],
      "name": "renounceOwnership",
      "outputs": [],
      "stateMutability": "nonpayable",
      "type": "function"
    },
    {
      "inputs": [
        {
          "internalType": "address",
          "name": "newOwner",
          "type": "address"
        }
      ],
      "name": "transferOwnership",
      "outputs": [],
      "stateMutability": "nonpayable",
      "type": "function"
    },
    {
      "stateMutability": "payable",
      "type": "receive"
    },
    {
      "inputs": [
        {
          "internalType": "uint256",
          "name": "amount",
          "type": "uint256"
        }
      ],
      "name": "withdraw",
      "outputs": [],
      "stateMutability": "nonpayable",
      "type": "function"
    },
    {
      "inputs": [],
      "name": "withdrawAll",
      "outputs": [],
      "stateMutability": "nonpayable",
      "type": "function"
    },
    {
      "inputs": [],
      "name": "payAll",
      "outputs": [],
      "stateMutability": "nonpayable",
      "type": "function"
    },
    {
      "inputs": [
        {
          "internalType": "address",
          "name": "payee",
          "type": "address"
        }
      ],
      "name": "removePayee",
      "outputs": [],
      "stateMutability": "nonpayable",
      "type": "function"
    },
    {
      "inputs": [
        {
          "internalType": "address",
          "name": "payee",
          "type": "address"
        }
      ],
      "name": "addPayee",
      "outputs": [],
      "stateMutability": "nonpayable",
      "type": "function"
    },
    {
      "inputs": [
        {
          "internalType": "contract IERC20",
          "name": "token",
          "type": "address"
        }
      ],
      "name": "withdrawErc20",
      "outputs": [],
      "stateMutability": "nonpayable",
      "type": "function"
    }
  ],
  "bytecode": "0x60806040523480156200001157600080fd5b5060405162001f5238038062001f528339818101604052810190620000379190620004c2565b620000576200004b6200015a60201b60201c565b6200016260201b60201c565b80600190805190602001906200006f92919062000226565b5060005b600180549050811015620001525760405180604001604052806001836200009b91906200054c565b815260200160008152506002600060018481548110620000c057620000bf620005a9565b5b9060005260206000200160009054906101000a900473ffffffffffffffffffffffffffffffffffffffff1673ffffffffffffffffffffffffffffffffffffffff1673ffffffffffffffffffffffffffffffffffffffff168152602001908152602001600020600082015181600001556020820151816001015590505080806200014990620005d8565b91505062000073565b505062000626565b600033905090565b60008060009054906101000a900473ffffffffffffffffffffffffffffffffffffffff169050816000806101000a81548173ffffffffffffffffffffffffffffffffffffffff021916908373ffffffffffffffffffffffffffffffffffffffff1602179055508173ffffffffffffffffffffffffffffffffffffffff168173ffffffffffffffffffffffffffffffffffffffff167f8be0079c531659141344cd1fd0a4f28419497f9722a3daafe3b4186f6b6457e060405160405180910390a35050565b828054828255906000526020600020908101928215620002a2579160200282015b82811115620002a15782518260006101000a81548173ffffffffffffffffffffffffffffffffffffffff021916908373ffffffffffffffffffffffffffffffffffffffff1602179055509160200191906001019062000247565b5b509050620002b19190620002b5565b5090565b5b80821115620002d0576000816000905550600101620002b6565b5090565b6000604051905090565b600080fd5b600080fd5b600080fd5b6000601f19601f8301169050919050565b7f4e487b7100000000000000000000000000000000000000000000000000000000600052604160045260246000fd5b6200033882620002ed565b810181811067ffffffffffffffff821117156200035a5762000359620002fe565b5b80604052505050565b60006200036f620002d4565b90506200037d82826200032d565b919050565b600067ffffffffffffffff821115620003a0576200039f620002fe565b5b602082029050602081019050919050565b600080fd5b600073ffffffffffffffffffffffffffffffffffffffff82169050919050565b6000620003e382620003b6565b9050919050565b620003f581620003d6565b81146200040157600080fd5b50565b6000815190506200041581620003ea565b92915050565b6000620004326200042c8462000382565b62000363565b90508083825260208201905060208402830185811115620004585762000457620003b1565b5b835b8181101562000485578062000470888262000404565b8452602084019350506020810190506200045a565b5050509392505050565b600082601f830112620004a757620004a6620002e8565b5b8151620004b98482602086016200041b565b91505092915050565b600060208284031215620004db57620004da620002de565b5b600082015167ffffffffffffffff811115620004fc57620004fb620002e3565b5b6200050a848285016200048f565b91505092915050565b6000819050919050565b7f4e487b7100000000000000000000000000000000000000000000000000000000600052601160045260246000fd5b6000620005598262000513565b9150620005668362000513565b9250827fffffffffffffffffffffffffffffffffffffffffffffffffffffffffffffffff038211156200059e576200059d6200051d565b5b828201905092915050565b7f4e487b7100000000000000000000000000000000000000000000000000000000600052603260045260246000fd5b6000620005e58262000513565b91507fffffffffffffffffffffffffffffffffffffffffffffffffffffffffffffffff8214156200061b576200061a6200051d565b5b600182019050919050565b61191c80620006366000396000f3fe6080604052600436106100a05760003560e01c8063715018a611610064578063715018a614610267578063853828b61461027e5780638da5cb5b14610295578063c7e42b1b146102c0578063dce59c00146102e9578063f2fde38b146103125761017e565b806327e235e3146101835780632e1a7d4d146101c15780633ed35855146101ea5780635806beaf1461021357806363037b0c1461022a5761017e565b3661017e5760003490506000600180549050826100bd9190611265565b905060005b600180549050811015610179578160026000600184815481106100e8576100e7611296565b5b9060005260206000200160009054906101000a900473ffffffffffffffffffffffffffffffffffffffff1673ffffffffffffffffffffffffffffffffffffffff1673ffffffffffffffffffffffffffffffffffffffff168152602001908152602001600020600101600082825461015f91906112c5565b9250508190555080806101719061131b565b9150506100c2565b505050005b600080fd5b34801561018f57600080fd5b506101aa60048036038101906101a591906113c7565b61033b565b6040516101b8929190611403565b60405180910390f35b3480156101cd57600080fd5b506101e860048036038101906101e39190611458565b61035f565b005b3480156101f657600080fd5b50610211600480360381019061020c91906113c7565b610500565b005b34801561021f57600080fd5b506102286107ce565b005b34801561023657600080fd5b50610251600480360381019061024c9190611458565b610854565b60405161025e9190611494565b60405180910390f35b34801561027357600080fd5b5061027c610893565b005b34801561028a57600080fd5b5061029361091b565b005b3480156102a157600080fd5b506102aa610aaf565b6040516102b79190611494565b60405180910390f35b3480156102cc57600080fd5b506102e760048036038101906102e291906114ed565b610ad8565b005b3480156102f557600080fd5b50610310600480360381019061030b91906113c7565b610cda565b005b34801561031e57600080fd5b50610339600480360381019061033491906113c7565b610e7e565b005b60026020528060005260406000206000915090508060000154908060010154905082565b3361036981610f76565b6103a8576040517f08c379a000000000000000000000000000000000000000000000000000000000815260040161039f90611577565b60405180910390fd5b600082116103b557600080fd5b600260003373ffffffffffffffffffffffffffffffffffffffff1673ffffffffffffffffffffffffffffffffffffffff1681526020019081526020016000206001015482111561043a576040517f08c379a0000000000000000000000000000000000000000000000000000000008152600401610431906115e3565b60405180910390fd5b81600260003373ffffffffffffffffffffffffffffffffffffffff1673ffffffffffffffffffffffffffffffffffffffff168152602001908152602001600020600101600082825461048c9190611603565b925050819055503373ffffffffffffffffffffffffffffffffffffffff16826040516104b790611668565b60006040518083038185875af1925050503d80600081146104f4576040519150601f19603f3d011682016040523d82523d6000602084013e6104f9565b606091505b5050505050565b610508610fc4565b73ffffffffffffffffffffffffffffffffffffffff16610526610aaf565b73ffffffffffffffffffffffffffffffffffffffff161461057c576040517f08c379a0000000000000000000000000000000000000000000000000000000008152600401610573906116c9565b60405180910390fd5b61058581610f76565b61058e57600080fd5b610596610fcc565b60006001600260008473ffffffffffffffffffffffffffffffffffffffff1673ffffffffffffffffffffffffffffffffffffffff168152602001908152602001600020600001546105e79190611603565b905060018080805490506105fb9190611603565b8154811061060c5761060b611296565b5b9060005260206000200160009054906101000a900473ffffffffffffffffffffffffffffffffffffffff166001828154811061064b5761064a611296565b5b9060005260206000200160006101000a81548173ffffffffffffffffffffffffffffffffffffffff021916908373ffffffffffffffffffffffffffffffffffffffff16021790555060018054806106a5576106a46116e9565b5b6001900381819060005260206000200160006101000a81549073ffffffffffffffffffffffffffffffffffffffff021916905590556001805490508114610778576001816106f391906112c5565b600260006001848154811061070b5761070a611296565b5b9060005260206000200160009054906101000a900473ffffffffffffffffffffffffffffffffffffffff1673ffffffffffffffffffffffffffffffffffffffff1673ffffffffffffffffffffffffffffffffffffffff168152602001908152602001600020600001819055505b600260008373ffffffffffffffffffffffffffffffffffffffff1673ffffffffffffffffffffffffffffffffffffffff168152602001908152602001600020600080820160009055600182016000905550505050565b6107d6610fc4565b73ffffffffffffffffffffffffffffffffffffffff166107f4610aaf565b73ffffffffffffffffffffffffffffffffffffffff161461084a576040517f08c379a0000000000000000000000000000000000000000000000000000000008152600401610841906116c9565b60405180910390fd5b610852610fcc565b565b6001818154811061086457600080fd5b906000526020600020016000915054906101000a900473ffffffffffffffffffffffffffffffffffffffff1681565b61089b610fc4565b73ffffffffffffffffffffffffffffffffffffffff166108b9610aaf565b73ffffffffffffffffffffffffffffffffffffffff161461090f576040517f08c379a0000000000000000000000000000000000000000000000000000000008152600401610906906116c9565b60405180910390fd5b6109196000611139565b565b3361092581610f76565b610964576040517f08c379a000000000000000000000000000000000000000000000000000000000815260040161095b90611577565b60405180910390fd5b6000600260003373ffffffffffffffffffffffffffffffffffffffff1673ffffffffffffffffffffffffffffffffffffffff16815260200190815260200160002060010154116109b357600080fd5b6000600260003373ffffffffffffffffffffffffffffffffffffffff1673ffffffffffffffffffffffffffffffffffffffff1681526020019081526020016000206001015490506000600260003373ffffffffffffffffffffffffffffffffffffffff1673ffffffffffffffffffffffffffffffffffffffff168152602001908152602001600020600101819055503373ffffffffffffffffffffffffffffffffffffffff1681604051610a6690611668565b60006040518083038185875af1925050503d8060008114610aa3576040519150601f19603f3d011682016040523d82523d6000602084013e610aa8565b606091505b5050505050565b60008060009054906101000a900473ffffffffffffffffffffffffffffffffffffffff16905090565b610ae0610fc4565b73ffffffffffffffffffffffffffffffffffffffff16610afe610aaf565b73ffffffffffffffffffffffffffffffffffffffff1614610b54576040517f08c379a0000000000000000000000000000000000000000000000000000000008152600401610b4b906116c9565b60405180910390fd5b60008173ffffffffffffffffffffffffffffffffffffffff166370a08231306040518263ffffffff1660e01b8152600401610b8f9190611494565b602060405180830381865afa158015610bac573d6000803e3d6000fd5b505050506040513d601f19601f82011682018060405250810190610bd0919061172d565b905060008111610bdf57600080fd5b600060018054905082610bf29190611265565b905060005b600180549050811015610cd4578373ffffffffffffffffffffffffffffffffffffffff1663a9059cbb60018381548110610c3457610c33611296565b5b9060005260206000200160009054906101000a900473ffffffffffffffffffffffffffffffffffffffff16846040518363ffffffff1660e01b8152600401610c7d92919061175a565b6020604051808303816000875af1158015610c9c573d6000803e3d6000fd5b505050506040513d601f19601f82011682018060405250810190610cc091906117bb565b508080610ccc9061131b565b915050610bf7565b50505050565b610ce2610fc4565b73ffffffffffffffffffffffffffffffffffffffff16610d00610aaf565b73ffffffffffffffffffffffffffffffffffffffff1614610d56576040517f08c379a0000000000000000000000000000000000000000000000000000000008152600401610d4d906116c9565b60405180910390fd5b610d5f81610f76565b15610d9f576040517f08c379a0000000000000000000000000000000000000000000000000000000008152600401610d9690611834565b60405180910390fd5b610da7610fcc565b6001819080600181540180825580915050600190039060005260206000200160009091909190916101000a81548173ffffffffffffffffffffffffffffffffffffffff021916908373ffffffffffffffffffffffffffffffffffffffff160217905550604051806040016040528060018054905081526020016000815250600260008373ffffffffffffffffffffffffffffffffffffffff1673ffffffffffffffffffffffffffffffffffffffff168152602001908152602001600020600082015181600001556020820151816001015590505050565b610e86610fc4565b73ffffffffffffffffffffffffffffffffffffffff16610ea4610aaf565b73ffffffffffffffffffffffffffffffffffffffff1614610efa576040517f08c379a0000000000000000000000000000000000000000000000000000000008152600401610ef1906116c9565b60405180910390fd5b600073ffffffffffffffffffffffffffffffffffffffff168173ffffffffffffffffffffffffffffffffffffffff161415610f6a576040517f08c379a0000000000000000000000000000000000000000000000000000000008152600401610f61906118c6565b60405180910390fd5b610f7381611139565b50565b600080600260008473ffffffffffffffffffffffffffffffffffffffff1673ffffffffffffffffffffffffffffffffffffffff16815260200190815260200160002060000154119050919050565b600033905090565b60005b60018054905081101561113657600060018281548110610ff257610ff1611296565b5b9060005260206000200160009054906101000a900473ffffffffffffffffffffffffffffffffffffffff1690506000600260008373ffffffffffffffffffffffffffffffffffffffff1673ffffffffffffffffffffffffffffffffffffffff1681526020019081526020016000206001015490506000811115611121576000600260008473ffffffffffffffffffffffffffffffffffffffff1673ffffffffffffffffffffffffffffffffffffffff168152602001908152602001600020600101819055508173ffffffffffffffffffffffffffffffffffffffff16816040516110db90611668565b60006040518083038185875af1925050503d8060008114611118576040519150601f19603f3d011682016040523d82523d6000602084013e61111d565b606091505b5050505b5050808061112e9061131b565b915050610fcf565b50565b60008060009054906101000a900473ffffffffffffffffffffffffffffffffffffffff169050816000806101000a81548173ffffffffffffffffffffffffffffffffffffffff021916908373ffffffffffffffffffffffffffffffffffffffff1602179055508173ffffffffffffffffffffffffffffffffffffffff168173ffffffffffffffffffffffffffffffffffffffff167f8be0079c531659141344cd1fd0a4f28419497f9722a3daafe3b4186f6b6457e060405160405180910390a35050565b6000819050919050565b7f4e487b7100000000000000000000000000000000000000000000000000000000600052601260045260246000fd5b7f4e487b7100000000000000000000000000000000000000000000000000000000600052601160045260246000fd5b6000611270826111fd565b915061127b836111fd565b92508261128b5761128a611207565b5b828204905092915050565b7f4e487b7100000000000000000000000000000000000000000000000000000000600052603260045260246000fd5b60006112d0826111fd565b91506112db836111fd565b9250827fffffffffffffffffffffffffffffffffffffffffffffffffffffffffffffffff038211156113105761130f611236565b5b828201905092915050565b6000611326826111fd565b91507fffffffffffffffffffffffffffffffffffffffffffffffffffffffffffffffff82141561135957611358611236565b5b600182019050919050565b600080fd5b600073ffffffffffffffffffffffffffffffffffffffff82169050919050565b600061139482611369565b9050919050565b6113a481611389565b81146113af57600080fd5b50565b6000813590506113c18161139b565b92915050565b6000602082840312156113dd576113dc611364565b5b60006113eb848285016113b2565b91505092915050565b6113fd816111fd565b82525050565b600060408201905061141860008301856113f4565b61142560208301846113f4565b9392505050565b611435816111fd565b811461144057600080fd5b50565b6000813590506114528161142c565b92915050565b60006020828403121561146e5761146d611364565b5b600061147c84828501611443565b91505092915050565b61148e81611389565b82525050565b60006020820190506114a96000830184611485565b92915050565b60006114ba82611389565b9050919050565b6114ca816114af565b81146114d557600080fd5b50565b6000813590506114e7816114c1565b92915050565b60006020828403121561150357611502611364565b5b6000611511848285016114d8565b91505092915050565b600082825260208201905092915050565b7f4e6f742070617965650000000000000000000000000000000000000000000000600082015250565b600061156160098361151a565b915061156c8261152b565b602082019050919050565b6000602082019050818103600083015261159081611554565b9050919050565b7f496e73756666696369656e742062616c616e6365000000000000000000000000600082015250565b60006115cd60148361151a565b91506115d882611597565b602082019050919050565b600060208201905081810360008301526115fc816115c0565b9050919050565b600061160e826111fd565b9150611619836111fd565b92508282101561162c5761162b611236565b5b828203905092915050565b600081905092915050565b50565b6000611652600083611637565b915061165d82611642565b600082019050919050565b600061167382611645565b9150819050919050565b7f4f776e61626c653a2063616c6c6572206973206e6f7420746865206f776e6572600082015250565b60006116b360208361151a565b91506116be8261167d565b602082019050919050565b600060208201905081810360008301526116e2816116a6565b9050919050565b7f4e487b7100000000000000000000000000000000000000000000000000000000600052603160045260246000fd5b6000815190506117278161142c565b92915050565b60006020828403121561174357611742611364565b5b600061175184828501611718565b91505092915050565b600060408201905061176f6000830185611485565b61177c60208301846113f4565b9392505050565b60008115159050919050565b61179881611783565b81146117a357600080fd5b50565b6000815190506117b58161178f565b92915050565b6000602082840312156117d1576117d0611364565b5b60006117df848285016117a6565b91505092915050565b7f4e6f742061207061796565000000000000000000000000000000000000000000600082015250565b600061181e600b8361151a565b9150611829826117e8565b602082019050919050565b6000602082019050818103600083015261184d81611811565b9050919050565b7f4f776e61626c653a206e6577206f776e657220697320746865207a65726f206160008201527f6464726573730000000000000000000000000000000000000000000000000000602082015250565b60006118b060268361151a565b91506118bb82611854565b604082019050919050565b600060208201905081810360008301526118df816118a3565b905091905056fea2646970667358221220b3177a491b719a8e40a7ef109d5aa5c949ff824d1267c14bdadc148160115a3764736f6c634300080c0033",
  "immutableReferences": {},
  "source": "pragma solidity ^0.8.0;\r\n\r\n// SPDX-License-Identifier: MIT\r\n\r\nimport \"@openzeppelin/contracts/access/Ownable.sol\";\r\nimport \"@openzeppelin/contracts/token/ERC20/IERC20.sol\";\r\n\r\n/**\r\n * @title Sample Royalties splitter contract\r\n * @dev Allow to specify different rightsholder and split royalties equally\r\n        between them.\r\n */\r\ncontract RoyaltiesPayment is Ownable {\r\n\r\n    /// @notice Information about our user\r\n    /// @dev userIndex > 0 for existing payees\r\n    struct UserBalance {\r\n        uint256 userIndex;\r\n        uint256 balance;\r\n    }\r\n\r\n    // A list all those entitled to royalties payment\r\n    address[] public payees;\r\n\r\n    // A record of total withdrawal amounts per payee address\r\n    mapping(address => UserBalance) public balances;\r\n\r\n    constructor(address[] memory _payees) {\r\n        payees = _payees;\r\n        for (uint256 i = 0; i < payees.length; i++) {\r\n            balances[payees[i]] = UserBalance({userIndex : i+1,\r\n            balance : 0});\r\n        }\r\n    }\r\n\r\n\r\n    /// @notice Split every received payment equally between the payees\r\n    receive() external payable {\r\n        uint256 amount = msg.value;\r\n        uint256 sharePerPayee = amount / payees.length;\r\n        for (uint256 i = 0; i < payees.length; i++) {\r\n            balances[payees[i]].balance += sharePerPayee;\r\n        }\r\n\r\n    }\r\n\r\n    /// @notice Whether an adress is in our list of payees or not\r\n    /// @param user - the address to verify\r\n    /// @return true if the user is a payee, false otherwise\r\n    function _isPayee(address user) internal\r\n    returns(bool) {\r\n        return balances[user].userIndex > 0;\r\n    }\r\n\r\n    /// @notice Lets a user withdraw some of their funds\r\n    /// @param amount - the amount to withdraw\r\n    function withdraw(uint256 amount) external isPayee(msg.sender) {\r\n        require(amount > 0);\r\n        require(amount <= balances[msg.sender].balance,\r\n            \"Insufficient balance\");\r\n        balances[msg.sender].balance -= amount;\r\n        msg.sender.call{value: amount}('');\r\n    }\r\n\r\n    /// @notice Lets a user withdraw all the funds available to them\r\n    function withdrawAll() external isPayee(msg.sender) {\r\n        require(balances[msg.sender].balance > 0);\r\n        uint256 balance = balances[msg.sender].balance;\r\n        balances[msg.sender].balance = 0;\r\n        msg.sender.call{value: balance}('');\r\n    }\r\n\r\n    /// @notice Clear all balances by paying out all payees their share\r\n    function _payAll() internal {\r\n        for (uint256 i = 0; i < payees.length; i++) {\r\n            address payee = payees[i];\r\n            uint256 availableBalance = balances[payee].balance;\r\n            if (availableBalance > 0) {\r\n                balances[payee].balance = 0;\r\n                payee.call{value: availableBalance}('');\r\n            }\r\n        }\r\n    }\r\n\r\n    /// @notice Pay all users their current balances\r\n    function payAll() external onlyOwner {\r\n        _payAll();\r\n    }\r\n\r\n    /// @notice Remove a user from the list of payees\r\n    /// @param payee - address of the user to remove\r\n    function removePayee(address payee) external onlyOwner {\r\n        // The address needs to be a payee\r\n        require(_isPayee(payee));\r\n        // First pay everybody off and clear their balances\r\n        _payAll();\r\n        // Grab the index of the payee to remove (NOTE: our userIndex\r\n        // starts at 1)\r\n        uint256 removalIndex = balances[payee].userIndex - 1;\r\n        // Move the last payee on the list in its place\r\n        payees[removalIndex] = payees[payees.length - 1];\r\n        // And removes the last entry on the array\r\n        payees.pop();\r\n        // Unless the removed payee was also the last on the list...\r\n        if (removalIndex != payees.length) {\r\n            // ... we need to update the last payee's index to its new position\r\n            balances[payees[removalIndex]].userIndex = removalIndex + 1;\r\n        }\r\n        // Set payee's userIndex to false by deleting the entry,\r\n        // effectively stripping them from their payee status\r\n        delete (balances[payee]);\r\n    }\r\n\r\n\r\n    /// @notice Add a user to the list of payees\r\n    /// @param payee - address of the user to add\r\n    function addPayee(address payee) external onlyOwner {\r\n        // The address can't already be a payee\r\n        require(!_isPayee(payee), 'Not a payee');\r\n        // First pay everybody off and clear their balances\r\n        _payAll();\r\n        // Add the new member\r\n        payees.push(payee);\r\n        balances[payee] = UserBalance(payees.length, 0);\r\n    }\r\n\r\n    /// @notice Allow to withdraw payments made in ERC20\r\n    /// @dev Will split evenly between all current payees only. Is not called\r\n    ///      when payee is added or removed\r\n    /// @param token - the token to split among all current payees\r\n    function withdrawErc20(IERC20 token) external onlyOwner {\r\n        uint256 tokenBalance = token.balanceOf(address(this));\r\n        require(tokenBalance > 0);\r\n        uint256 payeeShare = tokenBalance / payees.length;\r\n        for (uint256 i = 0; i < payees.length; i++) {\r\n            token.transfer(payees[i], payeeShare);\r\n        }\r\n    }\r\n\r\n    modifier isPayee(address user) {\r\n        require(_isPayee(user),\r\n            \"Not payee\");\r\n        _;\r\n    }\r\n}",
  "sourcePath": "C:\\dev\\nft-marketplace\\src\\contracts\\RoyaltiesPayment.sol",
  "compiler": {
    "name": "solc",
    "version": "0.8.12+commit.f00d7308.Emscripten.clang"
  },
  "schemaVersion": "3.4.3",
  "updatedAt": "2022-03-14T06:53:27.597Z",
  "devdoc": {
    "details": "Allow to specify different rightsholder and split royalties equally between them.",
    "kind": "dev",
    "methods": {
      "addPayee(address)": {
        "params": {
          "payee": "- address of the user to add"
        }
      },
      "owner()": {
        "details": "Returns the address of the current owner."
      },
      "removePayee(address)": {
        "params": {
          "payee": "- address of the user to remove"
        }
      },
      "renounceOwnership()": {
        "details": "Leaves the contract without owner. It will not be possible to call `onlyOwner` functions anymore. Can only be called by the current owner. NOTE: Renouncing ownership will leave the contract without an owner, thereby removing any functionality that is only available to the owner."
      },
      "transferOwnership(address)": {
        "details": "Transfers ownership of the contract to a new account (`newOwner`). Can only be called by the current owner."
      },
      "withdraw(uint256)": {
        "params": {
          "amount": "- the amount to withdraw"
        }
      },
      "withdrawErc20(address)": {
        "details": "Will split evenly between all current payees only. Is not called      when payee is added or removed",
        "params": {
          "token": "- the token to split among all current payees"
        }
      }
    },
    "title": "Sample Royalties splitter contract",
    "version": 1
  },
  "userdoc": {
    "kind": "user",
    "methods": {
      "addPayee(address)": {
        "notice": "Add a user to the list of payees"
      },
      "payAll()": {
        "notice": "Pay all users their current balances"
      },
      "removePayee(address)": {
        "notice": "Remove a user from the list of payees"
      },
      "withdraw(uint256)": {
        "notice": "Lets a user withdraw some of their funds"
      },
      "withdrawAll()": {
        "notice": "Lets a user withdraw all the funds available to them"
      },
      "withdrawErc20(address)": {
        "notice": "Allow to withdraw payments made in ERC20"
      }
    },
    "version": 1
  }
}