{
  "_format": "hh-sol-artifact-1",
  "contractName": "NFTMarketplace",
  "sourceName": "src/contracts/NFTMarketplace.sol",
  "abi": [
    {
      "inputs": [
        {
          "internalType": "address",
          "name": "_nftCollection",
          "type": "address"
        }
      ],
      "stateMutability": "nonpayable",
      "type": "constructor"
    },
    {
      "anonymous": false,
      "inputs": [
        {
          "indexed": false,
          "internalType": "address",
          "name": "user",
          "type": "address"
        },
        {
          "indexed": false,
          "internalType": "uint256",
          "name": "amount",
          "type": "uint256"
        }
      ],
      "name": "ClaimFunds",
      "type": "event"
    },
    {
      "anonymous": false,
      "inputs": [
        {
          "indexed": false,
          "internalType": "uint256",
          "name": "offerId",
          "type": "uint256"
        },
        {
          "indexed": false,
          "internalType": "uint256",
          "name": "id",
          "type": "uint256"
        },
        {
          "indexed": false,
          "internalType": "address",
          "name": "user",
          "type": "address"
        },
        {
          "indexed": false,
          "internalType": "uint256",
          "name": "price",
          "type": "uint256"
        },
        {
          "indexed": false,
          "internalType": "bool",
          "name": "fulfilled",
          "type": "bool"
        },
        {
          "indexed": false,
          "internalType": "bool",
          "name": "cancelled",
          "type": "bool"
        }
      ],
      "name": "Offer",
      "type": "event"
    },
    {
      "anonymous": false,
      "inputs": [
        {
          "indexed": false,
          "internalType": "uint256",
          "name": "offerId",
          "type": "uint256"
        },
        {
          "indexed": false,
          "internalType": "uint256",
          "name": "id",
          "type": "uint256"
        },
        {
          "indexed": false,
          "internalType": "address",
          "name": "owner",
          "type": "address"
        }
      ],
      "name": "OfferCancelled",
      "type": "event"
    },
    {
      "anonymous": false,
      "inputs": [
        {
          "indexed": false,
          "internalType": "uint256",
          "name": "offerId",
          "type": "uint256"
        },
        {
          "indexed": false,
          "internalType": "uint256",
          "name": "id",
          "type": "uint256"
        },
        {
          "indexed": false,
          "internalType": "address",
          "name": "newOwner",
          "type": "address"
        }
      ],
      "name": "OfferFilled",
      "type": "event"
    },
    {
      "stateMutability": "nonpayable",
      "type": "fallback"
    },
    {
      "inputs": [],
      "name": "_tokenContractAddress",
      "outputs": [
        {
          "internalType": "address",
          "name": "",
          "type": "address"
        }
      ],
      "stateMutability": "view",
      "type": "function"
    },
    {
      "inputs": [
        {
          "internalType": "uint256",
          "name": "_offerId",
          "type": "uint256"
        }
      ],
      "name": "cancelOffer",
      "outputs": [],
      "stateMutability": "nonpayable",
      "type": "function"
    },
    {
      "inputs": [],
      "name": "claimFunds",
      "outputs": [],
      "stateMutability": "nonpayable",
      "type": "function"
    },
    {
      "inputs": [],
      "name": "claimRoyaltyFunds",
      "outputs": [],
      "stateMutability": "nonpayable",
      "type": "function"
    },
    {
      "inputs": [],
      "name": "claimServiceFunds",
      "outputs": [],
      "stateMutability": "nonpayable",
      "type": "function"
    },
    {
      "inputs": [
        {
          "internalType": "uint256",
          "name": "_offerId",
          "type": "uint256"
        }
      ],
      "name": "fillOffer",
      "outputs": [],
      "stateMutability": "payable",
      "type": "function"
    },
    {
      "inputs": [
        {
          "internalType": "uint256",
          "name": "_id",
          "type": "uint256"
        },
        {
          "internalType": "uint256",
          "name": "_price",
          "type": "uint256"
        }
      ],
      "name": "makeOffer",
      "outputs": [],
      "stateMutability": "nonpayable",
      "type": "function"
    },
    {
      "inputs": [],
      "name": "offerCount",
      "outputs": [
        {
          "internalType": "uint256",
          "name": "",
          "type": "uint256"
        }
      ],
      "stateMutability": "view",
      "type": "function"
    },
    {
      "inputs": [
        {
          "internalType": "uint256",
          "name": "",
          "type": "uint256"
        }
      ],
      "name": "offers",
      "outputs": [
        {
          "internalType": "uint256",
          "name": "offerId",
          "type": "uint256"
        },
        {
          "internalType": "uint256",
          "name": "id",
          "type": "uint256"
        },
        {
          "internalType": "address",
          "name": "user",
          "type": "address"
        },
        {
          "internalType": "uint256",
          "name": "price",
          "type": "uint256"
        },
        {
          "internalType": "bool",
          "name": "fulfilled",
          "type": "bool"
        },
        {
          "internalType": "bool",
          "name": "cancelled",
          "type": "bool"
        }
      ],
      "stateMutability": "view",
      "type": "function"
    },
    {
      "inputs": [],
      "name": "payments",
      "outputs": [
        {
          "internalType": "address payable",
          "name": "",
          "type": "address"
        }
      ],
      "stateMutability": "view",
      "type": "function"
    },
    {
      "inputs": [
        {
          "internalType": "address",
          "name": "",
          "type": "address"
        }
      ],
      "name": "royaltyFunds",
      "outputs": [
        {
          "internalType": "uint256",
          "name": "",
          "type": "uint256"
        }
      ],
      "stateMutability": "view",
      "type": "function"
    },
    {
      "inputs": [
        {
          "internalType": "address",
          "name": "",
          "type": "address"
        }
      ],
      "name": "serviceFunds",
      "outputs": [
        {
          "internalType": "uint256",
          "name": "",
          "type": "uint256"
        }
      ],
      "stateMutability": "view",
      "type": "function"
    },
    {
      "inputs": [
        {
          "internalType": "address",
          "name": "",
          "type": "address"
        }
      ],
      "name": "userFunds",
      "outputs": [
        {
          "internalType": "uint256",
          "name": "",
          "type": "uint256"
        }
      ],
      "stateMutability": "view",
      "type": "function"
    }
  ],
  "bytecode": "0x6080604052600080546001600160a01b031916905534801561002057600080fd5b5060405161122d38038061122d83398101604081905261003f9161006e565b600080546001600160a01b039092166001600160a01b031992831681179091556007805490921617905561009c565b60006020828403121561007f578081fd5b81516001600160a01b0381168114610095578182fd5b9392505050565b611182806100ab6000396000f3fe6080604052600436106100c25760003560e01c806385dba8611161007f578063a6d23e1011610059578063a6d23e10146101fd578063ac30777314610212578063c490b92414610227578063ef706adf1461023c576100c2565b806385dba86114610198578063898c4c13146101ab5780638a72ea6a146101cb576100c2565b806305b7cdd3146100d45780631115c24d146100f657806332b06f8e146101215780635a27ddbd146101415780635cf0346f146101565780638387c6e114610178575b3480156100ce57600080fd5b50600080fd5b3480156100e057600080fd5b506100f46100ef366004610cd5565b61025c565b005b34801561010257600080fd5b5061010b6103c3565b6040516101189190611038565b60405180910390f35b34801561012d57600080fd5b5061010b61013c366004610c66565b6103c9565b34801561014d57600080fd5b506100f46103db565b34801561016257600080fd5b5061016b61046b565b6040516101189190610cf6565b34801561018457600080fd5b5061010b610193366004610c66565b61047a565b6100f46101a6366004610ca5565b61048c565b3480156101b757600080fd5b5061010b6101c6366004610c66565b610926565b3480156101d757600080fd5b506101eb6101e6366004610ca5565b610938565b60405161011896959493929190611060565b34801561020957600080fd5b5061016b61097e565b34801561021e57600080fd5b506100f461098d565b34801561023357600080fd5b506100f4610a4c565b34801561024857600080fd5b506100f4610257366004610ca5565b610b0b565b6007546040516323b872dd60e01b81526001600160a01b03909116906323b872dd9061029090339030908790600401610d0a565b600060405180830381600087803b1580156102aa57600080fd5b505af11580156102be573d6000803e3d6000fd5b5050600280549250905060006102d383611103565b90915550506040805160c081018252600280548083526020808401878152338587018181526060870189815260006080890181815260a08a018281529782526003968790528a822099518a55945160018a0155915188880180546001600160a01b0319166001600160a01b039092169190911790555193870193909355905160049095018054935160ff199094169515159590951761ff0019166101009315159390930292909217909355905492517f93e711896d4ef527d199d7e101922e20f918cbb248a0fb0977c52fda24aa1f1d936103b79390928792909187918190611060565b60405180910390a15050565b60025481565b60066020526000908152604090205481565b336000908152600660205260409020546104105760405162461bcd60e51b815260040161040790610f32565b60405180910390fd5b33600081815260066020526040908190205490517f4f0554190111f93f8c2ccef2cc41473f187d7f29ff5a5c308ca41f9dfe4e989a92610451929091610d2e565b60405180910390a133600090815260066020526040812055565b6000546001600160a01b031681565b60046020526000908152604090205481565b6000818152600360205260409020805482146104ba5760405162461bcd60e51b815260040161040790610fbf565b60028101546001600160a01b03163314156104e75760405162461bcd60e51b815260040161040790610d47565b600481015460ff161561050c5760405162461bcd60e51b815260040161040790610e5a565b6004810154610100900460ff16156105365760405162461bcd60e51b815260040161040790610d8c565b806003015434146105595760405162461bcd60e51b815260040161040790610e9c565b60075460018201546040516323b872dd60e01b81526001600160a01b03909216916323b872dd916105909130913391600401610d0a565b600060405180830381600087803b1580156105aa57600080fd5b505af11580156105be573d6000803e3d6000fd5b5050506004808301805460ff1916600190811790915583015460075460405162c840e960e61b81529193506000926001600160a01b03909116916332103a409161060a91869101611038565b60206040518083038186803b15801561062257600080fd5b505afa158015610636573d6000803e3d6000fd5b505050506040513d601f19601f8201168201806040525081019061065a9190610c89565b600754604051637a9d561560e11b81529192506000916001600160a01b039091169063f53aac2a90610690908690600401611038565b60206040518083038186803b1580156106a857600080fd5b505afa1580156106bc573d6000803e3d6000fd5b505050506040513d601f19601f820116820180604052508101906106e09190610c89565b60075460405163ef8a8cb160e01b81529192506000916001600160a01b039091169063ef8a8cb190610716908790600401611038565b60206040518083038186803b15801561072e57600080fd5b505afa158015610742573d6000803e3d6000fd5b505050506040513d601f19601f820116820180604052508101906107669190610cbd565b60075460405163028ba63960e21b81529192506000916001600160a01b0390911690630a2e98e49061079c908890600401611038565b60206040518083038186803b1580156107b457600080fd5b505afa1580156107c8573d6000803e3d6000fd5b505050506040513d601f19601f820116820180604052508101906107ec9190610cbd565b905034600068056bc75e2d6310000061080585846110cd565b61080f91906110ad565b9050600068056bc75e2d6310000061082785856110cd565b61083191906110ad565b9050600061083f8284611095565b61084990856110ec565b60028b01546001600160a01b031660009081526004602052604081208054929350839290919061087a908490611095565b90915550506001600160a01b038816600090815260056020526040812080548592906108a7908490611095565b90915550506001600160a01b038716600090815260066020526040812080548492906108d4908490611095565b909155505060018a01546040517fd9157c065213ada613694e84b1e27fe2efd62d85c6b82bd6c842a4999491e72a91610911918e91903390611041565b60405180910390a15050505050505050505050565b60056020526000908152604090205481565b600360208190526000918252604090912080546001820154600283015493830154600490930154919390926001600160a01b039091169160ff8082169161010090041686565b6001546001600160a01b031681565b336000908152600460205260409020546109b95760405162461bcd60e51b815260040161040790610e16565b3360008181526004602052604080822054905181156108fc0292818181858888f193505050501580156109f0573d6000803e3d6000fd5b5033600081815260046020526040908190205490517f4f0554190111f93f8c2ccef2cc41473f187d7f29ff5a5c308ca41f9dfe4e989a92610a32929091610d2e565b60405180910390a133600090815260046020526040812055565b33600090815260056020526040902054610a785760405162461bcd60e51b815260040161040790610eea565b3360008181526005602052604080822054905181156108fc0292818181858888f19350505050158015610aaf573d6000803e3d6000fd5b5033600081815260056020526040908190205490517f4f0554190111f93f8c2ccef2cc41473f187d7f29ff5a5c308ca41f9dfe4e989a92610af1929091610d2e565b60405180910390a133600090815260056020526040812055565b600081815260036020526040902080548214610b395760405162461bcd60e51b815260040161040790610fbf565b60028101546001600160a01b03163314610b655760405162461bcd60e51b815260040161040790610fed565b600481015460ff1615610b8a5760405162461bcd60e51b815260040161040790610dd1565b6004810154610100900460ff1615610bb45760405162461bcd60e51b815260040161040790610f7d565b60075460018201546040516323b872dd60e01b81526001600160a01b03909216916323b872dd91610beb9130913391600401610d0a565b600060405180830381600087803b158015610c0557600080fd5b505af1158015610c19573d6000803e3d6000fd5b50505060048201805461ff0019166101001790555060018101546040517f5b166b4d0498ff8c4719999cb6154c5d197e6f020f9fbfcf9d347f84576cfab7916103b7918591903390611041565b600060208284031215610c77578081fd5b8135610c8281611134565b9392505050565b600060208284031215610c9a578081fd5b8151610c8281611134565b600060208284031215610cb6578081fd5b5035919050565b600060208284031215610cce578081fd5b5051919050565b60008060408385031215610ce7578081fd5b50508035926020909101359150565b6001600160a01b0391909116815260200190565b6001600160a01b039384168152919092166020820152604081019190915260600190565b6001600160a01b03929092168252602082015260400190565b60208082526025908201527f546865206f776e6572206f6620746865206f666665722063616e6e6f742066696040820152641b1b081a5d60da1b606082015260800190565b60208082526025908201527f412063616e63656c6c6564206f666665722063616e6e6f742062652066756c666040820152641a5b1b195960da1b606082015260800190565b60208082526025908201527f412066756c66696c6c6564206f666665722063616e6e6f742062652063616e63604082015264195b1b195960da1b606082015260800190565b60208082526024908201527f54686973207573657220686173206e6f2066756e647320746f20626520636c616040820152631a5b595960e21b606082015260800190565b60208082526022908201527f416e206f666665722063616e6e6f742062652066756c66696c6c656420747769604082015261636560f01b606082015260800190565b6020808252602e908201527f5468652045544820616d6f756e742073686f756c64206d61746368207769746860408201526d20746865204e465420507269636560901b606082015260800190565b60208082526028908201527f54686973207573657220686173206e6f20726f79616c7469657320746f2062656040820152670818db185a5b595960c21b606082015260800190565b6020808252602b908201527f54686973207573657220686173206e6f2073657276696365206665657320746f60408201526a0818994818db185a5b595960aa1b606082015260800190565b60208082526022908201527f416e206f666665722063616e6e6f742062652063616e63656c6c656420747769604082015261636560f01b606082015260800190565b602080825260149082015273151a19481bd999995c881b5d5cdd08195e1a5cdd60621b604082015260600190565b6020808252602b908201527f546865206f666665722063616e206f6e6c792062652063616e63656c6564206260408201526a3c903a34329037bbb732b960a91b606082015260800190565b90815260200190565b92835260208301919091526001600160a01b0316604082015260600190565b95865260208601949094526001600160a01b03929092166040850152606084015215156080830152151560a082015260c00190565b600082198211156110a8576110a861111e565b500190565b6000826110c857634e487b7160e01b81526012600452602481fd5b500490565b60008160001904831182151516156110e7576110e761111e565b500290565b6000828210156110fe576110fe61111e565b500390565b60006000198214156111175761111761111e565b5060010190565b634e487b7160e01b600052601160045260246000fd5b6001600160a01b038116811461114957600080fd5b5056fea26469706673582212206ec045d43684f24372861518f577dab56acdb51ceb56496faaf2cc70361d5b7864736f6c63430008000033",
  "linkReferences": {},
  "deployedLinkReferences": {}
}