{
  "_format": "hh-sol-artifact-1",
  "contractName": "NFTMarketplace",
  "sourceName": "src/contracts/NFTMarketplace.sol",
  "abi": [
    {
      "inputs": [
        {
          "internalType": "address",
          "name": "_nftCollection",
          "type": "address"
        },
        {
          "internalType": "address",
          "name": "_payments",
          "type": "address"
        }
      ],
      "stateMutability": "nonpayable",
      "type": "constructor"
    },
    {
      "anonymous": false,
      "inputs": [
        {
          "indexed": false,
          "internalType": "address",
          "name": "user",
          "type": "address"
        },
        {
          "indexed": false,
          "internalType": "uint256",
          "name": "amount",
          "type": "uint256"
        }
      ],
      "name": "ClaimFunds",
      "type": "event"
    },
    {
      "anonymous": false,
      "inputs": [
        {
          "indexed": false,
          "internalType": "uint256",
          "name": "offerId",
          "type": "uint256"
        },
        {
          "indexed": false,
          "internalType": "uint256",
          "name": "id",
          "type": "uint256"
        },
        {
          "indexed": false,
          "internalType": "address",
          "name": "user",
          "type": "address"
        },
        {
          "indexed": false,
          "internalType": "uint256",
          "name": "price",
          "type": "uint256"
        },
        {
          "indexed": false,
          "internalType": "bool",
          "name": "fulfilled",
          "type": "bool"
        },
        {
          "indexed": false,
          "internalType": "bool",
          "name": "cancelled",
          "type": "bool"
        }
      ],
      "name": "Offer",
      "type": "event"
    },
    {
      "anonymous": false,
      "inputs": [
        {
          "indexed": false,
          "internalType": "uint256",
          "name": "offerId",
          "type": "uint256"
        },
        {
          "indexed": false,
          "internalType": "uint256",
          "name": "id",
          "type": "uint256"
        },
        {
          "indexed": false,
          "internalType": "address",
          "name": "owner",
          "type": "address"
        }
      ],
      "name": "OfferCancelled",
      "type": "event"
    },
    {
      "anonymous": false,
      "inputs": [
        {
          "indexed": false,
          "internalType": "uint256",
          "name": "offerId",
          "type": "uint256"
        },
        {
          "indexed": false,
          "internalType": "uint256",
          "name": "id",
          "type": "uint256"
        },
        {
          "indexed": false,
          "internalType": "address",
          "name": "newOwner",
          "type": "address"
        }
      ],
      "name": "OfferFilled",
      "type": "event"
    },
    {
      "stateMutability": "nonpayable",
      "type": "fallback"
    },
    {
      "inputs": [],
      "name": "_tokenContractAddress",
      "outputs": [
        {
          "internalType": "address",
          "name": "",
          "type": "address"
        }
      ],
      "stateMutability": "view",
      "type": "function"
    },
    {
      "inputs": [
        {
          "internalType": "uint256",
          "name": "_offerId",
          "type": "uint256"
        }
      ],
      "name": "cancelOffer",
      "outputs": [],
      "stateMutability": "nonpayable",
      "type": "function"
    },
    {
      "inputs": [],
      "name": "claimFunds",
      "outputs": [],
      "stateMutability": "nonpayable",
      "type": "function"
    },
    {
      "inputs": [
        {
          "internalType": "uint256",
          "name": "_offerId",
          "type": "uint256"
        }
      ],
      "name": "fillOffer",
      "outputs": [],
      "stateMutability": "payable",
      "type": "function"
    },
    {
      "inputs": [
        {
          "internalType": "uint256",
          "name": "_id",
          "type": "uint256"
        },
        {
          "internalType": "uint256",
          "name": "_price",
          "type": "uint256"
        }
      ],
      "name": "makeOffer",
      "outputs": [],
      "stateMutability": "nonpayable",
      "type": "function"
    },
    {
      "inputs": [],
      "name": "offerCount",
      "outputs": [
        {
          "internalType": "uint256",
          "name": "",
          "type": "uint256"
        }
      ],
      "stateMutability": "view",
      "type": "function"
    },
    {
      "inputs": [
        {
          "internalType": "uint256",
          "name": "",
          "type": "uint256"
        }
      ],
      "name": "offers",
      "outputs": [
        {
          "internalType": "uint256",
          "name": "offerId",
          "type": "uint256"
        },
        {
          "internalType": "uint256",
          "name": "id",
          "type": "uint256"
        },
        {
          "internalType": "address",
          "name": "user",
          "type": "address"
        },
        {
          "internalType": "uint256",
          "name": "price",
          "type": "uint256"
        },
        {
          "internalType": "bool",
          "name": "fulfilled",
          "type": "bool"
        },
        {
          "internalType": "bool",
          "name": "cancelled",
          "type": "bool"
        }
      ],
      "stateMutability": "view",
      "type": "function"
    },
    {
      "inputs": [],
      "name": "payments",
      "outputs": [
        {
          "internalType": "address payable",
          "name": "",
          "type": "address"
        }
      ],
      "stateMutability": "view",
      "type": "function"
    },
    {
      "inputs": [
        {
          "internalType": "address",
          "name": "",
          "type": "address"
        }
      ],
      "name": "userFunds",
      "outputs": [
        {
          "internalType": "uint256",
          "name": "",
          "type": "uint256"
        }
      ],
      "stateMutability": "view",
      "type": "function"
    },
    {
      "inputs": [
        {
          "internalType": "address",
          "name": "",
          "type": "address"
        }
      ],
      "name": "userNetFunds",
      "outputs": [
        {
          "internalType": "uint256",
          "name": "",
          "type": "uint256"
        }
      ],
      "stateMutability": "view",
      "type": "function"
    }
  ],
  "bytecode": "0x6080604052600080546001600160a01b031916905534801561002057600080fd5b50604051610e8c380380610e8c83398101604081905261003f916100a8565b600780546001600160a01b039283166001600160a01b03199182168117909255600180548216909217909155600080549390921692811683179091556006805490911690911790556100da565b80516001600160a01b03811681146100a357600080fd5b919050565b600080604083850312156100ba578182fd5b6100c38361008c565b91506100d16020840161008c565b90509250929050565b610da3806100e96000396000f3fe6080604052600436106100915760003560e01c806385dba8611161005957806385dba861146101525780638a72ea6a14610165578063a6d23e1014610197578063ac307773146101ac578063ef706adf146101c157610091565b806305b7cdd3146100a35780631115c24d146100c55780631ee7d7e3146100f05780635cf0346f146101105780638387c6e114610132575b34801561009d57600080fd5b50600080fd5b3480156100af57600080fd5b506100c36100be3660046109a1565b6101e1565b005b3480156100d157600080fd5b506100da610348565b6040516100e79190610c71565b60405180910390f35b3480156100fc57600080fd5b506100da61010b366004610943565b61034e565b34801561011c57600080fd5b50610125610360565b6040516100e791906109c2565b34801561013e57600080fd5b506100da61014d366004610943565b61036f565b6100c3610160366004610971565b610381565b34801561017157600080fd5b50610185610180366004610971565b6106d4565b6040516100e796959493929190610c99565b3480156101a357600080fd5b5061012561071a565b3480156101b857600080fd5b506100c3610729565b3480156101cd57600080fd5b506100c36101dc366004610971565b6107e8565b6006546040516323b872dd60e01b81526001600160a01b03909116906323b872dd90610215903390309087906004016109d6565b600060405180830381600087803b15801561022f57600080fd5b505af1158015610243573d6000803e3d6000fd5b50506002805492509050600061025883610d3c565b90915550506040805160c081018252600280548083526020808401878152338587018181526060870189815260006080890181815260a08a018281529782526003968790528a822099518a55945160018a0155915188880180546001600160a01b0319166001600160a01b039092169190911790555193870193909355905160049095018054935160ff199094169515159590951761ff0019166101009315159390930292909217909355905492517f93e711896d4ef527d199d7e101922e20f918cbb248a0fb0977c52fda24aa1f1d9361033c9390928792909187918190610c99565b60405180910390a15050565b60025481565b60056020526000908152604090205481565b6000546001600160a01b031681565b60046020526000908152604090205481565b6000818152600360205260409020805482146103b85760405162461bcd60e51b81526004016103af90610bf8565b60405180910390fd5b60028101546001600160a01b03163314156103e55760405162461bcd60e51b81526004016103af90610a13565b600481015460ff161561040a5760405162461bcd60e51b81526004016103af90610b26565b6004810154610100900460ff16156104345760405162461bcd60e51b81526004016103af90610a58565b806003015434146104575760405162461bcd60e51b81526004016103af90610b68565b60065460018201546040516323b872dd60e01b81526001600160a01b03909216916323b872dd9161048e91309133916004016109d6565b600060405180830381600087803b1580156104a857600080fd5b505af11580156104bc573d6000803e3d6000fd5b5050506004808301805460ff1916600190811790915583015460065460405163ef8a8cb160e01b81529193506000926001600160a01b039091169163ef8a8cb19161050991869101610c71565b60206040518083038186803b15801561052157600080fd5b505afa158015610535573d6000803e3d6000fd5b505050506040513d601f19601f820116820180604052508101906105599190610989565b60065460405163028ba63960e21b81529192506000916001600160a01b0390911690630a2e98e49061058f908690600401610c71565b60206040518083038186803b1580156105a757600080fd5b505afa1580156105bb573d6000803e3d6000fd5b505050506040513d601f19601f820116820180604052508101906105df9190610989565b905034600068056bc75e2d631000006105f88486610cce565b6106029084610d06565b61060c9190610ce6565b9050600061061a8284610d25565b60028801546001600160a01b031660009081526004602052604081208054929350839290919061064b908490610cce565b90915550506001546040516001600160a01b039091169083156108fc029084906000818181858888f1935050505015801561068a573d6000803e3d6000fd5b507fd9157c065213ada613694e84b1e27fe2efd62d85c6b82bd6c842a4999491e72a888860010154336040516106c293929190610c7a565b60405180910390a15050505050505050565b600360208190526000918252604090912080546001820154600283015493830154600490930154919390926001600160a01b039091169160ff8082169161010090041686565b6001546001600160a01b031681565b336000908152600460205260409020546107555760405162461bcd60e51b81526004016103af90610ae2565b3360008181526004602052604080822054905181156108fc0292818181858888f1935050505015801561078c573d6000803e3d6000fd5b5033600081815260046020526040908190205490517f4f0554190111f93f8c2ccef2cc41473f187d7f29ff5a5c308ca41f9dfe4e989a926107ce9290916109fa565b60405180910390a133600090815260046020526040812055565b6000818152600360205260409020805482146108165760405162461bcd60e51b81526004016103af90610bf8565b60028101546001600160a01b031633146108425760405162461bcd60e51b81526004016103af90610c26565b600481015460ff16156108675760405162461bcd60e51b81526004016103af90610a9d565b6004810154610100900460ff16156108915760405162461bcd60e51b81526004016103af90610bb6565b60065460018201546040516323b872dd60e01b81526001600160a01b03909216916323b872dd916108c891309133916004016109d6565b600060405180830381600087803b1580156108e257600080fd5b505af11580156108f6573d6000803e3d6000fd5b50505060048201805461ff0019166101001790555060018101546040517f5b166b4d0498ff8c4719999cb6154c5d197e6f020f9fbfcf9d347f84576cfab79161033c918591903390610c7a565b600060208284031215610954578081fd5b81356001600160a01b038116811461096a578182fd5b9392505050565b600060208284031215610982578081fd5b5035919050565b60006020828403121561099a578081fd5b5051919050565b600080604083850312156109b3578081fd5b50508035926020909101359150565b6001600160a01b0391909116815260200190565b6001600160a01b039384168152919092166020820152604081019190915260600190565b6001600160a01b03929092168252602082015260400190565b60208082526025908201527f546865206f776e6572206f6620746865206f666665722063616e6e6f742066696040820152641b1b081a5d60da1b606082015260800190565b60208082526025908201527f412063616e63656c6c6564206f666665722063616e6e6f742062652066756c666040820152641a5b1b195960da1b606082015260800190565b60208082526025908201527f412066756c66696c6c6564206f666665722063616e6e6f742062652063616e63604082015264195b1b195960da1b606082015260800190565b60208082526024908201527f54686973207573657220686173206e6f2066756e647320746f20626520636c616040820152631a5b595960e21b606082015260800190565b60208082526022908201527f416e206f666665722063616e6e6f742062652066756c66696c6c656420747769604082015261636560f01b606082015260800190565b6020808252602e908201527f5468652045544820616d6f756e742073686f756c64206d61746368207769746860408201526d20746865204e465420507269636560901b606082015260800190565b60208082526022908201527f416e206f666665722063616e6e6f742062652063616e63656c6c656420747769604082015261636560f01b606082015260800190565b602080825260149082015273151a19481bd999995c881b5d5cdd08195e1a5cdd60621b604082015260600190565b6020808252602b908201527f546865206f666665722063616e206f6e6c792062652063616e63656c6564206260408201526a3c903a34329037bbb732b960a91b606082015260800190565b90815260200190565b92835260208301919091526001600160a01b0316604082015260600190565b95865260208601949094526001600160a01b03929092166040850152606084015215156080830152151560a082015260c00190565b60008219821115610ce157610ce1610d57565b500190565b600082610d0157634e487b7160e01b81526012600452602481fd5b500490565b6000816000190483118215151615610d2057610d20610d57565b500290565b600082821015610d3757610d37610d57565b500390565b6000600019821415610d5057610d50610d57565b5060010190565b634e487b7160e01b600052601160045260246000fdfea2646970667358221220af325eda719bfcccf63a2a6f1c817cc2122477bc80e55addafa0345a63e3c5d164736f6c63430008000033",
  "linkReferences": {},
  "deployedLinkReferences": {}
}