{
  "_format": "hh-sol-artifact-1",
  "contractName": "NFTMarketplace",
  "sourceName": "src/contracts/NFTMarketplace.sol",
  "abi": [
    {
      "inputs": [
        {
          "internalType": "address",
          "name": "_nftCollection",
          "type": "address"
        },
        {
          "internalType": "address",
          "name": "_payments",
          "type": "address"
        }
      ],
      "stateMutability": "nonpayable",
      "type": "constructor"
    },
    {
      "anonymous": false,
      "inputs": [
        {
          "indexed": false,
          "internalType": "address",
          "name": "user",
          "type": "address"
        },
        {
          "indexed": false,
          "internalType": "uint256",
          "name": "amount",
          "type": "uint256"
        }
      ],
      "name": "ClaimFunds",
      "type": "event"
    },
    {
      "anonymous": false,
      "inputs": [
        {
          "indexed": false,
          "internalType": "uint256",
          "name": "offerId",
          "type": "uint256"
        },
        {
          "indexed": false,
          "internalType": "uint256",
          "name": "id",
          "type": "uint256"
        },
        {
          "indexed": false,
          "internalType": "address",
          "name": "user",
          "type": "address"
        },
        {
          "indexed": false,
          "internalType": "uint256",
          "name": "price",
          "type": "uint256"
        },
        {
          "indexed": false,
          "internalType": "bool",
          "name": "fulfilled",
          "type": "bool"
        },
        {
          "indexed": false,
          "internalType": "bool",
          "name": "cancelled",
          "type": "bool"
        }
      ],
      "name": "Offer",
      "type": "event"
    },
    {
      "anonymous": false,
      "inputs": [
        {
          "indexed": false,
          "internalType": "uint256",
          "name": "offerId",
          "type": "uint256"
        },
        {
          "indexed": false,
          "internalType": "uint256",
          "name": "id",
          "type": "uint256"
        },
        {
          "indexed": false,
          "internalType": "address",
          "name": "owner",
          "type": "address"
        }
      ],
      "name": "OfferCancelled",
      "type": "event"
    },
    {
      "anonymous": false,
      "inputs": [
        {
          "indexed": false,
          "internalType": "uint256",
          "name": "offerId",
          "type": "uint256"
        },
        {
          "indexed": false,
          "internalType": "uint256",
          "name": "id",
          "type": "uint256"
        },
        {
          "indexed": false,
          "internalType": "address",
          "name": "newOwner",
          "type": "address"
        }
      ],
      "name": "OfferFilled",
      "type": "event"
    },
    {
      "stateMutability": "nonpayable",
      "type": "fallback"
    },
    {
      "inputs": [],
      "name": "_tokenContractAddress",
      "outputs": [
        {
          "internalType": "address",
          "name": "",
          "type": "address"
        }
      ],
      "stateMutability": "view",
      "type": "function"
    },
    {
      "inputs": [
        {
          "internalType": "uint256",
          "name": "_offerId",
          "type": "uint256"
        }
      ],
      "name": "cancelOffer",
      "outputs": [],
      "stateMutability": "nonpayable",
      "type": "function"
    },
    {
      "inputs": [],
      "name": "claimFunds",
      "outputs": [],
      "stateMutability": "nonpayable",
      "type": "function"
    },
    {
      "inputs": [
        {
          "internalType": "uint256",
          "name": "_offerId",
          "type": "uint256"
        }
      ],
      "name": "fillOffer",
      "outputs": [],
      "stateMutability": "payable",
      "type": "function"
    },
    {
      "inputs": [
        {
          "internalType": "uint256",
          "name": "_id",
          "type": "uint256"
        },
        {
          "internalType": "uint256",
          "name": "_price",
          "type": "uint256"
        }
      ],
      "name": "makeOffer",
      "outputs": [],
      "stateMutability": "nonpayable",
      "type": "function"
    },
    {
      "inputs": [],
      "name": "offerCount",
      "outputs": [
        {
          "internalType": "uint256",
          "name": "",
          "type": "uint256"
        }
      ],
      "stateMutability": "view",
      "type": "function"
    },
    {
      "inputs": [
        {
          "internalType": "uint256",
          "name": "",
          "type": "uint256"
        }
      ],
      "name": "offers",
      "outputs": [
        {
          "internalType": "uint256",
          "name": "offerId",
          "type": "uint256"
        },
        {
          "internalType": "uint256",
          "name": "id",
          "type": "uint256"
        },
        {
          "internalType": "address",
          "name": "user",
          "type": "address"
        },
        {
          "internalType": "uint256",
          "name": "price",
          "type": "uint256"
        },
        {
          "internalType": "bool",
          "name": "fulfilled",
          "type": "bool"
        },
        {
          "internalType": "bool",
          "name": "cancelled",
          "type": "bool"
        }
      ],
      "stateMutability": "view",
      "type": "function"
    },
    {
      "inputs": [],
      "name": "payments",
      "outputs": [
        {
          "internalType": "address payable",
          "name": "",
          "type": "address"
        }
      ],
      "stateMutability": "view",
      "type": "function"
    },
    {
      "inputs": [
        {
          "internalType": "address",
          "name": "",
          "type": "address"
        }
      ],
      "name": "royaltiesFunds",
      "outputs": [
        {
          "internalType": "uint256",
          "name": "",
          "type": "uint256"
        }
      ],
      "stateMutability": "view",
      "type": "function"
    },
    {
      "inputs": [
        {
          "internalType": "address",
          "name": "",
          "type": "address"
        }
      ],
      "name": "userFunds",
      "outputs": [
        {
          "internalType": "uint256",
          "name": "",
          "type": "uint256"
        }
      ],
      "stateMutability": "view",
      "type": "function"
    }
  ],
  "bytecode": "0x6080604052600080546001600160a01b031916905534801561002057600080fd5b50604051610c95380380610c9583398101604081905261003f9161009b565b600180546001600160a01b039283166001600160a01b031991821617909155600080549390921692811683179091556006805490911690911790556100cd565b80516001600160a01b038116811461009657600080fd5b919050565b600080604083850312156100ad578182fd5b6100b68361007f565b91506100c46020840161007f565b90509250929050565b610bb9806100dc6000396000f3fe6080604052600436106100915760003560e01c80638a72ea6a116100595780638a72ea6a14610145578063a6d23e1014610177578063ac3077731461018c578063c6fe2ad9146101a1578063ef706adf146101c157610091565b806305b7cdd3146100a35780631115c24d146100c55780635cf0346f146100f05780638387c6e11461011257806385dba86114610132575b34801561009d57600080fd5b50600080fd5b3480156100af57600080fd5b506100c36100be36600461080d565b6101e1565b005b3480156100d157600080fd5b506100da610348565b6040516100e79190610add565b60405180910390f35b3480156100fc57600080fd5b5061010561034e565b6040516100e7919061082e565b34801561011e57600080fd5b506100da61012d3660046107c7565b61035d565b6100c36101403660046107f5565b61036f565b34801561015157600080fd5b506101656101603660046107f5565b61053a565b6040516100e796959493929190610b05565b34801561018357600080fd5b50610105610580565b34801561019857600080fd5b506100c361058f565b3480156101ad57600080fd5b506100da6101bc3660046107c7565b61065a565b3480156101cd57600080fd5b506100c36101dc3660046107f5565b61066c565b6006546040516323b872dd60e01b81526001600160a01b03909116906323b872dd906102159033903090879060040161085b565b600060405180830381600087803b15801561022f57600080fd5b505af1158015610243573d6000803e3d6000fd5b50506002805492509050600061025883610b52565b90915550506040805160c081018252600280548083526020808401878152338587018181526060870189815260006080890181815260a08a018281529782526003968790528a822099518a55945160018a0155915188880180546001600160a01b0319166001600160a01b039092169190911790555193870193909355905160049095018054935160ff199094169515159590951761ff0019166101009315159390930292909217909355905492517f93e711896d4ef527d199d7e101922e20f918cbb248a0fb0977c52fda24aa1f1d9361033c9390928792909187918190610b05565b60405180910390a15050565b60025481565b6000546001600160a01b031681565b60046020526000908152604090205481565b6000818152600360205260409020805482146103a65760405162461bcd60e51b815260040161039d90610a64565b60405180910390fd5b60028101546001600160a01b03163314156103d35760405162461bcd60e51b815260040161039d9061087f565b600481015460ff16156103f85760405162461bcd60e51b815260040161039d90610992565b6004810154610100900460ff16156104225760405162461bcd60e51b815260040161039d906108c4565b806003015434146104455760405162461bcd60e51b815260040161039d906109d4565b60065460018201546040516323b872dd60e01b81526001600160a01b03909216916323b872dd9161047c913091339160040161085b565b600060405180830381600087803b15801561049657600080fd5b505af11580156104aa573d6000803e3d6000fd5b5050506004808301805460ff1916600117905560028301546001600160a01b0316600090815260209190915260408120805434935083928392916104ef908490610b3a565b909155505060018301546040517fd9157c065213ada613694e84b1e27fe2efd62d85c6b82bd6c842a4999491e72a9161052c918791903390610ae6565b60405180910390a150505050565b600360208190526000918252604090912080546001820154600283015493830154600490930154919390926001600160a01b039091169160ff8082169161010090041686565b6001546001600160a01b031681565b336000908152600460205260409020546105bb5760405162461bcd60e51b815260040161039d9061094e565b600154336000908152600460205260408082205490516001600160a01b039093169281156108fc0292818181858888f19350505050158015610601573d6000803e3d6000fd5b5060015433600090815260046020526040908190205490517f4f0554190111f93f8c2ccef2cc41473f187d7f29ff5a5c308ca41f9dfe4e989a92610650926001600160a01b0390911691610842565b60405180910390a1565b60056020526000908152604090205481565b60008181526003602052604090208054821461069a5760405162461bcd60e51b815260040161039d90610a64565b60028101546001600160a01b031633146106c65760405162461bcd60e51b815260040161039d90610a92565b600481015460ff16156106eb5760405162461bcd60e51b815260040161039d90610909565b6004810154610100900460ff16156107155760405162461bcd60e51b815260040161039d90610a22565b60065460018201546040516323b872dd60e01b81526001600160a01b03909216916323b872dd9161074c913091339160040161085b565b600060405180830381600087803b15801561076657600080fd5b505af115801561077a573d6000803e3d6000fd5b50505060048201805461ff0019166101001790555060018101546040517f5b166b4d0498ff8c4719999cb6154c5d197e6f020f9fbfcf9d347f84576cfab79161033c918591903390610ae6565b6000602082840312156107d8578081fd5b81356001600160a01b03811681146107ee578182fd5b9392505050565b600060208284031215610806578081fd5b5035919050565b6000806040838503121561081f578081fd5b50508035926020909101359150565b6001600160a01b0391909116815260200190565b6001600160a01b03929092168252602082015260400190565b6001600160a01b039384168152919092166020820152604081019190915260600190565b60208082526025908201527f546865206f776e6572206f6620746865206f666665722063616e6e6f742066696040820152641b1b081a5d60da1b606082015260800190565b60208082526025908201527f412063616e63656c6c6564206f666665722063616e6e6f742062652066756c666040820152641a5b1b195960da1b606082015260800190565b60208082526025908201527f412066756c66696c6c6564206f666665722063616e6e6f742062652063616e63604082015264195b1b195960da1b606082015260800190565b60208082526024908201527f54686973207573657220686173206e6f2066756e647320746f20626520636c616040820152631a5b595960e21b606082015260800190565b60208082526022908201527f416e206f666665722063616e6e6f742062652066756c66696c6c656420747769604082015261636560f01b606082015260800190565b6020808252602e908201527f5468652045544820616d6f756e742073686f756c64206d61746368207769746860408201526d20746865204e465420507269636560901b606082015260800190565b60208082526022908201527f416e206f666665722063616e6e6f742062652063616e63656c6c656420747769604082015261636560f01b606082015260800190565b602080825260149082015273151a19481bd999995c881b5d5cdd08195e1a5cdd60621b604082015260600190565b6020808252602b908201527f546865206f666665722063616e206f6e6c792062652063616e63656c6564206260408201526a3c903a34329037bbb732b960a91b606082015260800190565b90815260200190565b92835260208301919091526001600160a01b0316604082015260600190565b95865260208601949094526001600160a01b03929092166040850152606084015215156080830152151560a082015260c00190565b60008219821115610b4d57610b4d610b6d565b500190565b6000600019821415610b6657610b66610b6d565b5060010190565b634e487b7160e01b600052601160045260246000fdfea2646970667358221220593e1551347ceb1525c64924a6b055c87567a850a37069f00003009be44ca73f64736f6c63430008000033",
  "linkReferences": {},
  "deployedLinkReferences": {}
}