{
  "_format": "hh-sol-artifact-1",
  "contractName": "NFTMarketplace",
  "sourceName": "src/contracts/NFTMarketplace.sol",
  "abi": [
    {
      "inputs": [
        {
          "internalType": "address payable",
          "name": "_nftCollection",
          "type": "address"
        }
      ],
      "stateMutability": "nonpayable",
      "type": "constructor"
    },
    {
      "anonymous": false,
      "inputs": [
        {
          "indexed": false,
          "internalType": "address",
          "name": "user",
          "type": "address"
        },
        {
          "indexed": false,
          "internalType": "uint256",
          "name": "amount",
          "type": "uint256"
        }
      ],
      "name": "ClaimFunds",
      "type": "event"
    },
    {
      "anonymous": false,
      "inputs": [
        {
          "indexed": false,
          "internalType": "uint256",
          "name": "offerId",
          "type": "uint256"
        },
        {
          "indexed": false,
          "internalType": "uint256",
          "name": "id",
          "type": "uint256"
        },
        {
          "indexed": false,
          "internalType": "address",
          "name": "user",
          "type": "address"
        },
        {
          "indexed": false,
          "internalType": "uint256",
          "name": "price",
          "type": "uint256"
        },
        {
          "indexed": false,
          "internalType": "bool",
          "name": "fulfilled",
          "type": "bool"
        },
        {
          "indexed": false,
          "internalType": "bool",
          "name": "cancelled",
          "type": "bool"
        }
      ],
      "name": "Offer",
      "type": "event"
    },
    {
      "anonymous": false,
      "inputs": [
        {
          "indexed": false,
          "internalType": "uint256",
          "name": "offerId",
          "type": "uint256"
        },
        {
          "indexed": false,
          "internalType": "uint256",
          "name": "id",
          "type": "uint256"
        },
        {
          "indexed": false,
          "internalType": "address",
          "name": "owner",
          "type": "address"
        }
      ],
      "name": "OfferCancelled",
      "type": "event"
    },
    {
      "anonymous": false,
      "inputs": [
        {
          "indexed": false,
          "internalType": "uint256",
          "name": "offerId",
          "type": "uint256"
        },
        {
          "indexed": false,
          "internalType": "uint256",
          "name": "id",
          "type": "uint256"
        },
        {
          "indexed": false,
          "internalType": "address",
          "name": "newOwner",
          "type": "address"
        }
      ],
      "name": "OfferFilled",
      "type": "event"
    },
    {
      "anonymous": false,
      "inputs": [
        {
          "indexed": false,
          "internalType": "uint256",
          "name": "offerId",
          "type": "uint256"
        },
        {
          "indexed": false,
          "internalType": "uint256",
          "name": "amount",
          "type": "uint256"
        }
      ],
      "name": "RoyaltiesPaid",
      "type": "event"
    },
    {
      "stateMutability": "nonpayable",
      "type": "fallback"
    },
    {
      "inputs": [],
      "name": "_tokenContractAddress",
      "outputs": [
        {
          "internalType": "address",
          "name": "",
          "type": "address"
        }
      ],
      "stateMutability": "view",
      "type": "function"
    },
    {
      "inputs": [
        {
          "internalType": "uint256",
          "name": "_offerId",
          "type": "uint256"
        }
      ],
      "name": "cancelOffer",
      "outputs": [],
      "stateMutability": "nonpayable",
      "type": "function"
    },
    {
      "inputs": [],
      "name": "claimFunds",
      "outputs": [],
      "stateMutability": "nonpayable",
      "type": "function"
    },
    {
      "inputs": [
        {
          "internalType": "uint256",
          "name": "_offerId",
          "type": "uint256"
        }
      ],
      "name": "fillOffer",
      "outputs": [],
      "stateMutability": "payable",
      "type": "function"
    },
    {
      "inputs": [
        {
          "internalType": "uint256",
          "name": "_id",
          "type": "uint256"
        },
        {
          "internalType": "uint256",
          "name": "_price",
          "type": "uint256"
        }
      ],
      "name": "makeOffer",
      "outputs": [],
      "stateMutability": "nonpayable",
      "type": "function"
    },
    {
      "inputs": [],
      "name": "offerCount",
      "outputs": [
        {
          "internalType": "uint256",
          "name": "",
          "type": "uint256"
        }
      ],
      "stateMutability": "view",
      "type": "function"
    },
    {
      "inputs": [
        {
          "internalType": "uint256",
          "name": "",
          "type": "uint256"
        }
      ],
      "name": "offers",
      "outputs": [
        {
          "internalType": "uint256",
          "name": "offerId",
          "type": "uint256"
        },
        {
          "internalType": "uint256",
          "name": "id",
          "type": "uint256"
        },
        {
          "internalType": "address",
          "name": "user",
          "type": "address"
        },
        {
          "internalType": "uint256",
          "name": "price",
          "type": "uint256"
        },
        {
          "internalType": "bool",
          "name": "fulfilled",
          "type": "bool"
        },
        {
          "internalType": "bool",
          "name": "cancelled",
          "type": "bool"
        }
      ],
      "stateMutability": "view",
      "type": "function"
    },
    {
      "inputs": [
        {
          "internalType": "address",
          "name": "",
          "type": "address"
        }
      ],
      "name": "userFunds",
      "outputs": [
        {
          "internalType": "uint256",
          "name": "",
          "type": "uint256"
        }
      ],
      "stateMutability": "view",
      "type": "function"
    }
  ],
  "bytecode": "0x6080604052600080546001600160a01b031916905534801561002057600080fd5b50604051610e21380380610e2183398101604081905261003f9161006e565b600080546001600160a01b039092166001600160a01b031992831681179091556004805490921617905561009c565b60006020828403121561007f578081fd5b81516001600160a01b0381168114610095578182fd5b9392505050565b610d76806100ab6000396000f3fe60806040526004361061007b5760003560e01c806385dba8611161004e57806385dba8611461011c5780638a72ea6a1461012f578063ac30777314610161578063ef706adf146101765761007b565b806305b7cdd31461008d5780631115c24d146100af5780635cf0346f146100da5780638387c6e1146100fc575b34801561008757600080fd5b50600080fd5b34801561009957600080fd5b506100ad6100a8366004610983565b610196565b005b3480156100bb57600080fd5b506100c46102fb565b6040516100d19190610c6b565b60405180910390f35b3480156100e657600080fd5b506100ef610301565b6040516100d191906109a7565b34801561010857600080fd5b506100c4610117366004610902565b610310565b6100ad61012a36600461096b565b610322565b34801561013b57600080fd5b5061014f61014a36600461096b565b610511565b6040516100d196959493929190610c93565b34801561016d57600080fd5b506100ad610556565b34801561018257600080fd5b506100ad61019136600461096b565b610615565b600480546040516323b872dd60e01b81526001600160a01b03909116916323b872dd916101c991339130918891016109bb565b600060405180830381600087803b1580156101e357600080fd5b505af11580156101f7573d6000803e3d6000fd5b50506001805492509050600061020c83610cf7565b90915550506040805160c081018252600180548083526020808401878152338587018181526060870189815260006080890181815260a08a018281529782526002968790528a822099518a55945189890155915194880180546001600160a01b0319166001600160a01b039096169590951790945592516003870155905160049095018054935160ff199094169515159590951761ff0019166101009315159390930292909217909355905492517f93e711896d4ef527d199d7e101922e20f918cbb248a0fb0977c52fda24aa1f1d936102ef9390928792909187918190610c93565b60405180910390a15050565b60015481565b6000546001600160a01b031681565b60036020526000908152604090205481565b6000818152600260205260409020805482146103595760405162461bcd60e51b815260040161035090610bf2565b60405180910390fd5b60028101546001600160a01b03163314156103865760405162461bcd60e51b815260040161035090610a0d565b600481015460ff16156103ab5760405162461bcd60e51b815260040161035090610b20565b6004810154610100900460ff16156103d55760405162461bcd60e51b815260040161035090610a52565b806003015434146103f85760405162461bcd60e51b815260040161035090610b62565b6004805460018301546040516323b872dd60e01b81526001600160a01b03909216926323b872dd9261042e9230923392016109bb565b600060405180830381600087803b15801561044857600080fd5b505af115801561045c573d6000803e3d6000fd5b50505060048201805460ff191660011790555060005434908190610488906001600160a01b031661076f565b1561049a5761049784346107fe565b90505b60028301546001600160a01b0316600090815260036020526040812080548392906104c6908490610cc8565b909155505060018301546040517fd9157c065213ada613694e84b1e27fe2efd62d85c6b82bd6c842a4999491e72a91610503918791903390610c74565b60405180910390a150505050565b6002602081905260009182526040909120805460018201549282015460038301546004909301549193926001600160a01b039091169160ff8082169161010090041686565b336000908152600360205260409020546105825760405162461bcd60e51b815260040161035090610adc565b3360008181526003602052604080822054905181156108fc0292818181858888f193505050501580156105b9573d6000803e3d6000fd5b5033600081815260036020526040908190205490517f4f0554190111f93f8c2ccef2cc41473f187d7f29ff5a5c308ca41f9dfe4e989a926105fb9290916109df565b60405180910390a133600090815260036020526040812055565b6000818152600260205260409020805482146106435760405162461bcd60e51b815260040161035090610bf2565b60028101546001600160a01b0316331461066f5760405162461bcd60e51b815260040161035090610c20565b600481015460ff16156106945760405162461bcd60e51b815260040161035090610a97565b6004810154610100900460ff16156106be5760405162461bcd60e51b815260040161035090610bb0565b6004805460018301546040516323b872dd60e01b81526001600160a01b03909216926323b872dd926106f49230923392016109bb565b600060405180830381600087803b15801561070e57600080fd5b505af1158015610722573d6000803e3d6000fd5b50505060048201805461ff0019166101001790555060018101546040517f5b166b4d0498ff8c4719999cb6154c5d197e6f020f9fbfcf9d347f84576cfab7916102ef918591903390610c74565b6040516301ffc9a760e01b815260009081906001600160a01b038416906301ffc9a7906107a79063152a902d60e11b906004016109f8565b60206040518083038186803b1580156107bf57600080fd5b505afa1580156107d3573d6000803e3d6000fd5b505050506040513d601f19601f820116820180604052508101906107f7919061094b565b9392505050565b600480546040516319deda6d60e31b8152600092839283926001600160a01b039091169163cef6d3689161083491889101610c6b565b604080518083038186803b15801561084b57600080fd5b505afa15801561085f573d6000803e3d6000fd5b505050506040513d601f19601f82011682018060405250810190610883919061091e565b909250905060006108948286610ce0565b905081156108f957826001600160a01b0316826040516108b3906109a4565b60006040518083038185875af1925050503d80600081146108f0576040519150601f19603f3d011682016040523d82523d6000602084013e6108f5565b606091505b5050505b95945050505050565b600060208284031215610913578081fd5b81356107f781610d28565b60008060408385031215610930578081fd5b825161093b81610d28565b6020939093015192949293505050565b60006020828403121561095c578081fd5b815180151581146107f7578182fd5b60006020828403121561097c578081fd5b5035919050565b60008060408385031215610995578182fd5b50508035926020909101359150565b90565b6001600160a01b0391909116815260200190565b6001600160a01b039384168152919092166020820152604081019190915260600190565b6001600160a01b03929092168252602082015260400190565b6001600160e01b031991909116815260200190565b60208082526025908201527f546865206f776e6572206f6620746865206f666665722063616e6e6f742066696040820152641b1b081a5d60da1b606082015260800190565b60208082526025908201527f412063616e63656c6c6564206f666665722063616e6e6f742062652066756c666040820152641a5b1b195960da1b606082015260800190565b60208082526025908201527f412066756c66696c6c6564206f666665722063616e6e6f742062652063616e63604082015264195b1b195960da1b606082015260800190565b60208082526024908201527f54686973207573657220686173206e6f2066756e647320746f20626520636c616040820152631a5b595960e21b606082015260800190565b60208082526022908201527f416e206f666665722063616e6e6f742062652066756c66696c6c656420747769604082015261636560f01b606082015260800190565b6020808252602e908201527f5468652045544820616d6f756e742073686f756c64206d61746368207769746860408201526d20746865204e465420507269636560901b606082015260800190565b60208082526022908201527f416e206f666665722063616e6e6f742062652063616e63656c6c656420747769604082015261636560f01b606082015260800190565b602080825260149082015273151a19481bd999995c881b5d5cdd08195e1a5cdd60621b604082015260600190565b6020808252602b908201527f546865206f666665722063616e206f6e6c792062652063616e63656c6564206260408201526a3c903a34329037bbb732b960a91b606082015260800190565b90815260200190565b92835260208301919091526001600160a01b0316604082015260600190565b95865260208601949094526001600160a01b03929092166040850152606084015215156080830152151560a082015260c00190565b60008219821115610cdb57610cdb610d12565b500190565b600082821015610cf257610cf2610d12565b500390565b6000600019821415610d0b57610d0b610d12565b5060010190565b634e487b7160e01b600052601160045260246000fd5b6001600160a01b0381168114610d3d57600080fd5b5056fea2646970667358221220cb9ad18d0a3c1f65ee0d38e6d0e59ba54ae46114e0a29257cb91669a372dc01c64736f6c63430008000033",
  "linkReferences": {},
  "deployedLinkReferences": {}
}