{
  "_format": "hh-sol-artifact-1",
  "contractName": "NFTCollection",
  "sourceName": "src/contracts/NFTCollection.sol",
  "abi": [
    {
      "inputs": [
        {
          "internalType": "address",
          "name": "initialRoyaltiesReceiver",
          "type": "address"
        }
      ],
      "stateMutability": "nonpayable",
      "type": "constructor"
    },
    {
      "anonymous": false,
      "inputs": [
        {
          "indexed": true,
          "internalType": "address",
          "name": "owner",
          "type": "address"
        },
        {
          "indexed": true,
          "internalType": "address",
          "name": "approved",
          "type": "address"
        },
        {
          "indexed": true,
          "internalType": "uint256",
          "name": "tokenId",
          "type": "uint256"
        }
      ],
      "name": "Approval",
      "type": "event"
    },
    {
      "anonymous": false,
      "inputs": [
        {
          "indexed": true,
          "internalType": "address",
          "name": "owner",
          "type": "address"
        },
        {
          "indexed": true,
          "internalType": "address",
          "name": "operator",
          "type": "address"
        },
        {
          "indexed": false,
          "internalType": "bool",
          "name": "approved",
          "type": "bool"
        }
      ],
      "name": "ApprovalForAll",
      "type": "event"
    },
    {
      "anonymous": false,
      "inputs": [
        {
          "indexed": true,
          "internalType": "address",
          "name": "previousOwner",
          "type": "address"
        },
        {
          "indexed": true,
          "internalType": "address",
          "name": "newOwner",
          "type": "address"
        }
      ],
      "name": "OwnershipTransferred",
      "type": "event"
    },
    {
      "anonymous": false,
      "inputs": [
        {
          "indexed": true,
          "internalType": "address",
          "name": "from",
          "type": "address"
        },
        {
          "indexed": true,
          "internalType": "address",
          "name": "to",
          "type": "address"
        },
        {
          "indexed": true,
          "internalType": "uint256",
          "name": "tokenId",
          "type": "uint256"
        }
      ],
      "name": "Transfer",
      "type": "event"
    },
    {
      "inputs": [
        {
          "internalType": "address",
          "name": "to",
          "type": "address"
        },
        {
          "internalType": "uint256",
          "name": "tokenId",
          "type": "uint256"
        }
      ],
      "name": "approve",
      "outputs": [],
      "stateMutability": "nonpayable",
      "type": "function"
    },
    {
      "inputs": [
        {
          "internalType": "address",
          "name": "owner",
          "type": "address"
        }
      ],
      "name": "balanceOf",
      "outputs": [
        {
          "internalType": "uint256",
          "name": "",
          "type": "uint256"
        }
      ],
      "stateMutability": "view",
      "type": "function"
    },
    {
      "inputs": [],
      "name": "decimals",
      "outputs": [
        {
          "internalType": "uint8",
          "name": "",
          "type": "uint8"
        }
      ],
      "stateMutability": "view",
      "type": "function"
    },
    {
      "inputs": [
        {
          "internalType": "uint256",
          "name": "tokenId",
          "type": "uint256"
        }
      ],
      "name": "getApproved",
      "outputs": [
        {
          "internalType": "address",
          "name": "",
          "type": "address"
        }
      ],
      "stateMutability": "view",
      "type": "function"
    },
    {
      "inputs": [
        {
          "internalType": "address",
          "name": "owner",
          "type": "address"
        },
        {
          "internalType": "address",
          "name": "operator",
          "type": "address"
        }
      ],
      "name": "isApprovedForAll",
      "outputs": [
        {
          "internalType": "bool",
          "name": "",
          "type": "bool"
        }
      ],
      "stateMutability": "view",
      "type": "function"
    },
    {
      "inputs": [],
      "name": "name",
      "outputs": [
        {
          "internalType": "string",
          "name": "",
          "type": "string"
        }
      ],
      "stateMutability": "view",
      "type": "function"
    },
    {
      "inputs": [],
      "name": "owner",
      "outputs": [
        {
          "internalType": "address",
          "name": "",
          "type": "address"
        }
      ],
      "stateMutability": "view",
      "type": "function"
    },
    {
      "inputs": [
        {
          "internalType": "uint256",
          "name": "tokenId",
          "type": "uint256"
        }
      ],
      "name": "ownerOf",
      "outputs": [
        {
          "internalType": "address",
          "name": "",
          "type": "address"
        }
      ],
      "stateMutability": "view",
      "type": "function"
    },
    {
      "inputs": [],
      "name": "renounceOwnership",
      "outputs": [],
      "stateMutability": "nonpayable",
      "type": "function"
    },
    {
      "inputs": [],
      "name": "royaltiesPercentage",
      "outputs": [
        {
          "internalType": "uint256",
          "name": "",
          "type": "uint256"
        }
      ],
      "stateMutability": "view",
      "type": "function"
    },
    {
      "inputs": [],
      "name": "royaltiesReceiver",
      "outputs": [
        {
          "internalType": "address",
          "name": "",
          "type": "address"
        }
      ],
      "stateMutability": "nonpayable",
      "type": "function"
    },
    {
      "inputs": [
        {
          "internalType": "uint256",
          "name": "_salePrice",
          "type": "uint256"
        }
      ],
      "name": "royaltyInfo",
      "outputs": [
        {
          "internalType": "address",
          "name": "receiver",
          "type": "address"
        },
        {
          "internalType": "uint256",
          "name": "royaltyAmount",
          "type": "uint256"
        }
      ],
      "stateMutability": "view",
      "type": "function"
    },
    {
      "inputs": [
        {
          "internalType": "string",
          "name": "_tokenURI",
          "type": "string"
        }
      ],
      "name": "safeMint",
      "outputs": [],
      "stateMutability": "nonpayable",
      "type": "function"
    },
    {
      "inputs": [
        {
          "internalType": "address",
          "name": "from",
          "type": "address"
        },
        {
          "internalType": "address",
          "name": "to",
          "type": "address"
        },
        {
          "internalType": "uint256",
          "name": "tokenId",
          "type": "uint256"
        }
      ],
      "name": "safeTransferFrom",
      "outputs": [],
      "stateMutability": "nonpayable",
      "type": "function"
    },
    {
      "inputs": [
        {
          "internalType": "address",
          "name": "from",
          "type": "address"
        },
        {
          "internalType": "address",
          "name": "to",
          "type": "address"
        },
        {
          "internalType": "uint256",
          "name": "tokenId",
          "type": "uint256"
        },
        {
          "internalType": "bytes",
          "name": "_data",
          "type": "bytes"
        }
      ],
      "name": "safeTransferFrom",
      "outputs": [],
      "stateMutability": "nonpayable",
      "type": "function"
    },
    {
      "inputs": [
        {
          "internalType": "address",
          "name": "operator",
          "type": "address"
        },
        {
          "internalType": "bool",
          "name": "approved",
          "type": "bool"
        }
      ],
      "name": "setApprovalForAll",
      "outputs": [],
      "stateMutability": "nonpayable",
      "type": "function"
    },
    {
      "inputs": [
        {
          "internalType": "address",
          "name": "newRoyaltiesReceiver",
          "type": "address"
        }
      ],
      "name": "setRoyaltiesReceiver",
      "outputs": [],
      "stateMutability": "nonpayable",
      "type": "function"
    },
    {
      "inputs": [
        {
          "internalType": "bytes4",
          "name": "interfaceId",
          "type": "bytes4"
        }
      ],
      "name": "supportsInterface",
      "outputs": [
        {
          "internalType": "bool",
          "name": "",
          "type": "bool"
        }
      ],
      "stateMutability": "view",
      "type": "function"
    },
    {
      "inputs": [],
      "name": "symbol",
      "outputs": [
        {
          "internalType": "string",
          "name": "",
          "type": "string"
        }
      ],
      "stateMutability": "view",
      "type": "function"
    },
    {
      "inputs": [
        {
          "internalType": "uint256",
          "name": "index",
          "type": "uint256"
        }
      ],
      "name": "tokenByIndex",
      "outputs": [
        {
          "internalType": "uint256",
          "name": "",
          "type": "uint256"
        }
      ],
      "stateMutability": "view",
      "type": "function"
    },
    {
      "inputs": [
        {
          "internalType": "address",
          "name": "owner",
          "type": "address"
        },
        {
          "internalType": "uint256",
          "name": "index",
          "type": "uint256"
        }
      ],
      "name": "tokenOfOwnerByIndex",
      "outputs": [
        {
          "internalType": "uint256",
          "name": "",
          "type": "uint256"
        }
      ],
      "stateMutability": "view",
      "type": "function"
    },
    {
      "inputs": [
        {
          "internalType": "uint256",
          "name": "tokenId",
          "type": "uint256"
        }
      ],
      "name": "tokenURI",
      "outputs": [
        {
          "internalType": "string",
          "name": "",
          "type": "string"
        }
      ],
      "stateMutability": "view",
      "type": "function"
    },
    {
      "inputs": [
        {
          "internalType": "uint256",
          "name": "",
          "type": "uint256"
        }
      ],
      "name": "tokenURIs",
      "outputs": [
        {
          "internalType": "string",
          "name": "",
          "type": "string"
        }
      ],
      "stateMutability": "view",
      "type": "function"
    },
    {
      "inputs": [],
      "name": "totalSupply",
      "outputs": [
        {
          "internalType": "uint256",
          "name": "",
          "type": "uint256"
        }
      ],
      "stateMutability": "view",
      "type": "function"
    },
    {
      "inputs": [
        {
          "internalType": "address",
          "name": "from",
          "type": "address"
        },
        {
          "internalType": "address",
          "name": "to",
          "type": "address"
        },
        {
          "internalType": "uint256",
          "name": "tokenId",
          "type": "uint256"
        }
      ],
      "name": "transferFrom",
      "outputs": [],
      "stateMutability": "nonpayable",
      "type": "function"
    },
    {
      "inputs": [
        {
          "internalType": "address",
          "name": "newOwner",
          "type": "address"
        }
      ],
      "name": "transferOwnership",
      "outputs": [],
      "stateMutability": "nonpayable",
      "type": "function"
    }
  ],
  "bytecode": "0x6080604052600c805460ff191660121790553480156200001e57600080fd5b50604051620020f3380380620020f38339810160408190526200004191620001ed565b6040518060400160405280600e81526020016d36aa219021b7b63632b1ba34b7b760911b815250604051806040016040528060038152602001626d544360e81b8152506200009e62000098620000f360201b60201c565b620000f7565b8151620000b390600190602085019062000147565b508051620000c990600290602084019062000147565b5050600f80546001600160a01b0319166001600160a01b039390931692909217909155506200025a565b3390565b600080546001600160a01b038381166001600160a01b0319831681178455604051919092169283917f8be0079c531659141344cd1fd0a4f28419497f9722a3daafe3b4186f6b6457e09190a35050565b82805462000155906200021d565b90600052602060002090601f016020900481019282620001795760008555620001c4565b82601f106200019457805160ff1916838001178555620001c4565b82800160010185558215620001c4579182015b82811115620001c4578251825591602001919060010190620001a7565b50620001d2929150620001d6565b5090565b5b80821115620001d25760008155600101620001d7565b600060208284031215620001ff578081fd5b81516001600160a01b038116811462000216578182fd5b9392505050565b6002810460018216806200023257607f821691505b602082108114156200025457634e487b7160e01b600052602260045260246000fd5b50919050565b611e89806200026a6000396000f3fe608060405234801561001057600080fd5b506004361061018e5760003560e01c806370a08231116100de578063b514371511610097578063cafa8dfe11610071578063cafa8dfe14610334578063cef6d3681461033c578063e985e9c51461035d578063f2fde38b146103705761018e565b8063b5143715146102fb578063b88d4fde1461030e578063c87b56dd146103215761018e565b806370a08231146102b5578063715018a6146102c85780638da5cb5b146102d057806395d89b41146102d8578063a22cb465146102e0578063a3a51bd5146102f35761018e565b80632f745c591161014b5780634f6ccce7116101255780634f6ccce7146102695780636352211e1461027c578063695850fb1461028f5780636c8b703f146102a25761018e565b80632f745c591461022e578063313ce5671461024157806342842e0e146102565761018e565b806301ffc9a71461019357806306fdde03146101bc578063081812fc146101d1578063095ea7b3146101f157806318160ddd1461020657806323b872dd1461021b575b600080fd5b6101a66101a136600461168b565b610383565b6040516101b391906117d3565b60405180910390f35b6101c46103b0565b6040516101b391906117de565b6101e46101df366004611709565b610442565b6040516101b39190611769565b6102046101ff366004611662565b61048e565b005b61020e610526565b6040516101b39190611d25565b610204610229366004611574565b61052c565b61020e61023c366004611662565b610564565b6102496105b6565b6040516101b39190611d2e565b610204610264366004611574565b6105bf565b61020e610277366004611709565b6105da565b6101e461028a366004611709565b610635565b61020461029d3660046116c3565b61066a565b6101c46102b0366004611709565b610751565b61020e6102c3366004611521565b6107fd565b610204610841565b6101e461088c565b6101c461089b565b6102046102ee366004611628565b6108aa565b6101e4610978565b610204610309366004611521565b610987565b61020461031c3660046115af565b610a03565b6101c461032f366004611709565b610a42565b61020e610b07565b61034f61034a366004611709565b610b0c565b6040516101b39291906117ba565b6101a661036b366004611542565b610b3d565b61020461037e366004611521565b610b6b565b60006001600160e01b0319821663152a902d60e11b14806103a857506103a882610bdc565b90505b919050565b6060600180546103bf90611dd6565b80601f01602080910402602001604051908101604052809291908181526020018280546103eb90611dd6565b80156104385780601f1061040d57610100808354040283529160200191610438565b820191906000526020600020905b81548152906001019060200180831161041b57829003601f168201915b5050505050905090565b600061044d82610c01565b6104725760405162461bcd60e51b815260040161046990611b2e565b60405180910390fd5b506000908152600560205260409020546001600160a01b031690565b600061049982610635565b9050806001600160a01b0316836001600160a01b031614156104cd5760405162461bcd60e51b815260040161046990611c47565b806001600160a01b03166104df610c1e565b6001600160a01b031614806104fb57506104fb8161036b610c1e565b6105175760405162461bcd60e51b815260040161046990611a09565b6105218383610c22565b505050565b60095490565b61053d610537610c1e565b82610c90565b6105595760405162461bcd60e51b815260040161046990611c88565b610521838383610d15565b600061056f836107fd565b821061058d5760405162461bcd60e51b8152600401610469906117f1565b506001600160a01b03919091166000908152600760209081526040808320938352929052205490565b600c5460ff1681565b61052183838360405180602001604052806000815250610a03565b60006105e4610526565b82106106025760405162461bcd60e51b815260040161046990611cd9565b6009828154811061062357634e487b7160e01b600052603260045260246000fd5b90600052602060002001549050919050565b6000818152600360205260408120546001600160a01b0316806103a85760405162461bcd60e51b815260040161046990611ab0565b600d8160405161067a919061174d565b9081526040519081900360200190205460ff16156106aa5760405162461bcd60e51b8152600401610469906119d2565b600b805460018101825560009190915281516106ed917f0175b7a638427703f0dbe7bb9bbf987a2551717b34e79f33b5b1008d1fa01db901906020840190611401565b50600b546000818152600e60209081526040909120835161071092850190611401565b5061071b3382610e42565b6001600d8360405161072d919061174d565b908152604051908190036020019020805491151560ff199092169190911790555050565b600b818154811061076157600080fd5b90600052602060002001600091509050805461077c90611dd6565b80601f01602080910402602001604051908101604052809291908181526020018280546107a890611dd6565b80156107f55780601f106107ca576101008083540402835291602001916107f5565b820191906000526020600020905b8154815290600101906020018083116107d857829003601f168201915b505050505081565b60006001600160a01b0382166108255760405162461bcd60e51b815260040161046990611a66565b506001600160a01b031660009081526004602052604090205490565b610849610c1e565b6001600160a01b031661085a61088c565b6001600160a01b0316146108805760405162461bcd60e51b815260040161046990611b7a565b61088a6000610e60565b565b6000546001600160a01b031690565b6060600280546103bf90611dd6565b6108b2610c1e565b6001600160a01b0316826001600160a01b031614156108e35760405162461bcd60e51b81526004016104699061194f565b80600660006108f0610c1e565b6001600160a01b03908116825260208083019390935260409182016000908120918716808252919093529120805460ff191692151592909217909155610934610c1e565b6001600160a01b03167f17307eab39ab6107e8899845ad3d59bd9653f200f220920489ca2b5937696c318360405161096c91906117d3565b60405180910390a35050565b600f546001600160a01b031690565b61098f610c1e565b6001600160a01b03166109a061088c565b6001600160a01b0316146109c65760405162461bcd60e51b815260040161046990611b7a565b600f546001600160a01b03828116911614156109e157600080fd5b600f80546001600160a01b0319166001600160a01b0392909216919091179055565b610a14610a0e610c1e565b83610c90565b610a305760405162461bcd60e51b815260040161046990611c88565b610a3c84848484610eb0565b50505050565b6060610a4d82610c01565b610a695760405162461bcd60e51b815260040161046990611bf8565b6000828152600e602052604090208054610a8290611dd6565b80601f0160208091040260200160405190810160405280929190818152602001828054610aae90611dd6565b8015610afb5780601f10610ad057610100808354040283529160200191610afb565b820191906000526020600020905b815481529060010190602001808311610ade57829003601f168201915b50505050509050919050565b600781565b600080806064610b1d600786611d74565b610b279190611d54565b600f546001600160a01b03169350915050915091565b6001600160a01b03918216600090815260066020908152604080832093909416825291909152205460ff1690565b610b73610c1e565b6001600160a01b0316610b8461088c565b6001600160a01b031614610baa5760405162461bcd60e51b815260040161046990611b7a565b6001600160a01b038116610bd05760405162461bcd60e51b81526004016104699061188e565b610bd981610e60565b50565b60006001600160e01b0319821663780e9d6360e01b14806103a857506103a882610ee3565b6000908152600360205260409020546001600160a01b0316151590565b3390565b600081815260056020526040902080546001600160a01b0319166001600160a01b0384169081179091558190610c5782610635565b6001600160a01b03167f8c5be1e5ebec7d5bd14f71427d1e84f3dd0314c0f7b2291e5b200ac8c7c3b92560405160405180910390a45050565b6000610c9b82610c01565b610cb75760405162461bcd60e51b815260040161046990611986565b6000610cc283610635565b9050806001600160a01b0316846001600160a01b03161480610cfd5750836001600160a01b0316610cf284610442565b6001600160a01b0316145b80610d0d5750610d0d8185610b3d565b949350505050565b826001600160a01b0316610d2882610635565b6001600160a01b031614610d4e5760405162461bcd60e51b815260040161046990611baf565b6001600160a01b038216610d745760405162461bcd60e51b81526004016104699061190b565b610d7f838383610f23565b610d8a600082610c22565b6001600160a01b0383166000908152600460205260408120805460019290610db3908490611d93565b90915550506001600160a01b0382166000908152600460205260408120805460019290610de1908490611d3c565b909155505060008181526003602052604080822080546001600160a01b0319166001600160a01b0386811691821790925591518493918716917fddf252ad1be2c89b69c2b068fc378daa952ba7f163c4a11628f55a4df523b3ef91a4505050565b610e5c828260405180602001604052806000815250610f2e565b5050565b600080546001600160a01b038381166001600160a01b0319831681178455604051919092169283917f8be0079c531659141344cd1fd0a4f28419497f9722a3daafe3b4186f6b6457e09190a35050565b610ebb848484610d15565b610ec784848484610f61565b610a3c5760405162461bcd60e51b81526004016104699061183c565b60006001600160e01b031982166380ac58cd60e01b1480610f1457506001600160e01b03198216635b5e139f60e01b145b806103a857506103a88261107c565b610521838383611095565b610f38838361111e565b610f456000848484610f61565b6105215760405162461bcd60e51b81526004016104699061183c565b6000610f75846001600160a01b03166111fd565b1561107157836001600160a01b031663150b7a02610f91610c1e565b8786866040518563ffffffff1660e01b8152600401610fb3949392919061177d565b602060405180830381600087803b158015610fcd57600080fd5b505af1925050508015610ffd575060408051601f3d908101601f19168201909252610ffa918101906116a7565b60015b611057573d80801561102b576040519150601f19603f3d011682016040523d82523d6000602084013e611030565b606091505b50805161104f5760405162461bcd60e51b81526004016104699061183c565b805181602001fd5b6001600160e01b031916630a85bd0160e11b149050610d0d565b506001949350505050565b6001600160e01b031981166301ffc9a760e01b14919050565b6110a0838383610521565b6001600160a01b0383166110bc576110b781611203565b6110df565b816001600160a01b0316836001600160a01b0316146110df576110df8382611247565b6001600160a01b0382166110fb576110f6816112e4565b610521565b826001600160a01b0316826001600160a01b0316146105215761052182826113bd565b6001600160a01b0382166111445760405162461bcd60e51b815260040161046990611af9565b61114d81610c01565b1561116a5760405162461bcd60e51b8152600401610469906118d4565b61117660008383610f23565b6001600160a01b038216600090815260046020526040812080546001929061119f908490611d3c565b909155505060008181526003602052604080822080546001600160a01b0319166001600160a01b03861690811790915590518392907fddf252ad1be2c89b69c2b068fc378daa952ba7f163c4a11628f55a4df523b3ef908290a45050565b3b151590565b600980546000838152600a60205260408120829055600182018355919091527f6e1540171b6c0c960b71a7020d9f60077f6af931a8bbf590da0223dacf75c7af0155565b60006001611254846107fd565b61125e9190611d93565b6000838152600860205260409020549091508082146112b1576001600160a01b03841660009081526007602090815260408083208584528252808320548484528184208190558352600890915290208190555b5060009182526008602090815260408084208490556001600160a01b039094168352600781528383209183525290812055565b6009546000906112f690600190611d93565b6000838152600a60205260408120546009805493945090928490811061132c57634e487b7160e01b600052603260045260246000fd5b90600052602060002001549050806009838154811061135b57634e487b7160e01b600052603260045260246000fd5b6000918252602080832090910192909255828152600a909152604080822084905585825281205560098054806113a157634e487b7160e01b600052603160045260246000fd5b6001900381819060005260206000200160009055905550505050565b60006113c8836107fd565b6001600160a01b039093166000908152600760209081526040808320868452825280832085905593825260089052919091209190915550565b82805461140d90611dd6565b90600052602060002090601f01602090048101928261142f5760008555611475565b82601f1061144857805160ff1916838001178555611475565b82800160010185558215611475579182015b8281111561147557825182559160200191906001019061145a565b50611481929150611485565b5090565b5b808211156114815760008155600101611486565b600067ffffffffffffffff808411156114b5576114b5611e27565b604051601f8501601f1916810160200182811182821017156114d9576114d9611e27565b6040528481529150818385018610156114f157600080fd5b8484602083013760006020868301015250509392505050565b80356001600160a01b03811681146103ab57600080fd5b600060208284031215611532578081fd5b61153b8261150a565b9392505050565b60008060408385031215611554578081fd5b61155d8361150a565b915061156b6020840161150a565b90509250929050565b600080600060608486031215611588578081fd5b6115918461150a565b925061159f6020850161150a565b9150604084013590509250925092565b600080600080608085870312156115c4578081fd5b6115cd8561150a565b93506115db6020860161150a565b925060408501359150606085013567ffffffffffffffff8111156115fd578182fd5b8501601f8101871361160d578182fd5b61161c8782356020840161149a565b91505092959194509250565b6000806040838503121561163a578182fd5b6116438361150a565b915060208301358015158114611657578182fd5b809150509250929050565b60008060408385031215611674578182fd5b61167d8361150a565b946020939093013593505050565b60006020828403121561169c578081fd5b813561153b81611e3d565b6000602082840312156116b8578081fd5b815161153b81611e3d565b6000602082840312156116d4578081fd5b813567ffffffffffffffff8111156116ea578182fd5b8201601f810184136116fa578182fd5b610d0d8482356020840161149a565b60006020828403121561171a578081fd5b5035919050565b60008151808452611739816020860160208601611daa565b601f01601f19169290920160200192915050565b6000825161175f818460208701611daa565b9190910192915050565b6001600160a01b0391909116815260200190565b6001600160a01b03858116825284166020820152604081018390526080606082018190526000906117b090830184611721565b9695505050505050565b6001600160a01b03929092168252602082015260400190565b901515815260200190565b60006020825261153b6020830184611721565b6020808252602b908201527f455243373231456e756d657261626c653a206f776e657220696e646578206f7560408201526a74206f6620626f756e647360a81b606082015260800190565b60208082526032908201527f4552433732313a207472616e7366657220746f206e6f6e20455243373231526560408201527131b2b4bb32b91034b6b83632b6b2b73a32b960711b606082015260800190565b60208082526026908201527f4f776e61626c653a206e6577206f776e657220697320746865207a65726f206160408201526564647265737360d01b606082015260800190565b6020808252601c908201527f4552433732313a20746f6b656e20616c7265616479206d696e74656400000000604082015260600190565b60208082526024908201527f4552433732313a207472616e7366657220746f20746865207a65726f206164646040820152637265737360e01b606082015260800190565b60208082526019908201527f4552433732313a20617070726f766520746f2063616c6c657200000000000000604082015260600190565b6020808252602c908201527f4552433732313a206f70657261746f7220717565727920666f72206e6f6e657860408201526b34b9ba32b73a103a37b5b2b760a11b606082015260800190565b6020808252601e908201527f54686520746f6b656e205552492073686f756c6420626520756e697175650000604082015260600190565b60208082526038908201527f4552433732313a20617070726f76652063616c6c6572206973206e6f74206f7760408201527f6e6572206e6f7220617070726f76656420666f7220616c6c0000000000000000606082015260800190565b6020808252602a908201527f4552433732313a2062616c616e636520717565727920666f7220746865207a65604082015269726f206164647265737360b01b606082015260800190565b60208082526029908201527f4552433732313a206f776e657220717565727920666f72206e6f6e657869737460408201526832b73a103a37b5b2b760b91b606082015260800190565b6020808252818101527f4552433732313a206d696e7420746f20746865207a65726f2061646472657373604082015260600190565b6020808252602c908201527f4552433732313a20617070726f76656420717565727920666f72206e6f6e657860408201526b34b9ba32b73a103a37b5b2b760a11b606082015260800190565b6020808252818101527f4f776e61626c653a2063616c6c6572206973206e6f7420746865206f776e6572604082015260600190565b60208082526029908201527f4552433732313a207472616e73666572206f6620746f6b656e2074686174206960408201526839903737ba1037bbb760b91b606082015260800190565b6020808252602f908201527f4552433732314d657461646174613a2055524920717565727920666f72206e6f60408201526e3732bc34b9ba32b73a103a37b5b2b760891b606082015260800190565b60208082526021908201527f4552433732313a20617070726f76616c20746f2063757272656e74206f776e656040820152603960f91b606082015260800190565b60208082526031908201527f4552433732313a207472616e736665722063616c6c6572206973206e6f74206f6040820152701ddb995c881b9bdc88185c1c1c9bdd9959607a1b606082015260800190565b6020808252602c908201527f455243373231456e756d657261626c653a20676c6f62616c20696e646578206f60408201526b7574206f6620626f756e647360a01b606082015260800190565b90815260200190565b60ff91909116815260200190565b60008219821115611d4f57611d4f611e11565b500190565b600082611d6f57634e487b7160e01b81526012600452602481fd5b500490565b6000816000190483118215151615611d8e57611d8e611e11565b500290565b600082821015611da557611da5611e11565b500390565b60005b83811015611dc5578181015183820152602001611dad565b83811115610a3c5750506000910152565b600281046001821680611dea57607f821691505b60208210811415611e0b57634e487b7160e01b600052602260045260246000fd5b50919050565b634e487b7160e01b600052601160045260246000fd5b634e487b7160e01b600052604160045260246000fd5b6001600160e01b031981168114610bd957600080fdfea26469706673582212203a199af363925c4445455c093777f0613b8147963508013cb3b744785d9f799d64736f6c63430008000033",
  "linkReferences": {},
  "deployedLinkReferences": {}
}