{
  "_format": "hh-sol-artifact-1",
  "contractName": "NFTCollection",
  "sourceName": "src/contracts/NFTCollection.sol",
  "abi": [
    {
      "inputs": [],
      "stateMutability": "nonpayable",
      "type": "constructor"
    },
    {
      "anonymous": false,
      "inputs": [
        {
          "indexed": true,
          "internalType": "address",
          "name": "owner",
          "type": "address"
        },
        {
          "indexed": true,
          "internalType": "address",
          "name": "approved",
          "type": "address"
        },
        {
          "indexed": true,
          "internalType": "uint256",
          "name": "tokenId",
          "type": "uint256"
        }
      ],
      "name": "Approval",
      "type": "event"
    },
    {
      "anonymous": false,
      "inputs": [
        {
          "indexed": true,
          "internalType": "address",
          "name": "owner",
          "type": "address"
        },
        {
          "indexed": true,
          "internalType": "address",
          "name": "operator",
          "type": "address"
        },
        {
          "indexed": false,
          "internalType": "bool",
          "name": "approved",
          "type": "bool"
        }
      ],
      "name": "ApprovalForAll",
      "type": "event"
    },
    {
      "anonymous": false,
      "inputs": [
        {
          "indexed": true,
          "internalType": "address",
          "name": "previousOwner",
          "type": "address"
        },
        {
          "indexed": true,
          "internalType": "address",
          "name": "newOwner",
          "type": "address"
        }
      ],
      "name": "OwnershipTransferred",
      "type": "event"
    },
    {
      "anonymous": false,
      "inputs": [
        {
          "indexed": true,
          "internalType": "address",
          "name": "from",
          "type": "address"
        },
        {
          "indexed": true,
          "internalType": "address",
          "name": "to",
          "type": "address"
        },
        {
          "indexed": true,
          "internalType": "uint256",
          "name": "tokenId",
          "type": "uint256"
        }
      ],
      "name": "Transfer",
      "type": "event"
    },
    {
      "inputs": [
        {
          "internalType": "address",
          "name": "to",
          "type": "address"
        },
        {
          "internalType": "uint256",
          "name": "tokenId",
          "type": "uint256"
        }
      ],
      "name": "approve",
      "outputs": [],
      "stateMutability": "nonpayable",
      "type": "function"
    },
    {
      "inputs": [
        {
          "internalType": "address",
          "name": "owner",
          "type": "address"
        }
      ],
      "name": "balanceOf",
      "outputs": [
        {
          "internalType": "uint256",
          "name": "",
          "type": "uint256"
        }
      ],
      "stateMutability": "view",
      "type": "function"
    },
    {
      "inputs": [
        {
          "internalType": "uint256",
          "name": "tokenId",
          "type": "uint256"
        }
      ],
      "name": "copyrightFee",
      "outputs": [
        {
          "internalType": "uint256",
          "name": "",
          "type": "uint256"
        }
      ],
      "stateMutability": "view",
      "type": "function"
    },
    {
      "inputs": [
        {
          "internalType": "uint256",
          "name": "tokenId",
          "type": "uint256"
        }
      ],
      "name": "copyrightOwnership",
      "outputs": [
        {
          "internalType": "address",
          "name": "",
          "type": "address"
        }
      ],
      "stateMutability": "view",
      "type": "function"
    },
    {
      "inputs": [],
      "name": "decimals",
      "outputs": [
        {
          "internalType": "uint8",
          "name": "",
          "type": "uint8"
        }
      ],
      "stateMutability": "view",
      "type": "function"
    },
    {
      "inputs": [
        {
          "internalType": "uint256",
          "name": "tokenId",
          "type": "uint256"
        }
      ],
      "name": "getApproved",
      "outputs": [
        {
          "internalType": "address",
          "name": "",
          "type": "address"
        }
      ],
      "stateMutability": "view",
      "type": "function"
    },
    {
      "inputs": [
        {
          "internalType": "address",
          "name": "owner",
          "type": "address"
        },
        {
          "internalType": "address",
          "name": "operator",
          "type": "address"
        }
      ],
      "name": "isApprovedForAll",
      "outputs": [
        {
          "internalType": "bool",
          "name": "",
          "type": "bool"
        }
      ],
      "stateMutability": "view",
      "type": "function"
    },
    {
      "inputs": [],
      "name": "name",
      "outputs": [
        {
          "internalType": "string",
          "name": "",
          "type": "string"
        }
      ],
      "stateMutability": "view",
      "type": "function"
    },
    {
      "inputs": [],
      "name": "owner",
      "outputs": [
        {
          "internalType": "address",
          "name": "",
          "type": "address"
        }
      ],
      "stateMutability": "view",
      "type": "function"
    },
    {
      "inputs": [
        {
          "internalType": "uint256",
          "name": "tokenId",
          "type": "uint256"
        }
      ],
      "name": "ownerOf",
      "outputs": [
        {
          "internalType": "address",
          "name": "",
          "type": "address"
        }
      ],
      "stateMutability": "view",
      "type": "function"
    },
    {
      "inputs": [],
      "name": "renounceOwnership",
      "outputs": [],
      "stateMutability": "nonpayable",
      "type": "function"
    },
    {
      "inputs": [
        {
          "internalType": "string",
          "name": "_tokenURI",
          "type": "string"
        },
        {
          "internalType": "uint256",
          "name": "_fee",
          "type": "uint256"
        }
      ],
      "name": "safeMint",
      "outputs": [],
      "stateMutability": "nonpayable",
      "type": "function"
    },
    {
      "inputs": [
        {
          "internalType": "address",
          "name": "from",
          "type": "address"
        },
        {
          "internalType": "address",
          "name": "to",
          "type": "address"
        },
        {
          "internalType": "uint256",
          "name": "tokenId",
          "type": "uint256"
        }
      ],
      "name": "safeTransferFrom",
      "outputs": [],
      "stateMutability": "nonpayable",
      "type": "function"
    },
    {
      "inputs": [
        {
          "internalType": "address",
          "name": "from",
          "type": "address"
        },
        {
          "internalType": "address",
          "name": "to",
          "type": "address"
        },
        {
          "internalType": "uint256",
          "name": "tokenId",
          "type": "uint256"
        },
        {
          "internalType": "bytes",
          "name": "_data",
          "type": "bytes"
        }
      ],
      "name": "safeTransferFrom",
      "outputs": [],
      "stateMutability": "nonpayable",
      "type": "function"
    },
    {
      "inputs": [],
      "name": "serviceFee",
      "outputs": [
        {
          "internalType": "uint256",
          "name": "",
          "type": "uint256"
        }
      ],
      "stateMutability": "view",
      "type": "function"
    },
    {
      "inputs": [
        {
          "internalType": "address",
          "name": "operator",
          "type": "address"
        },
        {
          "internalType": "bool",
          "name": "approved",
          "type": "bool"
        }
      ],
      "name": "setApprovalForAll",
      "outputs": [],
      "stateMutability": "nonpayable",
      "type": "function"
    },
    {
      "inputs": [
        {
          "internalType": "bytes4",
          "name": "interfaceId",
          "type": "bytes4"
        }
      ],
      "name": "supportsInterface",
      "outputs": [
        {
          "internalType": "bool",
          "name": "",
          "type": "bool"
        }
      ],
      "stateMutability": "view",
      "type": "function"
    },
    {
      "inputs": [],
      "name": "symbol",
      "outputs": [
        {
          "internalType": "string",
          "name": "",
          "type": "string"
        }
      ],
      "stateMutability": "view",
      "type": "function"
    },
    {
      "inputs": [
        {
          "internalType": "uint256",
          "name": "index",
          "type": "uint256"
        }
      ],
      "name": "tokenByIndex",
      "outputs": [
        {
          "internalType": "uint256",
          "name": "",
          "type": "uint256"
        }
      ],
      "stateMutability": "view",
      "type": "function"
    },
    {
      "inputs": [
        {
          "internalType": "address",
          "name": "owner",
          "type": "address"
        },
        {
          "internalType": "uint256",
          "name": "index",
          "type": "uint256"
        }
      ],
      "name": "tokenOfOwnerByIndex",
      "outputs": [
        {
          "internalType": "uint256",
          "name": "",
          "type": "uint256"
        }
      ],
      "stateMutability": "view",
      "type": "function"
    },
    {
      "inputs": [
        {
          "internalType": "uint256",
          "name": "tokenId",
          "type": "uint256"
        }
      ],
      "name": "tokenURI",
      "outputs": [
        {
          "internalType": "string",
          "name": "",
          "type": "string"
        }
      ],
      "stateMutability": "view",
      "type": "function"
    },
    {
      "inputs": [
        {
          "internalType": "uint256",
          "name": "",
          "type": "uint256"
        }
      ],
      "name": "tokenURIs",
      "outputs": [
        {
          "internalType": "string",
          "name": "",
          "type": "string"
        }
      ],
      "stateMutability": "view",
      "type": "function"
    },
    {
      "inputs": [],
      "name": "totalSupply",
      "outputs": [
        {
          "internalType": "uint256",
          "name": "",
          "type": "uint256"
        }
      ],
      "stateMutability": "view",
      "type": "function"
    },
    {
      "inputs": [
        {
          "internalType": "address",
          "name": "from",
          "type": "address"
        },
        {
          "internalType": "address",
          "name": "to",
          "type": "address"
        },
        {
          "internalType": "uint256",
          "name": "tokenId",
          "type": "uint256"
        }
      ],
      "name": "transferFrom",
      "outputs": [],
      "stateMutability": "nonpayable",
      "type": "function"
    },
    {
      "inputs": [
        {
          "internalType": "address",
          "name": "newOwner",
          "type": "address"
        }
      ],
      "name": "transferOwnership",
      "outputs": [],
      "stateMutability": "nonpayable",
      "type": "function"
    }
  ],
  "bytecode": "0x6080604052600c805460ff191660121790556002600d553480156200002357600080fd5b506040518060400160405280600e81526020016d36aa219021b7b63632b1ba34b7b760911b815250604051806040016040528060038152602001626d544360e81b815250620000816200007b620000b560201b60201c565b620000b9565b81516200009690600190602085019062000109565b508051620000ac90600290602084019062000109565b505050620001ec565b3390565b600080546001600160a01b038381166001600160a01b0319831681178455604051919092169283917f8be0079c531659141344cd1fd0a4f28419497f9722a3daafe3b4186f6b6457e09190a35050565b8280546200011790620001af565b90600052602060002090601f0160209004810192826200013b576000855562000186565b82601f106200015657805160ff191683800117855562000186565b8280016001018555821562000186579182015b828111156200018657825182559160200191906001019062000169565b506200019492915062000198565b5090565b5b8082111562000194576000815560010162000199565b600281046001821680620001c457607f821691505b60208210811415620001e657634e487b7160e01b600052602260045260246000fd5b50919050565b611d8a80620001fc6000396000f3fe608060405234801561001057600080fd5b50600436106101735760003560e01c80636352211e116100de5780638f8b4ddc11610097578063b88d4fde11610071578063b88d4fde14610306578063c87b56dd14610319578063e985e9c51461032c578063f2fde38b1461033f57610173565b80638f8b4ddc146102d857806395d89b41146102eb578063a22cb465146102f357610173565b80636352211e146102875780636c8b703f1461029a57806370a08231146102ad578063715018a6146102c05780638abdf5aa146102c85780638da5cb5b146102d057610173565b80632f745c59116101305780632f745c5914610213578063313ce5671461022657806342842e0e1461023b57806346b145e11461024e5780634975885a146102615780634f6ccce71461027457610173565b806301ffc9a71461017857806306fdde03146101a1578063081812fc146101b6578063095ea7b3146101d657806318160ddd146101eb57806323b872dd14610200575b600080fd5b61018b6101863660046115d4565b610352565b6040516101989190611713565b60405180910390f35b6101a9610365565b604051610198919061171e565b6101c96101c4366004611662565b6103f7565b60405161019891906116c2565b6101e96101e43660046115ab565b610443565b005b6101f36104db565b6040516101989190611c65565b6101e961020e3660046114bd565b6104e1565b6101f36102213660046115ab565b610519565b61022e61056b565b6040516101989190611c6e565b6101e96102493660046114bd565b610574565b6101e961025c36600461160c565b61058f565b6101f361026f366004611662565b610698565b6101f3610282366004611662565b6106aa565b6101c9610295366004611662565b610705565b6101a96102a8366004611662565b61073a565b6101f36102bb36600461146a565b6107e6565b6101e961082a565b6101f3610875565b6101c961087b565b6101c96102e6366004611662565b61088a565b6101a96108a5565b6101e9610301366004611571565b6108b4565b6101e96103143660046114f8565b610982565b6101a9610327366004611662565b6109c1565b61018b61033a36600461148b565b610a86565b6101e961034d36600461146a565b610ab4565b600061035d82610b25565b90505b919050565b60606001805461037490611cd7565b80601f01602080910402602001604051908101604052809291908181526020018280546103a090611cd7565b80156103ed5780601f106103c2576101008083540402835291602001916103ed565b820191906000526020600020905b8154815290600101906020018083116103d057829003601f168201915b5050505050905090565b600061040282610b4a565b6104275760405162461bcd60e51b815260040161041e90611a6e565b60405180910390fd5b506000908152600560205260409020546001600160a01b031690565b600061044e82610705565b9050806001600160a01b0316836001600160a01b031614156104825760405162461bcd60e51b815260040161041e90611b87565b806001600160a01b0316610494610b67565b6001600160a01b031614806104b057506104b08161033a610b67565b6104cc5760405162461bcd60e51b815260040161041e90611949565b6104d68383610b6b565b505050565b60095490565b6104f26104ec610b67565b82610bd9565b61050e5760405162461bcd60e51b815260040161041e90611bc8565b6104d6838383610c5e565b6000610524836107e6565b82106105425760405162461bcd60e51b815260040161041e90611731565b506001600160a01b03919091166000908152600760209081526040808320938352929052205490565b600c5460ff1681565b6104d683838360405180602001604052806000815250610982565b600e8260405161059f91906116a6565b9081526040519081900360200190205460ff16156105cf5760405162461bcd60e51b815260040161041e90611912565b600b80546001810182556000919091528251610612917f0175b7a638427703f0dbe7bb9bbf987a2551717b34e79f33b5b1008d1fa01db90190602085019061134a565b50600b54600081815260106020908152604080832080546001600160a01b0319163317905560118252808320859055600f825290912084516106569286019061134a565b506106613382610d8b565b6001600e8460405161067391906116a6565b908152604051908190036020019020805491151560ff19909216919091179055505050565b60009081526011602052604090205490565b60006106b46104db565b82106106d25760405162461bcd60e51b815260040161041e90611c19565b600982815481106106f357634e487b7160e01b600052603260045260246000fd5b90600052602060002001549050919050565b6000818152600360205260408120546001600160a01b03168061035d5760405162461bcd60e51b815260040161041e906119f0565b600b818154811061074a57600080fd5b90600052602060002001600091509050805461076590611cd7565b80601f016020809104026020016040519081016040528092919081815260200182805461079190611cd7565b80156107de5780601f106107b3576101008083540402835291602001916107de565b820191906000526020600020905b8154815290600101906020018083116107c157829003601f168201915b505050505081565b60006001600160a01b03821661080e5760405162461bcd60e51b815260040161041e906119a6565b506001600160a01b031660009081526004602052604090205490565b610832610b67565b6001600160a01b031661084361087b565b6001600160a01b0316146108695760405162461bcd60e51b815260040161041e90611aba565b6108736000610da9565b565b600d5490565b6000546001600160a01b031690565b6000908152601060205260409020546001600160a01b031690565b60606002805461037490611cd7565b6108bc610b67565b6001600160a01b0316826001600160a01b031614156108ed5760405162461bcd60e51b815260040161041e9061188f565b80600660006108fa610b67565b6001600160a01b03908116825260208083019390935260409182016000908120918716808252919093529120805460ff19169215159290921790915561093e610b67565b6001600160a01b03167f17307eab39ab6107e8899845ad3d59bd9653f200f220920489ca2b5937696c31836040516109769190611713565b60405180910390a35050565b61099361098d610b67565b83610bd9565b6109af5760405162461bcd60e51b815260040161041e90611bc8565b6109bb84848484610df9565b50505050565b60606109cc82610b4a565b6109e85760405162461bcd60e51b815260040161041e90611b38565b6000828152600f602052604090208054610a0190611cd7565b80601f0160208091040260200160405190810160405280929190818152602001828054610a2d90611cd7565b8015610a7a5780601f10610a4f57610100808354040283529160200191610a7a565b820191906000526020600020905b815481529060010190602001808311610a5d57829003601f168201915b50505050509050919050565b6001600160a01b03918216600090815260066020908152604080832093909416825291909152205460ff1690565b610abc610b67565b6001600160a01b0316610acd61087b565b6001600160a01b031614610af35760405162461bcd60e51b815260040161041e90611aba565b6001600160a01b038116610b195760405162461bcd60e51b815260040161041e906117ce565b610b2281610da9565b50565b60006001600160e01b0319821663780e9d6360e01b148061035d575061035d82610e2c565b6000908152600360205260409020546001600160a01b0316151590565b3390565b600081815260056020526040902080546001600160a01b0319166001600160a01b0384169081179091558190610ba082610705565b6001600160a01b03167f8c5be1e5ebec7d5bd14f71427d1e84f3dd0314c0f7b2291e5b200ac8c7c3b92560405160405180910390a45050565b6000610be482610b4a565b610c005760405162461bcd60e51b815260040161041e906118c6565b6000610c0b83610705565b9050806001600160a01b0316846001600160a01b03161480610c465750836001600160a01b0316610c3b846103f7565b6001600160a01b0316145b80610c565750610c568185610a86565b949350505050565b826001600160a01b0316610c7182610705565b6001600160a01b031614610c975760405162461bcd60e51b815260040161041e90611aef565b6001600160a01b038216610cbd5760405162461bcd60e51b815260040161041e9061184b565b610cc8838383610e6c565b610cd3600082610b6b565b6001600160a01b0383166000908152600460205260408120805460019290610cfc908490611c94565b90915550506001600160a01b0382166000908152600460205260408120805460019290610d2a908490611c7c565b909155505060008181526003602052604080822080546001600160a01b0319166001600160a01b0386811691821790925591518493918716917fddf252ad1be2c89b69c2b068fc378daa952ba7f163c4a11628f55a4df523b3ef91a4505050565b610da5828260405180602001604052806000815250610e77565b5050565b600080546001600160a01b038381166001600160a01b0319831681178455604051919092169283917f8be0079c531659141344cd1fd0a4f28419497f9722a3daafe3b4186f6b6457e09190a35050565b610e04848484610c5e565b610e1084848484610eaa565b6109bb5760405162461bcd60e51b815260040161041e9061177c565b60006001600160e01b031982166380ac58cd60e01b1480610e5d57506001600160e01b03198216635b5e139f60e01b145b8061035d575061035d82610fc5565b6104d6838383610fde565b610e818383611067565b610e8e6000848484610eaa565b6104d65760405162461bcd60e51b815260040161041e9061177c565b6000610ebe846001600160a01b0316611146565b15610fba57836001600160a01b031663150b7a02610eda610b67565b8786866040518563ffffffff1660e01b8152600401610efc94939291906116d6565b602060405180830381600087803b158015610f1657600080fd5b505af1925050508015610f46575060408051601f3d908101601f19168201909252610f43918101906115f0565b60015b610fa0573d808015610f74576040519150601f19603f3d011682016040523d82523d6000602084013e610f79565b606091505b508051610f985760405162461bcd60e51b815260040161041e9061177c565b805181602001fd5b6001600160e01b031916630a85bd0160e11b149050610c56565b506001949350505050565b6001600160e01b031981166301ffc9a760e01b14919050565b610fe98383836104d6565b6001600160a01b038316611005576110008161114c565b611028565b816001600160a01b0316836001600160a01b031614611028576110288382611190565b6001600160a01b0382166110445761103f8161122d565b6104d6565b826001600160a01b0316826001600160a01b0316146104d6576104d68282611306565b6001600160a01b03821661108d5760405162461bcd60e51b815260040161041e90611a39565b61109681610b4a565b156110b35760405162461bcd60e51b815260040161041e90611814565b6110bf60008383610e6c565b6001600160a01b03821660009081526004602052604081208054600192906110e8908490611c7c565b909155505060008181526003602052604080822080546001600160a01b0319166001600160a01b03861690811790915590518392907fddf252ad1be2c89b69c2b068fc378daa952ba7f163c4a11628f55a4df523b3ef908290a45050565b3b151590565b600980546000838152600a60205260408120829055600182018355919091527f6e1540171b6c0c960b71a7020d9f60077f6af931a8bbf590da0223dacf75c7af0155565b6000600161119d846107e6565b6111a79190611c94565b6000838152600860205260409020549091508082146111fa576001600160a01b03841660009081526007602090815260408083208584528252808320548484528184208190558352600890915290208190555b5060009182526008602090815260408084208490556001600160a01b039094168352600781528383209183525290812055565b60095460009061123f90600190611c94565b6000838152600a60205260408120546009805493945090928490811061127557634e487b7160e01b600052603260045260246000fd5b9060005260206000200154905080600983815481106112a457634e487b7160e01b600052603260045260246000fd5b6000918252602080832090910192909255828152600a909152604080822084905585825281205560098054806112ea57634e487b7160e01b600052603160045260246000fd5b6001900381819060005260206000200160009055905550505050565b6000611311836107e6565b6001600160a01b039093166000908152600760209081526040808320868452825280832085905593825260089052919091209190915550565b82805461135690611cd7565b90600052602060002090601f01602090048101928261137857600085556113be565b82601f1061139157805160ff19168380011785556113be565b828001600101855582156113be579182015b828111156113be5782518255916020019190600101906113a3565b506113ca9291506113ce565b5090565b5b808211156113ca57600081556001016113cf565b600067ffffffffffffffff808411156113fe576113fe611d28565b604051601f8501601f19168101602001828111828210171561142257611422611d28565b60405284815291508183850186101561143a57600080fd5b8484602083013760006020868301015250509392505050565b80356001600160a01b038116811461036057600080fd5b60006020828403121561147b578081fd5b61148482611453565b9392505050565b6000806040838503121561149d578081fd5b6114a683611453565b91506114b460208401611453565b90509250929050565b6000806000606084860312156114d1578081fd5b6114da84611453565b92506114e860208501611453565b9150604084013590509250925092565b6000806000806080858703121561150d578081fd5b61151685611453565b935061152460208601611453565b925060408501359150606085013567ffffffffffffffff811115611546578182fd5b8501601f81018713611556578182fd5b611565878235602084016113e3565b91505092959194509250565b60008060408385031215611583578182fd5b61158c83611453565b9150602083013580151581146115a0578182fd5b809150509250929050565b600080604083850312156115bd578182fd5b6115c683611453565b946020939093013593505050565b6000602082840312156115e5578081fd5b813561148481611d3e565b600060208284031215611601578081fd5b815161148481611d3e565b6000806040838503121561161e578182fd5b823567ffffffffffffffff811115611634578283fd5b8301601f81018513611644578283fd5b611653858235602084016113e3565b95602094909401359450505050565b600060208284031215611673578081fd5b5035919050565b60008151808452611692816020860160208601611cab565b601f01601f19169290920160200192915050565b600082516116b8818460208701611cab565b9190910192915050565b6001600160a01b0391909116815260200190565b6001600160a01b03858116825284166020820152604081018390526080606082018190526000906117099083018461167a565b9695505050505050565b901515815260200190565b600060208252611484602083018461167a565b6020808252602b908201527f455243373231456e756d657261626c653a206f776e657220696e646578206f7560408201526a74206f6620626f756e647360a81b606082015260800190565b60208082526032908201527f4552433732313a207472616e7366657220746f206e6f6e20455243373231526560408201527131b2b4bb32b91034b6b83632b6b2b73a32b960711b606082015260800190565b60208082526026908201527f4f776e61626c653a206e6577206f776e657220697320746865207a65726f206160408201526564647265737360d01b606082015260800190565b6020808252601c908201527f4552433732313a20746f6b656e20616c7265616479206d696e74656400000000604082015260600190565b60208082526024908201527f4552433732313a207472616e7366657220746f20746865207a65726f206164646040820152637265737360e01b606082015260800190565b60208082526019908201527f4552433732313a20617070726f766520746f2063616c6c657200000000000000604082015260600190565b6020808252602c908201527f4552433732313a206f70657261746f7220717565727920666f72206e6f6e657860408201526b34b9ba32b73a103a37b5b2b760a11b606082015260800190565b6020808252601e908201527f54686520746f6b656e205552492073686f756c6420626520756e697175650000604082015260600190565b60208082526038908201527f4552433732313a20617070726f76652063616c6c6572206973206e6f74206f7760408201527f6e6572206e6f7220617070726f76656420666f7220616c6c0000000000000000606082015260800190565b6020808252602a908201527f4552433732313a2062616c616e636520717565727920666f7220746865207a65604082015269726f206164647265737360b01b606082015260800190565b60208082526029908201527f4552433732313a206f776e657220717565727920666f72206e6f6e657869737460408201526832b73a103a37b5b2b760b91b606082015260800190565b6020808252818101527f4552433732313a206d696e7420746f20746865207a65726f2061646472657373604082015260600190565b6020808252602c908201527f4552433732313a20617070726f76656420717565727920666f72206e6f6e657860408201526b34b9ba32b73a103a37b5b2b760a11b606082015260800190565b6020808252818101527f4f776e61626c653a2063616c6c6572206973206e6f7420746865206f776e6572604082015260600190565b60208082526029908201527f4552433732313a207472616e73666572206f6620746f6b656e2074686174206960408201526839903737ba1037bbb760b91b606082015260800190565b6020808252602f908201527f4552433732314d657461646174613a2055524920717565727920666f72206e6f60408201526e3732bc34b9ba32b73a103a37b5b2b760891b606082015260800190565b60208082526021908201527f4552433732313a20617070726f76616c20746f2063757272656e74206f776e656040820152603960f91b606082015260800190565b60208082526031908201527f4552433732313a207472616e736665722063616c6c6572206973206e6f74206f6040820152701ddb995c881b9bdc88185c1c1c9bdd9959607a1b606082015260800190565b6020808252602c908201527f455243373231456e756d657261626c653a20676c6f62616c20696e646578206f60408201526b7574206f6620626f756e647360a01b606082015260800190565b90815260200190565b60ff91909116815260200190565b60008219821115611c8f57611c8f611d12565b500190565b600082821015611ca657611ca6611d12565b500390565b60005b83811015611cc6578181015183820152602001611cae565b838111156109bb5750506000910152565b600281046001821680611ceb57607f821691505b60208210811415611d0c57634e487b7160e01b600052602260045260246000fd5b50919050565b634e487b7160e01b600052601160045260246000fd5b634e487b7160e01b600052604160045260246000fd5b6001600160e01b031981168114610b2257600080fdfea26469706673582212209de0c5bd357e1f557217cba66962dbe945d47a397c6bbc55112efb2c236dc7c864736f6c63430008000033",
  "linkReferences": {},
  "deployedLinkReferences": {}
}