{
  "_format": "hh-sol-artifact-1",
  "contractName": "NFTCollection",
  "sourceName": "src/contracts/NFTCollection.sol",
  "abi": [
    {
      "inputs": [],
      "stateMutability": "nonpayable",
      "type": "constructor"
    },
    {
      "anonymous": false,
      "inputs": [
        {
          "indexed": true,
          "internalType": "address",
          "name": "owner",
          "type": "address"
        },
        {
          "indexed": true,
          "internalType": "address",
          "name": "approved",
          "type": "address"
        },
        {
          "indexed": true,
          "internalType": "uint256",
          "name": "tokenId",
          "type": "uint256"
        }
      ],
      "name": "Approval",
      "type": "event"
    },
    {
      "anonymous": false,
      "inputs": [
        {
          "indexed": true,
          "internalType": "address",
          "name": "owner",
          "type": "address"
        },
        {
          "indexed": true,
          "internalType": "address",
          "name": "operator",
          "type": "address"
        },
        {
          "indexed": false,
          "internalType": "bool",
          "name": "approved",
          "type": "bool"
        }
      ],
      "name": "ApprovalForAll",
      "type": "event"
    },
    {
      "anonymous": false,
      "inputs": [
        {
          "indexed": true,
          "internalType": "address",
          "name": "previousOwner",
          "type": "address"
        },
        {
          "indexed": true,
          "internalType": "address",
          "name": "newOwner",
          "type": "address"
        }
      ],
      "name": "OwnershipTransferred",
      "type": "event"
    },
    {
      "anonymous": false,
      "inputs": [
        {
          "indexed": true,
          "internalType": "address",
          "name": "from",
          "type": "address"
        },
        {
          "indexed": true,
          "internalType": "address",
          "name": "to",
          "type": "address"
        },
        {
          "indexed": true,
          "internalType": "uint256",
          "name": "tokenId",
          "type": "uint256"
        }
      ],
      "name": "Transfer",
      "type": "event"
    },
    {
      "inputs": [
        {
          "internalType": "address",
          "name": "to",
          "type": "address"
        },
        {
          "internalType": "uint256",
          "name": "tokenId",
          "type": "uint256"
        }
      ],
      "name": "approve",
      "outputs": [],
      "stateMutability": "nonpayable",
      "type": "function"
    },
    {
      "inputs": [
        {
          "internalType": "address",
          "name": "owner",
          "type": "address"
        }
      ],
      "name": "balanceOf",
      "outputs": [
        {
          "internalType": "uint256",
          "name": "",
          "type": "uint256"
        }
      ],
      "stateMutability": "view",
      "type": "function"
    },
    {
      "inputs": [],
      "name": "decimals",
      "outputs": [
        {
          "internalType": "uint8",
          "name": "",
          "type": "uint8"
        }
      ],
      "stateMutability": "view",
      "type": "function"
    },
    {
      "inputs": [
        {
          "internalType": "uint256",
          "name": "tokenId",
          "type": "uint256"
        }
      ],
      "name": "getApproved",
      "outputs": [
        {
          "internalType": "address",
          "name": "",
          "type": "address"
        }
      ],
      "stateMutability": "view",
      "type": "function"
    },
    {
      "inputs": [
        {
          "internalType": "uint256",
          "name": "tokenId",
          "type": "uint256"
        }
      ],
      "name": "getCopyrightOwner",
      "outputs": [
        {
          "internalType": "address",
          "name": "",
          "type": "address"
        }
      ],
      "stateMutability": "view",
      "type": "function"
    },
    {
      "inputs": [
        {
          "internalType": "uint256",
          "name": "tokenId",
          "type": "uint256"
        }
      ],
      "name": "getCopyrightOwnerFee",
      "outputs": [
        {
          "internalType": "uint256",
          "name": "",
          "type": "uint256"
        }
      ],
      "stateMutability": "view",
      "type": "function"
    },
    {
      "inputs": [
        {
          "internalType": "uint256",
          "name": "tokenId",
          "type": "uint256"
        }
      ],
      "name": "getMarketplace",
      "outputs": [
        {
          "internalType": "address",
          "name": "",
          "type": "address"
        }
      ],
      "stateMutability": "view",
      "type": "function"
    },
    {
      "inputs": [
        {
          "internalType": "uint256",
          "name": "tokenId",
          "type": "uint256"
        }
      ],
      "name": "getMarketplaceFee",
      "outputs": [
        {
          "internalType": "uint256",
          "name": "",
          "type": "uint256"
        }
      ],
      "stateMutability": "view",
      "type": "function"
    },
    {
      "inputs": [
        {
          "internalType": "address",
          "name": "owner",
          "type": "address"
        },
        {
          "internalType": "address",
          "name": "operator",
          "type": "address"
        }
      ],
      "name": "isApprovedForAll",
      "outputs": [
        {
          "internalType": "bool",
          "name": "",
          "type": "bool"
        }
      ],
      "stateMutability": "view",
      "type": "function"
    },
    {
      "inputs": [],
      "name": "name",
      "outputs": [
        {
          "internalType": "string",
          "name": "",
          "type": "string"
        }
      ],
      "stateMutability": "view",
      "type": "function"
    },
    {
      "inputs": [],
      "name": "owner",
      "outputs": [
        {
          "internalType": "address",
          "name": "",
          "type": "address"
        }
      ],
      "stateMutability": "view",
      "type": "function"
    },
    {
      "inputs": [
        {
          "internalType": "uint256",
          "name": "tokenId",
          "type": "uint256"
        }
      ],
      "name": "ownerOf",
      "outputs": [
        {
          "internalType": "address",
          "name": "",
          "type": "address"
        }
      ],
      "stateMutability": "view",
      "type": "function"
    },
    {
      "inputs": [],
      "name": "renounceOwnership",
      "outputs": [],
      "stateMutability": "nonpayable",
      "type": "function"
    },
    {
      "inputs": [
        {
          "internalType": "string",
          "name": "_tokenURI",
          "type": "string"
        },
        {
          "internalType": "uint256",
          "name": "_fee",
          "type": "uint256"
        },
        {
          "internalType": "address",
          "name": "_marketplace",
          "type": "address"
        },
        {
          "internalType": "uint256",
          "name": "_marketplaceFee",
          "type": "uint256"
        }
      ],
      "name": "safeMint",
      "outputs": [],
      "stateMutability": "nonpayable",
      "type": "function"
    },
    {
      "inputs": [
        {
          "internalType": "address",
          "name": "from",
          "type": "address"
        },
        {
          "internalType": "address",
          "name": "to",
          "type": "address"
        },
        {
          "internalType": "uint256",
          "name": "tokenId",
          "type": "uint256"
        }
      ],
      "name": "safeTransferFrom",
      "outputs": [],
      "stateMutability": "nonpayable",
      "type": "function"
    },
    {
      "inputs": [
        {
          "internalType": "address",
          "name": "from",
          "type": "address"
        },
        {
          "internalType": "address",
          "name": "to",
          "type": "address"
        },
        {
          "internalType": "uint256",
          "name": "tokenId",
          "type": "uint256"
        },
        {
          "internalType": "bytes",
          "name": "_data",
          "type": "bytes"
        }
      ],
      "name": "safeTransferFrom",
      "outputs": [],
      "stateMutability": "nonpayable",
      "type": "function"
    },
    {
      "inputs": [
        {
          "internalType": "address",
          "name": "operator",
          "type": "address"
        },
        {
          "internalType": "bool",
          "name": "approved",
          "type": "bool"
        }
      ],
      "name": "setApprovalForAll",
      "outputs": [],
      "stateMutability": "nonpayable",
      "type": "function"
    },
    {
      "inputs": [
        {
          "internalType": "bytes4",
          "name": "interfaceId",
          "type": "bytes4"
        }
      ],
      "name": "supportsInterface",
      "outputs": [
        {
          "internalType": "bool",
          "name": "",
          "type": "bool"
        }
      ],
      "stateMutability": "view",
      "type": "function"
    },
    {
      "inputs": [],
      "name": "symbol",
      "outputs": [
        {
          "internalType": "string",
          "name": "",
          "type": "string"
        }
      ],
      "stateMutability": "view",
      "type": "function"
    },
    {
      "inputs": [
        {
          "internalType": "uint256",
          "name": "index",
          "type": "uint256"
        }
      ],
      "name": "tokenByIndex",
      "outputs": [
        {
          "internalType": "uint256",
          "name": "",
          "type": "uint256"
        }
      ],
      "stateMutability": "view",
      "type": "function"
    },
    {
      "inputs": [
        {
          "internalType": "address",
          "name": "owner",
          "type": "address"
        },
        {
          "internalType": "uint256",
          "name": "index",
          "type": "uint256"
        }
      ],
      "name": "tokenOfOwnerByIndex",
      "outputs": [
        {
          "internalType": "uint256",
          "name": "",
          "type": "uint256"
        }
      ],
      "stateMutability": "view",
      "type": "function"
    },
    {
      "inputs": [
        {
          "internalType": "uint256",
          "name": "tokenId",
          "type": "uint256"
        }
      ],
      "name": "tokenURI",
      "outputs": [
        {
          "internalType": "string",
          "name": "",
          "type": "string"
        }
      ],
      "stateMutability": "view",
      "type": "function"
    },
    {
      "inputs": [
        {
          "internalType": "uint256",
          "name": "",
          "type": "uint256"
        }
      ],
      "name": "tokenURIs",
      "outputs": [
        {
          "internalType": "string",
          "name": "",
          "type": "string"
        }
      ],
      "stateMutability": "view",
      "type": "function"
    },
    {
      "inputs": [],
      "name": "totalSupply",
      "outputs": [
        {
          "internalType": "uint256",
          "name": "",
          "type": "uint256"
        }
      ],
      "stateMutability": "view",
      "type": "function"
    },
    {
      "inputs": [
        {
          "internalType": "address",
          "name": "from",
          "type": "address"
        },
        {
          "internalType": "address",
          "name": "to",
          "type": "address"
        },
        {
          "internalType": "uint256",
          "name": "tokenId",
          "type": "uint256"
        }
      ],
      "name": "transferFrom",
      "outputs": [],
      "stateMutability": "nonpayable",
      "type": "function"
    },
    {
      "inputs": [
        {
          "internalType": "address",
          "name": "newOwner",
          "type": "address"
        }
      ],
      "name": "transferOwnership",
      "outputs": [],
      "stateMutability": "nonpayable",
      "type": "function"
    }
  ],
  "bytecode": "0x6080604052600c805460ff191660121790553480156200001e57600080fd5b506040518060400160405280600e81526020016d36aa219021b7b63632b1ba34b7b760911b815250604051806040016040528060038152602001626d544360e81b8152506200007c62000076620000b060201b60201c565b620000b4565b81516200009190600190602085019062000104565b508051620000a790600290602084019062000104565b505050620001e7565b3390565b600080546001600160a01b038381166001600160a01b0319831681178455604051919092169283917f8be0079c531659141344cd1fd0a4f28419497f9722a3daafe3b4186f6b6457e09190a35050565b8280546200011290620001aa565b90600052602060002090601f01602090048101928262000136576000855562000181565b82601f106200015157805160ff191683800117855562000181565b8280016001018555821562000181579182015b828111156200018157825182559160200191906001019062000164565b506200018f92915062000193565b5090565b5b808211156200018f576000815560010162000194565b600281046001821680620001bf57607f821691505b60208210811415620001e157634e487b7160e01b600052602260045260246000fd5b50919050565b611e2c80620001f76000396000f3fe608060405234801561001057600080fd5b506004361061018e5760003560e01c80636c8b703f116100de578063a22cb46511610097578063e985e9c511610071578063e985e9c51461033f578063ef8a8cb114610352578063f2fde38b14610365578063f53aac2a146103785761018e565b8063a22cb46514610306578063b88d4fde14610319578063c87b56dd1461032c5761018e565b80636c8b703f146102b557806370a08231146102c8578063715018a6146102db578063796890e1146102e35780638da5cb5b146102f657806395d89b41146102fe5761018e565b806323b872dd1161014b57806332103a401161012557806332103a401461026957806342842e0e1461027c5780634f6ccce71461028f5780636352211e146102a25761018e565b806323b872dd1461022e5780632f745c5914610241578063313ce567146102545761018e565b806301ffc9a71461019357806306fdde03146101bc578063081812fc146101d1578063095ea7b3146101f15780630a2e98e41461020657806318160ddd14610226575b600080fd5b6101a66101a136600461165c565b61038b565b6040516101b391906117b5565b60405180910390f35b6101c461039e565b6040516101b391906117c0565b6101e46101df366004611704565b610430565b6040516101b39190611764565b6102046101ff366004611633565b61047c565b005b610219610214366004611704565b610514565b6040516101b39190611d07565b610219610526565b61020461023c366004611545565b61052c565b61021961024f366004611633565b610564565b61025c6105b6565b6040516101b39190611d10565b6101e4610277366004611704565b6105bf565b61020461028a366004611545565b6105da565b61021961029d366004611704565b6105f5565b6101e46102b0366004611704565b610650565b6101c46102c3366004611704565b610685565b6102196102d63660046114f2565b610731565b610204610775565b6102046102f1366004611694565b6107c0565b6101e46108f1565b6101c4610900565b6102046103143660046115f9565b61090f565b610204610327366004611580565b6109dd565b6101c461033a366004611704565b610a1c565b6101a661034d366004611513565b610ae1565b610219610360366004611704565b610b0f565b6102046103733660046114f2565b610b21565b6101e4610386366004611704565b610b92565b600061039682610bad565b90505b919050565b6060600180546103ad90611d79565b80601f01602080910402602001604051908101604052809291908181526020018280546103d990611d79565b80156104265780601f106103fb57610100808354040283529160200191610426565b820191906000526020600020905b81548152906001019060200180831161040957829003601f168201915b5050505050905090565b600061043b82610bd2565b6104605760405162461bcd60e51b815260040161045790611b10565b60405180910390fd5b506000908152600560205260409020546001600160a01b031690565b600061048782610650565b9050806001600160a01b0316836001600160a01b031614156104bb5760405162461bcd60e51b815260040161045790611c29565b806001600160a01b03166104cd610bef565b6001600160a01b031614806104e957506104e98161034d610bef565b6105055760405162461bcd60e51b8152600401610457906119eb565b61050f8383610bf3565b505050565b60009081526012602052604090205490565b60095490565b61053d610537610bef565b82610c61565b6105595760405162461bcd60e51b815260040161045790611c6a565b61050f838383610ce6565b600061056f83610731565b821061058d5760405162461bcd60e51b8152600401610457906117d3565b506001600160a01b03919091166000908152600760209081526040808320938352929052205490565b600c5460ff1681565b6000908152600f60205260409020546001600160a01b031690565b61050f838383604051806020016040528060008152506109dd565b60006105ff610526565b821061061d5760405162461bcd60e51b815260040161045790611cbb565b6009828154811061063e57634e487b7160e01b600052603260045260246000fd5b90600052602060002001549050919050565b6000818152600360205260408120546001600160a01b0316806103965760405162461bcd60e51b815260040161045790611a92565b600b818154811061069557600080fd5b9060005260206000200160009150905080546106b090611d79565b80601f01602080910402602001604051908101604052809291908181526020018280546106dc90611d79565b80156107295780601f106106fe57610100808354040283529160200191610729565b820191906000526020600020905b81548152906001019060200180831161070c57829003601f168201915b505050505081565b60006001600160a01b0382166107595760405162461bcd60e51b815260040161045790611a48565b506001600160a01b031660009081526004602052604090205490565b61077d610bef565b6001600160a01b031661078e6108f1565b6001600160a01b0316146107b45760405162461bcd60e51b815260040161045790611b5c565b6107be6000610e13565b565b600d846040516107d09190611748565b9081526040519081900360200190205460ff16156108005760405162461bcd60e51b8152600401610457906119b4565b600b80546001810182556000919091528451610843917f0175b7a638427703f0dbe7bb9bbf987a2551717b34e79f33b5b1008d1fa01db9019060208701906113d2565b50600b546000818152600f602090815260408083208054336001600160a01b0319918216179091556010835281842080549091166001600160a01b0388161790556011825280832087905560128252808320859055600e825290912086516108ad928801906113d2565b506108b83382610e63565b6001600d866040516108ca9190611748565b908152604051908190036020019020805491151560ff199092169190911790555050505050565b6000546001600160a01b031690565b6060600280546103ad90611d79565b610917610bef565b6001600160a01b0316826001600160a01b031614156109485760405162461bcd60e51b815260040161045790611931565b8060066000610955610bef565b6001600160a01b03908116825260208083019390935260409182016000908120918716808252919093529120805460ff191692151592909217909155610999610bef565b6001600160a01b03167f17307eab39ab6107e8899845ad3d59bd9653f200f220920489ca2b5937696c31836040516109d191906117b5565b60405180910390a35050565b6109ee6109e8610bef565b83610c61565b610a0a5760405162461bcd60e51b815260040161045790611c6a565b610a1684848484610e81565b50505050565b6060610a2782610bd2565b610a435760405162461bcd60e51b815260040161045790611bda565b6000828152600e602052604090208054610a5c90611d79565b80601f0160208091040260200160405190810160405280929190818152602001828054610a8890611d79565b8015610ad55780601f10610aaa57610100808354040283529160200191610ad5565b820191906000526020600020905b815481529060010190602001808311610ab857829003601f168201915b50505050509050919050565b6001600160a01b03918216600090815260066020908152604080832093909416825291909152205460ff1690565b60009081526011602052604090205490565b610b29610bef565b6001600160a01b0316610b3a6108f1565b6001600160a01b031614610b605760405162461bcd60e51b815260040161045790611b5c565b6001600160a01b038116610b865760405162461bcd60e51b815260040161045790611870565b610b8f81610e13565b50565b6000908152601060205260409020546001600160a01b031690565b60006001600160e01b0319821663780e9d6360e01b1480610396575061039682610eb4565b6000908152600360205260409020546001600160a01b0316151590565b3390565b600081815260056020526040902080546001600160a01b0319166001600160a01b0384169081179091558190610c2882610650565b6001600160a01b03167f8c5be1e5ebec7d5bd14f71427d1e84f3dd0314c0f7b2291e5b200ac8c7c3b92560405160405180910390a45050565b6000610c6c82610bd2565b610c885760405162461bcd60e51b815260040161045790611968565b6000610c9383610650565b9050806001600160a01b0316846001600160a01b03161480610cce5750836001600160a01b0316610cc384610430565b6001600160a01b0316145b80610cde5750610cde8185610ae1565b949350505050565b826001600160a01b0316610cf982610650565b6001600160a01b031614610d1f5760405162461bcd60e51b815260040161045790611b91565b6001600160a01b038216610d455760405162461bcd60e51b8152600401610457906118ed565b610d50838383610ef4565b610d5b600082610bf3565b6001600160a01b0383166000908152600460205260408120805460019290610d84908490611d36565b90915550506001600160a01b0382166000908152600460205260408120805460019290610db2908490611d1e565b909155505060008181526003602052604080822080546001600160a01b0319166001600160a01b0386811691821790925591518493918716917fddf252ad1be2c89b69c2b068fc378daa952ba7f163c4a11628f55a4df523b3ef91a4505050565b600080546001600160a01b038381166001600160a01b0319831681178455604051919092169283917f8be0079c531659141344cd1fd0a4f28419497f9722a3daafe3b4186f6b6457e09190a35050565b610e7d828260405180602001604052806000815250610eff565b5050565b610e8c848484610ce6565b610e9884848484610f32565b610a165760405162461bcd60e51b81526004016104579061181e565b60006001600160e01b031982166380ac58cd60e01b1480610ee557506001600160e01b03198216635b5e139f60e01b145b8061039657506103968261104d565b61050f838383611066565b610f0983836110ef565b610f166000848484610f32565b61050f5760405162461bcd60e51b81526004016104579061181e565b6000610f46846001600160a01b03166111ce565b1561104257836001600160a01b031663150b7a02610f62610bef565b8786866040518563ffffffff1660e01b8152600401610f849493929190611778565b602060405180830381600087803b158015610f9e57600080fd5b505af1925050508015610fce575060408051601f3d908101601f19168201909252610fcb91810190611678565b60015b611028573d808015610ffc576040519150601f19603f3d011682016040523d82523d6000602084013e611001565b606091505b5080516110205760405162461bcd60e51b81526004016104579061181e565b805181602001fd5b6001600160e01b031916630a85bd0160e11b149050610cde565b506001949350505050565b6001600160e01b031981166301ffc9a760e01b14919050565b61107183838361050f565b6001600160a01b03831661108d57611088816111d4565b6110b0565b816001600160a01b0316836001600160a01b0316146110b0576110b08382611218565b6001600160a01b0382166110cc576110c7816112b5565b61050f565b826001600160a01b0316826001600160a01b03161461050f5761050f828261138e565b6001600160a01b0382166111155760405162461bcd60e51b815260040161045790611adb565b61111e81610bd2565b1561113b5760405162461bcd60e51b8152600401610457906118b6565b61114760008383610ef4565b6001600160a01b0382166000908152600460205260408120805460019290611170908490611d1e565b909155505060008181526003602052604080822080546001600160a01b0319166001600160a01b03861690811790915590518392907fddf252ad1be2c89b69c2b068fc378daa952ba7f163c4a11628f55a4df523b3ef908290a45050565b3b151590565b600980546000838152600a60205260408120829055600182018355919091527f6e1540171b6c0c960b71a7020d9f60077f6af931a8bbf590da0223dacf75c7af0155565b6000600161122584610731565b61122f9190611d36565b600083815260086020526040902054909150808214611282576001600160a01b03841660009081526007602090815260408083208584528252808320548484528184208190558352600890915290208190555b5060009182526008602090815260408084208490556001600160a01b039094168352600781528383209183525290812055565b6009546000906112c790600190611d36565b6000838152600a6020526040812054600980549394509092849081106112fd57634e487b7160e01b600052603260045260246000fd5b90600052602060002001549050806009838154811061132c57634e487b7160e01b600052603260045260246000fd5b6000918252602080832090910192909255828152600a9091526040808220849055858252812055600980548061137257634e487b7160e01b600052603160045260246000fd5b6001900381819060005260206000200160009055905550505050565b600061139983610731565b6001600160a01b039093166000908152600760209081526040808320868452825280832085905593825260089052919091209190915550565b8280546113de90611d79565b90600052602060002090601f0160209004810192826114005760008555611446565b82601f1061141957805160ff1916838001178555611446565b82800160010185558215611446579182015b8281111561144657825182559160200191906001019061142b565b50611452929150611456565b5090565b5b808211156114525760008155600101611457565b600067ffffffffffffffff8084111561148657611486611dca565b604051601f8501601f1916810160200182811182821017156114aa576114aa611dca565b6040528481529150818385018610156114c257600080fd5b8484602083013760006020868301015250509392505050565b80356001600160a01b038116811461039957600080fd5b600060208284031215611503578081fd5b61150c826114db565b9392505050565b60008060408385031215611525578081fd5b61152e836114db565b915061153c602084016114db565b90509250929050565b600080600060608486031215611559578081fd5b611562846114db565b9250611570602085016114db565b9150604084013590509250925092565b60008060008060808587031215611595578081fd5b61159e856114db565b93506115ac602086016114db565b925060408501359150606085013567ffffffffffffffff8111156115ce578182fd5b8501601f810187136115de578182fd5b6115ed8782356020840161146b565b91505092959194509250565b6000806040838503121561160b578182fd5b611614836114db565b915060208301358015158114611628578182fd5b809150509250929050565b60008060408385031215611645578182fd5b61164e836114db565b946020939093013593505050565b60006020828403121561166d578081fd5b813561150c81611de0565b600060208284031215611689578081fd5b815161150c81611de0565b600080600080608085870312156116a9578384fd5b843567ffffffffffffffff8111156116bf578485fd5b8501601f810187136116cf578485fd5b6116de8782356020840161146b565b945050602085013592506116f4604086016114db565b9396929550929360600135925050565b600060208284031215611715578081fd5b5035919050565b60008151808452611734816020860160208601611d4d565b601f01601f19169290920160200192915050565b6000825161175a818460208701611d4d565b9190910192915050565b6001600160a01b0391909116815260200190565b6001600160a01b03858116825284166020820152604081018390526080606082018190526000906117ab9083018461171c565b9695505050505050565b901515815260200190565b60006020825261150c602083018461171c565b6020808252602b908201527f455243373231456e756d657261626c653a206f776e657220696e646578206f7560408201526a74206f6620626f756e647360a81b606082015260800190565b60208082526032908201527f4552433732313a207472616e7366657220746f206e6f6e20455243373231526560408201527131b2b4bb32b91034b6b83632b6b2b73a32b960711b606082015260800190565b60208082526026908201527f4f776e61626c653a206e6577206f776e657220697320746865207a65726f206160408201526564647265737360d01b606082015260800190565b6020808252601c908201527f4552433732313a20746f6b656e20616c7265616479206d696e74656400000000604082015260600190565b60208082526024908201527f4552433732313a207472616e7366657220746f20746865207a65726f206164646040820152637265737360e01b606082015260800190565b60208082526019908201527f4552433732313a20617070726f766520746f2063616c6c657200000000000000604082015260600190565b6020808252602c908201527f4552433732313a206f70657261746f7220717565727920666f72206e6f6e657860408201526b34b9ba32b73a103a37b5b2b760a11b606082015260800190565b6020808252601e908201527f54686520746f6b656e205552492073686f756c6420626520756e697175650000604082015260600190565b60208082526038908201527f4552433732313a20617070726f76652063616c6c6572206973206e6f74206f7760408201527f6e6572206e6f7220617070726f76656420666f7220616c6c0000000000000000606082015260800190565b6020808252602a908201527f4552433732313a2062616c616e636520717565727920666f7220746865207a65604082015269726f206164647265737360b01b606082015260800190565b60208082526029908201527f4552433732313a206f776e657220717565727920666f72206e6f6e657869737460408201526832b73a103a37b5b2b760b91b606082015260800190565b6020808252818101527f4552433732313a206d696e7420746f20746865207a65726f2061646472657373604082015260600190565b6020808252602c908201527f4552433732313a20617070726f76656420717565727920666f72206e6f6e657860408201526b34b9ba32b73a103a37b5b2b760a11b606082015260800190565b6020808252818101527f4f776e61626c653a2063616c6c6572206973206e6f7420746865206f776e6572604082015260600190565b60208082526029908201527f4552433732313a207472616e73666572206f6620746f6b656e2074686174206960408201526839903737ba1037bbb760b91b606082015260800190565b6020808252602f908201527f4552433732314d657461646174613a2055524920717565727920666f72206e6f60408201526e3732bc34b9ba32b73a103a37b5b2b760891b606082015260800190565b60208082526021908201527f4552433732313a20617070726f76616c20746f2063757272656e74206f776e656040820152603960f91b606082015260800190565b60208082526031908201527f4552433732313a207472616e736665722063616c6c6572206973206e6f74206f6040820152701ddb995c881b9bdc88185c1c1c9bdd9959607a1b606082015260800190565b6020808252602c908201527f455243373231456e756d657261626c653a20676c6f62616c20696e646578206f60408201526b7574206f6620626f756e647360a01b606082015260800190565b90815260200190565b60ff91909116815260200190565b60008219821115611d3157611d31611db4565b500190565b600082821015611d4857611d48611db4565b500390565b60005b83811015611d68578181015183820152602001611d50565b83811115610a165750506000910152565b600281046001821680611d8d57607f821691505b60208210811415611dae57634e487b7160e01b600052602260045260246000fd5b50919050565b634e487b7160e01b600052601160045260246000fd5b634e487b7160e01b600052604160045260246000fd5b6001600160e01b031981168114610b8f57600080fdfea2646970667358221220a5c1f077f9865a5ebb6c643a713c0ea76a60d56b7b2485fce0c5534de63557a464736f6c63430008000033",
  "linkReferences": {},
  "deployedLinkReferences": {}
}