{
  "_format": "hh-sol-artifact-1",
  "contractName": "NFTCollection",
  "sourceName": "src/contracts/NFTCollection.sol",
  "abi": [
    {
      "inputs": [],
      "stateMutability": "nonpayable",
      "type": "constructor"
    },
    {
      "anonymous": false,
      "inputs": [
        {
          "indexed": true,
          "internalType": "address",
          "name": "owner",
          "type": "address"
        },
        {
          "indexed": true,
          "internalType": "address",
          "name": "approved",
          "type": "address"
        },
        {
          "indexed": true,
          "internalType": "uint256",
          "name": "tokenId",
          "type": "uint256"
        }
      ],
      "name": "Approval",
      "type": "event"
    },
    {
      "anonymous": false,
      "inputs": [
        {
          "indexed": true,
          "internalType": "address",
          "name": "owner",
          "type": "address"
        },
        {
          "indexed": true,
          "internalType": "address",
          "name": "operator",
          "type": "address"
        },
        {
          "indexed": false,
          "internalType": "bool",
          "name": "approved",
          "type": "bool"
        }
      ],
      "name": "ApprovalForAll",
      "type": "event"
    },
    {
      "anonymous": false,
      "inputs": [
        {
          "indexed": true,
          "internalType": "address",
          "name": "previousOwner",
          "type": "address"
        },
        {
          "indexed": true,
          "internalType": "address",
          "name": "newOwner",
          "type": "address"
        }
      ],
      "name": "OwnershipTransferred",
      "type": "event"
    },
    {
      "anonymous": false,
      "inputs": [
        {
          "indexed": true,
          "internalType": "address",
          "name": "from",
          "type": "address"
        },
        {
          "indexed": true,
          "internalType": "address",
          "name": "to",
          "type": "address"
        },
        {
          "indexed": true,
          "internalType": "uint256",
          "name": "tokenId",
          "type": "uint256"
        }
      ],
      "name": "Transfer",
      "type": "event"
    },
    {
      "inputs": [
        {
          "internalType": "address",
          "name": "to",
          "type": "address"
        },
        {
          "internalType": "uint256",
          "name": "tokenId",
          "type": "uint256"
        }
      ],
      "name": "approve",
      "outputs": [],
      "stateMutability": "nonpayable",
      "type": "function"
    },
    {
      "inputs": [
        {
          "internalType": "address",
          "name": "owner",
          "type": "address"
        }
      ],
      "name": "balanceOf",
      "outputs": [
        {
          "internalType": "uint256",
          "name": "",
          "type": "uint256"
        }
      ],
      "stateMutability": "view",
      "type": "function"
    },
    {
      "inputs": [],
      "name": "copyrightOwner",
      "outputs": [
        {
          "internalType": "address",
          "name": "",
          "type": "address"
        }
      ],
      "stateMutability": "view",
      "type": "function"
    },
    {
      "inputs": [],
      "name": "copyrightOwnerPercentage",
      "outputs": [
        {
          "internalType": "uint256",
          "name": "",
          "type": "uint256"
        }
      ],
      "stateMutability": "view",
      "type": "function"
    },
    {
      "inputs": [],
      "name": "decimals",
      "outputs": [
        {
          "internalType": "uint8",
          "name": "",
          "type": "uint8"
        }
      ],
      "stateMutability": "view",
      "type": "function"
    },
    {
      "inputs": [
        {
          "internalType": "uint256",
          "name": "tokenId",
          "type": "uint256"
        }
      ],
      "name": "getApproved",
      "outputs": [
        {
          "internalType": "address",
          "name": "",
          "type": "address"
        }
      ],
      "stateMutability": "view",
      "type": "function"
    },
    {
      "inputs": [
        {
          "internalType": "address",
          "name": "owner",
          "type": "address"
        },
        {
          "internalType": "address",
          "name": "operator",
          "type": "address"
        }
      ],
      "name": "isApprovedForAll",
      "outputs": [
        {
          "internalType": "bool",
          "name": "",
          "type": "bool"
        }
      ],
      "stateMutability": "view",
      "type": "function"
    },
    {
      "inputs": [],
      "name": "name",
      "outputs": [
        {
          "internalType": "string",
          "name": "",
          "type": "string"
        }
      ],
      "stateMutability": "view",
      "type": "function"
    },
    {
      "inputs": [],
      "name": "owner",
      "outputs": [
        {
          "internalType": "address",
          "name": "",
          "type": "address"
        }
      ],
      "stateMutability": "view",
      "type": "function"
    },
    {
      "inputs": [
        {
          "internalType": "uint256",
          "name": "tokenId",
          "type": "uint256"
        }
      ],
      "name": "ownerOf",
      "outputs": [
        {
          "internalType": "address",
          "name": "",
          "type": "address"
        }
      ],
      "stateMutability": "view",
      "type": "function"
    },
    {
      "inputs": [],
      "name": "ownerPercentage",
      "outputs": [
        {
          "internalType": "uint256",
          "name": "",
          "type": "uint256"
        }
      ],
      "stateMutability": "view",
      "type": "function"
    },
    {
      "inputs": [],
      "name": "renounceOwnership",
      "outputs": [],
      "stateMutability": "nonpayable",
      "type": "function"
    },
    {
      "inputs": [
        {
          "internalType": "string",
          "name": "_tokenURI",
          "type": "string"
        }
      ],
      "name": "safeMint",
      "outputs": [],
      "stateMutability": "nonpayable",
      "type": "function"
    },
    {
      "inputs": [
        {
          "internalType": "address",
          "name": "from",
          "type": "address"
        },
        {
          "internalType": "address",
          "name": "to",
          "type": "address"
        },
        {
          "internalType": "uint256",
          "name": "tokenId",
          "type": "uint256"
        }
      ],
      "name": "safeTransferFrom",
      "outputs": [],
      "stateMutability": "nonpayable",
      "type": "function"
    },
    {
      "inputs": [
        {
          "internalType": "address",
          "name": "from",
          "type": "address"
        },
        {
          "internalType": "address",
          "name": "to",
          "type": "address"
        },
        {
          "internalType": "uint256",
          "name": "tokenId",
          "type": "uint256"
        },
        {
          "internalType": "bytes",
          "name": "_data",
          "type": "bytes"
        }
      ],
      "name": "safeTransferFrom",
      "outputs": [],
      "stateMutability": "nonpayable",
      "type": "function"
    },
    {
      "inputs": [],
      "name": "serviceChargePercentage",
      "outputs": [
        {
          "internalType": "uint256",
          "name": "",
          "type": "uint256"
        }
      ],
      "stateMutability": "view",
      "type": "function"
    },
    {
      "inputs": [
        {
          "internalType": "address",
          "name": "operator",
          "type": "address"
        },
        {
          "internalType": "bool",
          "name": "approved",
          "type": "bool"
        }
      ],
      "name": "setApprovalForAll",
      "outputs": [],
      "stateMutability": "nonpayable",
      "type": "function"
    },
    {
      "inputs": [
        {
          "internalType": "bytes4",
          "name": "interfaceId",
          "type": "bytes4"
        }
      ],
      "name": "supportsInterface",
      "outputs": [
        {
          "internalType": "bool",
          "name": "",
          "type": "bool"
        }
      ],
      "stateMutability": "view",
      "type": "function"
    },
    {
      "inputs": [],
      "name": "symbol",
      "outputs": [
        {
          "internalType": "string",
          "name": "",
          "type": "string"
        }
      ],
      "stateMutability": "view",
      "type": "function"
    },
    {
      "inputs": [
        {
          "internalType": "uint256",
          "name": "index",
          "type": "uint256"
        }
      ],
      "name": "tokenByIndex",
      "outputs": [
        {
          "internalType": "uint256",
          "name": "",
          "type": "uint256"
        }
      ],
      "stateMutability": "view",
      "type": "function"
    },
    {
      "inputs": [
        {
          "internalType": "address",
          "name": "owner",
          "type": "address"
        },
        {
          "internalType": "uint256",
          "name": "index",
          "type": "uint256"
        }
      ],
      "name": "tokenOfOwnerByIndex",
      "outputs": [
        {
          "internalType": "uint256",
          "name": "",
          "type": "uint256"
        }
      ],
      "stateMutability": "view",
      "type": "function"
    },
    {
      "inputs": [
        {
          "internalType": "uint256",
          "name": "tokenId",
          "type": "uint256"
        }
      ],
      "name": "tokenURI",
      "outputs": [
        {
          "internalType": "string",
          "name": "",
          "type": "string"
        }
      ],
      "stateMutability": "view",
      "type": "function"
    },
    {
      "inputs": [
        {
          "internalType": "uint256",
          "name": "",
          "type": "uint256"
        }
      ],
      "name": "tokenURIs",
      "outputs": [
        {
          "internalType": "string",
          "name": "",
          "type": "string"
        }
      ],
      "stateMutability": "view",
      "type": "function"
    },
    {
      "inputs": [],
      "name": "totalSupply",
      "outputs": [
        {
          "internalType": "uint256",
          "name": "",
          "type": "uint256"
        }
      ],
      "stateMutability": "view",
      "type": "function"
    },
    {
      "inputs": [
        {
          "internalType": "address",
          "name": "from",
          "type": "address"
        },
        {
          "internalType": "address",
          "name": "to",
          "type": "address"
        },
        {
          "internalType": "uint256",
          "name": "tokenId",
          "type": "uint256"
        }
      ],
      "name": "transferFrom",
      "outputs": [],
      "stateMutability": "nonpayable",
      "type": "function"
    },
    {
      "inputs": [
        {
          "internalType": "address",
          "name": "newOwner",
          "type": "address"
        }
      ],
      "name": "transferOwnership",
      "outputs": [],
      "stateMutability": "nonpayable",
      "type": "function"
    }
  ],
  "bytecode": "0x6080604052600c805460ff191660121790553480156200001e57600080fd5b506040518060400160405280600e81526020016d36aa219021b7b63632b1ba34b7b760911b815250604051806040016040528060038152602001626d544360e81b8152506200007c62000076620000b060201b60201c565b620000b4565b81516200009190600190602085019062000104565b508051620000a790600290602084019062000104565b505050620001e7565b3390565b600080546001600160a01b038381166001600160a01b0319831681178455604051919092169283917f8be0079c531659141344cd1fd0a4f28419497f9722a3daafe3b4186f6b6457e09190a35050565b8280546200011290620001aa565b90600052602060002090601f01602090048101928262000136576000855562000181565b82601f106200015157805160ff191683800117855562000181565b8280016001018555821562000181579182015b828111156200018157825182559160200191906001019062000164565b506200018f92915062000193565b5090565b5b808211156200018f576000815560010162000194565b600281046001821680620001bf57607f821691505b60208210811415620001e157634e487b7160e01b600052602260045260246000fd5b50919050565b611d5580620001f76000396000f3fe608060405234801561001057600080fd5b506004361061018e5760003560e01c80636c8b703f116100de57806395d89b4111610097578063c87b56dd11610071578063c87b56dd14610316578063d4d0141314610329578063e985e9c514610331578063f2fde38b146103445761018e565b806395d89b41146102e8578063a22cb465146102f0578063b88d4fde146103035761018e565b80636c8b703f146102aa5780636dfe7a9f146102bd57806370a08231146102c5578063715018a6146102d85780638da5cb5b146102e05780638f37d9bb146102565761018e565b80632f745c591161014b57806342842e0e1161012557806342842e0e1461025e5780634f6ccce7146102715780636352211e14610284578063695850fb146102975761018e565b80632f745c591461022e578063313ce5671461024157806341da7555146102565761018e565b806301ffc9a71461019357806306fdde03146101bc578063081812fc146101d1578063095ea7b3146101f157806318160ddd1461020657806323b872dd1461021b575b600080fd5b6101a66101a13660046115af565b610357565b6040516101b391906116de565b60405180910390f35b6101c461036a565b6040516101b391906116e9565b6101e46101df36600461162d565b6103fc565b6040516101b3919061168d565b6102046101ff366004611586565b610448565b005b61020e6104e0565b6040516101b39190611c30565b610204610229366004611498565b6104e6565b61020e61023c366004611586565b61051e565b610249610570565b6040516101b39190611c39565b61020e610579565b61020461026c366004611498565b61057e565b61020e61027f36600461162d565b610599565b6101e461029236600461162d565b6105f4565b6102046102a53660046115e7565b610629565b6101c46102b836600461162d565b610722565b61020e6107ce565b61020e6102d3366004611445565b6107d3565b610204610817565b6101e4610862565b6101c4610871565b6102046102fe36600461154c565b610880565b6102046103113660046114d3565b61094e565b6101c461032436600461162d565b61098d565b6101e4610a52565b6101a661033f366004611466565b610a61565b610204610352366004611445565b610a8f565b600061036282610b00565b90505b919050565b60606001805461037990611ca2565b80601f01602080910402602001604051908101604052809291908181526020018280546103a590611ca2565b80156103f25780601f106103c7576101008083540402835291602001916103f2565b820191906000526020600020905b8154815290600101906020018083116103d557829003601f168201915b5050505050905090565b600061040782610b25565b61042c5760405162461bcd60e51b815260040161042390611a39565b60405180910390fd5b506000908152600560205260409020546001600160a01b031690565b6000610453826105f4565b9050806001600160a01b0316836001600160a01b031614156104875760405162461bcd60e51b815260040161042390611b52565b806001600160a01b0316610499610b42565b6001600160a01b031614806104b557506104b58161033f610b42565b6104d15760405162461bcd60e51b815260040161042390611914565b6104db8383610b46565b505050565b60095490565b6104f76104f1610b42565b82610bb4565b6105135760405162461bcd60e51b815260040161042390611b93565b6104db838383610c39565b6000610529836107d3565b82106105475760405162461bcd60e51b8152600401610423906116fc565b506001600160a01b03919091166000908152600760209081526040808320938352929052205490565b600c5460ff1681565b600581565b6104db8383836040518060200160405280600081525061094e565b60006105a36104e0565b82106105c15760405162461bcd60e51b815260040161042390611be4565b600982815481106105e257634e487b7160e01b600052603260045260246000fd5b90600052602060002001549050919050565b6000818152600360205260408120546001600160a01b0316806103625760405162461bcd60e51b8152600401610423906119bb565b600d816040516106399190611671565b9081526040519081900360200190205460ff16156106695760405162461bcd60e51b8152600401610423906118dd565b600b805460018101825560009190915281516106ac917f0175b7a638427703f0dbe7bb9bbf987a2551717b34e79f33b5b1008d1fa01db901906020840190611325565b50600f80546001600160a01b03191633179055600b546000818152600e6020908152604090912083516106e192850190611325565b506106ec3382610d66565b6001600d836040516106fe9190611671565b908152604051908190036020019020805491151560ff199092169190911790555050565b600b818154811061073257600080fd5b90600052602060002001600091509050805461074d90611ca2565b80601f016020809104026020016040519081016040528092919081815260200182805461077990611ca2565b80156107c65780601f1061079b576101008083540402835291602001916107c6565b820191906000526020600020905b8154815290600101906020018083116107a957829003601f168201915b505050505081565b600281565b60006001600160a01b0382166107fb5760405162461bcd60e51b815260040161042390611971565b506001600160a01b031660009081526004602052604090205490565b61081f610b42565b6001600160a01b0316610830610862565b6001600160a01b0316146108565760405162461bcd60e51b815260040161042390611a85565b6108606000610d84565b565b6000546001600160a01b031690565b60606002805461037990611ca2565b610888610b42565b6001600160a01b0316826001600160a01b031614156108b95760405162461bcd60e51b81526004016104239061185a565b80600660006108c6610b42565b6001600160a01b03908116825260208083019390935260409182016000908120918716808252919093529120805460ff19169215159290921790915561090a610b42565b6001600160a01b03167f17307eab39ab6107e8899845ad3d59bd9653f200f220920489ca2b5937696c318360405161094291906116de565b60405180910390a35050565b61095f610959610b42565b83610bb4565b61097b5760405162461bcd60e51b815260040161042390611b93565b61098784848484610dd4565b50505050565b606061099882610b25565b6109b45760405162461bcd60e51b815260040161042390611b03565b6000828152600e6020526040902080546109cd90611ca2565b80601f01602080910402602001604051908101604052809291908181526020018280546109f990611ca2565b8015610a465780601f10610a1b57610100808354040283529160200191610a46565b820191906000526020600020905b815481529060010190602001808311610a2957829003601f168201915b50505050509050919050565b600f546001600160a01b031690565b6001600160a01b03918216600090815260066020908152604080832093909416825291909152205460ff1690565b610a97610b42565b6001600160a01b0316610aa8610862565b6001600160a01b031614610ace5760405162461bcd60e51b815260040161042390611a85565b6001600160a01b038116610af45760405162461bcd60e51b815260040161042390611799565b610afd81610d84565b50565b60006001600160e01b0319821663780e9d6360e01b1480610362575061036282610e07565b6000908152600360205260409020546001600160a01b0316151590565b3390565b600081815260056020526040902080546001600160a01b0319166001600160a01b0384169081179091558190610b7b826105f4565b6001600160a01b03167f8c5be1e5ebec7d5bd14f71427d1e84f3dd0314c0f7b2291e5b200ac8c7c3b92560405160405180910390a45050565b6000610bbf82610b25565b610bdb5760405162461bcd60e51b815260040161042390611891565b6000610be6836105f4565b9050806001600160a01b0316846001600160a01b03161480610c215750836001600160a01b0316610c16846103fc565b6001600160a01b0316145b80610c315750610c318185610a61565b949350505050565b826001600160a01b0316610c4c826105f4565b6001600160a01b031614610c725760405162461bcd60e51b815260040161042390611aba565b6001600160a01b038216610c985760405162461bcd60e51b815260040161042390611816565b610ca3838383610e47565b610cae600082610b46565b6001600160a01b0383166000908152600460205260408120805460019290610cd7908490611c5f565b90915550506001600160a01b0382166000908152600460205260408120805460019290610d05908490611c47565b909155505060008181526003602052604080822080546001600160a01b0319166001600160a01b0386811691821790925591518493918716917fddf252ad1be2c89b69c2b068fc378daa952ba7f163c4a11628f55a4df523b3ef91a4505050565b610d80828260405180602001604052806000815250610e52565b5050565b600080546001600160a01b038381166001600160a01b0319831681178455604051919092169283917f8be0079c531659141344cd1fd0a4f28419497f9722a3daafe3b4186f6b6457e09190a35050565b610ddf848484610c39565b610deb84848484610e85565b6109875760405162461bcd60e51b815260040161042390611747565b60006001600160e01b031982166380ac58cd60e01b1480610e3857506001600160e01b03198216635b5e139f60e01b145b80610362575061036282610fa0565b6104db838383610fb9565b610e5c8383611042565b610e696000848484610e85565b6104db5760405162461bcd60e51b815260040161042390611747565b6000610e99846001600160a01b0316611121565b15610f9557836001600160a01b031663150b7a02610eb5610b42565b8786866040518563ffffffff1660e01b8152600401610ed794939291906116a1565b602060405180830381600087803b158015610ef157600080fd5b505af1925050508015610f21575060408051601f3d908101601f19168201909252610f1e918101906115cb565b60015b610f7b573d808015610f4f576040519150601f19603f3d011682016040523d82523d6000602084013e610f54565b606091505b508051610f735760405162461bcd60e51b815260040161042390611747565b805181602001fd5b6001600160e01b031916630a85bd0160e11b149050610c31565b506001949350505050565b6001600160e01b031981166301ffc9a760e01b14919050565b610fc48383836104db565b6001600160a01b038316610fe057610fdb81611127565b611003565b816001600160a01b0316836001600160a01b03161461100357611003838261116b565b6001600160a01b03821661101f5761101a81611208565b6104db565b826001600160a01b0316826001600160a01b0316146104db576104db82826112e1565b6001600160a01b0382166110685760405162461bcd60e51b815260040161042390611a04565b61107181610b25565b1561108e5760405162461bcd60e51b8152600401610423906117df565b61109a60008383610e47565b6001600160a01b03821660009081526004602052604081208054600192906110c3908490611c47565b909155505060008181526003602052604080822080546001600160a01b0319166001600160a01b03861690811790915590518392907fddf252ad1be2c89b69c2b068fc378daa952ba7f163c4a11628f55a4df523b3ef908290a45050565b3b151590565b600980546000838152600a60205260408120829055600182018355919091527f6e1540171b6c0c960b71a7020d9f60077f6af931a8bbf590da0223dacf75c7af0155565b60006001611178846107d3565b6111829190611c5f565b6000838152600860205260409020549091508082146111d5576001600160a01b03841660009081526007602090815260408083208584528252808320548484528184208190558352600890915290208190555b5060009182526008602090815260408084208490556001600160a01b039094168352600781528383209183525290812055565b60095460009061121a90600190611c5f565b6000838152600a60205260408120546009805493945090928490811061125057634e487b7160e01b600052603260045260246000fd5b90600052602060002001549050806009838154811061127f57634e487b7160e01b600052603260045260246000fd5b6000918252602080832090910192909255828152600a909152604080822084905585825281205560098054806112c557634e487b7160e01b600052603160045260246000fd5b6001900381819060005260206000200160009055905550505050565b60006112ec836107d3565b6001600160a01b039093166000908152600760209081526040808320868452825280832085905593825260089052919091209190915550565b82805461133190611ca2565b90600052602060002090601f0160209004810192826113535760008555611399565b82601f1061136c57805160ff1916838001178555611399565b82800160010185558215611399579182015b8281111561139957825182559160200191906001019061137e565b506113a59291506113a9565b5090565b5b808211156113a557600081556001016113aa565b600067ffffffffffffffff808411156113d9576113d9611cf3565b604051601f8501601f1916810160200182811182821017156113fd576113fd611cf3565b60405284815291508183850186101561141557600080fd5b8484602083013760006020868301015250509392505050565b80356001600160a01b038116811461036557600080fd5b600060208284031215611456578081fd5b61145f8261142e565b9392505050565b60008060408385031215611478578081fd5b6114818361142e565b915061148f6020840161142e565b90509250929050565b6000806000606084860312156114ac578081fd5b6114b58461142e565b92506114c36020850161142e565b9150604084013590509250925092565b600080600080608085870312156114e8578081fd5b6114f18561142e565b93506114ff6020860161142e565b925060408501359150606085013567ffffffffffffffff811115611521578182fd5b8501601f81018713611531578182fd5b611540878235602084016113be565b91505092959194509250565b6000806040838503121561155e578182fd5b6115678361142e565b91506020830135801515811461157b578182fd5b809150509250929050565b60008060408385031215611598578182fd5b6115a18361142e565b946020939093013593505050565b6000602082840312156115c0578081fd5b813561145f81611d09565b6000602082840312156115dc578081fd5b815161145f81611d09565b6000602082840312156115f8578081fd5b813567ffffffffffffffff81111561160e578182fd5b8201601f8101841361161e578182fd5b610c31848235602084016113be565b60006020828403121561163e578081fd5b5035919050565b6000815180845261165d816020860160208601611c76565b601f01601f19169290920160200192915050565b60008251611683818460208701611c76565b9190910192915050565b6001600160a01b0391909116815260200190565b6001600160a01b03858116825284166020820152604081018390526080606082018190526000906116d490830184611645565b9695505050505050565b901515815260200190565b60006020825261145f6020830184611645565b6020808252602b908201527f455243373231456e756d657261626c653a206f776e657220696e646578206f7560408201526a74206f6620626f756e647360a81b606082015260800190565b60208082526032908201527f4552433732313a207472616e7366657220746f206e6f6e20455243373231526560408201527131b2b4bb32b91034b6b83632b6b2b73a32b960711b606082015260800190565b60208082526026908201527f4f776e61626c653a206e6577206f776e657220697320746865207a65726f206160408201526564647265737360d01b606082015260800190565b6020808252601c908201527f4552433732313a20746f6b656e20616c7265616479206d696e74656400000000604082015260600190565b60208082526024908201527f4552433732313a207472616e7366657220746f20746865207a65726f206164646040820152637265737360e01b606082015260800190565b60208082526019908201527f4552433732313a20617070726f766520746f2063616c6c657200000000000000604082015260600190565b6020808252602c908201527f4552433732313a206f70657261746f7220717565727920666f72206e6f6e657860408201526b34b9ba32b73a103a37b5b2b760a11b606082015260800190565b6020808252601e908201527f54686520746f6b656e205552492073686f756c6420626520756e697175650000604082015260600190565b60208082526038908201527f4552433732313a20617070726f76652063616c6c6572206973206e6f74206f7760408201527f6e6572206e6f7220617070726f76656420666f7220616c6c0000000000000000606082015260800190565b6020808252602a908201527f4552433732313a2062616c616e636520717565727920666f7220746865207a65604082015269726f206164647265737360b01b606082015260800190565b60208082526029908201527f4552433732313a206f776e657220717565727920666f72206e6f6e657869737460408201526832b73a103a37b5b2b760b91b606082015260800190565b6020808252818101527f4552433732313a206d696e7420746f20746865207a65726f2061646472657373604082015260600190565b6020808252602c908201527f4552433732313a20617070726f76656420717565727920666f72206e6f6e657860408201526b34b9ba32b73a103a37b5b2b760a11b606082015260800190565b6020808252818101527f4f776e61626c653a2063616c6c6572206973206e6f7420746865206f776e6572604082015260600190565b60208082526029908201527f4552433732313a207472616e73666572206f6620746f6b656e2074686174206960408201526839903737ba1037bbb760b91b606082015260800190565b6020808252602f908201527f4552433732314d657461646174613a2055524920717565727920666f72206e6f60408201526e3732bc34b9ba32b73a103a37b5b2b760891b606082015260800190565b60208082526021908201527f4552433732313a20617070726f76616c20746f2063757272656e74206f776e656040820152603960f91b606082015260800190565b60208082526031908201527f4552433732313a207472616e736665722063616c6c6572206973206e6f74206f6040820152701ddb995c881b9bdc88185c1c1c9bdd9959607a1b606082015260800190565b6020808252602c908201527f455243373231456e756d657261626c653a20676c6f62616c20696e646578206f60408201526b7574206f6620626f756e647360a01b606082015260800190565b90815260200190565b60ff91909116815260200190565b60008219821115611c5a57611c5a611cdd565b500190565b600082821015611c7157611c71611cdd565b500390565b60005b83811015611c91578181015183820152602001611c79565b838111156109875750506000910152565b600281046001821680611cb657607f821691505b60208210811415611cd757634e487b7160e01b600052602260045260246000fd5b50919050565b634e487b7160e01b600052601160045260246000fd5b634e487b7160e01b600052604160045260246000fd5b6001600160e01b031981168114610afd57600080fdfea264697066735822122072c77c283e804756639d4fad620a9eb1f8327967b28957303b8f9f56db687fb464736f6c63430008000033",
  "linkReferences": {},
  "deployedLinkReferences": {}
}