{
  "_format": "hh-sol-artifact-1",
  "contractName": "NFTCollection",
  "sourceName": "src/contracts/NFTCollection.sol",
  "abi": [
    {
      "inputs": [
        {
          "internalType": "address",
          "name": "initialRoyaltiesReceiver",
          "type": "address"
        },
        {
          "internalType": "address[]",
          "name": "_payees",
          "type": "address[]"
        },
        {
          "internalType": "uint256[]",
          "name": "_shares",
          "type": "uint256[]"
        }
      ],
      "stateMutability": "payable",
      "type": "constructor"
    },
    {
      "anonymous": false,
      "inputs": [
        {
          "indexed": true,
          "internalType": "address",
          "name": "owner",
          "type": "address"
        },
        {
          "indexed": true,
          "internalType": "address",
          "name": "approved",
          "type": "address"
        },
        {
          "indexed": true,
          "internalType": "uint256",
          "name": "tokenId",
          "type": "uint256"
        }
      ],
      "name": "Approval",
      "type": "event"
    },
    {
      "anonymous": false,
      "inputs": [
        {
          "indexed": true,
          "internalType": "address",
          "name": "owner",
          "type": "address"
        },
        {
          "indexed": true,
          "internalType": "address",
          "name": "operator",
          "type": "address"
        },
        {
          "indexed": false,
          "internalType": "bool",
          "name": "approved",
          "type": "bool"
        }
      ],
      "name": "ApprovalForAll",
      "type": "event"
    },
    {
      "anonymous": false,
      "inputs": [
        {
          "indexed": true,
          "internalType": "address",
          "name": "previousOwner",
          "type": "address"
        },
        {
          "indexed": true,
          "internalType": "address",
          "name": "newOwner",
          "type": "address"
        }
      ],
      "name": "OwnershipTransferred",
      "type": "event"
    },
    {
      "anonymous": false,
      "inputs": [
        {
          "indexed": false,
          "internalType": "address",
          "name": "account",
          "type": "address"
        },
        {
          "indexed": false,
          "internalType": "uint256",
          "name": "shares",
          "type": "uint256"
        }
      ],
      "name": "PayeeAdded",
      "type": "event"
    },
    {
      "anonymous": false,
      "inputs": [
        {
          "indexed": false,
          "internalType": "address",
          "name": "from",
          "type": "address"
        },
        {
          "indexed": false,
          "internalType": "uint256",
          "name": "amount",
          "type": "uint256"
        }
      ],
      "name": "PaymentReceived",
      "type": "event"
    },
    {
      "anonymous": false,
      "inputs": [
        {
          "indexed": false,
          "internalType": "address",
          "name": "to",
          "type": "address"
        },
        {
          "indexed": false,
          "internalType": "uint256",
          "name": "amount",
          "type": "uint256"
        }
      ],
      "name": "PaymentReleased",
      "type": "event"
    },
    {
      "anonymous": false,
      "inputs": [
        {
          "indexed": true,
          "internalType": "address",
          "name": "from",
          "type": "address"
        },
        {
          "indexed": true,
          "internalType": "address",
          "name": "to",
          "type": "address"
        },
        {
          "indexed": true,
          "internalType": "uint256",
          "name": "tokenId",
          "type": "uint256"
        }
      ],
      "name": "Transfer",
      "type": "event"
    },
    {
      "inputs": [
        {
          "internalType": "address",
          "name": "to",
          "type": "address"
        },
        {
          "internalType": "uint256",
          "name": "tokenId",
          "type": "uint256"
        }
      ],
      "name": "approve",
      "outputs": [],
      "stateMutability": "nonpayable",
      "type": "function"
    },
    {
      "inputs": [
        {
          "internalType": "address",
          "name": "owner",
          "type": "address"
        }
      ],
      "name": "balanceOf",
      "outputs": [
        {
          "internalType": "uint256",
          "name": "",
          "type": "uint256"
        }
      ],
      "stateMutability": "view",
      "type": "function"
    },
    {
      "inputs": [
        {
          "internalType": "uint256",
          "name": "tokenId",
          "type": "uint256"
        }
      ],
      "name": "getApproved",
      "outputs": [
        {
          "internalType": "address",
          "name": "",
          "type": "address"
        }
      ],
      "stateMutability": "view",
      "type": "function"
    },
    {
      "inputs": [
        {
          "internalType": "address",
          "name": "owner",
          "type": "address"
        },
        {
          "internalType": "address",
          "name": "operator",
          "type": "address"
        }
      ],
      "name": "isApprovedForAll",
      "outputs": [
        {
          "internalType": "bool",
          "name": "",
          "type": "bool"
        }
      ],
      "stateMutability": "view",
      "type": "function"
    },
    {
      "inputs": [],
      "name": "name",
      "outputs": [
        {
          "internalType": "string",
          "name": "",
          "type": "string"
        }
      ],
      "stateMutability": "view",
      "type": "function"
    },
    {
      "inputs": [],
      "name": "owner",
      "outputs": [
        {
          "internalType": "address",
          "name": "",
          "type": "address"
        }
      ],
      "stateMutability": "view",
      "type": "function"
    },
    {
      "inputs": [
        {
          "internalType": "uint256",
          "name": "tokenId",
          "type": "uint256"
        }
      ],
      "name": "ownerOf",
      "outputs": [
        {
          "internalType": "address",
          "name": "",
          "type": "address"
        }
      ],
      "stateMutability": "view",
      "type": "function"
    },
    {
      "inputs": [
        {
          "internalType": "uint256",
          "name": "index",
          "type": "uint256"
        }
      ],
      "name": "payee",
      "outputs": [
        {
          "internalType": "address",
          "name": "",
          "type": "address"
        }
      ],
      "stateMutability": "view",
      "type": "function"
    },
    {
      "inputs": [
        {
          "internalType": "address payable",
          "name": "account",
          "type": "address"
        }
      ],
      "name": "release",
      "outputs": [],
      "stateMutability": "nonpayable",
      "type": "function"
    },
    {
      "inputs": [
        {
          "internalType": "address",
          "name": "account",
          "type": "address"
        }
      ],
      "name": "released",
      "outputs": [
        {
          "internalType": "uint256",
          "name": "",
          "type": "uint256"
        }
      ],
      "stateMutability": "view",
      "type": "function"
    },
    {
      "inputs": [],
      "name": "renounceOwnership",
      "outputs": [],
      "stateMutability": "nonpayable",
      "type": "function"
    },
    {
      "inputs": [],
      "name": "royaltiesPercentage",
      "outputs": [
        {
          "internalType": "uint256",
          "name": "",
          "type": "uint256"
        }
      ],
      "stateMutability": "view",
      "type": "function"
    },
    {
      "inputs": [],
      "name": "royaltiesReceiver",
      "outputs": [
        {
          "internalType": "address",
          "name": "",
          "type": "address"
        }
      ],
      "stateMutability": "nonpayable",
      "type": "function"
    },
    {
      "inputs": [
        {
          "internalType": "uint256",
          "name": "_salePrice",
          "type": "uint256"
        }
      ],
      "name": "royaltyInfo",
      "outputs": [
        {
          "internalType": "address",
          "name": "receiver",
          "type": "address"
        },
        {
          "internalType": "uint256",
          "name": "royaltyAmount",
          "type": "uint256"
        }
      ],
      "stateMutability": "view",
      "type": "function"
    },
    {
      "inputs": [
        {
          "internalType": "string",
          "name": "_tokenURI",
          "type": "string"
        }
      ],
      "name": "safeMint",
      "outputs": [],
      "stateMutability": "nonpayable",
      "type": "function"
    },
    {
      "inputs": [
        {
          "internalType": "address",
          "name": "from",
          "type": "address"
        },
        {
          "internalType": "address",
          "name": "to",
          "type": "address"
        },
        {
          "internalType": "uint256",
          "name": "tokenId",
          "type": "uint256"
        }
      ],
      "name": "safeTransferFrom",
      "outputs": [],
      "stateMutability": "nonpayable",
      "type": "function"
    },
    {
      "inputs": [
        {
          "internalType": "address",
          "name": "from",
          "type": "address"
        },
        {
          "internalType": "address",
          "name": "to",
          "type": "address"
        },
        {
          "internalType": "uint256",
          "name": "tokenId",
          "type": "uint256"
        },
        {
          "internalType": "bytes",
          "name": "_data",
          "type": "bytes"
        }
      ],
      "name": "safeTransferFrom",
      "outputs": [],
      "stateMutability": "nonpayable",
      "type": "function"
    },
    {
      "inputs": [
        {
          "internalType": "address",
          "name": "operator",
          "type": "address"
        },
        {
          "internalType": "bool",
          "name": "approved",
          "type": "bool"
        }
      ],
      "name": "setApprovalForAll",
      "outputs": [],
      "stateMutability": "nonpayable",
      "type": "function"
    },
    {
      "inputs": [
        {
          "internalType": "address",
          "name": "newRoyaltiesReceiver",
          "type": "address"
        }
      ],
      "name": "setRoyaltiesReceiver",
      "outputs": [],
      "stateMutability": "nonpayable",
      "type": "function"
    },
    {
      "inputs": [
        {
          "internalType": "address",
          "name": "account",
          "type": "address"
        }
      ],
      "name": "shares",
      "outputs": [
        {
          "internalType": "uint256",
          "name": "",
          "type": "uint256"
        }
      ],
      "stateMutability": "view",
      "type": "function"
    },
    {
      "inputs": [
        {
          "internalType": "bytes4",
          "name": "interfaceId",
          "type": "bytes4"
        }
      ],
      "name": "supportsInterface",
      "outputs": [
        {
          "internalType": "bool",
          "name": "",
          "type": "bool"
        }
      ],
      "stateMutability": "view",
      "type": "function"
    },
    {
      "inputs": [],
      "name": "symbol",
      "outputs": [
        {
          "internalType": "string",
          "name": "",
          "type": "string"
        }
      ],
      "stateMutability": "view",
      "type": "function"
    },
    {
      "inputs": [
        {
          "internalType": "uint256",
          "name": "index",
          "type": "uint256"
        }
      ],
      "name": "tokenByIndex",
      "outputs": [
        {
          "internalType": "uint256",
          "name": "",
          "type": "uint256"
        }
      ],
      "stateMutability": "view",
      "type": "function"
    },
    {
      "inputs": [
        {
          "internalType": "address",
          "name": "owner",
          "type": "address"
        },
        {
          "internalType": "uint256",
          "name": "index",
          "type": "uint256"
        }
      ],
      "name": "tokenOfOwnerByIndex",
      "outputs": [
        {
          "internalType": "uint256",
          "name": "",
          "type": "uint256"
        }
      ],
      "stateMutability": "view",
      "type": "function"
    },
    {
      "inputs": [
        {
          "internalType": "uint256",
          "name": "tokenId",
          "type": "uint256"
        }
      ],
      "name": "tokenURI",
      "outputs": [
        {
          "internalType": "string",
          "name": "",
          "type": "string"
        }
      ],
      "stateMutability": "view",
      "type": "function"
    },
    {
      "inputs": [
        {
          "internalType": "uint256",
          "name": "",
          "type": "uint256"
        }
      ],
      "name": "tokenURIs",
      "outputs": [
        {
          "internalType": "string",
          "name": "",
          "type": "string"
        }
      ],
      "stateMutability": "view",
      "type": "function"
    },
    {
      "inputs": [],
      "name": "totalReleased",
      "outputs": [
        {
          "internalType": "uint256",
          "name": "",
          "type": "uint256"
        }
      ],
      "stateMutability": "view",
      "type": "function"
    },
    {
      "inputs": [],
      "name": "totalShares",
      "outputs": [
        {
          "internalType": "uint256",
          "name": "",
          "type": "uint256"
        }
      ],
      "stateMutability": "view",
      "type": "function"
    },
    {
      "inputs": [],
      "name": "totalSupply",
      "outputs": [
        {
          "internalType": "uint256",
          "name": "",
          "type": "uint256"
        }
      ],
      "stateMutability": "view",
      "type": "function"
    },
    {
      "inputs": [
        {
          "internalType": "address",
          "name": "from",
          "type": "address"
        },
        {
          "internalType": "address",
          "name": "to",
          "type": "address"
        },
        {
          "internalType": "uint256",
          "name": "tokenId",
          "type": "uint256"
        }
      ],
      "name": "transferFrom",
      "outputs": [],
      "stateMutability": "nonpayable",
      "type": "function"
    },
    {
      "inputs": [
        {
          "internalType": "address",
          "name": "newOwner",
          "type": "address"
        }
      ],
      "name": "transferOwnership",
      "outputs": [],
      "stateMutability": "nonpayable",
      "type": "function"
    },
    {
      "stateMutability": "payable",
      "type": "receive"
    }
  ],
  "bytecode": "0x608060405260405162002c1e38038062002c1e833981016040819052620000269162000472565b81816040518060400160405280600e81526020016d36aa219021b7b63632b1ba34b7b760911b815250604051806040016040528060038152602001626d544360e81b815250620000856200007f620001b560201b60201c565b620001b9565b81516200009a9060019060208501906200033b565b508051620000b09060029060208401906200033b565b5050508051825114620000e05760405162461bcd60e51b8152600401620000d790620005b9565b60405180910390fd5b6000825111620001045760405162461bcd60e51b8152600401620000d79062000656565b60005b82518110156200018857620001738382815181106200013657634e487b7160e01b600052603260045260246000fd5b60200260200101518383815181106200015f57634e487b7160e01b600052603260045260246000fd5b60200260200101516200020960201b60201c565b806200017f816200076e565b91505062000107565b5050601380546001600160a01b0319166001600160a01b03959095169490941790935550620007b8915050565b3390565b600080546001600160a01b038381166001600160a01b0319831681178455604051919092169283917f8be0079c531659141344cd1fd0a4f28419497f9722a3daafe3b4186f6b6457e09190a35050565b6001600160a01b038216620002325760405162461bcd60e51b8152600401620000d7906200056d565b60008111620002555760405162461bcd60e51b8152600401620000d7906200068d565b6001600160a01b0382166000908152600d6020526040902054156200028e5760405162461bcd60e51b8152600401620000d7906200060b565b600f8054600181019091557f8d1108e10bcb7c27dddfc02ed9d693a074039d026cf4ea4240b40f7d581ac8020180546001600160a01b0319166001600160a01b0384169081179091556000908152600d60205260409020819055600b54620002f890829062000716565b600b556040517f40c340f65e17194d14ddddb073d3c9f888e3cb52b5aae0c6c7706b4fbc905fac906200032f908490849062000554565b60405180910390a15050565b828054620003499062000731565b90600052602060002090601f0160209004810192826200036d5760008555620003b8565b82601f106200038857805160ff1916838001178555620003b8565b82800160010185558215620003b8579182015b82811115620003b85782518255916020019190600101906200039b565b50620003c6929150620003ca565b5090565b5b80821115620003c65760008155600101620003cb565b80516001600160a01b0381168114620003f957600080fd5b919050565b600082601f8301126200040f578081fd5b81516020620004286200042283620006f0565b620006c4565b828152818101908583018385028701840188101562000445578586fd5b855b85811015620004655781518452928401929084019060010162000447565b5090979650505050505050565b60008060006060848603121562000487578283fd5b6200049284620003e1565b602085810151919450906001600160401b0380821115620004b1578485fd5b818701915087601f830112620004c5578485fd5b8151620004d66200042282620006f0565b81815284810190848601868402860187018c1015620004f3578889fd5b8895505b8386101562000520576200050b81620003e1565b835260019590950194918601918601620004f7565b5060408a015190975094505050808311156200053a578384fd5b50506200054a86828701620003fe565b9150509250925092565b6001600160a01b03929092168252602082015260400190565b6020808252602c908201527f5061796d656e7453706c69747465723a206163636f756e74206973207468652060408201526b7a65726f206164647265737360a01b606082015260800190565b60208082526032908201527f5061796d656e7453706c69747465723a2070617965657320616e6420736861726040820152710cae640d8cadccee8d040dad2e6dac2e8c6d60731b606082015260800190565b6020808252602b908201527f5061796d656e7453706c69747465723a206163636f756e7420616c726561647960408201526a206861732073686172657360a81b606082015260800190565b6020808252601a908201527f5061796d656e7453706c69747465723a206e6f20706179656573000000000000604082015260600190565b6020808252601d908201527f5061796d656e7453706c69747465723a20736861726573206172652030000000604082015260600190565b6040518181016001600160401b0381118282101715620006e857620006e8620007a2565b604052919050565b60006001600160401b038211156200070c576200070c620007a2565b5060209081020190565b600082198211156200072c576200072c6200078c565b500190565b6002810460018216806200074657607f821691505b602082108114156200076857634e487b7160e01b600052602260045260246000fd5b50919050565b60006000198214156200078557620007856200078c565b5060010190565b634e487b7160e01b600052601160045260246000fd5b634e487b7160e01b600052604160045260246000fd5b61245680620007c86000396000f3fe6080604052600436106101dc5760003560e01c8063715018a611610102578063b88d4fde11610095578063cef6d36811610064578063cef6d3681461056f578063e33b7de31461059d578063e985e9c5146105b2578063f2fde38b146105d257610223565b8063b88d4fde146104fa578063c87b56dd1461051a578063cafa8dfe1461053a578063ce7c2ac21461054f57610223565b80639852595c116100d15780639852595c14610485578063a22cb465146104a5578063a3a51bd5146104c5578063b5143715146104da57610223565b8063715018a6146104265780638b83209b1461043b5780638da5cb5b1461045b57806395d89b411461047057610223565b80632f745c591161017a5780636352211e116101495780636352211e146103a6578063695850fb146103c65780636c8b703f146103e657806370a082311461040657610223565b80632f745c59146103315780633a98ef391461035157806342842e0e146103665780634f6ccce71461038657610223565b8063095ea7b3116101b6578063095ea7b3146102ad57806318160ddd146102cf57806319165587146102f157806323b872dd1461031157610223565b806301ffc9a71461022857806306fdde031461025e578063081812fc1461028057610223565b36610223577f6ef95f06320e7a25a04a175ca677b7052bdd97131872c2192525a629f51be77061020a6105f2565b34604051610219929190611c1e565b60405180910390a1005b600080fd5b34801561023457600080fd5b50610248610243366004611b29565b6105f6565b6040516102559190611c74565b60405180910390f35b34801561026a57600080fd5b50610273610607565b6040516102559190611c7f565b34801561028c57600080fd5b506102a061029b366004611ba7565b610699565b6040516102559190611c0a565b3480156102b957600080fd5b506102cd6102c8366004611afe565b6106e5565b005b3480156102db57600080fd5b506102e461077d565b60405161025591906122eb565b3480156102fd57600080fd5b506102cd61030c3660046119b5565b610783565b34801561031d57600080fd5b506102cd61032c366004611a10565b6108c8565b34801561033d57600080fd5b506102e461034c366004611afe565b610900565b34801561035d57600080fd5b506102e4610952565b34801561037257600080fd5b506102cd610381366004611a10565b610958565b34801561039257600080fd5b506102e46103a1366004611ba7565b610973565b3480156103b257600080fd5b506102a06103c1366004611ba7565b6109ce565b3480156103d257600080fd5b506102cd6103e1366004611b61565b610a03565b3480156103f257600080fd5b50610273610401366004611ba7565b610aea565b34801561041257600080fd5b506102e46104213660046119b5565b610b96565b34801561043257600080fd5b506102cd610bda565b34801561044757600080fd5b506102a0610456366004611ba7565b610c25565b34801561046757600080fd5b506102a0610c63565b34801561047c57600080fd5b50610273610c72565b34801561049157600080fd5b506102e46104a03660046119b5565b610c81565b3480156104b157600080fd5b506102cd6104c0366004611acd565b610c9c565b3480156104d157600080fd5b506102a0610d6a565b3480156104e657600080fd5b506102cd6104f53660046119b5565b610d79565b34801561050657600080fd5b506102cd610515366004611a50565b610df5565b34801561052657600080fd5b50610273610535366004611ba7565b610e34565b34801561054657600080fd5b506102e4610ef9565b34801561055b57600080fd5b506102e461056a3660046119b5565b610efe565b34801561057b57600080fd5b5061058f61058a366004611ba7565b610f19565b604051610255929190611c1e565b3480156105a957600080fd5b506102e4610f4a565b3480156105be57600080fd5b506102486105cd3660046119d8565b610f50565b3480156105de57600080fd5b506102cd6105ed3660046119b5565b610f7e565b3390565b600061060182610fef565b92915050565b6060600180546106169061238e565b80601f01602080910402602001604051908101604052809291908181526020018280546106429061238e565b801561068f5780601f106106645761010080835404028352916020019161068f565b820191906000526020600020905b81548152906001019060200180831161067257829003601f168201915b5050505050905090565b60006106a482611014565b6106c95760405162461bcd60e51b81526004016106c0906120f4565b60405180910390fd5b506000908152600560205260409020546001600160a01b031690565b60006106f0826109ce565b9050806001600160a01b0316836001600160a01b031614156107245760405162461bcd60e51b81526004016106c09061220d565b806001600160a01b03166107366105f2565b6001600160a01b031614806107525750610752816105cd6105f2565b61076e5760405162461bcd60e51b81526004016106c090611fcf565b6107788383611031565b505050565b60095490565b6001600160a01b0381166000908152600d60205260409020546107b85760405162461bcd60e51b81526004016106c090611dac565b6000600c54476107c891906122f4565b6001600160a01b0383166000908152600e6020908152604080832054600b54600d9093529083205493945091926107ff908561232c565b610809919061230c565b610813919061234b565b9050806108325760405162461bcd60e51b81526004016106c090611f4d565b6001600160a01b0383166000908152600e60205260409020546108569082906122f4565b6001600160a01b0384166000908152600e6020526040902055600c5461087d9082906122f4565b600c5561088a838261109f565b7fdf20fd1e76bc69d672e4814fafb2c449bba3a5369d8359adf9e05e6fde87b05683826040516108bb929190611c1e565b60405180910390a1505050565b6108d96108d36105f2565b8261113b565b6108f55760405162461bcd60e51b81526004016106c09061224e565b6107788383836111c0565b600061090b83610b96565b82106109295760405162461bcd60e51b81526004016106c090611c92565b506001600160a01b03919091166000908152600760209081526040808320938352929052205490565b600b5490565b61077883838360405180602001604052806000815250610df5565b600061097d61077d565b821061099b5760405162461bcd60e51b81526004016106c09061229f565b600982815481106109bc57634e487b7160e01b600052603260045260246000fd5b90600052602060002001549050919050565b6000818152600360205260408120546001600160a01b0316806106015760405162461bcd60e51b81526004016106c090612076565b601181604051610a139190611beb565b9081526040519081900360200190205460ff1615610a435760405162461bcd60e51b81526004016106c090611f98565b601080546001810182556000919091528151610a86917f1b6847dc741a1b0cd08d278845f9d819d87b734759afb55fe2de5cb82a9ae672019060208401906118ac565b5060105460008181526012602090815260409091208351610aa9928501906118ac565b50610ab433826112ed565b6001601183604051610ac69190611beb565b908152604051908190036020019020805491151560ff199092169190911790555050565b60108181548110610afa57600080fd5b906000526020600020016000915090508054610b159061238e565b80601f0160208091040260200160405190810160405280929190818152602001828054610b419061238e565b8015610b8e5780601f10610b6357610100808354040283529160200191610b8e565b820191906000526020600020905b815481529060010190602001808311610b7157829003601f168201915b505050505081565b60006001600160a01b038216610bbe5760405162461bcd60e51b81526004016106c09061202c565b506001600160a01b031660009081526004602052604090205490565b610be26105f2565b6001600160a01b0316610bf3610c63565b6001600160a01b031614610c195760405162461bcd60e51b81526004016106c090612140565b610c23600061130b565b565b6000600f8281548110610c4857634e487b7160e01b600052603260045260246000fd5b6000918252602090912001546001600160a01b031692915050565b6000546001600160a01b031690565b6060600280546106169061238e565b6001600160a01b03166000908152600e602052604090205490565b610ca46105f2565b6001600160a01b0316826001600160a01b03161415610cd55760405162461bcd60e51b81526004016106c090611e36565b8060066000610ce26105f2565b6001600160a01b03908116825260208083019390935260409182016000908120918716808252919093529120805460ff191692151592909217909155610d266105f2565b6001600160a01b03167f17307eab39ab6107e8899845ad3d59bd9653f200f220920489ca2b5937696c3183604051610d5e9190611c74565b60405180910390a35050565b6013546001600160a01b031690565b610d816105f2565b6001600160a01b0316610d92610c63565b6001600160a01b031614610db85760405162461bcd60e51b81526004016106c090612140565b6013546001600160a01b0382811691161415610dd357600080fd5b601380546001600160a01b0319166001600160a01b0392909216919091179055565b610e06610e006105f2565b8361113b565b610e225760405162461bcd60e51b81526004016106c09061224e565b610e2e8484848461135b565b50505050565b6060610e3f82611014565b610e5b5760405162461bcd60e51b81526004016106c0906121be565b60008281526012602052604090208054610e749061238e565b80601f0160208091040260200160405190810160405280929190818152602001828054610ea09061238e565b8015610eed5780601f10610ec257610100808354040283529160200191610eed565b820191906000526020600020905b815481529060010190602001808311610ed057829003601f168201915b50505050509050919050565b600781565b6001600160a01b03166000908152600d602052604090205490565b600080806064610f2a60078661232c565b610f34919061230c565b6013546001600160a01b03169350915050915091565b600c5490565b6001600160a01b03918216600090815260066020908152604080832093909416825291909152205460ff1690565b610f866105f2565b6001600160a01b0316610f97610c63565b6001600160a01b031614610fbd5760405162461bcd60e51b81526004016106c090612140565b6001600160a01b038116610fe35760405162461bcd60e51b81526004016106c090611d2f565b610fec8161130b565b50565b60006001600160e01b0319821663780e9d6360e01b148061060157506106018261138e565b6000908152600360205260409020546001600160a01b0316151590565b600081815260056020526040902080546001600160a01b0319166001600160a01b0384169081179091558190611066826109ce565b6001600160a01b03167f8c5be1e5ebec7d5bd14f71427d1e84f3dd0314c0f7b2291e5b200ac8c7c3b92560405160405180910390a45050565b804710156110bf5760405162461bcd60e51b81526004016106c090611eca565b6000826001600160a01b0316826040516110d890611c07565b60006040518083038185875af1925050503d8060008114611115576040519150601f19603f3d011682016040523d82523d6000602084013e61111a565b606091505b50509050806107785760405162461bcd60e51b81526004016106c090611e6d565b600061114682611014565b6111625760405162461bcd60e51b81526004016106c090611f01565b600061116d836109ce565b9050806001600160a01b0316846001600160a01b031614806111a85750836001600160a01b031661119d84610699565b6001600160a01b0316145b806111b857506111b88185610f50565b949350505050565b826001600160a01b03166111d3826109ce565b6001600160a01b0316146111f95760405162461bcd60e51b81526004016106c090612175565b6001600160a01b03821661121f5760405162461bcd60e51b81526004016106c090611df2565b61122a8383836113ce565b611235600082611031565b6001600160a01b038316600090815260046020526040812080546001929061125e90849061234b565b90915550506001600160a01b038216600090815260046020526040812080546001929061128c9084906122f4565b909155505060008181526003602052604080822080546001600160a01b0319166001600160a01b0386811691821790925591518493918716917fddf252ad1be2c89b69c2b068fc378daa952ba7f163c4a11628f55a4df523b3ef91a4505050565b6113078282604051806020016040528060008152506113d9565b5050565b600080546001600160a01b038381166001600160a01b0319831681178455604051919092169283917f8be0079c531659141344cd1fd0a4f28419497f9722a3daafe3b4186f6b6457e09190a35050565b6113668484846111c0565b6113728484848461140c565b610e2e5760405162461bcd60e51b81526004016106c090611cdd565b60006001600160e01b031982166380ac58cd60e01b14806113bf57506001600160e01b03198216635b5e139f60e01b145b80610601575061060182611527565b610778838383611540565b6113e383836115c9565b6113f0600084848461140c565b6107785760405162461bcd60e51b81526004016106c090611cdd565b6000611420846001600160a01b03166116a8565b1561151c57836001600160a01b031663150b7a0261143c6105f2565b8786866040518563ffffffff1660e01b815260040161145e9493929190611c37565b602060405180830381600087803b15801561147857600080fd5b505af19250505080156114a8575060408051601f3d908101601f191682019092526114a591810190611b45565b60015b611502573d8080156114d6576040519150601f19603f3d011682016040523d82523d6000602084013e6114db565b606091505b5080516114fa5760405162461bcd60e51b81526004016106c090611cdd565b805181602001fd5b6001600160e01b031916630a85bd0160e11b1490506111b8565b506001949350505050565b6001600160e01b031981166301ffc9a760e01b14919050565b61154b838383610778565b6001600160a01b03831661156757611562816116ae565b61158a565b816001600160a01b0316836001600160a01b03161461158a5761158a83826116f2565b6001600160a01b0382166115a6576115a18161178f565b610778565b826001600160a01b0316826001600160a01b031614610778576107788282611868565b6001600160a01b0382166115ef5760405162461bcd60e51b81526004016106c0906120bf565b6115f881611014565b156116155760405162461bcd60e51b81526004016106c090611d75565b611621600083836113ce565b6001600160a01b038216600090815260046020526040812080546001929061164a9084906122f4565b909155505060008181526003602052604080822080546001600160a01b0319166001600160a01b03861690811790915590518392907fddf252ad1be2c89b69c2b068fc378daa952ba7f163c4a11628f55a4df523b3ef908290a45050565b3b151590565b600980546000838152600a60205260408120829055600182018355919091527f6e1540171b6c0c960b71a7020d9f60077f6af931a8bbf590da0223dacf75c7af0155565b600060016116ff84610b96565b611709919061234b565b60008381526008602052604090205490915080821461175c576001600160a01b03841660009081526007602090815260408083208584528252808320548484528184208190558352600890915290208190555b5060009182526008602090815260408084208490556001600160a01b039094168352600781528383209183525290812055565b6009546000906117a19060019061234b565b6000838152600a6020526040812054600980549394509092849081106117d757634e487b7160e01b600052603260045260246000fd5b90600052602060002001549050806009838154811061180657634e487b7160e01b600052603260045260246000fd5b6000918252602080832090910192909255828152600a9091526040808220849055858252812055600980548061184c57634e487b7160e01b600052603160045260246000fd5b6001900381819060005260206000200160009055905550505050565b600061187383610b96565b6001600160a01b039093166000908152600760209081526040808320868452825280832085905593825260089052919091209190915550565b8280546118b89061238e565b90600052602060002090601f0160209004810192826118da5760008555611920565b82601f106118f357805160ff1916838001178555611920565b82800160010185558215611920579182015b82811115611920578251825591602001919060010190611905565b5061192c929150611930565b5090565b5b8082111561192c5760008155600101611931565b600067ffffffffffffffff80841115611960576119606123df565b604051601f8501601f191681016020018281118282101715611984576119846123df565b60405284815291508183850186101561199c57600080fd5b8484602083013760006020868301015250509392505050565b6000602082840312156119c6578081fd5b81356119d1816123f5565b9392505050565b600080604083850312156119ea578081fd5b82356119f5816123f5565b91506020830135611a05816123f5565b809150509250929050565b600080600060608486031215611a24578081fd5b8335611a2f816123f5565b92506020840135611a3f816123f5565b929592945050506040919091013590565b60008060008060808587031215611a65578081fd5b8435611a70816123f5565b93506020850135611a80816123f5565b925060408501359150606085013567ffffffffffffffff811115611aa2578182fd5b8501601f81018713611ab2578182fd5b611ac187823560208401611945565b91505092959194509250565b60008060408385031215611adf578182fd5b8235611aea816123f5565b915060208301358015158114611a05578182fd5b60008060408385031215611b10578182fd5b8235611b1b816123f5565b946020939093013593505050565b600060208284031215611b3a578081fd5b81356119d18161240a565b600060208284031215611b56578081fd5b81516119d18161240a565b600060208284031215611b72578081fd5b813567ffffffffffffffff811115611b88578182fd5b8201601f81018413611b98578182fd5b6111b884823560208401611945565b600060208284031215611bb8578081fd5b5035919050565b60008151808452611bd7816020860160208601612362565b601f01601f19169290920160200192915050565b60008251611bfd818460208701612362565b9190910192915050565b90565b6001600160a01b0391909116815260200190565b6001600160a01b03929092168252602082015260400190565b6001600160a01b0385811682528416602082015260408101839052608060608201819052600090611c6a90830184611bbf565b9695505050505050565b901515815260200190565b6000602082526119d16020830184611bbf565b6020808252602b908201527f455243373231456e756d657261626c653a206f776e657220696e646578206f7560408201526a74206f6620626f756e647360a81b606082015260800190565b60208082526032908201527f4552433732313a207472616e7366657220746f206e6f6e20455243373231526560408201527131b2b4bb32b91034b6b83632b6b2b73a32b960711b606082015260800190565b60208082526026908201527f4f776e61626c653a206e6577206f776e657220697320746865207a65726f206160408201526564647265737360d01b606082015260800190565b6020808252601c908201527f4552433732313a20746f6b656e20616c7265616479206d696e74656400000000604082015260600190565b60208082526026908201527f5061796d656e7453706c69747465723a206163636f756e7420686173206e6f2060408201526573686172657360d01b606082015260800190565b60208082526024908201527f4552433732313a207472616e7366657220746f20746865207a65726f206164646040820152637265737360e01b606082015260800190565b60208082526019908201527f4552433732313a20617070726f766520746f2063616c6c657200000000000000604082015260600190565b6020808252603a908201527f416464726573733a20756e61626c6520746f2073656e642076616c75652c207260408201527f6563697069656e74206d61792068617665207265766572746564000000000000606082015260800190565b6020808252601d908201527f416464726573733a20696e73756666696369656e742062616c616e6365000000604082015260600190565b6020808252602c908201527f4552433732313a206f70657261746f7220717565727920666f72206e6f6e657860408201526b34b9ba32b73a103a37b5b2b760a11b606082015260800190565b6020808252602b908201527f5061796d656e7453706c69747465723a206163636f756e74206973206e6f742060408201526a191d59481c185e5b595b9d60aa1b606082015260800190565b6020808252601e908201527f54686520746f6b656e205552492073686f756c6420626520756e697175650000604082015260600190565b60208082526038908201527f4552433732313a20617070726f76652063616c6c6572206973206e6f74206f7760408201527f6e6572206e6f7220617070726f76656420666f7220616c6c0000000000000000606082015260800190565b6020808252602a908201527f4552433732313a2062616c616e636520717565727920666f7220746865207a65604082015269726f206164647265737360b01b606082015260800190565b60208082526029908201527f4552433732313a206f776e657220717565727920666f72206e6f6e657869737460408201526832b73a103a37b5b2b760b91b606082015260800190565b6020808252818101527f4552433732313a206d696e7420746f20746865207a65726f2061646472657373604082015260600190565b6020808252602c908201527f4552433732313a20617070726f76656420717565727920666f72206e6f6e657860408201526b34b9ba32b73a103a37b5b2b760a11b606082015260800190565b6020808252818101527f4f776e61626c653a2063616c6c6572206973206e6f7420746865206f776e6572604082015260600190565b60208082526029908201527f4552433732313a207472616e73666572206f6620746f6b656e2074686174206960408201526839903737ba1037bbb760b91b606082015260800190565b6020808252602f908201527f4552433732314d657461646174613a2055524920717565727920666f72206e6f60408201526e3732bc34b9ba32b73a103a37b5b2b760891b606082015260800190565b60208082526021908201527f4552433732313a20617070726f76616c20746f2063757272656e74206f776e656040820152603960f91b606082015260800190565b60208082526031908201527f4552433732313a207472616e736665722063616c6c6572206973206e6f74206f6040820152701ddb995c881b9bdc88185c1c1c9bdd9959607a1b606082015260800190565b6020808252602c908201527f455243373231456e756d657261626c653a20676c6f62616c20696e646578206f60408201526b7574206f6620626f756e647360a01b606082015260800190565b90815260200190565b60008219821115612307576123076123c9565b500190565b60008261232757634e487b7160e01b81526012600452602481fd5b500490565b6000816000190483118215151615612346576123466123c9565b500290565b60008282101561235d5761235d6123c9565b500390565b60005b8381101561237d578181015183820152602001612365565b83811115610e2e5750506000910152565b6002810460018216806123a257607f821691505b602082108114156123c357634e487b7160e01b600052602260045260246000fd5b50919050565b634e487b7160e01b600052601160045260246000fd5b634e487b7160e01b600052604160045260246000fd5b6001600160a01b0381168114610fec57600080fd5b6001600160e01b031981168114610fec57600080fdfea264697066735822122028bb3cf5facad11c90a9d293ad61e5382955dea57cd3b49f866e5fb7cf1bc8ce64736f6c63430008000033",
  "linkReferences": {},
  "deployedLinkReferences": {}
}