{
  "_format": "hh-sol-artifact-1",
  "contractName": "NFTCollection",
  "sourceName": "src/contracts/NFTCollection.sol",
  "abi": [
    {
      "inputs": [
        {
          "internalType": "address",
          "name": "initialRoyaltiesReceiver",
          "type": "address"
        }
      ],
      "stateMutability": "nonpayable",
      "type": "constructor"
    },
    {
      "anonymous": false,
      "inputs": [
        {
          "indexed": true,
          "internalType": "address",
          "name": "owner",
          "type": "address"
        },
        {
          "indexed": true,
          "internalType": "address",
          "name": "approved",
          "type": "address"
        },
        {
          "indexed": true,
          "internalType": "uint256",
          "name": "tokenId",
          "type": "uint256"
        }
      ],
      "name": "Approval",
      "type": "event"
    },
    {
      "anonymous": false,
      "inputs": [
        {
          "indexed": true,
          "internalType": "address",
          "name": "owner",
          "type": "address"
        },
        {
          "indexed": true,
          "internalType": "address",
          "name": "operator",
          "type": "address"
        },
        {
          "indexed": false,
          "internalType": "bool",
          "name": "approved",
          "type": "bool"
        }
      ],
      "name": "ApprovalForAll",
      "type": "event"
    },
    {
      "anonymous": false,
      "inputs": [
        {
          "indexed": true,
          "internalType": "address",
          "name": "previousOwner",
          "type": "address"
        },
        {
          "indexed": true,
          "internalType": "address",
          "name": "newOwner",
          "type": "address"
        }
      ],
      "name": "OwnershipTransferred",
      "type": "event"
    },
    {
      "anonymous": false,
      "inputs": [
        {
          "indexed": true,
          "internalType": "address",
          "name": "from",
          "type": "address"
        },
        {
          "indexed": true,
          "internalType": "address",
          "name": "to",
          "type": "address"
        },
        {
          "indexed": true,
          "internalType": "uint256",
          "name": "tokenId",
          "type": "uint256"
        }
      ],
      "name": "Transfer",
      "type": "event"
    },
    {
      "inputs": [
        {
          "internalType": "address",
          "name": "to",
          "type": "address"
        },
        {
          "internalType": "uint256",
          "name": "tokenId",
          "type": "uint256"
        }
      ],
      "name": "approve",
      "outputs": [],
      "stateMutability": "nonpayable",
      "type": "function"
    },
    {
      "inputs": [
        {
          "internalType": "address",
          "name": "owner",
          "type": "address"
        }
      ],
      "name": "balanceOf",
      "outputs": [
        {
          "internalType": "uint256",
          "name": "",
          "type": "uint256"
        }
      ],
      "stateMutability": "view",
      "type": "function"
    },
    {
      "inputs": [
        {
          "internalType": "uint256",
          "name": "tokenId",
          "type": "uint256"
        }
      ],
      "name": "getApproved",
      "outputs": [
        {
          "internalType": "address",
          "name": "",
          "type": "address"
        }
      ],
      "stateMutability": "view",
      "type": "function"
    },
    {
      "inputs": [
        {
          "internalType": "address",
          "name": "owner",
          "type": "address"
        },
        {
          "internalType": "address",
          "name": "operator",
          "type": "address"
        }
      ],
      "name": "isApprovedForAll",
      "outputs": [
        {
          "internalType": "bool",
          "name": "",
          "type": "bool"
        }
      ],
      "stateMutability": "view",
      "type": "function"
    },
    {
      "inputs": [],
      "name": "name",
      "outputs": [
        {
          "internalType": "string",
          "name": "",
          "type": "string"
        }
      ],
      "stateMutability": "view",
      "type": "function"
    },
    {
      "inputs": [],
      "name": "owner",
      "outputs": [
        {
          "internalType": "address",
          "name": "",
          "type": "address"
        }
      ],
      "stateMutability": "view",
      "type": "function"
    },
    {
      "inputs": [
        {
          "internalType": "uint256",
          "name": "tokenId",
          "type": "uint256"
        }
      ],
      "name": "ownerOf",
      "outputs": [
        {
          "internalType": "address",
          "name": "",
          "type": "address"
        }
      ],
      "stateMutability": "view",
      "type": "function"
    },
    {
      "inputs": [],
      "name": "renounceOwnership",
      "outputs": [],
      "stateMutability": "nonpayable",
      "type": "function"
    },
    {
      "inputs": [],
      "name": "royaltiesPercentage",
      "outputs": [
        {
          "internalType": "uint256",
          "name": "",
          "type": "uint256"
        }
      ],
      "stateMutability": "view",
      "type": "function"
    },
    {
      "inputs": [],
      "name": "royaltiesReceiver",
      "outputs": [
        {
          "internalType": "address",
          "name": "",
          "type": "address"
        }
      ],
      "stateMutability": "nonpayable",
      "type": "function"
    },
    {
      "inputs": [
        {
          "internalType": "uint256",
          "name": "_offerId",
          "type": "uint256"
        },
        {
          "internalType": "uint256",
          "name": "_salePrice",
          "type": "uint256"
        }
      ],
      "name": "royaltyInfo",
      "outputs": [
        {
          "internalType": "address",
          "name": "receiver",
          "type": "address"
        },
        {
          "internalType": "uint256",
          "name": "royaltyAmount",
          "type": "uint256"
        }
      ],
      "stateMutability": "view",
      "type": "function"
    },
    {
      "inputs": [
        {
          "internalType": "string",
          "name": "_tokenURI",
          "type": "string"
        }
      ],
      "name": "safeMint",
      "outputs": [],
      "stateMutability": "nonpayable",
      "type": "function"
    },
    {
      "inputs": [
        {
          "internalType": "address",
          "name": "from",
          "type": "address"
        },
        {
          "internalType": "address",
          "name": "to",
          "type": "address"
        },
        {
          "internalType": "uint256",
          "name": "tokenId",
          "type": "uint256"
        }
      ],
      "name": "safeTransferFrom",
      "outputs": [],
      "stateMutability": "nonpayable",
      "type": "function"
    },
    {
      "inputs": [
        {
          "internalType": "address",
          "name": "from",
          "type": "address"
        },
        {
          "internalType": "address",
          "name": "to",
          "type": "address"
        },
        {
          "internalType": "uint256",
          "name": "tokenId",
          "type": "uint256"
        },
        {
          "internalType": "bytes",
          "name": "_data",
          "type": "bytes"
        }
      ],
      "name": "safeTransferFrom",
      "outputs": [],
      "stateMutability": "nonpayable",
      "type": "function"
    },
    {
      "inputs": [
        {
          "internalType": "address",
          "name": "operator",
          "type": "address"
        },
        {
          "internalType": "bool",
          "name": "approved",
          "type": "bool"
        }
      ],
      "name": "setApprovalForAll",
      "outputs": [],
      "stateMutability": "nonpayable",
      "type": "function"
    },
    {
      "inputs": [
        {
          "internalType": "address",
          "name": "newRoyaltiesReceiver",
          "type": "address"
        }
      ],
      "name": "setRoyaltiesReceiver",
      "outputs": [],
      "stateMutability": "nonpayable",
      "type": "function"
    },
    {
      "inputs": [
        {
          "internalType": "bytes4",
          "name": "interfaceId",
          "type": "bytes4"
        }
      ],
      "name": "supportsInterface",
      "outputs": [
        {
          "internalType": "bool",
          "name": "",
          "type": "bool"
        }
      ],
      "stateMutability": "view",
      "type": "function"
    },
    {
      "inputs": [],
      "name": "symbol",
      "outputs": [
        {
          "internalType": "string",
          "name": "",
          "type": "string"
        }
      ],
      "stateMutability": "view",
      "type": "function"
    },
    {
      "inputs": [
        {
          "internalType": "uint256",
          "name": "index",
          "type": "uint256"
        }
      ],
      "name": "tokenByIndex",
      "outputs": [
        {
          "internalType": "uint256",
          "name": "",
          "type": "uint256"
        }
      ],
      "stateMutability": "view",
      "type": "function"
    },
    {
      "inputs": [
        {
          "internalType": "address",
          "name": "owner",
          "type": "address"
        },
        {
          "internalType": "uint256",
          "name": "index",
          "type": "uint256"
        }
      ],
      "name": "tokenOfOwnerByIndex",
      "outputs": [
        {
          "internalType": "uint256",
          "name": "",
          "type": "uint256"
        }
      ],
      "stateMutability": "view",
      "type": "function"
    },
    {
      "inputs": [
        {
          "internalType": "uint256",
          "name": "tokenId",
          "type": "uint256"
        }
      ],
      "name": "tokenURI",
      "outputs": [
        {
          "internalType": "string",
          "name": "",
          "type": "string"
        }
      ],
      "stateMutability": "view",
      "type": "function"
    },
    {
      "inputs": [
        {
          "internalType": "uint256",
          "name": "",
          "type": "uint256"
        }
      ],
      "name": "tokenURIs",
      "outputs": [
        {
          "internalType": "string",
          "name": "",
          "type": "string"
        }
      ],
      "stateMutability": "view",
      "type": "function"
    },
    {
      "inputs": [],
      "name": "totalSupply",
      "outputs": [
        {
          "internalType": "uint256",
          "name": "",
          "type": "uint256"
        }
      ],
      "stateMutability": "view",
      "type": "function"
    },
    {
      "inputs": [
        {
          "internalType": "address",
          "name": "from",
          "type": "address"
        },
        {
          "internalType": "address",
          "name": "to",
          "type": "address"
        },
        {
          "internalType": "uint256",
          "name": "tokenId",
          "type": "uint256"
        }
      ],
      "name": "transferFrom",
      "outputs": [],
      "stateMutability": "nonpayable",
      "type": "function"
    },
    {
      "inputs": [
        {
          "internalType": "address",
          "name": "newOwner",
          "type": "address"
        }
      ],
      "name": "transferOwnership",
      "outputs": [],
      "stateMutability": "nonpayable",
      "type": "function"
    }
  ],
  "bytecode": "0x60806040523480156200001157600080fd5b50604051620020a7380380620020a78339810160408190526200003491620001e0565b6040518060400160405280600e81526020016d36aa219021b7b63632b1ba34b7b760911b815250604051806040016040528060038152602001626d544360e81b815250620000916200008b620000e660201b60201c565b620000ea565b8151620000a69060019060208501906200013a565b508051620000bc9060029060208401906200013a565b5050600e80546001600160a01b0319166001600160a01b039390931692909217909155506200024d565b3390565b600080546001600160a01b038381166001600160a01b0319831681178455604051919092169283917f8be0079c531659141344cd1fd0a4f28419497f9722a3daafe3b4186f6b6457e09190a35050565b828054620001489062000210565b90600052602060002090601f0160209004810192826200016c5760008555620001b7565b82601f106200018757805160ff1916838001178555620001b7565b82800160010185558215620001b7579182015b82811115620001b75782518255916020019190600101906200019a565b50620001c5929150620001c9565b5090565b5b80821115620001c55760008155600101620001ca565b600060208284031215620001f2578081fd5b81516001600160a01b038116811462000209578182fd5b9392505050565b6002810460018216806200022557607f821691505b602082108114156200024757634e487b7160e01b600052602260045260246000fd5b50919050565b611e4a806200025d6000396000f3fe608060405234801561001057600080fd5b50600436106101735760003560e01c80636c8b703f116100de578063a3a51bd511610097578063c87b56dd11610071578063c87b56dd14610312578063cafa8dfe14610325578063e985e9c51461032d578063f2fde38b1461034057610173565b8063a3a51bd5146102e4578063b5143715146102ec578063b88d4fde146102ff57610173565b80636c8b703f1461029357806370a08231146102a6578063715018a6146102b95780638da5cb5b146102c157806395d89b41146102c9578063a22cb465146102d157610173565b80632a55205a116101305780632a55205a146102135780632f745c591461023457806342842e0e146102475780634f6ccce71461025a5780636352211e1461026d578063695850fb1461028057610173565b806301ffc9a71461017857806306fdde03146101a1578063081812fc146101b6578063095ea7b3146101d657806318160ddd146101eb57806323b872dd14610200575b600080fd5b61018b610186366004611639565b610353565b60405161019891906117a2565b60405180910390f35b6101a9610366565b60405161019891906117ad565b6101c96101c43660046116b7565b6103f8565b6040516101989190611738565b6101e96101e4366004611610565b610444565b005b6101f36104dc565b6040516101989190611cf4565b6101e961020e366004611522565b6104e2565b6102266102213660046116cf565b61051a565b604051610198929190611789565b6101f3610242366004611610565b61054c565b6101e9610255366004611522565b61059e565b6101f36102683660046116b7565b6105b9565b6101c961027b3660046116b7565b610614565b6101e961028e366004611671565b610649565b6101a96102a13660046116b7565b610730565b6101f36102b43660046114cf565b6107dc565b6101e9610820565b6101c961086b565b6101a961087a565b6101e96102df3660046115d6565b610889565b6101c9610957565b6101e96102fa3660046114cf565b610966565b6101e961030d36600461155d565b6109e2565b6101a96103203660046116b7565b610a21565b6101f3610ae6565b61018b61033b3660046114f0565b610aeb565b6101e961034e3660046114cf565b610b19565b600061035e82610b8a565b90505b919050565b60606001805461037590611d97565b80601f01602080910402602001604051908101604052809291908181526020018280546103a190611d97565b80156103ee5780601f106103c3576101008083540402835291602001916103ee565b820191906000526020600020905b8154815290600101906020018083116103d157829003601f168201915b5050505050905090565b600061040382610baf565b6104285760405162461bcd60e51b815260040161041f90611afd565b60405180910390fd5b506000908152600560205260409020546001600160a01b031690565b600061044f82610614565b9050806001600160a01b0316836001600160a01b031614156104835760405162461bcd60e51b815260040161041f90611c16565b806001600160a01b0316610495610bcc565b6001600160a01b031614806104b157506104b18161033b610bcc565b6104cd5760405162461bcd60e51b815260040161041f906119d8565b6104d78383610bd0565b505050565b60095490565b6104f36104ed610bcc565b82610c3e565b61050f5760405162461bcd60e51b815260040161041f90611c57565b6104d7838383610cc3565b60008080606461052b600786611d35565b6105359190611d15565b600e546001600160a01b0316969095509350505050565b6000610557836107dc565b82106105755760405162461bcd60e51b815260040161041f906117c0565b506001600160a01b03919091166000908152600760209081526040808320938352929052205490565b6104d7838383604051806020016040528060008152506109e2565b60006105c36104dc565b82106105e15760405162461bcd60e51b815260040161041f90611ca8565b6009828154811061060257634e487b7160e01b600052603260045260246000fd5b90600052602060002001549050919050565b6000818152600360205260408120546001600160a01b03168061035e5760405162461bcd60e51b815260040161041f90611a7f565b600c81604051610659919061171c565b9081526040519081900360200190205460ff16156106895760405162461bcd60e51b815260040161041f906119a1565b600b805460018101825560009190915281516106cc917f0175b7a638427703f0dbe7bb9bbf987a2551717b34e79f33b5b1008d1fa01db9019060208401906113af565b50600b546000818152600d6020908152604090912083516106ef928501906113af565b506106fa3382610df0565b6001600c8360405161070c919061171c565b908152604051908190036020019020805491151560ff199092169190911790555050565b600b818154811061074057600080fd5b90600052602060002001600091509050805461075b90611d97565b80601f016020809104026020016040519081016040528092919081815260200182805461078790611d97565b80156107d45780601f106107a9576101008083540402835291602001916107d4565b820191906000526020600020905b8154815290600101906020018083116107b757829003601f168201915b505050505081565b60006001600160a01b0382166108045760405162461bcd60e51b815260040161041f90611a35565b506001600160a01b031660009081526004602052604090205490565b610828610bcc565b6001600160a01b031661083961086b565b6001600160a01b03161461085f5760405162461bcd60e51b815260040161041f90611b49565b6108696000610e0e565b565b6000546001600160a01b031690565b60606002805461037590611d97565b610891610bcc565b6001600160a01b0316826001600160a01b031614156108c25760405162461bcd60e51b815260040161041f9061191e565b80600660006108cf610bcc565b6001600160a01b03908116825260208083019390935260409182016000908120918716808252919093529120805460ff191692151592909217909155610913610bcc565b6001600160a01b03167f17307eab39ab6107e8899845ad3d59bd9653f200f220920489ca2b5937696c318360405161094b91906117a2565b60405180910390a35050565b600e546001600160a01b031690565b61096e610bcc565b6001600160a01b031661097f61086b565b6001600160a01b0316146109a55760405162461bcd60e51b815260040161041f90611b49565b600e546001600160a01b03828116911614156109c057600080fd5b600e80546001600160a01b0319166001600160a01b0392909216919091179055565b6109f36109ed610bcc565b83610c3e565b610a0f5760405162461bcd60e51b815260040161041f90611c57565b610a1b84848484610e5e565b50505050565b6060610a2c82610baf565b610a485760405162461bcd60e51b815260040161041f90611bc7565b6000828152600d602052604090208054610a6190611d97565b80601f0160208091040260200160405190810160405280929190818152602001828054610a8d90611d97565b8015610ada5780601f10610aaf57610100808354040283529160200191610ada565b820191906000526020600020905b815481529060010190602001808311610abd57829003601f168201915b50505050509050919050565b600781565b6001600160a01b03918216600090815260066020908152604080832093909416825291909152205460ff1690565b610b21610bcc565b6001600160a01b0316610b3261086b565b6001600160a01b031614610b585760405162461bcd60e51b815260040161041f90611b49565b6001600160a01b038116610b7e5760405162461bcd60e51b815260040161041f9061185d565b610b8781610e0e565b50565b60006001600160e01b0319821663780e9d6360e01b148061035e575061035e82610e91565b6000908152600360205260409020546001600160a01b0316151590565b3390565b600081815260056020526040902080546001600160a01b0319166001600160a01b0384169081179091558190610c0582610614565b6001600160a01b03167f8c5be1e5ebec7d5bd14f71427d1e84f3dd0314c0f7b2291e5b200ac8c7c3b92560405160405180910390a45050565b6000610c4982610baf565b610c655760405162461bcd60e51b815260040161041f90611955565b6000610c7083610614565b9050806001600160a01b0316846001600160a01b03161480610cab5750836001600160a01b0316610ca0846103f8565b6001600160a01b0316145b80610cbb5750610cbb8185610aeb565b949350505050565b826001600160a01b0316610cd682610614565b6001600160a01b031614610cfc5760405162461bcd60e51b815260040161041f90611b7e565b6001600160a01b038216610d225760405162461bcd60e51b815260040161041f906118da565b610d2d838383610ed1565b610d38600082610bd0565b6001600160a01b0383166000908152600460205260408120805460019290610d61908490611d54565b90915550506001600160a01b0382166000908152600460205260408120805460019290610d8f908490611cfd565b909155505060008181526003602052604080822080546001600160a01b0319166001600160a01b0386811691821790925591518493918716917fddf252ad1be2c89b69c2b068fc378daa952ba7f163c4a11628f55a4df523b3ef91a4505050565b610e0a828260405180602001604052806000815250610edc565b5050565b600080546001600160a01b038381166001600160a01b0319831681178455604051919092169283917f8be0079c531659141344cd1fd0a4f28419497f9722a3daafe3b4186f6b6457e09190a35050565b610e69848484610cc3565b610e7584848484610f0f565b610a1b5760405162461bcd60e51b815260040161041f9061180b565b60006001600160e01b031982166380ac58cd60e01b1480610ec257506001600160e01b03198216635b5e139f60e01b145b8061035e575061035e8261102a565b6104d7838383611043565b610ee683836110cc565b610ef36000848484610f0f565b6104d75760405162461bcd60e51b815260040161041f9061180b565b6000610f23846001600160a01b03166111ab565b1561101f57836001600160a01b031663150b7a02610f3f610bcc565b8786866040518563ffffffff1660e01b8152600401610f61949392919061174c565b602060405180830381600087803b158015610f7b57600080fd5b505af1925050508015610fab575060408051601f3d908101601f19168201909252610fa891810190611655565b60015b611005573d808015610fd9576040519150601f19603f3d011682016040523d82523d6000602084013e610fde565b606091505b508051610ffd5760405162461bcd60e51b815260040161041f9061180b565b805181602001fd5b6001600160e01b031916630a85bd0160e11b149050610cbb565b506001949350505050565b6001600160e01b031981166301ffc9a760e01b14919050565b61104e8383836104d7565b6001600160a01b03831661106a57611065816111b1565b61108d565b816001600160a01b0316836001600160a01b03161461108d5761108d83826111f5565b6001600160a01b0382166110a9576110a481611292565b6104d7565b826001600160a01b0316826001600160a01b0316146104d7576104d7828261136b565b6001600160a01b0382166110f25760405162461bcd60e51b815260040161041f90611ac8565b6110fb81610baf565b156111185760405162461bcd60e51b815260040161041f906118a3565b61112460008383610ed1565b6001600160a01b038216600090815260046020526040812080546001929061114d908490611cfd565b909155505060008181526003602052604080822080546001600160a01b0319166001600160a01b03861690811790915590518392907fddf252ad1be2c89b69c2b068fc378daa952ba7f163c4a11628f55a4df523b3ef908290a45050565b3b151590565b600980546000838152600a60205260408120829055600182018355919091527f6e1540171b6c0c960b71a7020d9f60077f6af931a8bbf590da0223dacf75c7af0155565b60006001611202846107dc565b61120c9190611d54565b60008381526008602052604090205490915080821461125f576001600160a01b03841660009081526007602090815260408083208584528252808320548484528184208190558352600890915290208190555b5060009182526008602090815260408084208490556001600160a01b039094168352600781528383209183525290812055565b6009546000906112a490600190611d54565b6000838152600a6020526040812054600980549394509092849081106112da57634e487b7160e01b600052603260045260246000fd5b90600052602060002001549050806009838154811061130957634e487b7160e01b600052603260045260246000fd5b6000918252602080832090910192909255828152600a9091526040808220849055858252812055600980548061134f57634e487b7160e01b600052603160045260246000fd5b6001900381819060005260206000200160009055905550505050565b6000611376836107dc565b6001600160a01b039093166000908152600760209081526040808320868452825280832085905593825260089052919091209190915550565b8280546113bb90611d97565b90600052602060002090601f0160209004810192826113dd5760008555611423565b82601f106113f657805160ff1916838001178555611423565b82800160010185558215611423579182015b82811115611423578251825591602001919060010190611408565b5061142f929150611433565b5090565b5b8082111561142f5760008155600101611434565b600067ffffffffffffffff8084111561146357611463611de8565b604051601f8501601f19168101602001828111828210171561148757611487611de8565b60405284815291508183850186101561149f57600080fd5b8484602083013760006020868301015250509392505050565b80356001600160a01b038116811461036157600080fd5b6000602082840312156114e0578081fd5b6114e9826114b8565b9392505050565b60008060408385031215611502578081fd5b61150b836114b8565b9150611519602084016114b8565b90509250929050565b600080600060608486031215611536578081fd5b61153f846114b8565b925061154d602085016114b8565b9150604084013590509250925092565b60008060008060808587031215611572578081fd5b61157b856114b8565b9350611589602086016114b8565b925060408501359150606085013567ffffffffffffffff8111156115ab578182fd5b8501601f810187136115bb578182fd5b6115ca87823560208401611448565b91505092959194509250565b600080604083850312156115e8578182fd5b6115f1836114b8565b915060208301358015158114611605578182fd5b809150509250929050565b60008060408385031215611622578182fd5b61162b836114b8565b946020939093013593505050565b60006020828403121561164a578081fd5b81356114e981611dfe565b600060208284031215611666578081fd5b81516114e981611dfe565b600060208284031215611682578081fd5b813567ffffffffffffffff811115611698578182fd5b8201601f810184136116a8578182fd5b610cbb84823560208401611448565b6000602082840312156116c8578081fd5b5035919050565b600080604083850312156116e1578182fd5b50508035926020909101359150565b60008151808452611708816020860160208601611d6b565b601f01601f19169290920160200192915050565b6000825161172e818460208701611d6b565b9190910192915050565b6001600160a01b0391909116815260200190565b6001600160a01b038581168252841660208201526040810183905260806060820181905260009061177f908301846116f0565b9695505050505050565b6001600160a01b03929092168252602082015260400190565b901515815260200190565b6000602082526114e960208301846116f0565b6020808252602b908201527f455243373231456e756d657261626c653a206f776e657220696e646578206f7560408201526a74206f6620626f756e647360a81b606082015260800190565b60208082526032908201527f4552433732313a207472616e7366657220746f206e6f6e20455243373231526560408201527131b2b4bb32b91034b6b83632b6b2b73a32b960711b606082015260800190565b60208082526026908201527f4f776e61626c653a206e6577206f776e657220697320746865207a65726f206160408201526564647265737360d01b606082015260800190565b6020808252601c908201527f4552433732313a20746f6b656e20616c7265616479206d696e74656400000000604082015260600190565b60208082526024908201527f4552433732313a207472616e7366657220746f20746865207a65726f206164646040820152637265737360e01b606082015260800190565b60208082526019908201527f4552433732313a20617070726f766520746f2063616c6c657200000000000000604082015260600190565b6020808252602c908201527f4552433732313a206f70657261746f7220717565727920666f72206e6f6e657860408201526b34b9ba32b73a103a37b5b2b760a11b606082015260800190565b6020808252601e908201527f54686520746f6b656e205552492073686f756c6420626520756e697175650000604082015260600190565b60208082526038908201527f4552433732313a20617070726f76652063616c6c6572206973206e6f74206f7760408201527f6e6572206e6f7220617070726f76656420666f7220616c6c0000000000000000606082015260800190565b6020808252602a908201527f4552433732313a2062616c616e636520717565727920666f7220746865207a65604082015269726f206164647265737360b01b606082015260800190565b60208082526029908201527f4552433732313a206f776e657220717565727920666f72206e6f6e657869737460408201526832b73a103a37b5b2b760b91b606082015260800190565b6020808252818101527f4552433732313a206d696e7420746f20746865207a65726f2061646472657373604082015260600190565b6020808252602c908201527f4552433732313a20617070726f76656420717565727920666f72206e6f6e657860408201526b34b9ba32b73a103a37b5b2b760a11b606082015260800190565b6020808252818101527f4f776e61626c653a2063616c6c6572206973206e6f7420746865206f776e6572604082015260600190565b60208082526029908201527f4552433732313a207472616e73666572206f6620746f6b656e2074686174206960408201526839903737ba1037bbb760b91b606082015260800190565b6020808252602f908201527f4552433732314d657461646174613a2055524920717565727920666f72206e6f60408201526e3732bc34b9ba32b73a103a37b5b2b760891b606082015260800190565b60208082526021908201527f4552433732313a20617070726f76616c20746f2063757272656e74206f776e656040820152603960f91b606082015260800190565b60208082526031908201527f4552433732313a207472616e736665722063616c6c6572206973206e6f74206f6040820152701ddb995c881b9bdc88185c1c1c9bdd9959607a1b606082015260800190565b6020808252602c908201527f455243373231456e756d657261626c653a20676c6f62616c20696e646578206f60408201526b7574206f6620626f756e647360a01b606082015260800190565b90815260200190565b60008219821115611d1057611d10611dd2565b500190565b600082611d3057634e487b7160e01b81526012600452602481fd5b500490565b6000816000190483118215151615611d4f57611d4f611dd2565b500290565b600082821015611d6657611d66611dd2565b500390565b60005b83811015611d86578181015183820152602001611d6e565b83811115610a1b5750506000910152565b600281046001821680611dab57607f821691505b60208210811415611dcc57634e487b7160e01b600052602260045260246000fd5b50919050565b634e487b7160e01b600052601160045260246000fd5b634e487b7160e01b600052604160045260246000fd5b6001600160e01b031981168114610b8757600080fdfea2646970667358221220ff24d026c31e692e3759cb064355fc0ba6f15bb5f5f2f605724eed59c408c44c64736f6c63430008000033",
  "linkReferences": {},
  "deployedLinkReferences": {}
}