{
  "_format": "hh-sol-artifact-1",
  "contractName": "RoyaltiesPayment",
  "sourceName": "src/contracts/RoyaltiesPayment.sol",
  "abi": [
    {
      "inputs": [
        {
          "internalType": "address[]",
          "name": "_payees",
          "type": "address[]"
        }
      ],
      "stateMutability": "nonpayable",
      "type": "constructor"
    },
    {
      "anonymous": false,
      "inputs": [
        {
          "indexed": true,
          "internalType": "address",
          "name": "previousOwner",
          "type": "address"
        },
        {
          "indexed": true,
          "internalType": "address",
          "name": "newOwner",
          "type": "address"
        }
      ],
      "name": "OwnershipTransferred",
      "type": "event"
    },
    {
      "inputs": [
        {
          "internalType": "address",
          "name": "payee",
          "type": "address"
        }
      ],
      "name": "addPayee",
      "outputs": [],
      "stateMutability": "nonpayable",
      "type": "function"
    },
    {
      "inputs": [
        {
          "internalType": "address",
          "name": "",
          "type": "address"
        }
      ],
      "name": "balances",
      "outputs": [
        {
          "internalType": "uint256",
          "name": "userIndex",
          "type": "uint256"
        },
        {
          "internalType": "uint256",
          "name": "balance",
          "type": "uint256"
        }
      ],
      "stateMutability": "view",
      "type": "function"
    },
    {
      "inputs": [],
      "name": "owner",
      "outputs": [
        {
          "internalType": "address",
          "name": "",
          "type": "address"
        }
      ],
      "stateMutability": "view",
      "type": "function"
    },
    {
      "inputs": [],
      "name": "payAll",
      "outputs": [],
      "stateMutability": "nonpayable",
      "type": "function"
    },
    {
      "inputs": [
        {
          "internalType": "uint256",
          "name": "",
          "type": "uint256"
        }
      ],
      "name": "payees",
      "outputs": [
        {
          "internalType": "address",
          "name": "",
          "type": "address"
        }
      ],
      "stateMutability": "view",
      "type": "function"
    },
    {
      "inputs": [
        {
          "internalType": "address",
          "name": "payee",
          "type": "address"
        }
      ],
      "name": "removePayee",
      "outputs": [],
      "stateMutability": "nonpayable",
      "type": "function"
    },
    {
      "inputs": [],
      "name": "renounceOwnership",
      "outputs": [],
      "stateMutability": "nonpayable",
      "type": "function"
    },
    {
      "inputs": [
        {
          "internalType": "address",
          "name": "newOwner",
          "type": "address"
        }
      ],
      "name": "transferOwnership",
      "outputs": [],
      "stateMutability": "nonpayable",
      "type": "function"
    },
    {
      "inputs": [
        {
          "internalType": "uint256",
          "name": "amount",
          "type": "uint256"
        }
      ],
      "name": "withdraw",
      "outputs": [],
      "stateMutability": "nonpayable",
      "type": "function"
    },
    {
      "inputs": [],
      "name": "withdrawAll",
      "outputs": [],
      "stateMutability": "nonpayable",
      "type": "function"
    },
    {
      "inputs": [
        {
          "internalType": "contract IERC20",
          "name": "token",
          "type": "address"
        }
      ],
      "name": "withdrawErc20",
      "outputs": [],
      "stateMutability": "nonpayable",
      "type": "function"
    },
    {
      "stateMutability": "payable",
      "type": "receive"
    }
  ],
  "bytecode": "0x60806040523480156200001157600080fd5b50604051620010c7380380620010c78339810160408190526200003491620001fa565b620000486200004262000108565b6200010c565b80516200005d9060019060208401906200015c565b5060005b60015481101562000100576040518060400160405280826001620000869190620002c8565b815260200160008152506002600060018481548110620000b657634e487b7160e01b600052603260045260246000fd5b60009182526020808320909101546001600160a01b031683528281019390935260409091019020825181559101516001919091015580620000f781620002e3565b91505062000061565b50506200032d565b3390565b600080546001600160a01b038381166001600160a01b0319831681178455604051919092169283917f8be0079c531659141344cd1fd0a4f28419497f9722a3daafe3b4186f6b6457e09190a35050565b828054828255906000526020600020908101928215620001b4579160200282015b82811115620001b457825182546001600160a01b0319166001600160a01b039091161782556020909201916001909101906200017d565b50620001c2929150620001c6565b5090565b5b80821115620001c25760008155600101620001c7565b80516001600160a01b0381168114620001f557600080fd5b919050565b600060208083850312156200020d578182fd5b82516001600160401b038082111562000224578384fd5b818501915085601f83011262000238578384fd5b8151818111156200024d576200024d62000317565b838102604051858282010181811085821117156200026f576200026f62000317565b604052828152858101935084860182860187018a10156200028e578788fd5b8795505b83861015620002bb57620002a681620001dd565b85526001959095019493860193860162000292565b5098975050505050505050565b60008219821115620002de57620002de62000301565b500190565b6000600019821415620002fa57620002fa62000301565b5060010190565b634e487b7160e01b600052601160045260246000fd5b634e487b7160e01b600052604160045260246000fd5b610d8a806200033d6000396000f3fe6080604052600436106100a05760003560e01c8063715018a611610064578063715018a614610200578063853828b6146102155780638da5cb5b1461022a578063c7e42b1b1461023f578063dce59c001461025f578063f2fde38b1461027f57610140565b806327e235e3146101455780632e1a7d4d1461017c5780633ed358551461019e5780635806beaf146101be57806363037b0c146101d357610140565b366101405760015434906000906100b79083610cd7565b905060005b60015481101561013b578160026000600184815481106100ec57634e487b7160e01b600052603260045260246000fd5b60009182526020808320909101546001600160a01b0316835282019290925260400181206001018054909190610123908490610cbf565b9091555081905061013381610d0e565b9150506100bc565b505050005b600080fd5b34801561015157600080fd5b50610165610160366004610b1d565b61029f565b604051610173929190610cb1565b60405180910390f35b34801561018857600080fd5b5061019c610197366004610b60565b6102b8565b005b3480156101aa57600080fd5b5061019c6101b9366004610b1d565b6103a6565b3480156101ca57600080fd5b5061019c61057e565b3480156101df57600080fd5b506101f36101ee366004610b60565b6105c7565b6040516101739190610b93565b34801561020c57600080fd5b5061019c6105f1565b34801561022157600080fd5b5061019c61063a565b34801561023657600080fd5b506101f36106a3565b34801561024b57600080fd5b5061019c61025a366004610b1d565b6106b2565b34801561026b57600080fd5b5061019c61027a366004610b1d565b610871565b34801561028b57600080fd5b5061019c61029a366004610b1d565b610953565b6002602052600090815260409020805460019091015482565b336102c2816109c4565b6102e75760405162461bcd60e51b81526004016102de90610c69565b60405180910390fd5b600082116102f457600080fd5b336000908152600260205260409020600101548211156103265760405162461bcd60e51b81526004016102de90610c06565b3360009081526002602052604081206001018054849290610348908490610cf7565b90915550506040513390839061035d90610b90565b60006040518083038185875af1925050503d806000811461039a576040519150601f19603f3d011682016040523d82523d6000602084013e61039f565b606091505b5050505050565b6103ae6109e1565b6001600160a01b03166103bf6106a3565b6001600160a01b0316146103e55760405162461bcd60e51b81526004016102de90610c34565b6103ee816109c4565b6103f757600080fd5b6103ff6109e5565b6001600160a01b03811660009081526002602052604081205461042490600190610cf7565b6001805491925090610437908290610cf7565b8154811061045557634e487b7160e01b600052603260045260246000fd5b600091825260209091200154600180546001600160a01b03909216918390811061048f57634e487b7160e01b600052603260045260246000fd5b9060005260206000200160006101000a8154816001600160a01b0302191690836001600160a01b0316021790555060018054806104dc57634e487b7160e01b600052603160045260246000fd5b600082815260209020810160001990810180546001600160a01b0319169055019055600154811461055d57610512816001610cbf565b600260006001848154811061053757634e487b7160e01b600052603260045260246000fd5b60009182526020808320909101546001600160a01b031683528201929092526040019020555b506001600160a01b0316600090815260026020526040812081815560010155565b6105866109e1565b6001600160a01b03166105976106a3565b6001600160a01b0316146105bd5760405162461bcd60e51b81526004016102de90610c34565b6105c56109e5565b565b600181815481106105d757600080fd5b6000918252602090912001546001600160a01b0316905081565b6105f96109e1565b6001600160a01b031661060a6106a3565b6001600160a01b0316146106305760405162461bcd60e51b81526004016102de90610c34565b6105c56000610acd565b33610644816109c4565b6106605760405162461bcd60e51b81526004016102de90610c69565b3360009081526002602052604090206001015461067c57600080fd5b33600081815260026020526040808220600101805492905551909190829061035d90610b90565b6000546001600160a01b031690565b6106ba6109e1565b6001600160a01b03166106cb6106a3565b6001600160a01b0316146106f15760405162461bcd60e51b81526004016102de90610c34565b6040516370a0823160e01b81526000906001600160a01b038316906370a0823190610720903090600401610b93565b60206040518083038186803b15801561073857600080fd5b505afa15801561074c573d6000803e3d6000fd5b505050506040513d601f19601f820116820180604052508101906107709190610b78565b90506000811161077f57600080fd5b60015460009061078f9083610cd7565b905060005b60015481101561086b57836001600160a01b031663a9059cbb600183815481106107ce57634e487b7160e01b600052603260045260246000fd5b6000918252602090912001546040516001600160e01b031960e084901b168152610806916001600160a01b0316908690600401610ba7565b602060405180830381600087803b15801561082057600080fd5b505af1158015610834573d6000803e3d6000fd5b505050506040513d601f19601f820116820180604052508101906108589190610b40565b508061086381610d0e565b915050610794565b50505050565b6108796109e1565b6001600160a01b031661088a6106a3565b6001600160a01b0316146108b05760405162461bcd60e51b81526004016102de90610c34565b6108b9816109c4565b156108d65760405162461bcd60e51b81526004016102de90610c8c565b6108de6109e5565b6001805480820182557fb10e2d527612073b26eecdfd717e6a320cf44b4afac2b0732d9fcbe2b7fa0cf60180546001600160a01b039093166001600160a01b03199093168317905560408051808201825282548152600060208281018281529582526002905291909120905181559151910155565b61095b6109e1565b6001600160a01b031661096c6106a3565b6001600160a01b0316146109925760405162461bcd60e51b81526004016102de90610c34565b6001600160a01b0381166109b85760405162461bcd60e51b81526004016102de90610bc0565b6109c181610acd565b50565b6001600160a01b0316600090815260026020526040902054151590565b3390565b60005b6001548110156109c157600060018281548110610a1557634e487b7160e01b600052603260045260246000fd5b60009182526020808320909101546001600160a01b031680835260029091526040909120600101549091508015610ab8576001600160a01b03821660008181526002602052604080822060010191909155518290610a7290610b90565b60006040518083038185875af1925050503d8060008114610aaf576040519150601f19603f3d011682016040523d82523d6000602084013e610ab4565b606091505b5050505b50508080610ac590610d0e565b9150506109e8565b600080546001600160a01b038381166001600160a01b0319831681178455604051919092169283917f8be0079c531659141344cd1fd0a4f28419497f9722a3daafe3b4186f6b6457e09190a35050565b600060208284031215610b2e578081fd5b8135610b3981610d3f565b9392505050565b600060208284031215610b51578081fd5b81518015158114610b39578182fd5b600060208284031215610b71578081fd5b5035919050565b600060208284031215610b89578081fd5b5051919050565b90565b6001600160a01b0391909116815260200190565b6001600160a01b03929092168252602082015260400190565b60208082526026908201527f4f776e61626c653a206e6577206f776e657220697320746865207a65726f206160408201526564647265737360d01b606082015260800190565b602080825260149082015273496e73756666696369656e742062616c616e636560601b604082015260600190565b6020808252818101527f4f776e61626c653a2063616c6c6572206973206e6f7420746865206f776e6572604082015260600190565b6020808252600990820152684e6f7420706179656560b81b604082015260600190565b6020808252600b908201526a4e6f74206120706179656560a81b604082015260600190565b918252602082015260400190565b60008219821115610cd257610cd2610d29565b500190565b600082610cf257634e487b7160e01b81526012600452602481fd5b500490565b600082821015610d0957610d09610d29565b500390565b6000600019821415610d2257610d22610d29565b5060010190565b634e487b7160e01b600052601160045260246000fd5b6001600160a01b03811681146109c157600080fdfea2646970667358221220f30ec3151fcdb5e8bd2de9ca9b4f0fb6c0c2b5d377f7bbe1d79b63a5317249cc64736f6c63430008000033",
  "linkReferences": {},
  "deployedLinkReferences": {}
}